:020000040800F2
:10000000FF0F0020313100087530000879300008FA
:1000100000000000000000000000000000000000E0
:100020000000000000000000000000009530000803
:100030000000000000000000973000089930000820
:100040008131000800000000813100088131000882
:1000500081310008A1300008813100088131000899
:100060000000000081310008813100088131000862
:100070008131000881310008813100080000000052
:1000800081310008000000000000000081310008FC
:100090000000000081310008813100088131000832
:1000A000000000008131000800000000C13000089D
:1000B0000000000000000000000000000000000040
:1000C00010B5064C2378002B07D1054B002B02D02E
:1000D000044800E000BF0123237010BD5804002035
:1000E0000000000000340008044B10B5002B03D0C2
:1000F0000349044800E000BF10BDC04600000000F6
:100100005C0400200034000802780B78002A03D039
:10011000013001319A42F7D0D01A70470023C25CF7
:100120000133002AFBD1581E7047000002B471460B
:1001300049084900095C49008E4402BC7047C0462A
:10014000002243088B4274D303098B425FD3030A16
:100150008B4244D3030B8B4228D3030C8B420DD329
:10016000FF22090212BA030C8B4202D312120902B7
:1001700065D0030B8B4219D300E0090AC30B8B42F5
:1001800001D3CB03C01A5241830B8B4201D38B03A3
:10019000C01A5241430B8B4201D34B03C01A524148
:1001A000030B8B4201D30B03C01A5241C30A8B428B
:1001B00001D3CB02C01A5241830A8B4201D38B0276
:1001C000C01A5241430A8B4201D34B02C01A52411A
:1001D000030A8B4201D30B02C01A5241CDD2C3098C
:1001E0008B4201D3CB01C01A524183098B4201D308
:1001F0008B01C01A524143098B4201D34B01C01AF3
:10020000524103098B4201D30B01C01A5241C3086A
:100210008B4201D3CB00C01A524183088B4201D3D9
:100220008B00C01A524143088B4201D34B00C01AC5
:100230005241411A00D20146524110467047FFE731
:1002400001B5002000F006F802BDC0460029F7D035
:1002500076E770477047C046D0400B1CD1409C46A3
:10026000203AD340184352426346934018437047A4
:1002700010B5040000F02AFDFA218900FFF760FFA5
:1002800000F05AF8012000222100404200F020F83E
:10029000002010BD1023064A10B5116800200B4342
:1002A0001360FFF7E5FF02F061FE002010BDC046BD
:1002B00000200240024A1368013313607047C046B1
:1002C00020090020014B18687047C0462009002013
:1002D00030B5FF2503242A00C3B21C40E400A2402D
:1002E00089012940D243A14000280BDA0F200340A6
:1002F000083B0A489B089B001B18D8690240114321
:10030000D96130BD064B80088000C018C0239B0017
:10031000C45822401143C150F3E7C04600ED00E04D
:1003200000E100E01F2318401E3B8340014A136098
:100330007047C04600E100E0094A431E0120934295
:100340000DD8C021074A08485360036A09061B02FA
:100350001B0A0B4303620020072390601360704761
:10036000FFFFFF0010E000E000ED00E070B5841C2E
:10037000E37F022B04D004238363033B180070BD8A
:100380000E210368056C1A688A431A6001221968F5
:10039000914319601100A940C36B5960E2770024B2
:1003A0008318426BDC771300A242E7D0904723000A
:1003B000E4E7000010210C4B30B5D8680022084259
:1003C00005D00A480232C4692243C2610A000420EF
:1003D000D968014205D00121044C0243E569294353
:1003E000E161DA6030BDC0460020024028090020EB
:1003F000064B00201A69120606D5054A5A60054ABE
:100400005A6018690006C00F7047C04600200240BD
:1004100023016745AB89EFCD8023034A0020116992
:100420000B4313617047C0460020024070B50400C2
:10043000FFF748FF01250600104B1A00D968294232
:100440000FD12021D868084200D0D9601023D0688D
:10045000184002D1D3685B0708D5FFF7ABFF012036
:1004600004E0611CEAD0002C01D1032070BDFFF72D
:1004700029FF801BA042DFD9F7E7C04600200240D9
:10048000F0B585B0029203931B4B01911A7E0400D4
:100490000220012A2ED0012218481A76FFF7C6FF43
:1004A000002824D12600012C02D0022C00D00426E2
:1004B0000024029803992201FFF7CEFE00220127B3
:1004C0000D4B0F4DDA612B69019A3B432B616300A1
:1004D0009B1880B218800948FFF7A8FF2B69BB431F
:1004E0002B61002803D1E419E3B29E42E1D8002237
:1004F000014B1A7605B0F0BD2809002050C300005A
:10050000002002400022064BDA61064B04321969D2
:100510000A431A61402219690A431A617047C046AA
:1005200028090020002002400022064BDA61064B19
:10053000023219690A431A614022586119690A4353
:100540001A6170472809002000200240F8B5214EAA
:100550000500337E0F000220012B0CD001233376DF
:100560002B681D48012B12D1FFF760FF002803D034
:10057000012000233376F8BDFFF7C4FF1648FFF7CC
:1005800055FF0421154A13698B431361F1E7FFF707
:100590004DFF0028ECD101235B423B606C680130C9
:1005A000AB686A689B029B18A342E2D92000FFF760
:1005B000BBFF0948FFF73AFF0221084A13698B4342
:1005C0001361002801D03C60D3E78023DB00E418EE
:1005D000E6E7C0462809002050C300000020024082
:1005E000F0B50B6887B0039300230191039ADA40BA
:1005F00001D107B0F0BD01229A4002920299039AFC
:100600000A40009200D18CE0019A10215268160035
:100610008E43022E0ED107251D40AD000139A940A1
:10062000DC08A4000419276A8F4301990969A940CD
:100630000F43276203245F00BC40E4430568013E8A
:100640002540AC4603251540BD4061460D4305607D
:10065000012E0FD801998668CD682640BD403543EC
:1006600085604668029915098E4301210D409D4021
:1006700035434560C56801992C408D688021BD4097
:1006800049052C43C4600A424BD00121264C032665
:10069000A5691E400D43A561A4699D080C40059401
:1006A000059C0F242149AD00B6006D18B44090217F
:1006B000AF68C905A743002488420CD01C49013407
:1006C000884208D01B490134884204D01A490334B7
:1006D000884200D1023CB44000993C430E00AC601B
:1006E000164CCD4327683E43D10301D43E002E4033
:1006F00026606768009E3E43910301D43E002E4071
:100700006660A768009E3E43D10201D43E002E40A1
:10071000A660E668009F3743920201D42E4037005E
:10072000E760013362E7C04600100240000001406C
:100730000004004800080048000C00480004014084
:1007400000690840411E8841C0B27047002A01D0AC
:10075000816170478162FCE770470000044B10B56F
:100760005A69104202D05861FFF7F6FF10BDC0462B
:1007700000040140F0B5036885B00500DB072FD405
:100780002B689B0700D581E02B681B0700D5BCE0D8
:100790002B685B0700D5DFE02B68DB061AD56A699A
:1007A000B54C0423012A00D04BE1616B02260B43B8
:1007B0006363636B1A436263FFF784FD0700636B37
:1007C000334200D136E1F821626BAB698A43DB002A
:1007D00013436363296A002900D059E1002013E024
:1007E0000C21A54C62680A40042A06D063680B40BD
:1007F000082B0BD16368DB0308D523689B03BFD5A7
:100800006B68002BBCD1012005B0F0BD6B68012BDB
:1008100013D1802322685B0213432360FFF752FD4C
:1008200080260700B60223683342A9D1FFF74AFDAC
:10083000C01B6428F7D90320E6E7002B16D12368F4
:100840008E4A80261340236023688D4AB6021340E7
:100850002360FFF737FD07002368334200D18FE79D
:10086000FFF730FDC01B6428F6D9E4E7052B05D15E
:1008700080232268DB0213432360CAE723687F4A90
:100880001340236023687E4A1340C6E70C227A4C4B
:100890006368134206D063681340082B10D1636865
:1008A000DB030DD423689B0702D5EB68012BAAD18B
:1008B000F82122682B698A43DB001343236063E736
:1008C000EA680123002A0FD022680226134323601E
:1008D000FFF7F8FC070023683342E9D1FFF7F2FC89
:1008E000C01B0228F7D9A6E7226802269A43226095
:1008F000FFF7E8FC07002368334200D144E7FFF725
:10090000E1FCC01B0228F6D995E7EA6901235A4C9D
:10091000002A10D0626A022613436362FFF7D2FCFA
:100920000700636A334200D032E7FFF7CBFCC01BFD
:100930000228F6D97FE7626A02269A436262FFF7CD
:10094000C1FC0700636A334200D121E7FFF7BAFC1C
:10095000C01B0228F6D96EE780220021464C5205C2
:10096000E3690091134208D1E3691343E361E3694A
:1009700013400393039B012300938027414E7F0084
:1009800033683B4206D0AB68012B13D1226A134374
:10099000236230E033683B433360FFF793FC019000
:1009A00033683B42EFD1FFF78DFC019BC01A6428EE
:1009B000F6D940E70122002B14D1236A0227934382
:1009C0002362236A033293432362FFF77BFC060012
:1009D000236A3B4225D0FFF775FC2B4B801B9842C6
:1009E000F6D928E7052B0BD1216A013B0B43236283
:1009F000236A1A432262FFF765FC022706000DE016
:100A0000236A934304222362236A9343C0E7FFF7D8
:100A100059FC1D4B801B984200D90CE7236A3B42CE
:100A2000F5D0009B012B00D0B6E6E369174A1340CE
:100A3000E361B1E6FFF746FCC01B022800D8BEE622
:100A4000F9E6053203D1626B9A436263BBE6626BDF
:100A50000226134301226363636B93436363FFF7CF
:100A600031FC0700636B334200D1B3E6FFF72AFC89
:100A7000C01B0228F6D9DEE600100240FFFFFEFF91
:100A8000FFFFFBFF0070004088130000FFFFFFEF37
:100A90000C22264C012063681340082B00D1B3E6DA
:100AA0002368234A1340236002292FD1FFF70AFC51
:100AB00080260700B6042368334221D10F22E36A5F
:100AC0009343EA6A1343E362696AAB6A62680B4361
:100AD000184980250A4013436360802322685B0421
:100AE00013432360FFF7EEFB0600AD0423682B429F
:100AF00000D073E6FFF7E6FB801B0228F6D99AE6E2
:100B0000FFF7E0FBC01B0228D5D994E6FFF7DAFB1C
:100B100080250600AD0423682B4200D15EE6FFF776
:100B2000D1FB801B0228F6D985E6C04600100240A2
:100B3000FFFFFFFEFFFFC2FF70B5144C88B010220C
:100B40002100684602F042FB210004AD1022103162
:100B5000280002F03BFB0C220D4E73681A40082A55
:100B600011D10F206A46990C0140545CF26A024090
:100B7000A95CDB0305D50748FFF7E2FA604308B03C
:100B800070BD0548FAE70348F9E7C0461834000885
:100B90000010024000127A0000093D00F7B5012262
:100BA000444C060023680F0013408B421DD332686B
:100BB000930724D4D3072AD4012322681A40BA42C7
:100BC00068D833683C4C5B0700D56BE0FFF7B4FF97
:100BD00063683A4A1B061B0FD35CD840384B186039
:100BE0000020FFF745FB002008E0236893430B43F8
:100BF0002360236813408B42D9D00120FEBDF02032
:100C00002D494B688343B06803434B60D2E72A4DBC
:100C100072682B68012A1AD19B03EED503216B68F9
:100C20008B4313436B60FFF74DFB73680190012BFF
:100C300015D10C226B681340042BBDD0FFF742FB8B
:100C4000019BC01A1F4B9842F3D90320D6E7022A12
:100C500002D19B01E2D4D0E79B07DFD4CDE7022B82
:100C600012D00C226B681342A6D0FFF72BFB019B1E
:100C7000C01A144B9842F4D9E7E7FFF723FB019B16
:100C8000C01A104B9842E0D80C226B681340082B16
:100C9000F3D191E722689A43226022681A4200D178
:100CA0008FE7AAE76368084A1340F268134363605A
:100CB0008CE7C046002002400010024017360008B2
:100CC0005404002088130000FFF8FFFF014B186850
:100CD0007047C04654040020044B054A5B685B051E
:100CE0005B0FD35C034A1068D84070470010024085
:100CF0002736000854040020F0B5036885B00500CD
:100D0000DB0328D580220021374C5205E36900918E
:100D1000134208D1E3691343E361E369134003938A
:100D2000039B012300938027304E7F0033683B42B2
:100D300026D0C022236A920013402D4E32D1236A5E
:100D40001E406B681E43009B2662012B03D1E369A2
:100D5000284A1340E3612A68D30706D503202249B5
:100D60000B6B8343A86803430B630020930617D5DE
:100D700010211D4A136B8B43E9680B4313630FE08B
:100D800033683B433360FFF79DFA019033683B4281
:100D9000CFD1FFF797FA019BC01A6428F6D9032038
:100DA00005B0F0BD69680A409A42C8D08023226A23
:100DB000206A11005B0203432362236A0E4831401C
:100DC000034023622162D307B9D5FFF77BFA0700FE
:100DD0000222236A1342B2D1FFF774FA074BC01BF9
:100DE0009842F5D9DBE7C046001002400070004091
:100DF000FFFCFFFFFFFFFFEFFFFFFEFF8813000078
:100E0000E021036810B55A688A435A60822241681B
:100E1000520091420CD18021826809028A4203D09B
:100E20008021C9008A4203D140211A688A431A608E
:100E30008021826A89018A4206D11968074C2140C3
:100E4000196019680A431A60030001225D331A70A1
:100E500000235C300370032010BDC046FFDFFFFF9E
:100E6000F8B505000C00160080272B6898683840FC
:100E700006D0621CFAD0002C03D12800FFF7C0FF77
:100E8000F8BDFFF71FFA801B8442EED8F5E7F0B5F6
:100E9000C02706000D00140085B00193FF0002ABCF
:100EA0003168DA1D886828400CD0BD4203D10B7B25
:100EB000DBB213701378631CF4D0002C04D1300023
:100EC000FFF79EFF05B0F0BDFFF7FCF9019BC01ACC
:100ED0008442E4D8F3E7F8B582231700426804009F
:100EE0000E005B009A420DD1802283681202934269
:100EF00003D08022D200934204D14021226813689B
:100F00008B4313603A0031002000FFF7A9FF051E54
:100F100005D02023226E03251343236616E0822387
:100F200062685B009A4211D18022A3681202934248
:100F300003D08022D200934208D1C0213B0032006E
:100F4000C9002000FFF7A3FF0028E2D12800F8BD68
:100F500070B513000D0016000A00C02149010400FD
:100F6000FFF795FF002805D02023226E03201343AE
:100F700023660FE0320029002000FFF771FF0028F0
:100F8000F2D1C02133002A00C9002000FFF77FFF03
:100F90000028E9D170BD0000F8B504000120002C44
:100FA0004ED000232500A3625D352B78DBB2002BE9
:100FB00005D122005C321370200001F0EFFF022304
:100FC000402122682B701368E0688B43E021136096
:100FD000C9000023884234D880267601884201D196
:100FE00001E01E00A362236B002B04D10233884270
:100FF00000D801232363A7686368A1693B4327697D
:101000003B4367693B43E7693B43276A3B43A76A26
:101010003B438027BF000F403B431360636A090CCA
:101020001843636B18430423194001430E43566071
:10103000D369074900200B40D361012320662B7040
:10104000F8BDF0263601B042CBD11E00CBE7C0463A
:10105000FFF7FFFFF0B51E00030087B05C3301927D
:1010600002931B7804000D000220012B72D0012393
:10107000029A1370FFF726F923005D3303931B7860
:101080000700DBB20220012B5ED11800002D5BD0DF
:10109000019B002B58D00323039AA16813700023EF
:1010A000019A2366A287E287A21D2364A563023208
:1010B0009387D38780222365E364120223689142D9
:1010C00004D180221968D2010A431A6040221968AB
:1010D000114202D119680A431A60E021E06862688F
:1010E000C900884240D9002A02D0E28F012A06D1E5
:1010F0002A880235DA60E38F013B9BB2E387E38FF6
:10110000002B15D13A0031002000FFF721FF002805
:101110005AD1A368002B06D105932368DA6805929B
:101120009B680593059B206E431E9841C0B20BE05F
:10113000022123689A680A4203D02A886D18DA606F
:10114000D9E7002E08D103200123039A137000234E
:10115000029A137007B0F0BD731CD0D0FFF7B2F83D
:10116000C01BB042CBD3EEE7002A02D0E28F012AA7
:1011700009D1E28F012A15D92A880235DA60E38F76
:10118000023B9BB2E387E38F002BBBD00221236895
:101190009A680A420ED0E28F012A03D92A886D1874
:1011A000DA60ECE72A7801351A73E38F013B9BB2D2
:1011B000E387E8E7002EC6D0731CE4D0FFF782F87F
:1011C000C01BB042DFD3BEE720232366A1E70000A7
:1011D000F7B51E00030000925C331A7804000D007E
:1011E0000220012A00D1AEE001221A70FFF76AF84E
:1011F000230001905D331B786268DBB2012B0CD0B9
:101200008221022049008A4200D095E0A16800298D
:1012100000D091E0042B00D08EE00120002D00D101
:101220008AE0009B002B00D186E0002E00D183E0F5
:1012300023005D331978042901D005211970270096
:101240000023009908372164A11D2366FE87CE87FD
:10125000E3642365E023E068A563E687A687216849
:10126000DB00984202D8FB8F012B30D94B68714EBE
:1012700033404B6040230E681E4202D10E68334358
:101280000B60E0232600DB00083698425CD9002A78
:1012900002D0E38F012B06D12B880235CB60E38F80
:1012A000013B9BB2E3870127E38F002B14D1F38F1F
:1012B000002B11D1019A08992000FFF749FE002860
:1012C00000D0B3E0206E431E9841C0B234E08023CA
:1012D0004E685B013343CCE7002F0FD0E38F002B28
:1012E0000CD0022123689A680A4207D000272A8876
:1012F0006D18DA60E38F013B9BB2E387F38F002B1D
:101300000FD0012123689A680A420AD0DB68009A4C
:101310000F001380130002330093F38F013B9BB245
:10132000F387089B0133BFD0FEF7CCFF019BC01AA7
:10133000089B8342B8D80320230001225D331A7032
:1013400000235C342370FEBD002A02D0E38F012B02
:1013500009D1E38F012B08D92B880235CB60E38FAD
:10136000023B9BB2E387012745E02B7801350B73E5
:10137000E38F013B9BB2E387F5E7002F12D0E38FA9
:10138000002B0FD0022123689A680A420AD0E28F0C
:10139000012A37D92A886D18DA60E38F023B9BB2A5
:1013A000E3870027F38F002B1AD00121226893686E
:1013B0000B4215D0F38F8B422CD9D36800990127AB
:1013C0000B800B0002330093F38F023B9BB2F38739
:1013D000F38FBB4204D8802351685B010B435360F9
:1013E000089B013307D0FEF76DFF019BC01A089BD5
:1013F000834200D89FE7E38F002BBED1F38F002BF1
:10140000BBD157E72A7801351A73E38F013B9BB2B2
:10141000E387C6E7137B009A01271370F38F013B24
:101420009BB2F387130001330093D9E7202323668F
:1014300048E7C046FFEFFFFFF0B51E00822317000C
:10144000426885B004000D005B009A420DD18368AC
:10145000002B0AD1030004225D331A7000963B0072
:101460000A00FFF7B5FE05B0F0BD23005C3303931F
:101470001B780220012BF6D00123039A1370FEF78C
:1014800021FF220002905D3213780220DBB2012B93
:1014900065D11800002D62D0002F60D00333137087
:1014A0000023A21D2366256402329787D787A36392
:1014B000A387E387E3642365E023E1682268DB0018
:1014C000994229D953683548034053608023A06866
:1014D0001B02984203D11368314803401360402334
:1014E0001068184202D1106803431360E0232700FC
:1014F000DB000837994220D9FB8F002B20D0012137
:1015000023689A680A423AD0DB682B80FB8F023549
:10151000013B9BB2FB87EFE7802350685B010343ED
:10152000D3E7012123689A680A4215D01B7B2B70F0
:10153000FB8F6D18013B9BB2FB87FB8F002BF0D11B
:10154000029A31002000FFF7C6FC002822D1206E4D
:10155000431E9841C0B202E0002E07D103200123B0
:101560005D3423700023039A13707CE7731CE4D06E
:10157000FEF7A8FE029BC01AB042DED3EEE7002EB3
:10158000ECD0731CB8D0FEF79DFE029BC01AB0428F
:10159000B2D3E3E720232366D9E7C046FFEFFFFF7E
:1015A000FFBFFFFF036806491A686A300A401A60E5
:1015B0009A682331FF318A439A6020230370704771
:1015C000DFFEFFFF704770477047406A002302004C
:1015D00010B55A321380083A1380FFF7F5FF10BD9B
:1015E00070B504000568C26983680069296803430F
:1015F000606903433848134301400B432B606B6819
:101600003649206A0B40E1680B436B60A369A96807
:101610000343334801400B430321AB60314B1B6B49
:101620000B403149C85C80231B029A422CD1082808
:1016300027D8FEF77BFD05260B261E262626210031
:10164000FFF74AFB636840005B0802E063685808E4
:10165000264BC0186168FEF773FD83B200200F228D
:10166000190091430A001B0721685B0F1343CB60ED
:1016700070BDFFF761FAE5E76368580880235B02F5
:10168000E7E701200023EAE7082823D8FEF74EFD0C
:10169000052211221A2222221D00FFF71DFB61687C
:1016A00024684B081818FEF74BFD80B2E06000205C
:1016B000DEE761680E4B4808C018FEF741FD80B2B6
:1016C000E860F4E7FFF738FAE9E7802361681B0276
:1016D0004808F1E70120CBE7F369FFFFFFCFFFFFE9
:1016E000FFF4FFFF00100240383400080024F4002B
:1016F00000127A00436A30B5DA0706D50168284C33
:101700004A682240846A22434A609A0706D50168E3
:10171000244C4A682240C46A22434A605A0706D5CC
:101720000168214C4A682240046B22434A601A0730
:1017300006D501681D4C4A682240446B22434A602A
:10174000DA0606D501681A4C8A682240846B224367
:101750008A609A0606D50168164C8A682240C46BD6
:1017600022438A605A0610D50168134D4A68046CFA
:101770002A4022434A6080225203944205D14A689B
:101780000E4C2240446C22434A601B0606D5026878
:101790000B4953680B40816C0B43536030BDC0460E
:1017A000FFFFFDFFFFFFFEFFFFFFFBFFFF7FFFFFD0
:1017B000FFEFFFFFFFDFFFFFFFFFEFFFFFFF9FFFD9
:1017C000FFFFF7FF70B5041E01D1012070BD0500B9
:1017D00069352B78DBB2002B04D10200683213701C
:1017E00001F00EFC2423012122682B7013682000D5
:1017F0008B431360FFF7F4FE0128E6D0636A002BE9
:1018000002D02000FFF776FF23680B495A680020BA
:101810000A4008215A609A688A439A60012219682E
:101820000A431A6022002023E0666A3268342B7073
:1018300013702070CAE7C046FFF7FFFF030030B502
:1018400069331B7802000220212B0FD1140052347F
:10185000238811689BB2002B09D10A687E3082432D
:101860000A604022086802430A60002030BD8020E0
:101870009568D36C400185420DD1106900280AD1CA
:1018800018880233C005C00D0885D3642388013B46
:101890009BB22380E9E7581CD0641B780B85F5E7E1
:1018A0004021026810B513688B43136003002022A7
:1018B00069331A70FFF786FE002010BD020070B574
:1018C0006A321178036822292DD1010080245C310D
:1018D0000D88998C640129408568436DA5421ED10D
:1018E0000469002C1BD119800233436501000024D8
:1018F0005A310B88013B9BB20B80A3420DD1036888
:101900000C4D19682940196099682335FF35A943A2
:10191000996020231370FFF756FE200070BD5C1CF9
:1019200044651970E2E70822996902240A439A6122
:10193000F3E7C046DFFEFFFF0F2270B5040000682A
:10194000C36901681A4008D120252B4205D02942DD
:1019500003D02000FFF7B2FF70BD8568002A60D079
:101960000122154003D190267600314259D013420E
:1019700005D0CE0503D50262E66E3243E26602224E
:10198000134206D0002D04D00262E66E9218324354
:10199000E2660422134206D0002D04D00262E66EF5
:1019A000023A3243E2661A0708D58A0601D4002DAE
:1019B00004D008220262E06E0243E266E26E002A70
:1019C000CAD02022134204D0114202D02000FFF7D7
:1019D00075FFE36E20001B0704D423689D68402335
:1019E0001D401AD0FFF7DEFD402123689A680A42A5
:1019F0000FD09A68606E8A439A60002809D0134B12
:101A00004363FEF7B3FC0028A6D0606E436B984793
:101A1000A2E72000FFF7D8FD9EE7FFF7D5FDE566BA
:101A20009AE78022134205D0114203D02000FFF72D
:101A300005FF91E74022134200D18DE7114200D10A
:101A40008AE72000FFF72CFF86E7C046CB15000889
:101A500037B50D00019000F097F8002205241C4BCB
:101A60005A70DA70FF329A701A4800F095FA00F056
:101A700055F8012805D1013CE4B2002CF4D1200036
:101A80003EBD154800F088FA012000F0FDF900285D
:101A900005D001A800F094F801A800F0A7F80220F2
:101AA00000F02EFA00242000032100F0B5F82000F9
:101AB00001342900E4B200F0C5F8082CF3D100206D
:101AC00000F08AF9002000F0A7F90120D8E7C0460D
:101AD00008000020A0860100400D030010B505207D
:101AE00000F022FA034B012299881868FEF72EFEB7
:101AF00010BDC0460000002010B5012000F014FA0F
:101B000000F03CFA0400044B012218689988FEF7A3
:101B10001DFE200010BDC0460000002010B526208C
:101B200000F002FA00F02AFA0400044B01221868BF
:101B30009988FEF70BFE200010BDC0460000002073
:101B400010B5292000F0F0F900F018FA0400044B59
:101B5000012218689988FEF7F9FD200010BDC046E3
:101B60000000002010B52C2000F0DEF900F006FA8D
:101B70000400044B012218689988FEF7E7FD200055
:101B800010BDC0460000002010B5272000F0CCF9A1
:101B9000094B012299881868FEF7D8FDCA24074826
:101BA00000F0FAF9FFF7DEFF102804D1013CE4B29F
:101BB000002CF4D1EA3010BD0000002010270000F6
:101BC00070B50400222000F0AFF9251D2078013403
:101BD00000F0C8F9AC42F9D1034B0122998818688A
:101BE000FEF7B4FD70BDC0460000002070B50400D3
:101BF000232000F099F9251D2078013400F0B2F976
:101C0000AC42F9D1034B012299881868FEF79EFD7A
:101C100070BDC0460000002070B505000C003420E7
:101C200000F082F9280000F09DF9200000F09AF9F8
:101C3000034B012299881868FEF788FD70BDC046E5
:101C40000000002070B505000C00332000F06CF996
:101C5000280000F087F9E0B200F084F9200A00F0D3
:101C600081F9034B012299881868FEF76FFD70BD5A
:101C700000000020F8B5012607000C001500864082
:101C8000154BDA7816421BD0DA783920B243DA7075
:101C900000F04AF9380000F065F9E8B200F062F9A6
:101CA000280A00F05FF9022000F076F96519A542D4
:101CB0000CD10A4B012299881868FEF747FDF8BD40
:101CC000074800F069F9FFF717FFD9E7207800F01F
:101CD00049F90134EBE7C04608000020000000206D
:101CE0001027000070B505000C00392000F01CF929
:101CF000280000F037F9E0B200F034F9200A00F0D3
:101D000031F9022000F048F970BD70B504004518A3
:101D1000AC4200D170BD207800F024F90134F7E71F
:101D200010B5034B012299881868FEF70FFD10BD0E
:101D30000000002010B504003B2000F0F5F8200062
:101D400000F010F900F01AF984B200F017F9054B11
:101D500000022418A4B2186899880122FEF7F6FC44
:101D6000200010BD0000002010B504002E2000F05F
:101D7000DBF8200000F0F6F8034B01229988186880
:101D8000FEF7E4FC10BDC0460000002070B5060060
:101D90000C001500002917D03C2000F0C5F83000D9
:101DA00000F0E0F8E0B200F0DDF8200A00F0DAF828
:101DB000012000F0F1F82C19A54206D1054B0122B3
:101DC00099881868FEF7C2FC70BD00F0D7F828703B
:101DD0000135F1E70000002010B50400352000F0C7
:101DE000A3F8200000F0BEF8094B0122998818687A
:101DF000FEF7ACFCCA24074800F0CEF8FFF7B2FEAD
:101E0000102804D1013CE4B2002CF4D1EA3010BD1A
:101E1000000000208813000010B50400362000F0F8
:101E200083F8200000F09EF8094B01229988186879
:101E3000FEF78CFCCA24074800F0AEF8FFF792FECC
:101E4000102804D1013CE4B2002CF4D1EA3010BDDA
:101E5000000000208813000010B50400302000F0BE
:101E600063F8200000F07EF8022000F095F800F002
:101E700085F80400034B012218689988FEF766FC78
:101E8000200010BD0000002010B50400412000F02B
:101E90004BF8200000F066F8094B01229988186879
:101EA000FEF754FCCA24074800F076F8FFF75AFE04
:101EB000102804D1013CE4B2002CF4D1EA3010BD6A
:101EC00000000020204E000070B505000C00ED2041
:101ED00000F02AF8280000F045F8200000F042F851
:101EE00070BD10B50400EC2000F01EF8200000F0DA
:101EF00039F8FA20800000F04FF800F03FF810BDEC
:101F000010B50400552000F00FF8E0B200F02AF8F8
:101F1000A0B2000A00F026F8200CC0B200F022F8AF
:101F2000200E00F01FF810BD37B56B460B4CD87172
:101F3000A18820680122DD1DFEF708FCA188206829
:101F40000022FEF703FC2900642301220448FFF766
:101F500081F8022000F020F837BDC04600000020C4
:101F6000D80A002007B56B46D91D087064230122EA
:101F70000148FFF76FF807BDD80A002013B56B467C
:101F8000DC1D0122642321000248FFF755FA207866
:101F900016BDC046D80A00200022074BC00058607A
:101FA00006499A6001321A601A680A40012AFBD079
:101FB00000221A609A60704710E000E00100010002
:101FC000054B994201D9002070470B6843600133EB
:101FD000F9D001600120F7E7FE7F0008F0B5C0C925
:101FE000050085B0039202960436029B326803987E
:101FF0009C18230008331900013F0193FEF784F871
:1020000000280BD16268029B944622686344280032
:1020100001996B602960AA6005B0F0BD002FE3DC78
:10202000002213000192F2E7F7B504680F002600C2
:10203000002543680193019BAB4201D10020FEBD06
:1020400004342168380008318919FEF75DF800284A
:1020500001D00135EFE70120F1E770B5002314004E
:102060000122056886B00E00039304950592029341
:1020700072B6FEF7BDF902A903A8FEF767FA002CB5
:1020800004D1FEF7C9F962B606B070BD002301AAFB
:1020900001933178013CD154A4B20136032B02D014
:1020A0000133002CF5D12900019A00230220FEF70C
:1020B000E7F90435E3E7002310B50068934200D147
:1020C00010BDC45CCC540133F8E7000010B5040027
:1020D0000349053001F08BF8200000F0B7FB10BD7C
:1020E0004D34000870B51349040000F03DFA124960
:1020F0000500200000F038FA0600002D16D0002858
:1021000014D0280000F051FA0500300000F04DFA1C
:102110000100062D0AD8062808D8280000F0C4FEC1
:10212000C821064A200000F019FB70BD9621044A20
:102130004900F7E7753400087A340008E6340008EF
:102140007F34000810B5024AC82100F007FB10BD1B
:102150006C34000810B5024AC82100F0FFFA10BD27
:102160005834000870B5060000F0E6FE0E4C05007D
:102170000E49200001F057F80F232B4030332D0972
:10218000A3703035E01C0A4901F04DF8A571E01D3F
:10219000084901F048F80023300063722200C8218A
:1021A00000F0DCFA70BDC046740400203C34000826
:1021B00042340008E8340008F8B50500114800244E
:1021C00006000F27104900F057FC23003900313377
:1021D00003703D23614343700C4B02300133C91837
:1021E0000F2200F051FC631C052C05D026221C0098
:1021F00002700130062BE5D132002800C82100F022
:10220000ADFAF8BD7E04002049340008D109002051
:10221000F7B5184B002400936B461C71030045333F
:102220001B7805000F27A34206D19621124A4900C8
:10223000280000F093FAF7BD6B46661CD91CB0B2BB
:1022400000F0C3F96946280000F08EF9011E06D09F
:102250007C430A4B0F220133E01801F013F83400DD
:10226000062EE9D15B2205490548FFF7F6FE054A2F
:10227000C821DDE7616E740060340008D1090020D8
:102280000C0400206934000802000023453203706A
:10229000137043320371C370103A137413701381B7
:1022A000014BC3677047C04648090020F7B50600D8
:1022B000FDF734FF214C070003283CD9431FF318D6
:1022C0001F4918000193FDF71FFF1E4C002832D054
:1022D0003D1F75191C492800FDF716FF00282AD05C
:1022E0001A492800FDF710FF194C002823D0F81ECA
:1022F00030181849FDF708FF174C00281BD0174964
:102300002800FDF701FF164C002814D015492800BD
:10231000FDF7FAFE144C00280DD014490198FDF782
:10232000F3FE002807D012492800FDF7EDFE034C0C
:10233000002800D10F4C2000FEBDC04689350008A2
:10234000523400085D350008BE340008C33400086C
:102350004A350008C834000872350008CC3400083B
:1023600094350008D134000867350008D6340008D9
:10237000DC34000853350008F8B5060008000C00EE
:10238000FDF7CCFE35680700002D0BD0210028009A
:1023900000F0ABFF041E04D03A00002100F01FFF44
:1023A000E41934602800F8BDF0B50400007885B069
:1023B000042800D9C1E0FDF7B9FE0363C0747A00B8
:1023C000019101A85E49FFF7D7FF061E2FD080229A
:1023D0005C49D20000F06AFF002828D05A4D300036
:1023E00002AA290000F0C7FF061E20D05749FDF7BA
:1023F0008BFE00281FD100232900E37002AA0020D1
:1024000000F0B9FF011E12D0661D4022300000F01E
:1024100039FF3F21300000F0F8FEE378002B12D0A6
:1024200002AA2900002000F0A6FF002825D10020E4
:10243000207088343DE046493000FDF765FE0028F5
:10244000D9D10123D8E70028EAD003704378002BC4
:10245000E6D0404E0130310003AA00F08CFF002886
:10246000DED0220045321378591C12339B001170C4
:10247000185103AA31000020EFE7237801332370BD
:102480002F4F390001A8FFF777FF002806D0324E02
:1024900002AA310000F06FFF051E0DD12378013331
:1024A0002370E378012B2FD0237801332370012090
:1024B0008834207005B0F0BD0378002BEED027499A
:1024C000FDF722FE00280DD102AA310000F053FFD3
:1024D0000028ACD0224900F008FF0028D1D0012309
:1024E0002371CEE71F492800FDF70EFE0028C8D152
:1024F000310002AA00F03FFF011E98D020002022E8
:10250000583000F0BFFEBCE70D4901A8FFF734FFCB
:102510000028C9D00F4D03AA290000F02CFF002885
:10252000C2D0220045321378591C12339B0011701F
:10253000185103AA29000020EFE70120BAE7C0469E
:10254000BB350008D33500089E350008B2350008B9
:10255000B6350008D935000847350008A035000811
:10256000DB350008AB3500080300F0B545331C78B7
:102570000022231E15D11800F0BD0E009300C318D1
:102580009B6C1D783778002D0AD0002F03D13D2D8C
:1025900006D10133EFE7AF4202D101360133F0E754
:1025A00001329442E9DC0023E5E730B50100C41CA8
:1025B0000A2500200B78002B06D068431B18303BFF
:1025C0000131D8B28C42F5D130BDF8B507000C000E
:1025D0000026A519002F07D173082F70E318013DBD
:1025E0009C420FD13000F8BD38000A21FDF72EFEC5
:1025F0003031297038000A21FDF7A2FD0136F6B20C
:1026000087B2E6E72278297821702A700134E6E75C
:1026100082B0F0B58BB01193129B0400C56F10000F
:102620001600019110920093FDF778FD03383018E1
:102630003F49FDF769FD071E00D06EE0310002A89A
:1026400000F0F1FD02A8FDF769FD02ABC0180338E8
:1026500007701800FFF72AFE0600013700233549EE
:102660002B70280000F0C3FD20232B726B46093528
:1026700098882900FFF7A9FF2D182F49280000F09E
:10268000B6FD681D2D4900F0B2FD280023791130F8
:10269000012B48D12A4900F0AAFD1D35002F04D096
:1026A0002800284900F0A3FD1835274928000E35D9
:1026B00000F09DFD3100280000F099FD3000FDF78D
:1026C0002DFD2D182149280000F091FDA81C20495E
:1026D00000F08DFD6B461E88123529003000FFF793
:1026E00074FF1C4F2D183900280000F080FD3900C0
:1026F000A81C00F07CFDE06FFDF710FD2300119A8F
:102700007A33DE80188006335A60012378342370D0
:102710000BB0F0BC08BC02B018473000FFF7C6FD94
:10272000002706009AE70C4900F061FD1935B5E76E
:10273000E1340008BE350008E5340008EB34000839
:10274000F83400080E35000827350008E834000882
:1027500036350008BB35000805350008F8B50023FC
:10276000C46F050023700F0020002F49160000F0F1
:102770003EFD2023237209342100B8B2FFF725FF64
:1027800024182A49200000F032FD601D284900F07D
:102790002EFD20002B791130012B3FD1254900F06F
:1027A00026FD1D34681DFFF781FD0700224920002A
:1027B0000E3400F01CFD3900200000F018FD380038
:1027C000FDF7ACFC24181D49200000F010FD1C4949
:1027D000A01C00F00CFD3000FDF7A0FC123421001D
:1027E00080B2FFF7F2FE174F24183900200000F0E6
:1027F000FEFC3900A01C00F0FAFCE86FFDF78EFC2F
:102800002B007A3318803000FDF788FC2B008033D2
:102810005E601880012378352B70F8BD0A4900F0FE
:10282000E6FC1934BEE7C046BE350008E5340008B2
:10283000EB340008F834000827350008E8340008B5
:1028400036350008BB3500080535000870B52C4C3E
:10285000451D9CB0060029002000FFF7E5FB00287D
:1028600017D02A00210008A8FFF7B8FB089B002B0F
:1028700030D02A0021000BA8FFF7B0FB0D9B0B9A6C
:10288000039300930C9BC8213000FFF7C1FE1CB0DE
:1028900070BD29000BA800F0C6FC1A490BA800F077
:1028A000A6FC0BA92000FFF7BFFB002812D00BAA43
:1028B000210005A8FFF792FB059B002B0AD00BAA6D
:1028C000210008A8FFF78AFB0A9B089A039300934C
:1028D000099BD8E70C4C0D49200000F0A4FC4022D5
:1028E0002900200000F0A7FC0949200000F07FFC2F
:1028F000CA21220049003000FFF730FFC7E7C04679
:10290000C8090020E1340008CC080020C7350008C1
:10291000BB350008F0B585B0019083780293002B99
:102920006DD0C378029A1341DB0768D58C245443D9
:102930004F4B8C3CE418230088331B78002B5ED06F
:1029400000264027631D03934A4BF500ED183A001B
:102950002968039800F085FC002846D16B682000A8
:102960009847230078331B78012B4ED1270026008F
:10297000AF237A3739888036DB005B1A328898B209
:10298000151C824200D91D1CADB2491989B20298AA
:10299000FFF7A8F939882700E06F0837FFF7B5F986
:1029A0002900F86FFFF7B1F9FFF7BAF93388FA6F2A
:1029B0005B1B9BB255193380FD67002B21D1200092
:1029C000FFF762FC01238C2118000A005A43284CAF
:1029D000043AA25C002A0FD0019A12781A410242EE
:1029E0000AD0019A5BB2937009E00136072EABD191
:1029F0002000FFF72BFFB4E70133082BE5D105B02A
:102A0000F0BD022378342370F9E7022BF7D12700B9
:102A1000AF2380373A88DB00151C9A4200D91D1C71
:102A20002600ADB208362A00F16F0298FFF722F9AE
:102A30003B88F26F5B1B9BB255193B80F567002BFF
:102A4000DDD12000FFF720FC01238C2118000A00B3
:102A50005A43074C043AA25C002A04D0019A127827
:102A60001A410242BDD10133082BF0D1C7E7C0465D
:102A7000F8040020140400200B780370002B00D110
:102A8000704701310130F7E70B78002B01D0002AA5
:102A900002D1002303707047013A03700131013005
:102AA00092B2F1E730B5102495B02C22002109A88C
:102AB00000F095FB22000021684600F090FB220008
:102AC000002104A800F08BFB0125022308A808932D
:102AD0000B950C94FDF74EFE0021072368460093EA
:102AE000019102910391FEF759F8032304A804957C
:102AF0000693FEF701F915B030BD0000864BF0B526
:102B00001800864A89B012CA12C00100844A854F53
:102B100011CA11C1844A022611CA11C100241A0027
:102B200082491C761C3221C921C21A0080492432F4
:102B300021C921C27F4A2C3303CA03C3FDF7AAFB74
:102B4000FFF7B0FF1422210003A800F048FB80200B
:102B5000794BC00359690125014359615A69024003
:102B600080200092009A59698002014359618021B6
:102B70005A69C90202400192019A5A696F480A4390
:102B80005A615B6922000B4002930321029BFDF70F
:102B9000DDFD902022003900C005FDF7D7FD902013
:102BA00001221021C005FDF7D1FD032303A96348CD
:102BB0000393049505960694FDF712FD902003A952
:102BC000C0050495059603970694FDF709FD90202E
:102BD000102303A9C0050393049505950694FDF7FA
:102BE000FFFC574B03A95748039604930595FDF73F
:102BF000F7FC5548554B0661036082235B00436038
:102C0000E023DB00C36080239B008361FA3BFF3B32
:102C10004561C3628460C461046244628462046387
:102C20004463FEF7B9F94A484A4B8460036096232F
:102C30009B0143600C23C460436104618461C461EF
:102C400004624462FEF7BEFD220021000520FDF76C
:102C50003FFB0520FDF766FB3F4D404E5B22290000
:102C60003000FFF728FA2B78AA2B10D05A22210027
:102C70003B4800F0B4FAAA235B22290030002B70F5
:102C8000FFF7EBF95B2229003000FFF714FA354C0F
:102C900035492000FFF794F9344A210003A8FFF7D3
:102CA0009DF93348FFF778F9FEF718FF3148FFF731
:102CB00073F900218020FFF707F900218420FFF736
:102CC00003F9FF218520FFF7FFF82B4A2B4B1078E3
:102CD000198853781B020343907800040343D0788B
:102CE00000061843FEF7B4FE0023254C254D264E62
:102CF00020702B70337025482B78002BD1D133787E
:102D0000002BCED12378002BF6D04378002BF3D0C4
:102D1000FFF700FEEFE7C046300A0020E03500086C
:102D2000E835000803060000F0350008F835000813
:102D30000036000808360008001002400014004861
:102D40000000211000040048D80A00200030014093
:102D5000680A002000380140D10900200C0400203E
:102D6000D2090020C80900200044000810360008DD
:102D7000E0930400400D03004C04002050040020A8
:102D80001C0900202C0A0020D00900200800002087
:102D9000F0B587B0FEF7D4FE430702D501223D4BC4
:102DA0001A700009C3B20193002B71D001242600D0
:102DB000E3B20293019B5B080193334265D0029812
:102DC000FFF74AF80390304206D03300A340324A5E
:102DD000D1780B43DBB2D3700422039B134236D06D
:102DE0008C23634304932D4B049A8C3B9B180298CD
:102DF0000593FEF79FFF2A4B051C984200D91D1C26
:102E0000ADB22900274A0298FEF7C0FF0023224FE7
:102E100005987D192B71FFF737FA049B1F4AE1B221
:102E2000033BD15405981F49FFF7BEFA00280BD089
:102E30003300A3407A781343DBB27B70BB785BB27C
:102E4000002B01DA63B2BB700298FEF78DFF039B83
:102E50001B0706D53300A3400F4A11780B43DBB2A2
:102E60001370039BDB0610D53200A240D2430A4BFD
:102E700052B219781140197059780A405A709A78EC
:102E800052B2944201D1FF229A700134082C8FD1A2
:102E900007B0F0BD2C0A002008000020F804002034
:102EA000FF0300000C000020F0B5224C85B0230089
:102EB0003433050020761970884201D1002837D1BB
:102EC00001272A00A389A668029323693A40009348
:102ED000A38AA18820680193FDF738FC3000022600
:102EE0006A083A400299FDF731FCAA08324001997C
:102EF0000098FDF72BFC636A218C0093238DE06919
:102F00000193E36A0293238E0393230034331D78E5
:102F10002A003A40FDF71AFC6A083A4001990098E5
:102F2000FDF714FCAA08324003990298FDF70EFC45
:102F300005B0F0BD300A002010B58120FEF7D1FFAA
:102F40000421430782000A40DB0F134302220240A0
:102F500013431022024013431C3142080A4013431A
:102F6000402240001040184310BD000001200A4BD1
:102F700082B099690143996180219A6949050240AB
:102F80000092009ADA690A43DA61DB690B40019327
:102F9000019B02B07047C0460010024010B504000B
:102FA00088B01422002103A800F019F9124B2268FE
:102FB0009A421FD18020114B4001996901439961C8
:102FC00080219A69890202400192019A5A699020EF
:102FD0000A435A615B69C0050B400293029BE023E0
:102FE0000393DE3B0493013B059303A9023306934D
:102FF000FDF7F6FA08B010BD0030014000100240A5
:1030000010B5040088B01422002103A800F0E7F8EE
:10301000164B22689A4227D18020154BC00199692E
:103020000143996180219A69890202400192019AC3
:103030005A6990200A435A615B69C0050B400293AC
:10304000029B0C2303930A3B04930133069303A9C9
:10305000023B0793FDF7C4FA00221B201100FDF785
:1030600037F91B20FDF75EF908B010BD00380140AC
:103070000010024070470000BFF34F8F034B044A1B
:10308000DA60BFF34F8FC046FDE7C04600ED00E0B9
:103090000400FA057047704710B5FDF70BF910BD35
:1030A00010B502210548FDF74BFB002803D0022094
:1030B000FDF754FB10BDFFF76BFEF2E7000400487C
:1030C00010B50248FEF738FC10BDC046680A002063
:1030D0000121114B11481A680A431A605A680240CC
:1030E0005A601A680E4802401A601A680D48024079
:1030F0001A605A680C4802400F205A60DA6A82430C
:10310000DA621A6B094802401A635A6B8A435A639F
:1031100000229A607047C046001002400CB8FF08B9
:10312000FFFFF6FEFFFFFBFFFFFFC0FFECFEFFFF10
:103130000D4885460D480E490E4A002302E0D4583A
:10314000C4500433C4188C42F9D30B4A0B4C0023EF
:1031500001E013600432A242FBD3FFF7B9FF00F095
:1031600011F8FFF7CBFCFEE7FF0F00200000002066
:103170005804002038360008580400203C0B00207A
:10318000FEE7000070B500260C4D0D4C641BA4102A
:10319000A64209D1002600F033F90A4D0A4C641BFF
:1031A000A410A64205D170BDB300EB589847013674
:1031B000EEE7B300EB5898470136F2E730360008E7
:1031C000303600083036000834360008002310B5C9
:1031D0009A4200D110BDCC5CC4540133F8E703001F
:1031E0001218934200D1704719700133F9E70200B9
:1031F00010B51378541C002B05D1CC5CD45401338A
:10320000002CFAD110BD2200F3E7C9B20378002BDD
:1032100004D08B4200D170470130F7E74B4259414F
:1032200049420840F7E703000A7801311A70013378
:10323000002AF9D17047F0B504002378002B08D19B
:103240001F00561E934203D0CD5CE554002D02D1E1
:10325000F0BD0134F1E79E4201D1A5196F70013331
:10326000F0E7002330B59A420AD0013AC45CCD5C45
:10327000AC4204D1934202D00133002CF6D1631B3F
:10328000180030BD30B50500002A00D130BD0C78E3
:10329000013A6B1C2C700131002C05D19A189A420E
:1032A000F4D01C700133FAE71D00EDE770B50E0095
:1032B000050011003000140000F087F8030084427C
:1032C00002D8325C002A0DD121003200280000F023
:1032D00062F8041E06D0421B0021280000F050F8BE
:1032E000002800D00024200070BD10B50378002B0A
:1032F0000FD10B785A4253415B42184010BD002356
:10330000CA5C002AFAD0C45C944201D10133F7E7C9
:1033100001300378002BF2D11800EFE7F0B5002858
:1033200004D11068002801D1F0BD20000E000578FE
:10333000441C3778002F04D1002D10D115602800CF
:10334000F2E70136BD42F4D1002BEED114600370D8
:10335000EAE733000DE00135002F03D11C000D001A
:103360002678631C2F78BE42F5D1002EF1D00021C3
:1033700021701360D8E710B50123FFF7CFFF10BD10
:10338000C9B28218904201D10020704703788B4265
:10339000FBD00130F6E7F7B50700009101921E005F
:1033A00004000D00002B09D12000FEBD3200019960
:1033B000200000F015F80028F6D0013D009BFC1815
:1033C000641BB542F2D20024EEE7030041188B42A1
:1033D00002D01A78002A01D1181A70470133F6E793
:1033E00030B50024A24201D1002005E0035D651C38
:1033F0000C5DA34201D0181B30BD2C00F2E7000089
:10340000F8B5C046F8BC08BC9E467047F8B5C04643
:08341000F8BC08BC9E467047A1
:1034180002030405060708090A0B0C0D0E0F10100D
:103428000102030405060708090A0B0C0D0E0F100C
:103438000004080273656C313D002673656C323DEB
:1034480000616E7400696E6465782E68746D6C0036
:1034580052657365740D0A00426164206172677376
:10346800004F4B005374617475730D0A0073656CDB
:10347800310073656C3200496E76616C69640D0ABF
:10348800002F737769746368002F676574616C6CCB
:103498006F63002F737461747573002F72657365A1
:1034A80074002F7365746C6162656C002F676574B6
:1034B8006C6162656C002E68746D002E6373730016
:1034C8002E6A73002E706E67002E6A7067002E6A6F
:1034D800706567002E676966002E677A00204F4B7B
:1034E8000D0A00436F6E6E656374696F6E3A200053
:1034F8004B6565702D416C6976650D0A00436C6FEC
:103508007365640D0A00436F6E74656E742D456EA5
:10351800636F64696E673A20677A69700D0A0043C1
:103528006F6E74656E742D547970653A2000436F20
:103538006E74656E742D4C656E6774683A20003A37
:103548002000746578742F63737300696D61676513
:103558002F67696600746578742F68746D6C0069EC
:103568006D6167652F6A706567006170706C69636B
:103578006174696F6E2F6A617661736372697074C2
:1035880000746578742F706C61696E00696D61678D
:10359800652F706E67002000436F6E6E65637469F7
:1035A8006F6E00436F6F6B69650047455400504F5D
:1035B8005354000D0A00485454502F312E31004EF8
:1035C8006F7420466F756E643A2000485454502F2B
:1035D8000026004B656570000014004801000000DB
:1035E800000000480004000000000048000200003D
:1035F8000000004802000000000000480100000030
:1036080000140048020000002F612E747874000036
:10361800000000000000000102030406070809007A
:08362800000000010203040090
:04363000E9000008A5
:04363400C1000008C9
:103638000000004810000000000000FF000000002B
:103648000000000000000000000000000000000072
:103658000000000000000000000000000000000062
:103668000000000000000000000000000000000052
:103678000000000000000000000000000000000042
:103A38000000000000000000000000000040000836
:103A480000040000D7350008CD200008893400089C
:103A5800E520000891340008652100089B3400081F
:103A680045210008A334000855210008AA3400089D
:103A780011220008B4340008B9210008C0A80401C4
:083A88005000000000127A005A
:04000005080031318D
:00000001FF
