:020000040800F2
:10000000FF0F0020852A0008F5290008F7290008BD
:1000100000000000000000000000000000000000E0
:10002000000000000000000000000000F9290008A6
:100030000000000000000000FB290008FD29000866
:10004000D52A000800000000D52A0008D52A00089B
:10005000D52A0008052A0008D52A0008D52A000854
:1000600000000000D52A0008D52A0008D52A00087B
:10007000D52A0008D52A0008D52A0008000000006B
:10008000D52A00080000000000000000D52A000862
:1000900000000000D52A0008D52A0008D52A00084B
:1000A00000000000D52A000800000000D52A000842
:1000B0000000000000000000000000000000000040
:1000C00010B5064C2378002B07D1054B002B02D02E
:1000D000044800E000BF0123237010BD400400204D
:1000E00000000000542D0008044B10B5002B03D075
:1000F0000349044800E000BF10BDC04600000000F6
:1001000044040020542D000802780B78002A03D004
:10011000013001319A42F7D0D01A70470023C25CF7
:100120000133002AFBD1581E7047000002B471460B
:1001300049084900095C49008E4402BC7047C0462A
:10014000002243088B4274D303098B425FD3030A16
:100150008B4244D3030B8B4228D3030C8B420DD329
:10016000FF22090212BA030C8B4202D312120902B7
:1001700065D0030B8B4219D300E0090AC30B8B42F5
:1001800001D3CB03C01A5241830B8B4201D38B03A3
:10019000C01A5241430B8B4201D34B03C01A524148
:1001A000030B8B4201D30B03C01A5241C30A8B428B
:1001B00001D3CB02C01A5241830A8B4201D38B0276
:1001C000C01A5241430A8B4201D34B02C01A52411A
:1001D000030A8B4201D30B02C01A5241CDD2C3098C
:1001E0008B4201D3CB01C01A524183098B4201D308
:1001F0008B01C01A524143098B4201D34B01C01AF3
:10020000524103098B4201D30B01C01A5241C3086A
:100210008B4201D3CB00C01A524183088B4201D3D9
:100220008B00C01A524143088B4201D34B00C01AC5
:100230005241411A00D20146524110467047FFE731
:1002400001B5002000F006F802BDC0460029F7D035
:1002500076E770477047C04610B5040000F0F0FB29
:10026000FA218900FFF76CFF00F05AF80120002204
:100270002100404200F020F8002010BD1023064A63
:1002800010B5116800200B431360FFF7E5FF02F083
:1002900035FB002010BDC04600200240024A136812
:1002A000013313607047C04634080020014B1868C2
:1002B0007047C0463408002030B5FF2503242A00CB
:1002C000C3B21C40E400A24089012940D243A140AE
:1002D00000280BDA0F200340083B0A489B089B00CC
:1002E0001B18D86902401143D96130BD064B800804
:1002F0008000C018C0239B00C45822401143C15045
:10030000F3E7C04600ED00E000E100E01F231840E5
:100310001E3B8340014A13607047C04600E100E085
:10032000094A431E012093420DD8C021074A0848BC
:100330005360036A09061B021B0A0B430362002079
:100340000723906013607047FFFFFF0010E000E09C
:1003500000ED00E0F0B50B6887B003930023019136
:10036000039ADA4001D107B0F0BD01229A4002920F
:100370000299039A0A40009200D18CE0019A102160
:10038000526816008E43022E0ED107251D40AD0087
:100390000139A940DC08A4000419276A8F43019998
:1003A0000969A9400F43276203245F00BC40E4436E
:1003B0000568013E2540AC4603251540BD40614619
:1003C0000D430560012E0FD801998668CD6826403F
:1003D000BD40354385604668029915098E43012169
:1003E0000D409D4035434560C56801992C408D689E
:1003F0008021BD4049052C43C4600A424BD00121F5
:10040000264C0326A5691E400D43A561A4699D08DD
:100410000C400594059C0F242149AD00B6006D18D1
:10042000B4409021AF68C905A743002488420CD08E
:100430001C490134884208D01B490134884204D049
:100440001A490334884200D1023CB44000993C432D
:100450000E00AC60164CCD4327683E43D10301D457
:100460003E002E4026606768009E3E43910301D403
:100470003E002E406660A768009E3E43D10201D434
:100480003E002E40A660E668009F3743920201D4EA
:100490002E403700E760013362E7C046001002409B
:1004A000000001400004004800080048000C00481B
:1004B0000004014000690840411E8841C0B27047F5
:1004C000002A01D0816170478162FCE7704700001B
:1004D000044B10B55A69104202D05861FFF7F6FF7D
:1004E00010BDC04600040140F0B5036885B00500AA
:1004F000DB072FD42B689B0700D581E02B681B07F7
:1005000000D5BCE02B685B0700D5DFE02B68DB067D
:100510001AD56A69B54C0423012A00D04BE1616BFE
:1005200002260B436363636B1A436263FFF7BEFEED
:100530000700636B334200D136E1F821626BAB698F
:100540008A43DB0013436363296A002900D059E121
:10055000002013E00C21A54C62680A40042A06D052
:1005600063680B40082B0BD16368DB0308D5236855
:100570009B03BFD56B68002BBCD1012005B0F0BD3B
:100580006B68012B13D1802322685B021343236025
:10059000FFF78CFE80260700B60223683342A9D1FC
:1005A000FFF784FEC01B6428F7D90320E6E7002B81
:1005B00016D123688E4A80261340236023688D4A13
:1005C000B60213402360FFF771FE07002368334231
:1005D00000D18FE7FFF76AFEC01B6428F6D9E4E775
:1005E000052B05D180232268DB0213432360CAE771
:1005F00023687F4A1340236023687E4A1340C6E77E
:100600000C227A4C6368134206D063681340082BAF
:1006100010D16368DB030DD423689B0702D5EB6818
:10062000012BAAD1F82122682B698A43DB001343EE
:10063000236063E7EA680123002A0FD022680226BC
:1006400013432360FFF732FE070023683342E9D1EA
:10065000FFF72CFEC01B0228F7D9A6E72268022666
:100660009A432260FFF722FE07002368334200D13D
:1006700044E7FFF71BFEC01B0228F6D995E7EA699D
:1006800001235A4C002A10D0626A02261343636287
:10069000FFF70CFE0700636A334200D032E7FFF732
:1006A00005FEC01B0228F6D97FE7626A02269A433C
:1006B0006262FFF7FBFD0700636A334200D121E766
:1006C000FFF7F4FDC01B0228F6D96EE78022002157
:1006D000464C5205E3690091134208D1E369134384
:1006E000E361E36913400393039B01230093802795
:1006F000414E7F0033683B4206D0AB68012B13D1DB
:10070000226A1343236230E033683B433360FFF7D0
:10071000CDFD019033683B42EFD1FFF7C7FD019B50
:10072000C01A6428F6D940E70122002B14D1236AAD
:10073000022793432362236A033293432362FFF722
:10074000B5FD0600236A3B4225D0FFF7AFFD2B4BDA
:10075000801B9842F6D928E7052B0BD1216A013B73
:100760000B432362236A1A432262FFF79FFD02278D
:1007700006000DE0236A934304222362236A934315
:10078000C0E7FFF793FD1D4B801B984200D90CE793
:10079000236A3B42F5D0009B012B00D0B6E6E3690B
:1007A000174A1340E361B1E6FFF780FDC01B022842
:1007B00000D8BEE6F9E6053203D1626B9A43626364
:1007C000BBE6626B0226134301226363636B9343B0
:1007D0006363FFF76BFD0700636B334200D1B3E641
:1007E000FFF764FDC01B0228F6D9DEE600100240C8
:1007F000FFFFFEFFFFFFFBFF0070004088130000BB
:10080000FFFFFFEF0C22264C012063681340082BEA
:1008100000D1B3E62368234A1340236002292FD175
:10082000FFF744FD80260700B6042368334221D138
:100830000F22E36A9343EA6A1343E362696AAB6A8D
:1008400062680B43184980250A4013436360802384
:1008500022685B0413432360FFF728FD0600AD0404
:1008600023682B4200D073E6FFF720FD801B02288F
:10087000F6D99AE6FFF71AFDC01B0228D5D994E6EF
:10088000FFF714FD80250600AD0423682B4200D13C
:100890005EE6FFF70BFD801B0228F6D985E6C04611
:1008A00000100240FFFFFFFEFFFFC2FF70B5144CB7
:1008B00088B010222100684602F032F9210004AD10
:1008C00010221031280002F02BF90C220D4E736813
:1008D0001A40082A11D10F206A46990C0140545C35
:1008E000F26A0240A95CDB0305D50748FFF728FC44
:1008F000604308B070BD0548FAE70348F9E7C04611
:100900006C2D00080010024000127A0000093D0022
:10091000F7B50122444C060023680F0013408B42B8
:100920001DD33268930724D4D3072AD40123226825
:100930001A40BA4268D833683C4C5B0700D56BE07C
:10094000FFF7B4FF63683A4A1B061B0FD35CD8401D
:10095000384B18600020FFF77FFC002008E0236878
:1009600093430B432360236813408B42D9D001206B
:10097000FEBDF0202D494B688343B06803434B60B4
:10098000D2E72A4D72682B68012A1AD19B03EED553
:1009900003216B688B4313436B60FFF787FC73681D
:1009A0000190012B15D10C226B681340042BBDD094
:1009B000FFF77CFC019BC01A1F4B9842F3D9032020
:1009C000D6E7022A02D19B01E2D4D0E79B07DFD40D
:1009D000CDE7022B12D00C226B681342A6D0FFF792
:1009E00065FC019BC01A144B9842F4D9E7E7FFF766
:1009F0005DFC019BC01A104B9842E0D80C226B683A
:100A00001340082BF3D191E722689A4322602268B1
:100A10001A4200D18FE7AAE76368084A1340F268D8
:100A2000134363608CE7C046002002400010024080
:100A3000682F00083C04002088130000FFF8FFFF27
:100A4000014B18687047C0463C040020044B054A1F
:100A50005B685B055B0FD35C034A1068D840704746
:100A600000100240782F00083C040020F0B5036815
:100A700085B00500DB0328D580220021374C5205C4
:100A8000E3690091134208D1E3691343E361E36929
:100A900013400393039B012300938027304E7F0074
:100AA00033683B4226D0C022236A920013402D4E69
:100AB00032D1236A1E406B681E43009B2662012BC5
:100AC00003D1E369284A1340E3612A68D30706D5B6
:100AD000032022490B6B8343A86803430B63002068
:100AE000930617D510211D4A136B8B43E9680B43FE
:100AF00013630FE033683B433360FFF7D7FB01908C
:100B000033683B42CFD1FFF7D1FB019BC01A642869
:100B1000F6D9032005B0F0BD69680A409A42C8D0F2
:100B20008023226A206A11005B0203432362236A46
:100B30000E483140034023622162D307B9D5FFF745
:100B4000B5FB07000222236A1342B2D1FFF7AEFBC6
:100B5000074BC01B9842F5D9DBE7C04600100240A6
:100B600000700040FFFCFFFFFFFFFFEFFFFFFEFFF5
:100B700088130000E021036810B55A688A435A6060
:100B800082224168520091420CD180218268090280
:100B90008A4203D08021C9008A4203D140211A68C9
:100BA0008A431A608021826A89018A4206D11968C3
:100BB000074C2140196019680A431A60030001229A
:100BC0005D331A7000235C300370032010BDC046F3
:100BD000FFDFFFFFF8B505000C00160080272B682B
:100BE0009868384006D0621CFAD0002C03D1280047
:100BF000FFF7C0FFF8BDFFF759FB801B8442EED81A
:100C0000F5E7F0B5C02706000D00140085B001938C
:100C1000FF0002AB3168DA1D886828400CD0BD4265
:100C200003D10B7BDBB213701378631CF4D0002C60
:100C300004D13000FFF79EFF05B0F0BDFFF736FB93
:100C4000019BC01A8442E4D8F3E7F8B58223170069
:100C5000426804000E005B009A420DD18022836836
:100C60001202934203D08022D200934204D1402149
:100C7000226813688B4313603A0031002000FFF7AD
:100C8000A9FF051E05D02023226E032513432366EA
:100C900016E0822362685B009A4211D18022A36829
:100CA0001202934203D08022D200934208D1C02185
:100CB0003B003200C9002000FFF7A3FF0028E2D16B
:100CC0002800F8BD70B513000D0016000A00C02101
:100CD00049010400FFF795FF002805D02023226E6C
:100CE0000320134323660FE0320029002000FFF7A2
:100CF00071FF0028F2D1C02133002A00C900200072
:100D0000FFF77FFF0028E9D170BD0000F8B50400AF
:100D10000120002C4ED000232500A3625D352B78E6
:100D2000DBB2002B05D122005C321370200001F0F1
:100D3000FDFD0223402122682B701368E0688B437D
:100D4000E0211360C9000023884234D88026760150
:100D5000884201D101E01E00A362236B002B04D165
:100D60000233884200D801232363A7686368A1691E
:100D70003B4327693B4367693B43E7693B43276A3A
:100D80003B43A76A3B438027BF000F403B431360B0
:100D9000636A090C1843636B184304231940014329
:100DA0000E435660D369074900200B40D3610123ED
:100DB00020662B70F8BDF0263601B042CBD11E0064
:100DC000CBE7C046FFF7FFFFF0B51E00030087B07A
:100DD0005C33019202931B7804000D000220012B6A
:100DE00072D00123029A1370FFF760FA23005D337B
:100DF00003931B780700DBB20220012B5ED11800A1
:100E0000002D5BD0019B002B58D00323039AA168CF
:100E100013700023019A2366A287E287A21D236430
:100E2000A56302329387D38780222365E36412028D
:100E30002368914204D180221968D2010A431A60C2
:100E400040221968114202D119680A431A60E02150
:100E5000E0686268C900884240D9002A02D0E28F67
:100E6000012A06D12A880235DA60E38F013B9BB262
:100E7000E387E38F002B15D13A0031002000FFF704
:100E800021FF00285AD1A368002B06D105932368BF
:100E9000DA6805929B680593059B206E431E984176
:100EA000C0B20BE0022123689A680A4203D02A8864
:100EB0006D18DA60D9E7002E08D103200123039AC8
:100EC00013700023029A137007B0F0BD731CD0D0CA
:100ED000FFF7ECF9C01BB042CBD3EEE7002A02D0FB
:100EE000E28F012A09D1E28F012A15D92A88023519
:100EF000DA60E38F023B9BB2E387E38F002BBBD02A
:100F0000022123689A680A420ED0E28F012A03D98F
:100F10002A886D18DA60ECE72A7801351A73E38FB6
:100F2000013B9BB2E387E8E7002EC6D0731CE4D0F8
:100F3000FFF7BCF9C01BB042DFD3BEE72023236616
:100F4000A1E70000F7B51E00030000925C331A7899
:100F500004000D000220012A00D1AEE001221A7027
:100F6000FFF7A4F9230001905D331B786268DBB2C0
:100F7000012B0CD08221022049008A4200D095E04A
:100F8000A168002900D091E0042B00D08EE0012060
:100F9000002D00D18AE0009B002B00D186E0002EBE
:100FA00000D183E023005D331978042901D00521A5
:100FB000197027000023009908372164A11D2366BA
:100FC000FE87CE87E3642365E023E068A563E687B8
:100FD000A6872168DB00984202D8FB8F012B30D90D
:100FE0004B68714E33404B6040230E681E4202D165
:100FF0000E6833430B60E0232600DB00083698427E
:101000005CD9002A02D0E38F012B06D12B88023550
:10101000CB60E38F013B9BB2E3870127E38F002B7B
:1010200014D1F38F002B11D1019A08992000FFF7FA
:1010300049FE002800D0B3E0206E431E9841C0B2A4
:1010400034E080234E685B013343CCE7002F0FD0A0
:10105000E38F002B0CD0022123689A680A4207D044
:1010600000272A886D18DA60E38F013B9BB2E38783
:10107000F38F002B0FD0012123689A680A420AD00F
:10108000DB68009A0F001380130002330093F38F84
:10109000013B9BB2F387089B0133BFD0FFF706F9F2
:1010A000019BC01A089B8342B8D803202300012269
:1010B0005D331A7000235C342370FEBD002A02D019
:1010C000E38F012B09D1E38F012B08D92B8802353F
:1010D000CB60E38F023B9BB2E387012745E02B788F
:1010E00001350B73E38F013B9BB2E387F5E7002FDC
:1010F00012D0E38F002B0FD0022123689A680A4296
:101100000AD0E28F012A37D92A886D18DA60E38F76
:10111000023B9BB2E3870027F38F002B1AD00121FB
:10112000226893680B4215D0F38F8B422CD9D36879
:10113000009901270B800B0002330093F38F023BD1
:101140009BB2F387F38FBB4204D8802351685B01C5
:101150000B435360089B013307D0FFF7A7F8019BAF
:10116000C01A089B834200D89FE7E38F002BBED1B3
:10117000F38F002BBBD157E72A7801351A73E38F21
:10118000013B9BB2E387C6E7137B009A01271370EC
:10119000F38F013B9BB2F387130001330093D9E730
:1011A0002023236648E7C046FFEFFFFFF0B51E008F
:1011B00082231700426885B004000D005B009A424C
:1011C0000DD18368002B0AD1030004225D331A700D
:1011D00000963B000A00FFF7B5FE05B0F0BD230006
:1011E0005C3303931B780220012BF6D00123039A72
:1011F0001370FFF75BF8220002905D321378022033
:10120000DBB2012B65D11800002D62D0002F60D019
:10121000033313700023A21D2366256402329787CF
:10122000D787A363A387E387E3642365E023E168AB
:101230002268DB00994229D953683548034053603E
:101240008023A0681B02984203D1136831480340F1
:10125000136040231068184202D1106803431360E2
:10126000E0232700DB000837994220D9FB8F002BB1
:1012700020D0012123689A680A423AD0DB682B808B
:10128000FB8F0235013B9BB2FB87EFE78023506861
:101290005B010343D3E7012123689A680A4215D012
:1012A0001B7B2B70FB8F6D18013B9BB2FB87FB8F69
:1012B000002BF0D1029A31002000FFF7C6FC002875
:1012C00022D1206E431E9841C0B202E0002E07D109
:1012D000032001235D3423700023039A13707CE7FD
:1012E000731CE4D0FEF7E2FF029BC01AB042DED3CB
:1012F000EEE7002EECD0731CB8D0FEF7D7FF029BB0
:10130000C01AB042B2D3E3E720232366D9E7C04630
:10131000FFEFFFFFFFBFFFFF70B504000568C26964
:1013200083680069296803436069034338481343AD
:1013300001400B432B606B683649206A0B40E16823
:101340000B436B60A369A9680343334801400B4317
:101350000321AB60314B1B6B0B403149C85C8023D0
:101360001B029A422CD1082827D8FEF7DFFE05265B
:101370000B261E2626262100FFF768FB6368400027
:101380005B0802E063685808264BC0186168FEF7E6
:10139000D7FE83B200200F22190091430A001B07D9
:1013A00021685B0F1343CB6070BDFFF77FFAE5E761
:1013B0006368580880235B02E7E701200023EAE71F
:1013C000082823D8FEF7B2FE052211221A22222273
:1013D0001D00FFF73BFB616824684B081818FEF7F7
:1013E000AFFE80B2E0600020DEE761680E4B480887
:1013F000C018FEF7A5FE80B2E860F4E7FFF756FAE2
:10140000E9E7802361681B024808F1E70120CBE788
:10141000F369FFFFFFCFFFFFFFF4FFFF0010024063
:101420008C2D00080024F40000127A00436A30B5C5
:10143000DA0706D50168284C4A682240846A2243AC
:101440004A609A0706D50168244C4A682240C46A5B
:1014500022434A605A0706D50168214C4A68224057
:10146000046B22434A601A0706D501681D4C4A687E
:101470002240446B22434A60DA0606D501681A4CC2
:101480008A682240846B22438A609A0606D50168E6
:10149000164C8A682240C46B22438A605A0610D5D3
:1014A0000168134D4A68046C2A4022434A60802236
:1014B0005203944205D14A680E4C2240446C2243A8
:1014C0004A601B0606D502680B4953680B40816CC5
:1014D0000B43536030BDC046FFFFFDFFFFFFFEFF23
:1014E000FFFFFBFFFF7FFFFFFFEFFFFFFFDFFFFFC0
:1014F000FFFFEFFFFFFF9FFFFFFFF7FF70B5041E29
:1015000001D1012070BD050069352B78DBB2002BBD
:1015100004D102006832137001F03AFA2423012149
:1015200022682B70136820008B431360FFF7F4FED2
:101530000128E6D0636A002B02D02000FFF776FF77
:1015400023680B495A6800200A4008215A609A68AB
:101550008A439A60012219680A431A6022002023F4
:10156000E0666A3268342B7013702070CAE7C04698
:10157000FFF7FFFF37B50D000190052400F08EF84E
:10158000194800F087FA00F053F8012805D1013C12
:10159000E4B2002CF4D120003EBD144800F07AFAE9
:1015A000012000F0FBF9002805D001A800F092F816
:1015B00001A800F0A5F8022000F01FFA0024200086
:1015C000032100F0B3F8200001342900E4B200F058
:1015D000C3F8042CF3D1002000F088F9002000F0BB
:1015E000A5F90120D8E7C046A0860100400D030000
:1015F00010B5052000F016FA034B012299881868EF
:10160000FEF75EFF10BDC0460000002010B50120AF
:1016100000F008FA00F030FA0400044B01221868C8
:101620009988FEF74DFF200010BDC0460000002045
:1016300010B5262000F0F6F900F01EFA0400044B65
:10164000012218689988FEF73BFF200010BDC046B4
:101650000000002010B5292000F0E4F900F00CFA99
:101660000400044B012218689988FEF729FF200026
:1016700010BDC0460000002010B52C2000F0D2F9AB
:1016800000F0FAF90400044B012218689988FEF76B
:1016900017FF200010BDC0460000002010B5272015
:1016A00000F0C0F9094B012299881868FEF708FF7D
:1016B000CA24074800F0EEF9FFF7DEFF102804D136
:1016C000013CE4B2002CF4D1EA3010BD000000204F
:1016D0001027000070B50400222000F0A3F9251D9A
:1016E0002078013400F0BCF9AC42F9D1034B01225F
:1016F00099881868FEF7E4FE70BDC046000000201F
:1017000070B50400232000F08DF9251D20780134E8
:1017100000F0A6F9AC42F9D1034B01229988186870
:10172000FEF7CEFE70BDC0460000002070B505007B
:101730000C00342000F076F9280000F091F9200028
:1017400000F08EF9034B012299881868FEF7B8FE65
:1017500070BDC0460000002070B505000C003320AD
:1017600000F060F9280000F07BF9E0B200F078F9B1
:10177000200A00F075F9034B012299881868FEF7DA
:101780009FFE70BD00000020F8B5012607000C0088
:1017900015008640154B9A7816421BD09A7839204E
:1017A000B2439A7000F03EF9380000F059F9E8B2FF
:1017B00000F056F9280A00F053F9022000F06AF907
:1017C0006519A5420CD10A4B012299881868FEF7C9
:1017D00077FEF8BD074800F05DF9FFF717FFD9E77E
:1017E000207800F03DF90134EBE7C0460800002006
:1017F000000000201027000070B505000C00392003
:1018000000F010F9280000F02BF9E0B200F028F900
:10181000200A00F025F9022000F03CF970BD70B5F7
:1018200004004518AC4200D170BD207800F018F9D2
:101830000134F7E710B5034B012299881868FEF7C9
:101840003FFE10BD0000002010B504003B2000F05A
:10185000E9F8200000F004F900F00EF984B200F07D
:101860000BF9054B00022418A4B2186899880122CC
:10187000FEF726FE200010BD0000002010B5040079
:101880002E2000F0CFF8200000F0EAF8034B0122F0
:1018900099881868FEF714FE10BDC04600000020AD
:1018A00070B506000C001500002917D03C2000F090
:1018B000B9F8300000F0D4F8E0B200F0D1F8200A16
:1018C00000F0CEF8012000F0E5F82C19A54206D171
:1018D000054B012299881868FEF7F2FD70BD00F0F3
:1018E000CBF828700135F1E70000002010B50400A6
:1018F000352000F097F8200000F0B2F8094B0122E3
:1019000099881868FEF7DCFDCA24074800F0C2F881
:10191000FFF7B2FE102804D1013CE4B2002CF4D150
:10192000EA3010BD000000208813000010B504004C
:10193000362000F077F8200000F092F8094B0122E1
:1019400099881868FEF7BCFDCA24074800F0A2F881
:10195000FFF792FE102804D1013CE4B2002CF4D130
:10196000EA3010BD000000208813000010B504000C
:10197000302000F057F8200000F072F8022000F04C
:1019800089F800F079F80400034B0122186899885F
:10199000FEF796FD200010BD0000002010B50400E9
:1019A000412000F03FF8200000F05AF8094B0122D6
:1019B00099881868FEF784FDCA24074800F06AF881
:1019C000FFF75AFE102804D1013CE4B2002CF4D1F8
:1019D000EA3010BD00000020204E000010B50400C9
:1019E000EC2000F01FF8200000F03AF8FA20800008
:1019F00000F050F800F040F810BD10B5040055207C
:101A000000F010F8E0B200F02BF8A0B2000A00F0ED
:101A100027F8200CC0B200F023F8200E00F020F8C8
:101A200010BD000037B56B460B4CD871A1882068FB
:101A30000122DD1DFEF744FDA18820680022FEF78B
:101A40003FFD2900642301220448FFF7BDF902206D
:101A500000F020F837BDC04600000020EC08002050
:101A600007B56B46D91D0870642301220148FFF7B2
:101A7000ABF907BDEC08002013B56B46DC1D012255
:101A8000642321000248FFF791FB207816BDC04671
:101A9000EC0800200022074BC000586006499A60FD
:101AA00001321A601A680A40012AFBD000221A602B
:101AB0009A60704710E000E001000100054B994278
:101AC00001D9002070470B6843600133F9D00160F1
:101AD0000120F7E7FF3F0008F0B5C0C9050085B059
:101AE000039202960436029B326803989C182300E6
:101AF00008331900013F0193FEF706FB00280BD1C4
:101B00006268029B944622686344280001996B60D6
:101B10002960AA6005B0F0BD002FE3DC00221300AD
:101B20000192F2E7F7B504680F002600002543682C
:101B30000193019BAB4201D10020FEBD043421681A
:101B4000380008318919FEF7DFFA002801D0013585
:101B5000EFE70120F1E7000010B50400034905306C
:101B600000F0EFFF200000F05DFB10BDCB2D000862
:101B700070B51349040000F0D3F9124905002000A4
:101B800000F0CEF90600002D16D0002814D0280051
:101B900000F0E7F90500300000F0E3F90100062D40
:101BA0000AD8062808D8280000F046FEC821064AB0
:101BB000200000F0B9FA70BD9621044A4900F7E709
:101BC000E72D0008E92D00083E2E0008EB2D000847
:101BD00010B5024AC82100F0A7FA10BDDE2D00089A
:101BE00010B5024AC82100F09FFA10BDD62D00089A
:101BF00070B5060000F068FE0E4C05000E4920008E
:101C000000F0BBFF0F232B4030332D09A37030357C
:101C1000E01C0A4900F0B1FFA571E01D084900F081
:101C2000ACFF0023300063722200C82100F07CFA70
:101C300070BDC0465C040020C42D0008C72D0008FC
:101C4000402E0008020000234532037013709222D8
:101C500052000371C37083540200FE309832137037
:101C6000C3837047F7B50600FEF758FA214C07000A
:101C700003283CD9431FF3181F4918000193FEF7AE
:101C800043FA1E4C002832D03D1F75191C4928000C
:101C9000FEF73AFA00282AD01A492800FEF734FA4B
:101CA000194C002823D0F81E30181849FEF72CFADA
:101CB000174C00281BD017492800FEF725FA164CB0
:101CC000002814D015492800FEF71EFA144C0028ED
:101CD0000DD014490198FEF717FA002807D01249D1
:101CE0002800FEF711FA034C002800D10F4C200009
:101CF000FEBDC046E12E0008D02D0008B52E00081C
:101D0000162E00081B2E0008A22E0008202E000808
:101D1000CA2E0008242E0008EC2E0008292E0008E8
:101D2000BF2E00082E2E0008342E0008AB2E00080F
:101D3000F8B5060008000C00FEF7F0F9356807005A
:101D4000002D0BD02100280000F079FF041E04D0E4
:101D50003A00002100F0EDFEE41934602800F8BDDF
:101D6000F0B50400007885B0042800D9C1E0FEF782
:101D7000DDF90362C0737900019101A85E49FFF7A4
:101D8000D7FF061E2FD080225C49D20000F038FF1A
:101D9000002828D05A4D300002AA290000F095FFF3
:101DA000061E20D05749FEF7AFF900281ED10023A8
:101DB0002900E37002AA002000F087FF011E12D064
:101DC000661D4022300000F007FF3F21300000F088
:101DD000C6FEE378002B11D002AA2900002000F0F3
:101DE00074FF002824D1002020703CE046493000D8
:101DF000FEF78AF90028DAD10123D9E70028EBD0D1
:101E000003704378002BE7D0404E0130310003AA25
:101E100000F05BFF0028DFD0220045321378591C08
:101E200012339B001170185103AA31000020EFE714
:101E3000237801332370304F390001A8FFF778FF72
:101E4000002806D0324E02AA310000F03EFF051EE7
:101E50000ED1237801332370E378012B30D023781F
:101E600001332370012092235B00E05405B0F0BDE4
:101E70000378002BEDD02749FEF746F900280DD155
:101E800002AA310000F021FF0028ACD0224900F066
:101E9000D6FE0028D0D001232371CDE71F492800AA
:101EA000FEF732F90028C7D1310002AA00F00DFF79
:101EB000011E98D020004022583000F08DFEBBE774
:101EC0000D4901A8FFF734FF0028C8D00F4D03AA21
:101ED000290000F0FAFE0028C1D022004532137814
:101EE000591C12339B001170185103AA29000020BD
:101EF000EFE70120BAE7C046132F00082B2F000898
:101F0000F62E00080A2F00080E2F0008312F0008B7
:101F10009F2E0008F82E0008332F0008032F00081A
:101F20000300F0B545331C780022231E15D118009C
:101F3000F0BD0E009300C3189B6C1D783778002D00
:101F40000AD0002F03D13D2D06D10133EFE7AF4278
:101F500002D101360133F0E701329442E9DC00237B
:101F6000E5E730B50100C41C0A2500200B78002BE2
:101F700006D068431B18303B0131D8B28C42F5D1F2
:101F800030BDF8B507000C000026A519002F07D1B9
:101F900073082F70E318013D9C420FD13000F8BD4B
:101FA00038000A21FEF752F93031297038000A2131
:101FB000FEF7C6F80136F6B287B2E6E7227829784E
:101FC00021702A700134E6E782B0F0B58DB013932A
:101FD000149B060004001000150003911292029356
:101FE000FEF79CF8033828184449FEF78DF89C3614
:101FF000071E00D076E0290004A800F0BEFD04A86A
:10200000FEF78CF804ABC018033807701800FFF710
:1020100029FE012305000193002339493370300064
:1020200000F08FFD23002022A43327001A706B4696
:10203000A53798893900FFF7A4FF3F1831493800C8
:1020400000F07FFD781D304900F07BFD38002379DA
:102050001130012B4CD12D4900F073FD1D37019B30
:10206000002B04D038002A4900F06BFD18372949AD
:1020700038000E3700F065FD2900380000F061FDE2
:102080002800FEF74BF83F182349380000F059FDAF
:10209000B81C224900F055FD6B461B891237180009
:1020A00039000193FFF76DFF1D4D3F1829003800DF
:1020B00000F047FD2900B81C00F043FD3000FEF79A
:1020C0002DF82300019A9A3318806433DA83139A27
:1020D000023B5A620123983423700DB0F0BC08BC57
:1020E00002B018472800FFF7BDFD0023050092E766
:1020F0000C4900F026FD1937B1E7C046392E00081B
:10210000162F00083D2E0008432E0008502E000810
:10211000662E00087F2E0008402E00088E2E000834
:10212000132F00085D2E0008F7B5060000230500F8
:102130009C360C0033703249300001922F0000F0C1
:1021400000FD2B002022A433A5371A70A0B239005D
:10215000FFF717FF3C182B49200000F0F2FC601D30
:10216000294900F0EEFC20002B791130012B41D1E0
:10217000264900F0E6FC1D34681DFFF773FD0700DB
:10218000234920000E3400F0DCFC3900200000F070
:10219000D8FC3800FDF7C2FF24181E49200000F0CB
:1021A000D0FC1D49A01C00F0CCFC0198FDF7B6FF47
:1021B0001234210080B2FFF7E4FE184F24183900D2
:1021C000200000F0BEFC3900A01C00F0BAFC30007A
:1021D000FDF7A4FF2B009A3318800198FDF79EFFAE
:1021E0002B00019AFE33D883023B5A6201239835B3
:1021F0002B70F7BD0A4900F0A4FC1934BCE7C046B7
:10220000162F00083D2E0008432E0008502E00080F
:102210007F2E0008402E00088E2E0008132F000885
:102220005D2E000870B52C4C451D9CB006002900A1
:102230002000FFF777FC002817D02A00210008A80B
:10224000FFF74AFC089B002B30D02A0021000BA886
:10225000FFF742FC0D9B0B9A039300930C9BC82144
:102260003000FFF7B1FE1CB070BD29000BA800F0D4
:1022700084FC1A490BA800F064FC0BA92000FFF7AE
:1022800051FC002812D00BAA210005A8FFF724FC5E
:10229000059B002B0AD00BAA210008A8FFF71CFC05
:1022A0000A9B089A03930093099BD8E70C4C0D49AD
:1022B000200000F062FC40222900200000F065FCB4
:1022C0000949200000F03DFCCA21220049003000ED
:1022D000FFF72AFFC7E7C04638080020392E00085C
:1022E000E00700201F2F0008132F0008F0B501247D
:1022F00087B00490E3B20593049B01225B782341ED
:10230000134260D094235B0063430293029A354EDC
:102310009446293EFF3EF618324B63441A1F019340
:102320001378002B4FD00121A1400025049B5B783E
:102330008B4304994B70157062462A4B243BFF3B3C
:102340009B180393284BEF00FF184022396803982D
:1023500000F031FC00283BD17B6830009847019B9E
:10236000903B03931B78012B2DD1AF23019E019F3E
:102370008E3E31880C3FDB005B1A3A8898B2151C00
:10238000824200D91D1CADB2491989B20598FFF7E8
:1023900033FA1448029B8C38C0183188FFF73FFA93
:1023A000019E2900083E3068FFF739FAFFF742FA2C
:1023B0003B8832685B1B9BB255193B803560002B14
:1023C0000DD1039A13700134042C93D107B0F0BDE2
:1023D0000135052DB6D13000FFF724FFBFE70223FA
:1023E000EFE7C046680400200C04002030B510243C
:1023F00095B02C22002109A800F09BFB22000021AF
:10240000684600F096FB2200002104A800F091FB32
:102410000125022308A808930B950C94FEF764F895
:102420000021072368460093019102910391FEF772
:102430006FFA032304A804950693FEF717FB15B063
:1024400030BD0000704BF0B51800704A89B012CA58
:1024500012C001006E4A6F4F11CA11C16E4A0226A6
:1024600011CA11C100241A006C491C761C3221C902
:1024700021C21A006A49243221C921C2694A2C3377
:1024800003CA03C3FDF7FAFEFFF7B0FF14222100D1
:1024900003A800F04EFB8020634BC003596901255F
:1024A000014359615A69024080200092009A59699B
:1024B00080020143596180215A69C9020240019298
:1024C000019A5A6959480A435A615B6922000B40D4
:1024D00002930321029BFDF7F3FF902022003900B5
:1024E000C005FDF7EDFF902001221021C005FDF78A
:1024F000E7FF032303A94D4803930495059606942B
:10250000FDF728FF902003A9C005039704950596C1
:102510000694FDF71FFF9020102303A9C005039325
:10252000049505950694FDF715FF414B03A9414815
:10253000049303960595FDF70DFF3F483F4B8460DC
:10254000036082235B004360E023DB00C3608023E1
:102550009B008361FA3BFF3BC36206614561C46136
:1025600004624462846204634463FEF7CFFB344830
:10257000344B8460036096239B0143600C23C4604A
:10258000436104618461C46104624462FEF7B6FF82
:10259000210022000520FDF78FFE0520FDF7B6FE85
:1025A00029492A48FFF78AFA00252948FFF772FAD5
:1025B000FFF71EF82748FFF76DFA274A274B1078D8
:1025C00019885378264C1B02034390782570000429
:1025D0000343D07800061843FEF7CCFF214E224F6C
:1025E000207035703D7021483378002BDCD13B786A
:1025F000002BD9D12378002BF6D04378002BF3D0D1
:10260000FFF774FEEFE7C04644080020382F0008AB
:10261000402F000803060000482F0008502F000834
:10262000582F0008602F00080010024000140048D6
:102630000000211000040048EC0800200030014098
:102640007C08002000380140902D00083808002048
:10265000E0930400400D03003404002038040020FF
:102660003008002041080020400800200800002019
:10267000F0B587B0FEF7EEFF430702D50122694BA4
:102680001A700009C3B20093002B00D191E001251C
:102690000122009BEFB25B080093134200D184E05B
:1026A0003800FFF763F901220190104237D001236F
:1026B000AB4094205C4A4000917868430B43DBB206
:1026C00093705A4B594A293BFF3B1B1884180493BB
:1026D0002300903B03931B780290022B00D06AE00A
:1026E00023000C3B1A880293AF23083C161CDB0026
:1026F0009A4200D91E1CB6B2320021683800FFF79A
:1027000043F8029B029A1B889B1B9BB21380226892
:1027100096192660002B02D10498FFF793FA042241
:10272000019B134229D094263800404CFFF78CF8C7
:1027300076006E43293C3E4BFF3CA419011C984295
:1027400000D9191C89B23B4A3800FFF7A9F82000CC
:10275000FFF778FA354B033E9F5536492000FFF7C7
:10276000FFFA002806D00123AB402F4A51780B43D3
:10277000DBB253703800FFF781F8019B1B0706D5C9
:102780000123AB40284A11780B43DBB21370019B45
:10279000DB060AD50123AB40DB43234A5BB2117849
:1027A0001940117051780B4053700135042D00D041
:1027B0006EE707B0F0BD012BB1D123008E3B198825
:1027C000059382330493AF23049ADB005B1A1288CB
:1027D00098B2161C824200D91E1CB6B2891989B261
:1027E0003800FFF709F8059B10481988029B8C38C0
:1027F000C018083CFFF713F831002068FFF70FF806
:10280000FFF718F8049B049A1B889B1B9BB213804C
:10281000226896192660002B02D1039A13707EE776
:102820000223FAE741080020080000206804002085
:10283000FF0300000B000020F0B5224C85B0230000
:102840003433050020761970884201D1002837D131
:1028500001272A00A389A668029323693A400093BE
:10286000A38AA18820680193FDF72AFE3000022682
:102870006A083A400299FDF723FEAA0832400199FE
:102880000098FDF71DFE636A218C0093238DE0699B
:102890000193E36A0293238E0393230034331D785C
:1028A0002A003A40FDF70CFE6A083A400199009868
:1028B000FDF706FEAA08324003990298FDF700FED4
:1028C00005B0F0BD4408002010B58120FFF786F860
:1028D0000421430782000A40DB0F13430222024017
:1028E00013431022024013431C3142080A40134391
:1028F000402240001040184310BD000001200A4B48
:1029000082B099690143996180219A694905024021
:102910000092009ADA690A43DA61DB690B4001939D
:10292000019B02B07047C0460010024010B5040081
:1029300088B01422002103A800F0FBF8124B226893
:102940009A421FD18020114B40019969014399613E
:1029500080219A69890202400192019A5A69902065
:102960000A435A615B69C0050B400293029BE02356
:102970000393DE3B0493013B059303A902330693C3
:10298000FDF7E8FC08B010BD003001400010024027
:1029900010B5040088B01422002103A800F0C9F883
:1029A000124B22689A421FD18020114BC0019969B5
:1029B0000143996180219A69890202400192019A3A
:1029C0005A6990200A435A615B69C0050B40029323
:1029D000029B0C2303930A3B04930133069303A940
:1029E000023B0793FDF7B6FC08B010BD003801406C
:1029F000001002407047FEE77047704710B5FDF7C2
:102A00004DFC10BD10B502210548FDF753FD00280F
:102A100003D00220FDF75CFD10BDFFF729FEF2E7B1
:102A2000000400480121114B11481A680A431A603A
:102A30005A6802405A601A680E4802401A601A68C2
:102A40000D4802401A605A680C4802400F205A6034
:102A5000DA6A8243DA621A6B094802401A635A6BD7
:102A60008A435A6300229A607047C04600100240B1
:102A70000CB8FF08FFFFF6FEFFFFFBFFFFFFC0FFE4
:102A8000ECFEFFFF0D4885460D480E490E4A002317
:102A900002E0D458C4500433C4188C42F9D30B4A12
:102AA0000B4C002301E013600432A242FBD3FFF77A
:102AB000B9FF00F011F8FFF7C5FCFEE7FF0F00209B
:102AC0000000002040040020882F0008400400205F
:102AD00050090020FEE7000070B500260C4D0D4C9B
:102AE000641BA410A64209D1002600F033F90A4D58
:102AF0000A4C641BA410A64205D170BDB300EB586C
:102B000098470136EEE7B300EB5898470136F2E7F5
:102B1000802F0008802F0008802F0008842F0008D5
:102B2000002310B59A4200D110BDCC5CC4540133CF
:102B3000F8E703001218934200D17047197001336F
:102B4000F9E7020010B51378541C002B05D1CC5CBA
:102B5000D4540133002CFAD110BD2200F3E7C9B2DE
:102B60000378002B04D08B4200D170470130F7E787
:102B70004B42594149420840F7E703000A780131C6
:102B80001A700133002AF9D17047F0B50400237898
:102B9000002B08D11F00561E934203D0CD5CE55494
:102BA000002D02D1F0BD0134F1E79E4201D1A519FB
:102BB0006F700133F0E7002330B59A420AD0013A32
:102BC000C45CCD5CAC4204D1934202D00133002CF2
:102BD000F6D1631B180030BD30B50500002A00D1C6
:102BE00030BD0C78013A6B1C2C700131002C05D1E2
:102BF0009A189A42F4D01C700133FAE71D00EDE7F1
:102C000070B50E00050011003000140000F087F8C8
:102C10000300844202D8325C002A0DD12100320028
:102C2000280000F062F8041E06D0421B0021280094
:102C300000F050F8002800D00024200070BD10B52E
:102C40000378002B0FD10B785A4253415B42184056
:102C500010BD0023CA5C002AFAD0C45C944201D1A2
:102C60000133F7E701300378002BF2D11800EFE7CA
:102C7000F0B5002804D11068002801D1F0BD200073
:102C80000E000578441C3778002F04D1002D10D198
:102C900015602800F2E70136BD42F4D1002BEED1D9
:102CA00014600370EAE733000DE00135002F03D113
:102CB0001C000D002678631C2F78BE42F5D1002E33
:102CC000F1D0002121701360D8E710B50123FFF780
:102CD000CFFF10BDC9B28218904201D100207047C9
:102CE00003788B42FBD00130F6E7F7B5070000917F
:102CF00001921E0004000D00002B09D12000FEBD32
:102D000032000199200000F015F80028F6D0013DAE
:102D1000009BFC18641BB542F2D20024EEE70300CE
:102D200041188B4202D01A78002A01D1181A704734
:102D30000133F6E730B50024A24201D1002005E0BE
:102D4000035D651C0C5DA34201D0181B30BD2C0037
:102D5000F2E70000F8B5C046F8BC08BC9E467047D4
:0C2D6000F8B5C046F8BC08BC9E467047A1
:102D6C0002030405060708090A0B0C0D0E0F1010C0
:102D7C000102030405060708090A0B0C0D0E0F10BF
:102D8C0000040802020000000C00000020000000FB
:102D9C00020000001B0000002F612E74787400618B
:102DAC0031000000030000002F0000002F622E7481
:102DBC007874006232320000413D0026423D0069C9
:102DCC006E6465782E68746D6C0052657365740D55
:102DDC000A005374617475730D0A00410042004976
:102DEC006E76616C69640D0A002F73776974636881
:102DFC00002F676574416C6C6F63002F7374617482
:102E0C007573002F7265736574002E68746D002ED7
:102E1C00637373002E6A73002E706E67002E6A70D7
:102E2C0067002E6A706567002E676966002E677AE8
:102E3C0000204F4B0D0A00436F6E6E656374696F13
:102E4C006E3A20004B6565702D416C6976650D0AF4
:102E5C0000436C6F7365640D0A00436F6E74656E8E
:102E6C00742D456E636F64696E673A20677A69707A
:102E7C000D0A00436F6E74656E742D547970653A4B
:102E8C002000436F6E74656E742D4C656E677468AC
:102E9C003A20003A2000746578742F6373730069CC
:102EAC006D6167652F67696600746578742F687447
:102EBC006D6C00696D6167652F6A70656700617084
:102ECC00706C69636174696F6E2F6A61766173638C
:102EDC007269707400746578742F706C61696E001F
:102EEC00696D6167652F706E67002000436F6E6EB1
:102EFC00656374696F6E00436F6F6B69650047455E
:102F0C005400504F5354000D0A00485454502F3164
:102F1C002E31004E6F7420466F756E643A20004857
:102F2C005454502F0026004B656570000014004867
:102F3C0001000000000000480004000000000048F0
:102F4C0000020000000000480200000000000048E1
:102F5C000100000000140048020000000000000006
:102F6C00000000000102030406070809000000002D
:042F7C000102030447
:042F8000E90000085C
:042F8400C100000880
:102F880000000048100000000000FF0000000000E2
:102F98000000000000000000000000000000000029
:102FA8000000000000000000000000000000000019
:102FB8000000000000000000000000000000000009
:102FC80000000000000000000000000000000000F9
:103388000000000000000000000000002F2F0008CF
:10339800591B0008F52D0008711B0008FD2D0008B9
:1033A800F11B0008072E0008D11B00080F2E00088B
:1033B800E11B0008C0A804015000000000127A00B8
:0400000508002A8540
:00000001FF
