:020000040800F2
:10000000FF1F002039610008196000082360000804
:1000100000000000000000000000000000000000E0
:10002000000000000000000000000000296000083F
:100030000000000000000000336000083D60000880
:1000400089610008000000008961000889610008DA
:1000500089610008896100088961000889610008D8
:1000600000000000896100088961000889610008BA
:1000700089610008896100088961000800000000AA
:10008000896100088961000800000000896100089A
:100090008961000889610008896100088961000898
:1000A0008961000889610008896100088961000888
:1000B000896100080000000000000000000000004E
:1000C00010B5064C2378002B07D1054B002B02D02E
:1000D000044800E000BF0123237010BDD8080020B1
:1000E000000000005C650008044B10B5002B03D035
:1000F0000349044800E000BF10BDC04600000000F6
:10010000DC0800205C65000802780B78002A03D028
:10011000013001319A42F7D0D01A70470023C25CF7
:100120000133002AFBD1581E70470000002243080B
:100130008B4274D303098B425FD3030A8B4244D3AF
:10014000030B8B4228D3030C8B420DD3FF220902F1
:1001500012BA030C8B4202D31212090265D0030BB0
:100160008B4219D300E0090AC30B8B4201D3CB03A6
:10017000C01A5241830B8B4201D38B03C01A5241E8
:10018000430B8B4201D34B03C01A5241030B8B42EA
:1001900001D30B03C01A5241C30A8B4201D3CB02D5
:1001A000C01A5241830A8B4201D38B02C01A5241BA
:1001B000430A8B4201D34B02C01A5241030A8B42BD
:1001C00001D30B02C01A5241CDD2C3098B4201D3D5
:1001D000CB01C01A524183098B4201D38B01C01A53
:1001E000524143098B4201D34B01C01A52410309CA
:1001F0008B4201D30B01C01A5241C3088B4201D379
:10020000CB00C01A524183088B4201D38B00C01A25
:10021000524143088B4201D34B00C01A5241411A4C
:1002200000D20146524110467047FFE701B5002059
:1002300000F006F802BDC0460029F7D076E7704707
:100240007047C04680B500AF074B1A68064B1021B7
:100250000A431A60002000F009F805F021FE00238F
:100260001800BD4680BDC0460020024080B582B067
:1002700000AF786001F02AF90200FA23990010001B
:10028000FFF754FF0300180000F0C9F87968012354
:100290005B420022180000F0ADF800231800BD46B4
:1002A00002B080BD80B500AF034B1B685A1C024BE7
:1002B0001A60C046BD4680BD4015002080B500AF25
:1002C000024B1B681800BD4680BDC046401500208B
:1002D00090B583B000AF02003960FB1D1A70FB1DA2
:1002E0001B787F2B32D92F4AFB1D1B7819000F2357
:1002F0000B40083B9B0806339B00D31804331B6854
:10030000FA1D1278110003220A40D200FF21914009
:100310000A00D2431A4011003B689B01FF221A4099
:10032000FB1D1B78180003230340DB009A401D4887
:10033000FB1D1B781C000F232340083B9B080A432E
:1003400006339B00C31804331A6027E0164AFB1DCE
:100350001B785BB29B08C0339B009B58FA1D127838
:10036000110003220A40D200FF2191400A00D2432B
:100370001A4011003B689B01FF221A40FB1D1B78AD
:10038000180003230340DB009A400748FB1D1B783D
:100390005BB29B080A43C0339B001A50C046BD465F
:1003A00003B090BD00ED00E000E100E080B582B058
:1003B00000AF78607B68013B0C4A934201D901236E
:1003C00010E00B4B7A68013A5A6001235B4203212B
:1003D0001800FFF77DFF064B00229A60044B0722AE
:1003E0001A6000231800BD4602B080BDFFFFFF0069
:1003F00010E000E080B584B000AFB9607A600F21F2
:100400007B18021C1A70BA687B181B785BB211004B
:100410001800FFF75DFFC046BD4604B080BD80B543
:1004200082B000AF78607B681800FFF7BFFF030061
:100430001800BD4602B080BDF0B587B000AFF860CF
:10044000B9603A607B601723FB1801221A701623EB
:10045000FB1800221A701523FB1800221A703E4B5D
:100460001B7E012B01D1022372E03B4B01221A7645
:100470001723FE18394B180000F0C4F8030033703E
:100480001723FB181B78002B5CD1FB68012B04D1D0
:100490001523FB1801221A700BE0FB68022B04D114
:1004A0001523FB1802221A7003E01523FB180422FF
:1004B0001A701623FB1800221A7039E016217B18D7
:1004C0001B785A00BB68D0187B181B781B011A00D8
:1004D000203A002A03DB7968D1400C0008E0202292
:1004E000D21A796891400A003968D9400C00144347
:1004F0007A68DA401500A3B2190000F067F81723F4
:10050000FE18164B180000F07DF803003370144BF2
:100510001A69134B01218A431A611723FB181B78B0
:10052000002B0ED116217B181A787B1801321A7015
:100530001623FA181523FB1812781B789A42BDD39C
:1005400000E0C046044B00221A761723FB181B78E4
:100550001800BD4607B0F0BD4815002050C300008C
:100560000020024080B582B000AFFB1D00221A704F
:100570000C4B1B69802213400DD00A4B0A4A5A606B
:10058000084B0A4A5A60074B1B698022134002D06D
:10059000FB1D01221A70FB1D1B781800BD4602B01E
:1005A00080BDC0460020024023016745AB89EFCDE6
:1005B00080B500AF044B1A69034B80210A431A61CE
:1005C00000231800BD4680BD0020024080B582B0E7
:1005D00000AF78600A00BB1C1A80084B0022DA6169
:1005E000074B1A69064B01210A431A617B68BA1C42
:1005F00012881A80C046BD4602B080BD4815002052
:100600000020024080B584B000AF7860FFF756FE4E
:100610000300FB600FE07B6801330CD07B68002B8C
:1006200007D0FFF74BFE0200FB68D31A7A689A42A4
:1006300001D203231FE0124BDB6801221340012B80
:10064000E9D00F4BDB6820221340202B02D10C4B4A
:100650002022DA600A4BDB6810221340102B05D0F1
:10066000074BDB6804221340042B03D100F00AF887
:10067000012300E000231800BD4604B080BDC04641
:100680000020024080B582B000AF00237B60134B96
:10069000DB6810221340102B09D1114BDB690222B9
:1006A0001A430F4BDA617B68102213437B600B4BBC
:1006B000DB6804221340042B09D1094BDB690122BA
:1006C0001A43074BDA617B68042213437B60034BB8
:1006D0007A68DA60C046BD4602B080BD00200240A4
:1006E00048150020B0B584B000AF786039600F23A2
:1006F000FB1801221A700023BB60324B1B7E012BBA
:1007000001D102235AE02F4B01221A767B681B6825
:10071000012B16D12C4B1800FFF774FF031E47D195
:1007200000F056F80F23FC18274B1800FFF76AFF5C
:1007300003002370254B1A69244B04218A431A6154
:1007400036E0214B1800FFF75DFF031E30D13B68F8
:10075000012252421A607B685B68BB601FE0BB6885
:10076000180000F04DF80F257C19174B1800FFF703
:1007700049FF03002370154B1A69144B02218A4369
:100780001A617B191B78002B03D03B68BA681A608A
:100790000EE0BB688022D20094466344BB607B6855
:1007A0009B689A027B685B68D318BA689A42D6D372
:1007B000044B00221A760F23FB181B781800BD4645
:1007C00004B0B0BD4815002050C300000020024016
:1007D00080B500AF084B0022DA61084B1A69074B5D
:1007E00004210A431A61054B1A69044B40210A434C
:1007F0001A61C046BD4680BD481500200020024059
:1008000080B582B000AF78600A4B0022DA610A4BF3
:100810001A69094B02210A431A61074B7A685A6127
:10082000054B1A69044B40210A431A61C046BD4674
:1008300002B080BD481500200020024080B586B07F
:1008400000AF7860396000237B610023FB600023E8
:100850003B614FE13B681B6801217A6991400A00C6
:100860001340FB60FB68002B00D140E13B685B68F4
:10087000022B03D03B685B68122B23D17B69DA081B
:100880007B6808329200D3583B617B690722134092
:100890009B000F229A401300DA433B6913403B61EF
:1008A0003B681A697B6907210B409B009A40130043
:1008B0003A6913433B617B69DA087B68083292002E
:1008C0003969D1507B681B683B617B695B000322FF
:1008D0009A401300DA433B6913403B613B685B6815
:1008E00003221A407B695B009A4013003A69134364
:1008F0003B617B683A691A603B685B68012B0BD0EF
:100900003B685B68022B07D03B685B68112B03D008
:100910003B685B68122B30D17B689B683B617B69CD
:100920005B0003229A401300DA433B6913403B61AA
:100930003B68DA687B695B009A4013003A691343AD
:100940003B617B683A699A607B685B683B61012226
:100950007B699A401300DA433B6913403B613B6873
:100960005B681B0901221A407B699A4013003A69AF
:1009700013433B617B683A695A607B68DB683B6183
:100980007B695B0003229A401300DA433B69134002
:100990003B613B689A687B695B009A4013003A6947
:1009A00013433B617B683A69DA603B685A6880238D
:1009B0005B05134000D19AE0544B9A69534B0121D7
:1009C0000A439A61514B9B6901221340BB60BB688B
:1009D0004F4A7B699B0802339B009B583B617B69B4
:1009E000032213409B000F229A401300DA433B6915
:1009F00013403B617A689023DB059A4213D07B68F1
:100A0000444A93420DD07B68434A934207D07B68A7
:100A1000424A934201D1032306E0052304E0022366
:100A200002E0012300E000237A6903210A409200DA
:100A300093403A6913433B6135497B699B08023314
:100A40009B003A695A50364B1B683B61FB68DA439E
:100A50003B6913403B613B685A6880235B0213404B
:100A600003D03A69FB6813433B612D4B3A691A6026
:100A70002B4B5B683B61FB68DA433B6913403B618E
:100A80003B685A6880239B02134003D03A69FB6895
:100A900013433B61224B3A695A60214B9B683B618F
:100AA000FB68DA433B6913403B613B685A6880232B
:100AB0005B03134003D03A69FB6813433B61184B57
:100AC0003A699A60164BDB683B61FB68DA433B6925
:100AD00013403B613B685A6880239B03134003D05B
:100AE0003A69FB6813433B610D4B3A69DA607B69F5
:100AF00001337B613B681A687B69DA40131E00D0C2
:100B0000A8E6C046BD4606B080BDC0460010024003
:100B1000000001400004004800080048000C0048A4
:100B20000004014080B584B000AF78600A00BB1CAF
:100B30001A807B681B69BA1C1288134004D00F23EB
:100B4000FB1801221A7003E00F23FB1800221A7011
:100B50000F23FB181B781800BD4604B080BD80B57C
:100B600082B000AF786008001100BB1C021C1A8024
:100B70007B1C0A1C1A707B1C1B78002B04D0BB1C2E
:100B80001A887B689A6103E0BB1C1A887B689A62AA
:100B9000C046BD4602B080BD80B584B000AF78606D
:100BA0007B68002B01D1012336E07B681B681C4A5F
:100BB0001A607B681B681B4A1A607B681B687A682E
:100BC00052685A607B681B687A6892689A60FFF77F
:100BD00075FB0300FB6008E0FFF770FB0200FB6899
:100BE000D31A272B01D9032316E07B681B68DB6827
:100BF000002BF1D17B681B681A697B68DB689A421D
:100C000005D07B681B687A68D2681A6103E07B684C
:100C10001B68054A1A6000231800BD4604B080BD59
:100C2000CCCC000055550000AAAA000080B582B0C7
:100C300000AF78607B681B68034A1A6000231800C5
:100C4000BD4602B080BDC046AAAA000080B586B0ED
:100C500000AF786000233B617B681B680122134072
:100C600000D18DE0C34B5B680C221340042B0ED0E7
:100C7000C04B5B680C221340082B16D1BD4B5A6841
:100C800080235B021A4080235B029A420DD1B94B4C
:100C90001A6880239B02134000D170E07B685B6878
:100CA000002B00D06BE00123B6E27B685B68012B70
:100CB00007D1B04B1A68AF4B802149020A431A6032
:100CC0002FE07B685B68002B0CD1AA4B1A68A94BFC
:100CD000A9490A401A60A74B1A68A64BA7490A40BF
:100CE0001A601EE07B685B68052B0ED1A14B1A6869
:100CF000A04B8021C9020A431A609E4B1A689D4B83
:100D0000802149020A431A600BE09A4B1A68994BFA
:100D100099490A401A60974B1A68964B97490A40BE
:100D20001A607B685B68002B14D0FFF7C7FA0300DA
:100D30003B6108E0FFF7C2FA02003B69D31A642B5B
:100D400001D9032368E28B4B1A6880239B0213406E
:100D5000F0D015E0FFF7B2FA03003B6108E0FFF7BF
:100D6000ADFA02003B69D31A642B01D9032353E285
:100D7000804B1A6880239B021340F0D100E0C046EC
:100D80007B681B680222134000D169E0794B5B68E5
:100D90000C2213400BD0774B5B680C221340082BBE
:100DA0001CD1744B5A6880235B02134016D1714BDF
:100DB0001B680222134005D07B68DB68012B01D041
:100DC000012329E26B4B1B68F822934319007B68CF
:100DD0001B69DA00674B0A431A6041E07B68DB68F5
:100DE000002B24D0634B1A68624B01210A431A601E
:100DF000FFF764FA03003B6108E0FFF75FFA0200C7
:100E00003B69D31A022B01D9032305E2594B1B6816
:100E100002221340F1D0574B1B68F822934319006C
:100E20007B681B69DA00534B0A431A6018E0514B88
:100E30001A68504B01218A431A60FFF73FFA0300FA
:100E40003B6108E0FFF73AFA02003B69D31A022B34
:100E500001D90323E0E1474B1B6802221340F1D183
:100E60007B681B680822134036D07B68DB69002B47
:100E700019D0404B5A6A3F4B01210A435A62FFF78F
:100E80001DFA03003B6108E0FFF718FA02003B6916
:100E9000D31A022B01D90323BEE1364B5B6A02222F
:100EA0001340F1D018E0334B5A6A324B01218A4388
:100EB0005A62FFF703FA03003B6108E0FFF7FEF90F
:100EC00002003B69D31A022B01D90323A4E1294B69
:100ED0005B6A02221340F1D17B681B680422134035
:100EE00000D1B5E01723FB1800221A70214BDA69F4
:100EF00080235B05134011D11E4BDA691D4B802105
:100F000049050A43DA611B4BDA6980235B0513400C
:100F1000FB60FB681723FB1801221A70184B1A6834
:100F200080235B0013401AD1154B1A68144B8021A3
:100F300049000A431A60FFF7C1F903003B6108E06A
:100F4000FFF7BCF902003B69D31A642B01D90323D4
:100F500062E10B4B1A6880235B001340F0D07B6882
:100F60009B68012B0ED1034B1A6A024B01210A43E5
:100F70001A6235E000100240FFFFFEFFFFFFFBFF9B
:100F8000007000407B689B68002B0CD1A44B1A6A50
:100F9000A34B01218A431A62A14B1A6AA04B042178
:100FA0008A431A621CE07B689B68052B0CD19C4B22
:100FB0001A6A9B4B04210A431A62994B1A6A984B8E
:100FC00001210A431A620BE0954B1A6A944B0121E6
:100FD0008A431A62924B1A6A914B04218A431A621D
:100FE0007B689B68002B14D0FFF768F903003B6116
:100FF00009E0FFF763F902003B69D31A894A93427B
:1010000001D9032308E1864B1B6A02221340F0D06A
:1010100013E0FFF753F903003B6109E0FFF74EF9D6
:1010200002003B69D31A7F4A934201D90323F3E0BC
:101030007B4B1B6A02221340F0D11723FB181B784D
:10104000012B05D1764BDA69754B77490A40DA6195
:101050007B681B681022134063D07B685B69012B9F
:101060002AD16F4B5A6B6E4B04210A435A636C4B67
:101070005A6B6B4B01210A435A63FFF71FF90300B8
:101080003B6108E0FFF71AF902003B69D31A022B13
:1010900001D90323C0E0624B5B6B02221340F1D005
:1010A0005F4B5B6BF822934319007B689B69DA0006
:1010B0005B4B0A435A6334E07B685B69053311D1AB
:1010C000574B5A6B564B04218A435A63544B5B6B04
:1010D000F822934319007B689B69DA00504B0A435E
:1010E0005A631EE04E4B5A6B4D4B04210A435A6320
:1010F0004B4B5A6B4A4B01218A435A63FFF7DEF888
:1011000003003B6108E0FFF7D9F802003B69D31AFE
:10111000022B01D903237FE0414B5B6B022213407A
:10112000F1D17B681B6A002B00D174E03C4B5B68FB
:101130000C221340082B00D16BE07B681B6A022B4A
:101140004CD1374B1A68364B38490A401A60FFF7C2
:10115000B5F803003B6108E0FFF7B0F802003B6917
:10116000D31A022B01D9032356E02D4B1A68802392
:101170009B041340F0D12A4BDB6A0F2293431900E2
:101180007B68DA6A264B0A43DA62254B5B68284A99
:10119000134019007B689A6A7B685B6A1A43204B8C
:1011A0000A435A601E4B1A681D4B802149040A43AA
:1011B0001A60FFF783F803003B6108E0FFF77EF851
:1011C00002003B69D31A022B01D9032324E0144BFC
:1011D0001A6880239B041340F0D01CE0104B1A685F
:1011E0000F4B12490A401A60FFF768F803003B6191
:1011F00008E0FFF763F802003B69D31A022B01D91C
:10120000032309E0064B1A6880239B041340F0D1A6
:1012100001E0012300E000231800BD4606B080BDB8
:101220000010024088130000FFFFFFEFFFFFFFFEEA
:10123000FFFFC2FF80B584B000AF78603960002343
:10124000FB606A4B1B68012213403A689A4211D92D
:10125000664B1B68012293431900644B3A680A43AA
:101260001A60624B1B68012213403A689A4201D00F
:101270000123B6E07B681B680222134009D05C4B57
:101280005B68F022934319007B689A68584B0A43C5
:101290005A607B681B680122134000D167E07B68BD
:1012A0005B68012B07D1524B1A6880239B021340C5
:1012B00014D1012395E07B685B68022B07D14C4B6E
:1012C0001A6880239B04134008D1012389E0484B0E
:1012D0001B680222134001D1012382E0444B5B686A
:1012E0000322934319007B685A68414B0A435A60B2
:1012F000FEF7E4FF0300FB607B685B68012B11D104
:1013000009E0FEF7DBFF0200FB68D31A394A93427B
:1013100001D9032365E0364B5B680C221340042B94
:10132000EFD124E07B685B68022B1BD109E0FEF75C
:10133000C5FF0200FB68D31A2E4A934201D903234A
:101340004FE02B4B5B680C221340082BEFD10EE0D3
:10135000FEF7B4FF0200FB68D31A264A934201D974
:1013600003233EE0224B5B680C221340F0D11F4B5D
:101370001B68012213403A689A4211D21B4B1B682A
:10138000012293431900194B3A680A431A60174B1C
:101390001B68012213403A689A4201D0012320E0E1
:1013A0007B681B680422134009D0114B5B68124A0A
:1013B000134019007B68DA680D4B0A435A6000F04D
:1013C00021F801000A4B5B681B090F2213400B4AEE
:1013D000D35C0A00DA400A4B1A600020FEF746FF91
:1013E00000231800BD4604B080BDC0460020024066
:1013F0000010024088130000FFF8FFFF3C6800085F
:101400007008002090B58FB000AF1423FB182B4A52
:1014100013CA13C312681A603B1D294A13CA13C3A7
:1014200012681A600023FB620023BB6200237B6307
:1014300000237B6200233B63224B5B68FB62FB6AF9
:101440000C221340042B02D0082B03D02DE01E4B9E
:101450003B632DE0FB6A9B0C0F2213401422BA1849
:10146000D35C7B62174BDB6A0F2213403A1DD35CBF
:10147000BB62FA6A80235B02134009D0B96A124842
:10148000FEF754FE03001A007B6A53437B6309E0B6
:10149000796A0A005201521A93019B1ADB005B1809
:1014A0001B027B637B6B3B6302E0074B3B63C046E5
:1014B0003B6B1800BD460FB090BDC0467465000878
:1014C000846500080010024000127A0080B500AF69
:1014D000024B1B681800BD4680BDC0467008002046
:1014E00080B500AFFFF7F2FF0100064B5B681B0AF7
:1014F00007221340044AD35CD9400B001800BD46B4
:1015000080BDC046001002404C68000880B584B021
:1015100000AF78607B68002B01D101238AE07B68F3
:1015200000229A627B685D229B5CDBB2002B07D1B4
:101530007B685C22002199547B68180004F0D4FC7D
:101540007B685D22022199547B681B681A687B685E
:101550001B6840218A431A607B68DA68E023DB005D
:101560009A4202D90023FB6002E080235B01FB600A
:101570007B68DA68F0231B019A4208D07B68DA683E
:10158000E023DB009A4202D07B6800229A627B68EB
:101590001B6B002B0CD17B68DA68E023DB009A42DE
:1015A00003D97B6802221A6302E07B6801221A6376
:1015B0007B685A687B689B681A437B681B691A437F
:1015C0007B685B691A437B68996980239B000B40A9
:1015D0001A437B68DB691A437B681B6A1A43110054
:1015E0007B689A6A7B681B680A431A607B689B6900
:1015F0001B0C04221A407B685B6A1A437B685B6B96
:101600001A437B68DB681A4311007B681B68FA6821
:101610000A435A607B681B68DA697B681B68074964
:101620000A40DA617B6800221A667B685D2201212C
:10163000995400231800BD4604B080BDFFF7FFFF9A
:1016400080B588B000AFF860B9603B60BB1D1A8000
:101650000023BB611F23FB1800221A70FB685C2269
:101660009B5C012B01D102234FE1FB685C2201212D
:101670009954FEF723FE0300BB61FB685D229B5C6F
:10168000DBB2012B04D01F23FB1802221A7031E1B8
:10169000BB68002B03D0BB1D1B88002B04D11F236C
:1016A000FB1801221A7025E1FB685D220321995481
:1016B000FB6800221A66FB68BA689A63FB68BA1D69
:1016C00012889A87FB68BA1D1288DA87FB680022A5
:1016D0001A64FB68442200219952FB6846220021CB
:1016E0009952FB6800221A65FB680022DA64FB68E5
:1016F0009A6880231B029A4208D1FB681B681A680B
:10170000FB681B688021C9010A431A60FB681B68DB
:101710001B6840221340402B07D0FB681B681A68E7
:10172000FB681B6840210A431A60FB68DA68E02303
:10173000DB009A4248D9FB685B68002B04D0FB6849
:10174000DB8F9BB2012B39D1BB681A88FB681B6801
:10175000DA60BB680233BB60FB68DB8F9BB2013B86
:101760009AB2FB68DA8729E0FB681B689B68022253
:101770001340022B0FD1BB681A88FB681B68DA6024
:10178000BB680233BB60FB68DB8F9BB2013B9AB244
:10179000FB68DA8712E03B68002B0AD03B68013314
:1017A0000CD0FEF78BFD0200BB69D31A3A689A424F
:1017B00004D81F23FB1803221A709BE0FB68DB8F01
:1017C0009BB2002BD0D171E0FB685B68002B04D08A
:1017D000FB68DB8F9BB2012B63D1FB68DB8F9BB275
:1017E000012B0FD9BB681A88FB681B68DA60BB68DD
:1017F0000233BB60FB68DB8F9BB2023B9AB2FB6893
:10180000DA874EE0BB685A1CBA60FA6812680C327C
:101810001B781370FB68DB8F9BB2013B9AB2FB68AD
:10182000DA873EE0FB681B689B6802221340022BAC
:1018300024D1FB68DB8F9BB2012B0FD9BB681A88C0
:10184000FB681B68DA60BB680233BB60FB68DB8F38
:101850009BB2023B9AB2FB68DA8722E0BB685A1C53
:10186000BA60FA6812680C321B781370FB68DB8F61
:101870009BB2013B9AB2FB68DA8712E03B68002B0F
:101880000AD03B6801330CD0FEF718FD0200BB699B
:10189000D31A3A689A4204D81F23FB1803221A70FD
:1018A00028E0FB68DB8F9BB2002BBBD1BA6939689B
:1018B000FB68180000F0C8FC031E02D0FB68202261
:1018C0001A66FB689B68002B0AD100237B61FB68CA
:1018D0001B68DB687B61FB681B689B687B617B69BD
:1018E000FB681B6E002B04D01F23FB1801221A700B
:1018F00000E0C046FB685D2201219954FB685C2230
:10190000002199541F23FB181B781800BD4608B00E
:1019100080BD000090B589B002AFF860B9603B604F
:10192000BB1D1A8000233B611723FB1800221A708D
:10193000FB685A6882235B009A4213D1FB689B685C
:10194000002B0FD1FB685D2204219954BB1D1C881C
:10195000BA68B968F8683B680093230000F018F98A
:1019600003000CE1FB685C229B5C012B01D102238C
:1019700005E1FB685C2201219954FEF79FFC0300FE
:101980003B61FB685D229B5CDBB2012B04D017231B
:10199000FB1802221A70E7E0BB68002B03D0BB1DC6
:1019A0001B88002B04D11723FB1801221A70DBE0DF
:1019B000FB685D2204219954FB6800221A66FB68CB
:1019C000BA681A64FB68BA1D442112885A52FB682F
:1019D000BA1D462112885A52FB6800229A63FB689E
:1019E00000229A87FB680022DA87FB680022DA640B
:1019F000FB6800221A65FB68DA68E023DB009A4284
:101A000008D9FB681B685A68FB681B685E490A4076
:101A10005A6008E0FB681B685A68FB681B688021F5
:101A200049010A435A60FB689A6880231B029A4264
:101A300007D1FB681B681A68FB681B6853490A409A
:101A40001A60FB681B681B6840221340402B07D0BC
:101A5000FB681B681A68FB681B6840210A431A6010
:101A6000FB68DA68E023DB009A4262D82DE0FB686D
:101A70001B689B6801221340012B13D1FB681B6874
:101A80000C331B78DAB2BB681A70BB680133BB60D9
:101A9000FB6846229B5A9BB2013B99B2FB684622E7
:101AA000995212E03B68002B0AD03B6801330CD0FE
:101AB000FEF704FC02003B69D31A3A689A4204D844
:101AC0001723FB1803221A704EE0FB6846229B5A2C
:101AD0009BB2002BCBD132E0FB681B689B680122D4
:101AE0001340012B12D1FB681B68DB689AB2BB68FC
:101AF0001A80BB680233BB60FB6846229B5A9BB2CC
:101B0000013B99B2FB684622995212E03B68002BD8
:101B10000AD03B6801330CD0FEF7D0FB02003B69D2
:101B2000D31A3A689A4204D81723FB1803221A7072
:101B30001AE0FB6846229B5A9BB2002BCCD13A6933
:101B40003968FB68180000F021FB031E02D0FB6817
:101B500020221A66FB681B6E002B04D01723FB188B
:101B600001221A7000E0C046FB685D2201219954F1
:101B7000FB685C22002199541723FB181B7818007E
:101B8000BD4607B090BDC046FFEFFFFFFFBFFFFFA0
:101B900080B58AB000AFF860B9607A601A00BB1CEB
:101BA0001A800023FB610023BB6100237B610123BA
:101BB0007B622323FB1800221A70FB685C229B5C6B
:101BC000012B01D10223F2E1FB685C22012199542F
:101BD000FEF774FB03007B61FB685D229B5CDBB25C
:101BE000FB61FB685B68BB61FB69012B10D0BA69C4
:101BF00082235B009A4206D1FB689B68002B02D1CE
:101C0000FB69042B04D02323FB1802221A70C3E1C2
:101C1000BB68002B06D07B68002B03D0BB1C1B8845
:101C2000002B04D12323FB1801221A70B4E1FB68B6
:101C30005D229B5CDBB2042B03D0FB685D22052197
:101C40009954FB6800221A66FB687A681A64FB687C
:101C5000BA1C462112885A52FB68BA1C44211288C9
:101C60005A52FB68BA689A63FB68BA1C1288DA8712
:101C7000FB68BA1C12889A87FB680022DA64FB684A
:101C800000221A65FB68DA68E023DB009A4205D877
:101C9000FB6846229B5A9BB2012B08D9FB681B6844
:101CA0005A68FB681B68C4490A405A6008E0FB6830
:101CB0001B685A68FB681B68802149010A435A6007
:101CC000FB681B681B6840221340402B07D0FB6851
:101CD0001B681A68FB681B6840210A431A60FB688E
:101CE000DA68E023DB009A4200D875E0FB685B68A5
:101CF000002B04D0FB68DB8F9BB2012B60D1BB684B
:101D00001A88FB681B68DA60BB680233BB60FB683B
:101D1000DB8F9BB2013B9AB2FB68DA8750E07B6AAB
:101D2000002B1CD0FB68DB8F9BB2002B17D0FB680D
:101D30001B689B6802221340022B10D1BB681A88D3
:101D4000FB681B68DA60BB680233BB60FB68DB8F33
:101D50009BB2013B9AB2FB68DA8700237B62FB6887
:101D600046229B5A9BB2002B1AD0FB681B689B68CB
:101D700001221340012B13D1FB681B68DB689AB268
:101D80007B681A807B6802337B60FB6846229B5A23
:101D90009BB2013B99B2FB684622995201237B62B8
:101DA0003B6B01330CD0FEF789FA02007B69D31A32
:101DB0003A6B9A4204D82323FB1803221A70EBE0F3
:101DC000FB68DB8F9BB2002BA9D1FB6846229B5A94
:101DD0009BB2002BA3D1CAE0FB685B68002B05D047
:101DE000FB68DB8F9BB2012B00D0B3E0FB68DB8F7D
:101DF0009BB2012B0FD9BB681A88FB681B68DA609D
:101E0000BB680233BB60FB68DB8F9BB2023B9AB2BC
:101E1000FB68DA879EE0BB685A1CBA60FA681268F1
:101E20000C321B781370FB68DB8F9BB2013B9AB2BC
:101E3000FB68DA878EE07B6A002B31D0FB68DB8F92
:101E40009BB2002B2CD0FB681B689B6802221340BE
:101E5000022B25D1FB68DB8F9BB2012B0FD9BB680E
:101E60001A88FB681B68DA60BB680233BB60FB68DA
:101E7000DB8F9BB2023B9AB2FB68DA870EE0BB684D
:101E80005A1CBA60FA6812680C321B781370FB682F
:101E9000DB8F9BB2013B9AB2FB68DA8700237B623F
:101EA000FB6846229B5A9BB2002B43D0FB681B6801
:101EB0009B6801221340012B3CD1FB6846229B5AB0
:101EC0009BB2012B21D9FB681B68DB689AB27B6847
:101ED0001A807B6802337B60FB6846229B5A9BB268
:101EE000023B99B2FB6846229952FB6846229B5AF4
:101EF0009BB2012B1CD8FB681B685A68FB681B68E7
:101F0000802149010A435A6012E0FB681B680C33C8
:101F10001A007B68591C79601278D2B21A70FB687B
:101F200046229B5A9BB2013B99B2FB6846229952CA
:101F300001237B623B6B01330CD0FEF7BFF902003B
:101F40007B69D31A3A6B9A4204D82323FB180322E5
:101F50001A7021E0FB68DB8F9BB2002B00D06AE790
:101F6000FB6846229B5A9BB2002B00D063E77A693C
:101F7000396BFB68180000F067F9031E02D0FB689C
:101F800020221A66FB681B6E002B04D02323FB184B
:101F900001221A7000E0C046FB685D2201219954BD
:101FA000FB685C22002199542323FB181B7818003E
:101FB000BD460AB080BDC046FFEFFFFF80B584B0CC
:101FC00000AFF860B9607A603B6050E03B68013375
:101FD0004DD03B68002B07D0FEF770F90200BB69BB
:101FE000D31A3A689A4242D8FB681B685A68FB6861
:101FF0001B68E0218A435A60FB685A6882235B00B1
:102000009A4213D1FB689A6880231B029A4205D03A
:10201000FB689A688023DB009A4207D1FB681B6843
:102020001A68FB681B6840218A431A60FB689A6A39
:1020300080239B019A4210D1FB681B681A68FB68D9
:102040001B6814490A401A60FB681B681A68FB6821
:102050001B68802189010A431A60FB685D22012107
:102060009954FB685C220021995403230EE0FB681D
:102070001B689B68BA681340BA689A4201D1012371
:1020800000E000237A689342A0D100231800BD46E7
:1020900004B080BDFFDFFFFF80B586B000AFF86001
:1020A000B9607A603B6062E0BA68C023DB009A42A4
:1020B0000CD17B68002B09D1FB681B680C331B78A3
:1020C000DAB217217B181A707B181B783B68013332
:1020D0004DD03B68002B07D0FEF7F0F802003B6ABA
:1020E000D31A3A689A4242D8FB681B685A68FB6860
:1020F0001B68E0218A435A60FB685A6882235B00B0
:102100009A4213D1FB689A6880231B029A4205D039
:10211000FB689A688023DB009A4207D1FB681B6842
:102120001A68FB681B6840218A431A60FB689A6A38
:1021300080239B019A4210D1FB681B681A68FB68D8
:102140001B6811490A401A60FB681B681A68FB6823
:102150001B68802189010A431A60FB685D22012106
:102160009954FB685C2200219954032308E0FB6822
:102170001B689B68BA6813407A689A4294D100231E
:102180001800BD4606B080BDFFDFFFFF80B586B0FA
:1021900002AFF860B9607A60FB685A6882235B001E
:1021A0009A4213D1FB689A6880231B029A4205D099
:1021B000FB689A688023DB009A4207D1FB681B68A2
:1021C0001A68FB681B6840218A431A60BA68F8687D
:1021D0007B680093130000228021FFF7EFFE031EAF
:1021E00007D0FB681B6E20221A43FB681A66032384
:1021F00026E0FB685A6882235B009A421FD1FB6885
:102200009A6880231B029A4205D0FB689A68802353
:10221000DB009A4213D1BA68C023D900F8687B6802
:10222000009313000022FFF737FF031E07D0FB685F
:102230001B6E20221A43FB681A66032300E000236A
:102240001800BD4604B080BD80B586B002AFF8600E
:10225000B9607A60BA68C0235901F8687B68009356
:1022600013000022FFF718FF031E07D0FB681B6E48
:1022700020221A43FB681A66032327E0BA68F8682D
:102280007B680093130000228021FFF797FE031E56
:1022900007D0FB681B6E20221A43FB681A660323D3
:1022A00014E0BA68C023D900F8687B680093130073
:1022B0000022FFF7F1FE031E07D0FB681B6E2022F1
:1022C0001A43FB681A66032300E000231800BD468A
:1022D00004B080BD80B582B000AF78607B68002B11
:1022E00001D1012347E07B6869229B5CDBB2002BB4
:1022F00007D17B686822002199547B68180003F09D
:102300003FFE7B686922242199547B681B681A6808
:102310007B681B6801218A431A607B68180000F003
:10232000A3F90300012B01D1012324E07B685B6A40
:10233000002B03D07B68180000F00CFB7B681B6847
:102340005A687B681B680E490A405A607B681B68A4
:102350009A687B681B6808218A439A607B681B68BF
:102360001A687B681B6801210A431A607B681800A1
:1023700000F0A4FB03001800BD4602B080BDC046BB
:10238000FFF7FFFF80B588B002AFF860B9603B602F
:10239000BB1D1A8000237B61FB6869229B5CDBB25A
:1023A000202B00D08CE0BB68002B03D0BB1D1B880A
:1023B000002B01D1012384E0FB689A6880235B0134
:1023C0009A4209D1FB681B69002B05D1BB68012229
:1023D000134001D0012374E0FB6868229B5C012B51
:1023E00001D102236DE0FB68682201219954FB684A
:1023F0000022DA66FB68692221219954FDF75EFF0D
:1024000003007B61FB68BA1D502112885A52FB6899
:10241000BA1D522112885A5235E0FB6852229B5A4B
:102420009BB2013B99B2FB68522299527A69F868D3
:102430003B68009313000022802100F057FB031E2D
:1024400001D003233DE0FB689A6880235B019A4238
:1024500011D1FB681B69002B0DD1BB683B613B6947
:102460001A88FB681B68D205D20D92B21A85BB6828
:102470000233BB6007E0BB685A1CBA601A78FB687D
:102480001B6892B21A85FB6852229B5A9BB2002BA2
:10249000C3D17A69F8683B68009313000022402199
:1024A00000F024FB031E01D003230AE0FB6869222D
:1024B00020219954FB68682200219954002300E0F0
:1024C00002231800BD4606B080BD000080B58AB06A
:1024D00002AFF860B9603B60BB1D1A800023FB614E
:1024E000FB686A229B5CDBB2202B00D0B4E0BB68A7
:1024F000002B03D0BB1D1B88002B01D10123ACE0B6
:10250000FB689A6880235B019A4209D1FB681B69CA
:10251000002B05D1BB680122134001D001239CE0B0
:10252000FB6868229B5C012B01D1022395E0FB68CC
:10253000682201219954FB680022DA66FB686A224E
:1025400022219954FDF7BAFE0300FB61FB68BA1D16
:10255000582112885A52FB68BA1D5A2112885A52C1
:10256000FB689A6880235B019A420DD1FB681B6966
:10257000002B04D1FB685C223A49995215E0FB68B4
:102580005C22FF21995210E0FB689B68002B0CD164
:10259000FB681B69002B04D1FB685C22FF21995268
:1025A00003E0FB685C227F2199521A23FB18FA682A
:1025B0005C21525A1A803FE0FB685A229B5A9BB218
:1025C000013B99B2FB685A229952FA69F8683B6854
:1025D000009313000022202100F088FA031E01D08E
:1025E00003233AE0FB689A6880235B019A4214D186
:1025F000FB681B69002B10D1BB687B61FB681B6803
:102600009B8C9BB21A22BA18128813409AB27B692B
:102610001A80BB680233BB600EE0FB681B689B8CB2
:102620009BB2DAB21A23FB181B88D9B2BB68581CBC
:10263000B8600A40D2B21A70FB685A229B5A9BB209
:10264000002BB9D1FB686A2220219954FB686822CB
:1026500000219954002300E002231800BD4608B071
:1026600080BDC046FF01000090B587B000AF786024
:102670000023FB601723FB1810221A700A23FB1893
:1026800000221A801423FB1800221A801323FB183F
:1026900000221A707B689A687B681B691A437B6802
:1026A0005B691A437B68DB691343FB607B681B68CB
:1026B0001B68A04A134019007B681B68FA680A432C
:1026C0001A607B681B685B689B4A134019007B6833
:1026D000DA687B681B680A435A607B689A697B6882
:1026E0001B6A1343FB607B681B689B68934A13401B
:1026F00019007B681B68FA680A439A607B681B684C
:102700008F4A934225D18F4B1B6B03221340012B21
:102710000FD004D3022B11D0032B05D013E01723C5
:10272000FB1800221A7022E01723FB1802221A70ED
:102730001DE01723FB1804221A7018E01723FB185A
:1027400008221A7013E01723FB1810221A70C046D3
:102750000DE07B681B687C4A934204D11723FB1869
:1027600000221A7003E01723FB1810221A707B68EE
:10277000DA6980231B029A4200D077E01723FB1806
:102780001B78022B1CD002DC002B05D04FE0042B61
:1027900027D0082B39D04AE0FEF7A2FE03005A00EA
:1027A0007B685B685B08D2187B685B681900100067
:1027B000FDF7BCFC03001A001423FB181A803BE051
:1027C0007B685B685B08614A9A187B685B681900E4
:1027D0001000FDF7ABFC03001A001423FB181A804D
:1027E0002AE0FEF70FFE03005A007B685B685B0877
:1027F000D2187B685B6819001000FDF797FC030096
:102800001A001423FB181A8016E07B685B685B08CB
:10281000802252029A187B685B6819001000FDF74D
:1028200085FC03001A001423FB181A8004E013230C
:10283000FB1801221A70C0460A203B1814243A19CA
:1028400012880F218A431A803B191B885B109BB2A8
:102850000722134099B23B183A1812880A431A808B
:102860007B681B683A181288DA605BE01723FB1854
:102870001B78022B1BD002DC002B05D04DE0042B73
:1028800026D0082B37D048E0FEF72AFE02007B68EE
:102890005B685B08D2187B685B6819001000FDF765
:1028A00045FC03009AB27B681B68DA603AE07B68FB
:1028B0005B685B08264A9A187B685B681900100001
:1028C000FDF734FC03009AB27B681B68DA6029E0EC
:1028D000FEF798FD02007B685B685B08D2187B6896
:1028E0005B6819001000FDF721FC03009AB27B68B9
:1028F0001B68DA6016E07B685B685B088022120266
:102900009A187B685B6819001000FDF70FFC030044
:102910009AB27B681B68DA6004E01323FB1801227B
:102920001A70C0461323FB181B781800BD4607B069
:1029300090BDC046F369FFFFFFCFFFFFFFF4FFFF2D
:102940000038014000100240004400400024F40020
:1029500000127A0080B582B000AF78607B685B6A55
:10296000012213400BD07B681B685B684A4A134006
:1029700019007B689A6A7B681B680A435A607B6807
:102980005B6A022213400BD07B681B685B68434A7A
:10299000134019007B68DA6A7B681B680A435A6037
:1029A0007B685B6A042213400BD07B681B685B6802
:1029B0003B4A134019007B681A6B7B681B680A430B
:1029C0005A607B685B6A082213400BD07B681B68E7
:1029D0005B68344A134019007B685A6B7B681B683C
:1029E0000A435A607B685B6A102213400BD07B68F5
:1029F0001B689B682C4A134019007B689A6B7B68A4
:102A00001B680A439A607B685B6A202213400BD0E4
:102A10007B681B689B68254A134019007B68DA6B4A
:102A20007B681B680A439A607B685B6A402213409C
:102A30001DD07B681B685B681D4A134019007B68CA
:102A40001A6C7B681B680A435A607B681A6C802387
:102A50005B039A420BD17B681B685B68154A134085
:102A600019007B685A6C7B681B680A435A607B6854
:102A70005B6A802213400BD07B681B685B680E4A40
:102A8000134019007B689A6C7B681B680A435A6084
:102A9000C046BD4602B080BDFFFFFDFFFFFFFEFF49
:102AA000FFFFFBFFFF7FFFFFFFEFFFFFFFDFFFFFEA
:102AB000FFFFEFFFFFFF9FFFFFFFF7FF80B582B033
:102AC00000AF78607B680022DA667B68692220218B
:102AD00099547B686A22202199547B6868220021DE
:102AE000995400231800BD4602B080BD80B584B063
:102AF00000AFF860B9603B60FB1D1A702BE0BB694A
:102B0000013328D0BB69002B07D0FDF7D7FB0200AB
:102B10003B68D31ABA699A421DD2FB681B681A68CF
:102B2000FB681B6816490A401A60FB681B689A68B4
:102B3000FB681B6801218A439A60FB686922202197
:102B40009954FB686A2220219954FB68682200216D
:102B5000995403230FE0FB681B68DB69BA681340D4
:102B6000BA68D31A5A425341DBB21A00FB1D1B78D4
:102B70009A42C4D000231800BD4604B080BDC046B0
:102B80005FFEFFFF80B582B000AFBB1D00221A7050
:102B9000FB1D00221A701EE0BB1D1978FB1D1B785F
:102BA0000322180000F0C6FCBB1DBA1D12780332C8
:102BB0001A70BB1D1978FB1D1B780322180000F04A
:102BC000DEFCBB1DBA1D127803321A70FB1DFA1D04
:102BD000127801321A70FB1D1B78072BDCD9C04616
:102BE000BD4602B080BD0000B0B584B000AF7860D3
:102BF0000A00BB1C1A8000F0C1F8354B00225A7045
:102C0000334B0022DA70324BFF229A700F23FB18ED
:102C100000221A700E257C1900F094F8030023702E
:102C20007B191B78012B0ED10F243B193A1912780E
:102C300001321A70274B180000F060FD3B191B7819
:102C4000132BE7D900E0C0460F23FB181B78132B8A
:102C500001D9002338E0012000F012FC031E07D048
:102C60003B1D180000F0DCF83B1D180000F004F9D3
:102C7000022000F0A9FC0F23FB1800221A7013E0B9
:102C80000F243B191B780321180000F04DF9BB1CE1
:102C90001A883B191B781100180000F069F93B19DC
:102CA0003A19127801321A700F23FB181B78072B80
:102CB000E6D9002000F0F6FA0D23FC18002000F001
:102CC00033FB0300237001231800BD4604B0B0BDE0
:102CD00000000020A086010080B500AF052000F0B4
:102CE000C1FC054B1868044B9B8801221900FDF7B5
:102CF00036FFC046BD4680BD04080020B0B584B094
:102D000000AF0200FB1D1A70062000F0ABFCFB1D9B
:102D10001B78180000F0CEFC0F257C1900F0DCFCBD
:102D200003002370064B1868054B9B88012219008D
:102D3000FDF715FF7B191B781800BD4604B0B0BD28
:102D40000408002090B583B000AF262000F08AFC74
:102D5000FC1D00F0C1FC03002370074B1868064BF4
:102D60009B8801221900FDF7FAFEFB1D1B78180055
:102D7000BD4603B090BDC0460408002090B583B0A6
:102D800000AFFB1D00221A70BB1D00221A70272005
:102D900000F068FC124B1868114B9B880122190047
:102DA000FDF7DDFE0F4B180000F0A8FCBC1D00F085
:102DB0001BF803002370BB1D1B78102B08D1FB1DD3
:102DC0001B78FA1D591C1170C82BEBD9FA2302E0AD
:102DD000C046BB1D1B781800BD4603B090BDC04661
:102DE000040800201027000090B583B000AF2C200D
:102DF00000F038FCFC1D00F06FFC03002370074B53
:102E00001868064B9B8801221900FDF7A8FEFB1DE0
:102E10001B781800BD4603B090BDC04604080020D2
:102E200080B584B000AF7860222000F01BFC0F2337
:102E3000FB1800221A700CE07B685A1C7A601B7821
:102E4000180000F037FC0F217B181A787B1801322C
:102E50001A700F23FB181B78032BEDD9054B18684C
:102E6000044B9B8801221900FDF779FEC046BD4640
:102E700004B080BD0408002080B584B000AF786045
:102E8000232000F0EFFB0F23FB1800221A700CE048
:102E90007B685A1C7A601B78180000F00BFC0F212D
:102EA0007B181A787B1801321A700F23FB181B78D5
:102EB000032BEDD9054B1868044B9B8801221900A0
:102EC000FDF74DFEC046BD4604B080BD040800209D
:102ED00090B585B000AF7860282000F0C3FB0F23C9
:102EE000FB1800221A700CE07C68631C7B6000F009
:102EF000F3FB030023700F217B181A787B18013233
:102F00001A700F23FB181B78072BEDD9054B186897
:102F1000044B9B8801221900FDF721FEC046BD46E7
:102F200005B090BD0408002080B582B000AF02005B
:102F3000FB1D1A70BB1D0A1C1A70342000F092FB96
:102F4000FB1D1B78180000F0B5FBBB1D1B7818009B
:102F500000F0B0FB054B1868044B9B880122190058
:102F6000FDF7FDFDC046BD4602B080BD040800204F
:102F700080B582B000AF0200FB1D1A703B1D0A1C19
:102F80001A80332000F06EFBFB1D1B78180000F048
:102F900091FB3B1D1B88DBB2180000F08BFB3B1D37
:102FA0001B881B0A9BB2DBB2180000F083FB064BA8
:102FB0001868054B9B8801221900FDF7D0FDC0461B
:102FC000BD4602B080BDC0460408002080B584B074
:102FD00000AF39601100FB1D021C1A703B1D0A1C5A
:102FE0001A8003E02F4B180000F088FB2E4BDB7893
:102FF000DBB21A00FB1D1B781A411300012213409B
:10300000F0D0294BDB78DBB25BB2FA1D12780121DC
:1030100091400A0052B2D24352B213405BB2DAB2CC
:10302000214BDA70392000F01DFBFB1D1B781800C6
:1030300000F040FB3B1D1B88DBB2180000F03AFBA0
:103040003B1D1B881B0A9BB2DBB2180000F032FB51
:10305000022000F053FB0E23FB1800221A800DE023
:103060003B681B78180000F025FB3B6801333B6090
:103070000E217B181A887B1801321A800E23FA1849
:103080003B1D12881B889A42EAD3084B1868074BED
:103090009B8801221900FDF762FDC046BD4604B0C1
:1030A00080BDC0461027000000000020040800205A
:1030B00080B582B000AF0200FB1D1A703B1D0A1CD8
:1030C0001A80392000F0CEFAFB1D1B78180000F0A2
:1030D000F1FA3B1D1B88DBB2180000F0EBFA3B1D38
:1030E0001B881B0A9BB2DBB2180000F0E3FA022037
:1030F00000F004FBC046BD4602B080BD80B584B080
:1031000000AF78600A00BB1C1A800E23FB18002257
:103110001A800DE07B681B78180000F0CBFA7B6802
:1031200001337B600E22BB18BA18128801321A8054
:103130000E23FA18BB1C12881B889A42EAD3C04699
:10314000BD4604B080BD000080B500AF054B1868D7
:10315000044B9B8801221900FDF701FDC046BD46C6
:1031600080BDC0460408002090B585B000AF0200C5
:10317000FB1D1A703B2000F075FAFB1D1B78180030
:1031800000F098FA00F0A8FA03001A000E243B1988
:103190001A8000F0A1FA03009BB21B0299B23B19FE
:1031A0003A1912888A181A80064B1868054B9B88B2
:1031B00001221900FDF7D3FC3B191B881800BD46FE
:1031C00005B090BD0408002080B582B000AF0200B9
:1031D000FB1D1A702E2000F045FAFB1D1B7818000D
:1031E00000F068FA054B1868044B9B88012219000F
:1031F000FDF7B5FCC046BD4602B080BD0408002006
:1032000080B584B000AF3A60FB1D021C1A703B1DF4
:103210000A1C1A803B1D1B88002B3CD03C2000F070
:1032200021FAFB1D1B78180000F044FA3B1D1B8897
:10323000DBB2180000F03EFA3B1D1B881B0A9BB254
:10324000DBB2180000F036FA012000F057FA0E2326
:10325000FB1800221A800EE000F03EFA03001A006C
:103260003B681A703B6801333B600E217B181A885B
:103270007B1801321A800E23FA183B1D12881B8816
:103280009A42E9D3064B1868054B9B880122190026
:10329000FDF765FC00E0C046BD4604B080BDC046F9
:1032A00004080020B0B584B000AF0200FB1D1A7006
:1032B0000F23FB1800221A700E23FB1800221A702D
:1032C000352000F0CFF9FB1D1B78180000F0F2F953
:1032D000134B1868124B9B8801221900FDF73FFC25
:1032E000104B180000F00AFA0E257C19FFF77CFD40
:1032F000030023707B191B78102B09D10F22BB18F8
:103300001B78BA18591C1170C82BE9D9FA2303E0AD
:10331000C0460E23FB181B781800BD4604B0B0BD94
:103320000408002088130000B0B584B000AF02008C
:10333000FB1D1A700F23FB1800221A700E23FB18B6
:1033400000221A70362000F08DF9FB1D1B78180042
:1033500000F0B0F9134B1868124B9B88012219003A
:10336000FDF7FDFB104B180000F0C8F90E257C1985
:10337000FFF73AFD030023707B191B78102B09D14E
:103380000F22BB181B78BA18591C1170C82BE9D929
:10339000FA2303E0C0460E23FB181B781800BD4635
:1033A00004B0B0BD0408002088130000B0B584B09C
:1033B00000AF0200FB1D1A700F23FB1800221A70C9
:1033C0000E23FB1800221A70382000F04BF9FB1D69
:1033D0001B78180000F06EF9134B1868124B9B888D
:1033E00001221900FDF7BBFB104B180000F086F915
:1033F0000E257C19FFF7F8FC030023707B191B785E
:10340000102B09D10F22BB181B78BA18591C117048
:10341000C82BE9D9FA2303E0C0460E23FB181B781A
:103420001800BD4604B0B0BD040800208813000099
:10343000B0B584B000AF0200FB1D1A70302000F060
:1034400011F9FB1D1B78180000F034F9022000F080
:1034500055F90F257C1900F03FF903002370074B45
:103460001868064B9B8801221900FDF778FB7B1931
:103470001B781800BD4604B0B0BDC046040800204B
:10348000B0B584B000AF0200FB1D1A700F23FB180B
:1034900000221A70412000F0E5F8FB1D1B7818008F
:1034A00000F008F9134B1868124B9B880122190091
:1034B000FDF755FB104B180000F020F90E257C1984
:1034C000FFF792FC030023707B191B78102B09D1A6
:1034D0000F22BB181B78BA18591C1170C82BE9D9D8
:1034E000FA2303E0C0460E23FB181B781800BD46E4
:1034F00004B0B0BD04080020204E000090B583B099
:1035000000AF422000F0AEF8FC1D00F0E5F803002B
:103510002370074B1868064B9B8801221900FDF7A2
:103520001EFBFB1D1B781800BD4603B090BDC046B6
:103530000408002090B583B000AF0400080011001B
:10354000FB1D221C1A70BB1D021C1A707B1D0A1C5D
:103550001A70522000F086F8FB1D1B78180000F04E
:10356000A9F8BB1D1B78180000F0A4F87B1D1B7880
:10357000180000F09FF8C046BD4603B090BD90B55E
:1035800083B000AF040008001100FB1D221C1A705C
:10359000BB1D021C1A707B1D0A1C1A70532000F000
:1035A00061F8FB1D1B78180000F084F8BB1D1B7828
:1035B000180000F07FF87B1D1B78180000F07AF8E7
:1035C000C046BD4603B090BD80B582B000AF786004
:1035D000552000F047F87B68DBB2180000F06AF86D
:1035E0007B689BB21B0A9BB2DBB2180000F062F84A
:1035F0007B681B0CDBB2180000F05CF87B681B0ECC
:10360000DBB2180000F056F8C046BD4602B080BDDF
:1036100080B582B000AF192000F024F8022000F03D
:103620006DF800F059F803001A00BB1D1A8000F075
:1036300053F803009BB21B0299B2BB1DBA1D12883E
:103640008A181A80064B1868054B9B8801221900BE
:10365000FDF785FABB1D1B881800BD4602B080BD72
:103660000408002080B582B000AF0200FB1D1A7074
:103670000E4B18680D4B9B8801221900FDF76FFA5D
:103680000A4B1868094B9B8800221900FDF767FA5E
:10369000F91D074864230122FDF7D2FF022000F044
:1036A0002DF8C046BD4602B080BDC04604080020CB
:1036B0009418002080B582B000AF0200FB1D1A7084
:1036C000F91D044864230122FDF7BAFFC046BD4638
:1036D00002B080BD9418002080B582B000AFF91D03
:1036E000054864230122FEF715F9FB1D1B7818001D
:1036F000BD4602B080BDC0469418002080B584B09D
:1037000000AF78607B685B015B08FB6000E0C0464F
:10371000FB68013BFB60FB68002BF8D1C046BD464F
:1037200004B080BD80B582B000AF786039603B687E
:103730000A4A93420CD83B681A687B685A607B68D7
:103740005B68013304D07B683A681A60012300E0AB
:1037500000231800BD4602B080BDC046FEFF000831
:1037600090B58DB000AFF860B9607A60BB685B68F7
:10377000FB62BB681B68BB62BB681B687B62142171
:103780007B1800229A607B1800225A607B18002266
:103790001A60BB6A0433BB62FB6A013BFB62BB6A13
:1037A0001A687B6AD31808333B623A6A7B68110057
:1037B0001800FCF7A9FC031E16D114217B183A6AE5
:1037C0001A60BB6A1A687B6AD31804331A687B6A6A
:1037D000D3181A007B185A60BB6A1A687B6AD31820
:1037E0001A687B189A6002E0FB6A002BD1DCFB6848
:1037F0001422BA1813CA13C3F868BD460DB090BDA1
:1038000080B586B000AF786039607B681B683B612B
:103810007B681B68FB6000237B6115E03B69043318
:103820003B613B691A68FB68D3180833BB60BA6810
:103830003B6811001800FCF767FC031E01D101234F
:1038400008E07B6901337B617B685B687A699A4237
:10385000E4D300231800BD4606B080BDF0B58DB09E
:1038600000AFF860B960BB1D1A80FB681B68BB62C3
:103870001826BB1900221A60BA6ABB195A60BB1914
:1038800001229A6000237B6172B6FCF76BFE142361
:10389000FA18BB1911001800FCF724FF36E02423A6
:1038A000FB1804220021180002F0A3FC2E23FB18B1
:1038B00000221A8014E02E203B181B88BA68117869
:1038C0002422BA18D154BB1D1A88BB1D013A1A8094
:1038D000BB680133BB603B183A18128801321A806A
:1038E0002E23FB181B88032B03D8BB1D1B88002B22
:1038F000E1D1BB6A1A1DBA6219007B6A1C00002361
:103900001D0022002B000220FCF796FDBB1D1B882A
:10391000002BC4D1FCF74CFE62B6C046BD460DB0CC
:10392000F0BD80B586B000AFF860B960BB1D1A80ED
:10393000FB681B687B610EE07B691A78BB681A70B4
:10394000BB680133BB607B6901337B61BB1D1A8897
:10395000BB1D013A1A80BB1D1B88002BECD1C04651
:10396000BD4606B080BD000090B583B000AF786062
:103970007B685C1D2000FCF7D1FB0300E218074BBD
:10398000100019000B231A0002F02AFC7B681800B3
:1039900000F068FDC046BD4603B090BD94650008C8
:1039A000B0B586B000AF7860244A7B68110018007B
:1039B00001F0C0F903007B61214A7B681100180007
:1039C00001F0B8F903003B617B69002B2CD03B6907
:1039D000002B29D00F257C197B69180001F0F4F920
:1039E000030023700E23FC183B69180001F0ECF96A
:1039F000030023707B191B78062B15D80E23FB18A8
:103A00001B78062B10D80E23FB181A780F23FB18EF
:103A10001B781100180002F01DF90A4A7B6811009A
:103A2000180000F0EFFC06E0074A962359007B6877
:103A3000180000F0ADFBBD4606B0B0BDA0650008A3
:103A4000A8650008B0650008B4650008B0B584B08A
:103A500000AF78600F2425003C1902F093F90300B1
:103A60002370244BBB60BA68234B10001900062357
:103A70001A0002F0B5FBBB680533BB602C003B1994
:103A80001B780F221340DBB23033DAB2BB681A70F6
:103A9000BB680133BB60BA68184B100019000723DC
:103AA0001A0002F09DFBBB680633BB603B191B7814
:103AB0001B09DBB23033DAB2BB681A70BB68013362
:103AC000BB60BA680E4B1000190003231A0002F005
:103AD00087FBBB680233BB60BB6800221A70054AD3
:103AE0007B68C821180000F053FBC046BD4604B0F7
:103AF000B0BDC046F4080020C0650008C8650008D5
:103B0000D065000880B582B000AF7860044A7B6859
:103B1000C821180000F03CFBC046BD4602B080BD85
:103B2000D465000880B582B000AF7860044A7B6835
:103B3000C821180000F02CFBC046BD4602B080BD75
:103B4000E065000890B587B000AF78600823FB18E7
:103B5000294A1A6000221A717B6845229B5C002B5F
:103B600007D1264A962359007B68180000F010FB05
:103B70003EE01723FB1801221A7028E01723FB18D8
:103B80001B789AB208243B1903331900100001F086
:103B90005EF93A197B681100180001F0CBF80300B8
:103BA0003B613B69002B0CD01723FB181B78013BB2
:103BB0001A01134BD318013339691022180002F08F
:103BC0006BFB1722BB18BA18127801321A70172330
:103BD000FB181B78062BD1D909490A4B6122180022
:103BE000FFF73CFE084A7B681100180000F00AFC51
:103BF000BD4607B090BDC046616E7400E865000820
:103C0000F81700200C080020B065000890B585B0BA
:103C100000AF7860264BBB600F23FB1800221A70A0
:103C200036E0244ABB681100180001F085F9030052
:103C3000BB600F217B181B783133DAB2BB681A7076
:103C4000BB680133BB60BB683D221A70BB6801339F
:103C5000BB600C007B181B781A01174BD318591C3A
:103C6000BB681022180001F083F90300BB6021003B
:103C70007B181B78052B05D0BB6826221A70BB6801
:103C80000133BB600F22BB18BA18127801321A70C8
:103C90000F23FB181B78052BC3D9054A7B68C82165
:103CA000180000F075FAC046BD4605B090BDC0468C
:103CB00000090020F4650008F817002080B582B0E4
:103CC00000AF78607B6800221A707B684522002173
:103CD00099547B6800221A717B680022DA707A6836
:103CE000B4235B000021D1547A68AC235B0000212F
:103CF000D1547A68B0235B000021D1527A68AE2398
:103D00005B000349D150C046BD4602B080BDC046ED
:103D10006815002080B582B000AF78607B6818001D
:103D2000FCF7FCF90300032B00D887E07B68180040
:103D3000FCF7F4F90300053B7A68D318424A1100F6
:103D40001800FCF7E1F9031E01D1404B77E07B68D6
:103D50001800FCF7E3F90300043B7A68D3183C4AE7
:103D600011001800FCF7D0F9031E01D1374B66E0B3
:103D70007B681800FCF7D2F90300043B7A68D3187B
:103D8000344A11001800FCF7BFF9031E01D1324B71
:103D900055E07B681800FCF7C1F90300033B7A6823
:103DA000D3182E4A11001800FCF7AEF9031E01D1FA
:103DB0002B4B44E07B681800FCF7B0F90300043B90
:103DC0007A68D318274A11001800FCF79DF9031EE2
:103DD00001D1254B33E07B681800FCF79FF9030005
:103DE000043B7A68D318214A11001800FCF78CF9BB
:103DF000031E01D11E4B22E07B681800FCF78EF9F0
:103E00000300053B7A68D3181A4A11001800FCF722
:103E10007BF9031E01D1164B11E07B681800FCF7FB
:103E20007DF90300043B7A68D318134A1100180087
:103E3000FCF76AF9031E01D1104B00E0104B18008B
:103E4000BD4602B080BDC04634660008B0670008B9
:103E50003C66000844660008BC6700084C66000821
:103E6000C867000850660008E06700085866000848
:103E7000EC6700086066000868660008F8670008DC
:103E8000A467000882B090B58FB000AF7860396049
:103E9000482039180A604B607A68AE235B00D3581B
:103EA0003B632F23FB1800221A703B181C683B1839
:103EB0001B681800FCF732F90300033BE318A94A1A
:103EC00011001800FCF720F9031E1CD12F23FB184A
:103ED00001221A704823FB181A680C243B191100A0
:103EE000180002F0AAF93B191800FCF717F90300B3
:103EF000033B3A190021D1543B191800FFF70AFF80
:103F000003007B6307E04823FB181B681800FFF7DA
:103F100001FF03007B633B6B00221A703B6B1800B0
:103F2000FCF7FCF803001A003B6B9A188E4B10004C
:103F3000190009231A0002F053F93B6B08333B6365
:103F40003B6B20221A703B6B01333B633B689BB297
:103F50003A6B1100180000F07AFF03001A003B6B67
:103F60009B183B633B6B1800FCF7D8F803001A0062
:103F70003B6B9A187D4B1000190006231A0002F0C3
:103F80002FF93B6B05333B633B6B1800FCF7C6F81E
:103F900003001A003B6B9A18754B100019000D2393
:103FA0001A0002F01DF93B6B0C333B637B681B79F5
:103FB000012B12D13B6B1800FCF7B0F803001A007C
:103FC0003B6B9A186B4B100019000D231A0002F07E
:103FD00007F93B6B0C333B6311E03B6B1800FCF7BC
:103FE0009DF803001A003B6B9A18634B10001900F0
:103FF00009231A0002F0F4F83B6B08333B632F23CC
:10400000FB181B78002B11D03B6B1800FCF786F8CF
:1040100003001A003B6B9A18584B10001900192323
:104020001A0002F0DDF83B6B18333B633B6B180062
:10403000FCF774F803001A003B6B9A18504B100001
:1040400019000F231A0002F0CBF83B6B0E333B63D1
:104050007A6B3B6B1100180002F0D3F87B6B1800F1
:10406000FCF75CF802003B6B9B183B633B6B180052
:10407000FCF754F803001A003B6B9A18414B1000F0
:10408000190003231A0002F0ABF83B6B02333B63C9
:104090003B6B1800FCF742F803001A003B6B9A18C0
:1040A000394B1000190011231A0002F099F83B6BEC
:1040B00010333B6348243B199B689BB23A6B110059
:1040C000180000F0C4FE03001A003B6B9B183B6312
:1040D0003B6B1800FCF722F803001A003B6B9A18A0
:1040E0002A4B1000190003231A0002F079F83B6BE9
:1040F00002333B633B6B1800FCF710F803001A0017
:104100003B6B9A18214B1000190003231A0002F090
:1041100067F83B6B02333B637A68AE235B00D3588E
:104120001800FBF7FBFF030099B27A68AD235B0030
:10413000D1523B199B6899B27A68B0235B00D15287
:104140003B1959687A68B2235B00D1507A68AC2376
:104150005B000121D154C046BD460FB090BC08BCE5
:1041600002B0184770660008986700087466000877
:104170007C6600088C6600089C660008A86600083B
:10418000C4660008D4660008D86600088C6700087A
:1041900080B588B000AFF860B9607A60FA68AE2385
:1041A0005B00D358FB61FB6900221A70FB691800A1
:1041B000FBF7B4FF03001A00FB699A18884B100044
:1041C000190009231A0002F00BF8FB690833FB61A0
:1041D000FB6920221A70FB690133FB61BB689BB24B
:1041E000FA691100180000F032FE03001A00FB69A2
:1041F0009B18FB61FB691800FBF790FF03001A0096
:10420000FB699A18774B1000190006231A0001F079
:10421000E7FFFB690533FB61FB691800FBF77EFFD5
:1042200003001A00FB699A186F4B100019000D2348
:104230001A0001F0D5FFFB690C33FB61FB681B79A9
:10424000012B12D1FB691800FBF768FF03001A006D
:10425000FB699A18654B100019000D231A0001F034
:10426000BFFFFB690C33FB6111E0FB691800FBF732
:1042700055FF03001A00FB699A185D4B10001900E6
:1042800009231A0001F0ACFFFB690833FB61FB68EE
:1042900005331800FFF73EFD0300BB61FB69180002
:1042A000FBF73CFF03001A00FB699A18514B100002
:1042B00019000F231A0001F093FFFB690E33FB6115
:1042C000BA69FB691100180001F09BFFBB69180077
:1042D000FBF724FF0200FB699B18FB61FB691800D8
:1042E000FBF71CFF03001A00FB699A18424B1000F1
:1042F000190003231A0001F073FFFB690233FB610D
:10430000FB691800FBF70AFF03001A00FB699A1803
:104310003A4B1000190011231A0001F061FFFB69EC
:104320001033FB617B681800FBF7F8FE02001621D2
:104330007B181A80FA697B181B881100180000F09E
:1043400086FD03001A00FB699B18FB61FB691800DE
:10435000FBF7E4FE03001A00FB699A18284B1000D3
:10436000190003231A0001F03BFFFB690233FB61D4
:10437000FB691800FBF7D2FE03001A00FB699A18CC
:104380001F4B1000190003231A0001F029FFFB69DD
:104390000233FB61FA68AE235B00D3581800FBF7C9
:1043A000BDFE030099B2FA68AD235B00D1527B6871
:1043B0001800FBF7B3FE030099B2FA68B0235B0064
:1043C000D152FA68B2235B007968D150FA68AC2305
:1043D0005B000121D154C046BD4608B080BDC04637
:1043E00098670008746600087C6600088C66000800
:1043F0009C660008C4660008D4660008D8660008F9
:104400008C670008B0B5A2B000AF786039600821B1
:104410007B18124A31CA31C331CA31C33A680C0021
:104420003B191100180001F0ECFE3B191800FBF7D6
:1044300075FE03001A003B199A18094B1000190069
:104440000F231A0001F0CCFE3A197B68C82118002E
:10445000FFF79EFEC046BD4622B0B0BDEC66000828
:104460000467000890B5A3B002AF78607B685A1D5E
:10447000434B11001800FFF7C3F9031E1ED07B68E1
:104480005A1D18243B193E491800FFF769F93B19DA
:104490001B68002B50D07B685A1D68243B19384993
:1044A0001800FFF75DF93B1978686A469968116052
:1044B0001A685B68C821FFF7E5FC5EE07B685A1D5F
:1044C00024243B191100180001F0B7FE3B19180015
:1044D000FBF724FE03001A003B199A18294B100021
:1044E000190004231A0001F07BFE3A19244B110035
:1044F0001800FFF785F9031E1ED00C243B19242257
:10450000BA181F491800FFF72BF93B191B68002B3D
:1045100012D074243B192422BA1819491800FFF745
:104520001FF93B1978686A46996811601A685B68D8
:10453000C821FFF7A7FC20E0134B144A13CA13C38A
:104540007B68591D104B4022180001F07EFE0E4B77
:104550001800FBF7E3FD03001A000B4BD2180C4BBD
:104560001000190003231A0001F03AFE064ACA237C
:1045700059007B681800FFF70BFEBD4621B090BDC7
:104580006817002070660008E01400201467000817
:104590008C670008B0B586B000AF786013217B1837
:1045A0007A6892781A707B181B785BB2002B00DC5B
:1045B000B6E11323FB181B785BB2013BB622520015
:1045C0005A43D24BD318FB60FA68B4235B00D35C28
:1045D000002B38D0FA68AC235B00D35C002B32D1BF
:1045E0001723FB1800221A701FE0FB68581D1723C1
:1045F000FB181A78C64BD200D3584022190001F09C
:104600003AFE031E0BD11723FB181B78C04ADB00B0
:10461000D31804331B68FA68100098470AE0172281
:10462000BB18BA18127801321A701723FB181B78BE
:10463000062BDAD91723FB181B78062B03D9FB6846
:104640001800FFF70FFF7B68DB78DBB21A0013233B
:10465000FB181B785BB21A4113000122134000D1F2
:104660005EE1FA68B4235B00D35C002B00D157E114
:10467000FA68AC235B00D35C012B00D0B0E0FA6891
:10468000AD235B00D25A0A203B18A2498A1A1A802D
:10469000FA68B0235B00D15A0823FA183B180C1CA7
:1046A0001B8898B2A1B2884200D9231C138013251D
:1046B0007B191878FA68AD235B00D25A08243B199D
:1046C0001B88D3189BB21900FEF7F2FCFA68AE23E0
:1046D0005B00D058FA68AD235B00D35A1900FEF78F
:1046E0000DFDFA68B2235B00D2583B191B881900F4
:1046F0001000FEF703FDFEF727FD874BDB78DBB2EA
:104700005BB27A19127852B2012191400A0052B27A
:10471000D24352B213405BB2DAB27F4BDA70FA681E
:10472000B0235B00D25A3B191B88D31A99B2FA689E
:10473000B0235B00D152FA68B2235B00D2583B1918
:104740001B88D118FA68B2235B00D150FA68B023F5
:104750005B00D35A002B3DD11323FB181B781800A4
:1047600000F0E2F8FB681800FFF7A8FA1723FB181F
:1047700001221A7028E01723FB181B785A1E634980
:10478000B4235B00B620400042438A18D3181B783C
:10479000DBB2002B12D07B681B78DBB21A00172328
:1047A000FB181B781A4113000122134006D017236F
:1047B000FB1800229A567B689A70B1E01722BB184A
:1047C000BA18127801321A701723FB181B78072BBE
:1047D000D1D9A5E0FA68AC235B000221D1549FE057
:1047E000FA68AC235B00D35C022B00D098E0142461
:1047F0003B19F968B02252008A5A1A801323FB1819
:104800001878FA68B2235B00D1583B191B88434AD9
:10481000934205D91423FB183E4A1A803D4B02E00F
:104820001423FB181B881A00FEF7D0FB3A4BDB78E9
:10483000DBB25BB21322BA18127852B20121914056
:104840000A0052B2D24352B213405BB2DAB2324BD8
:10485000DA70FA68B0235B00D25A14203B181B8828
:10486000D31A99B2FA68B0235B00D152FA68B22326
:104870005B00D2583B181B88D118FA68B2235B0042
:10488000D150FA68B0235B00D35A002B48D11323D0
:10489000FB181B78180000F047F8FB681800FFF7BA
:1048A0000DFA1723FB1801221A7028E01723FB18B2
:1048B0001B785A1E1549B4235B00B62040004243C2
:1048C0008A18D3181B78DBB2002B12D07B681B78B8
:1048D000DBB21A001723FB181B781A4113000122C0
:1048E000134006D01723FB1800229A567B689A7053
:1048F00016E01722BB18BA18127801321A70172363
:10490000FB181B78072BD1D90AE0C046800900208C
:1049100014080020460500000000002045050000A6
:10492000C046BD4606B0B0BD80B582B000AF020043
:10493000FB1D1A70FB1D1B781800FEF737FD144B8A
:104940005B78DBB25BB2FA1D1278012191400A005C
:1049500052B2D24352B213405BB2DAB20C4B5A702D
:104960000B4B1B78DBB25BB2FA1D12780121914030
:104970000A0052B2D24352B213405BB2DAB2044BD5
:104980001A70034BFF229A70C046BD4602B080BD2C
:104990000000002080B586B000AF786039603B68C9
:1049A0001800FBF7BBFB03007B617B681B683B6166
:1049B0003B69002B19D03A683B691100180001F0DF
:1049C0009EFC0300FB60FB68002B0BD07A69FB6840
:1049D0000021180001F00DFC7B69FA68D2187B6891
:1049E0001A6002E07B6800221A603B691800BD462D
:1049F00006B080BD80B58AB000AF786039607B6852
:104A00001B78012B00D1B6E002DC002B07D062E15D
:104A1000032B00D11FE1042B00D157E15BE13B6880
:104A20007B61BA4A1423FB1811001800FFF7B2FF8C
:104A300003007B627B6A002B00D14EE1C0468023DD
:104A40001A01B3497B6A180001F03AFC031E01D138
:104A5000C0464DE11023FA18AE497B6A180001F0F8
:104A6000BCFC0300FB61FB69002B00D137E1C046B1
:104A7000A94AFB6911001800FBF746FB031E03D18E
:104A80007B680022DA700EE0A44AFB69110018006E
:104A9000FBF73AFB031E03D17B680122DA7002E0C8
:104AA0007B680022DA701023FA189A4B1900002054
:104AB00001F093FC0300FB61FB69002B00D110E1C6
:104AC0007B680533F9694022180001F0E5FBC04618
:104AD0007B6805333F21180001F0A1FB0300BB6197
:104AE0007B68DB78002B32D1BB69002B2FD0BB69F0
:104AF00000221A70C046BB690133BB61BB691B78D9
:104B0000002B24D00C23FA188549BB69180001F04A
:104B100064FC03003B6217E0C0467B6845229B5C57
:104B20005A1CD0B27A68452150541A007B68123260
:104B30009200396AD1500C23FA18794B19000020E1
:104B400001F04BFC03003B623B6A002BE4D11023D5
:104B5000FA18704B1900002001F03FFC0300FB61C4
:104B6000FB69002B00D1BEE0C0467B681B78013397
:104B7000DAB27B681A70654A1423FB18110018001A
:104B8000FFF708FF03007B625CE0C0461023FA18C1
:104B900064497B6A180001F020FC0300FB61FB699B
:104BA000002B52D0FB691B78002B4ED0FB69002BE9
:104BB0003FD0C0465C4AFB6911001800FBF7A4FA1D
:104BC000031E19D11023FA18564B1900002001F0CA
:104BD00004FC0300FB61FB69002B00D185E0C046AB
:104BE000524AFB691100180001F089FB031E20D016
:104BF0007B6801221A711CE04D4AFB691100180004
:104C0000FBF782FA031E14D11023FA18454B190042
:104C1000002001F0E2FB0300FB61FB69002B66D082
:104C20007B685833180080235A00FB69190001F093
:104C300033FB364A1423FB1811001800FFF7AAFEB5
:104C400003007B627B6A002B9FD17B681B7801335A
:104C5000DAB27B681A707B68DB78012B30D12B4A83
:104C60001423FB1811001800FFF794FE03007B6269
:104C70007B6A002B24D00C23FA1829497B6A180080
:104C800001F0ABFB03003B6217E0C0467B684522A6
:104C90009B5C5A1CD0B27A68452150541A007B683C
:104CA00012329200396AD1500C23FA181C4B1900A9
:104CB000002001F092FB03003B623B6A002BE4D131
:104CC0007B681B780133DAB27B681A707A68B42388
:104CD0005B000121D154012313E0C04608E0C04627
:104CE00006E0C04604E0C04602E0C04600E0C04620
:104CF0007B6800221A707A68B4235B000021D154CB
:104D000000231800BD460AB080BDC0468C6700086D
:104D1000206700089067000888670008806700081F
:104D200028670008946700086C6700082C67000873
:104D30007867000880B586B000AF786039607B681E
:104D400045229B5C002B01D1002339E03B68FB60CE
:104D500000237B612CE07B687A6912329200D35881
:104D60003B610BE03B691A78FB681B789A420ED1D5
:104D7000FB680133FB603B6901333B613B691B7896
:104D8000002B05D0FB681B78002BEBD100E0C04660
:104D9000FB681B78002B06D13B691B783D2B02D1A9
:104DA0003B6901330CE03B68FB607B6901337B614D
:104DB0007B6845229B5C1A007B699342CBDB002316
:104DC0001800BD4606B080BD80B584B000AF7860E5
:104DD0000E23FB1800221A700F23FB1800221A70F2
:104DE00025E07B681B782F2B1FD97B681B78392B1C
:104DF0001BD80E203A183B181B78191C8900CB18B9
:104E0000DB1813707B681A783B181B78D318DAB25A
:104E10003B18303A1A707B6801337B600F22BB1855
:104E2000BA18127801321A7001E0FF230BE00F2349
:104E3000FB181B78022B03D87B681B78002BD0D182
:104E40000E23FB181B781800BD4604B080BDB0B51A
:104E500084B000AF02003960BB1D1A800F23FB181D
:104E600000221A701DE0BB1D1B880A211800FBF7E9
:104E7000E3F90B009BB2DAB20F217B181B7879188B
:104E8000581C087019003B685B183032D2B21A7097
:104E9000BC1DBB1D1B880A211800FBF747F9030046
:104EA0002380BB1D1B88002BDDD10F23FB181B7833
:104EB0003A68D31800221A700E23FB1800221A70C9
:104EC00029E00E217B181B783A68D2180D243B1973
:104ED00012781A700F257B191A787B181B78D31A51
:104EE000013B3A68D21808007B181B783968CB1848
:104EF00012781A707B191A7801007B181B78D31A64
:104F0000013B3A68D3183A1912781A707B187A184C
:104F1000127801321A700F23FB181B785B08DBB282
:104F20000E22BA1812789A42CBD30F23FB181B78A3
:104F30001800BD4604B0B0BD80B582B000AF786047
:104F4000396009E03B681A787B681A703B68013366
:104F50003B607B6801337B603B681B78002BF1D1A1
:104F60007B6800221A707B681800BD4602B080BDC5
:104F700080B584B000AFF860B960BB1D1A800EE048
:104F8000BB681A78FB681A70BB680133BB60FB68AA
:104F90000133FB60BB1D1A88BB1D013A1A80BB6838
:104FA0001B78002B03D0BB1D1B88002BE8D1FB68AE
:104FB00000221A70FB681800BD4604B080BD80B5A1
:104FC00084B000AFF860B96039000A604B60FB68DC
:104FD000512201219954FB6800229A66FB68322213
:104FE00000219954FB6800225A63FB6800221A7062
:104FF000FB6800229A63FB684C331A00FB68DA6393
:10500000FB68502200219954FB68BA695A66FB6814
:10501000FA229200DA66FB6800221A67FB68BA6817
:105020009A65FB683A005C3303CA03C33B00186807
:105030003B009B8801221900FBF791FDC046BD464D
:1050400004B080BD80B582B000AF78600A00FB1C60
:105050001A707B68D86D7B686022995AFB1C1B789C
:105060001A00FBF77CFDC046BD4602B080BD80B58E
:1050700084B000AF786039607B6800211800FFF7CA
:10508000E1FF7B685122002199543B681800FBF72F
:1050900045F80300FB607B68986DFB689AB20123BA
:1050A0005B423968FDF76EF91420FEF727FB7B6839
:1050B00001211800FFF7C6FF7B6851220121995496
:1050C000C046BD4604B080BD80B584B000AF7860F6
:1050D0007B68986D0F23F91800230122FDF7F6F97C
:1050E000031E4DD17B68FA229200DA660F23FB186B
:1050F0001B781A002F4B1100180001F090F8031EC6
:1051000033D07B685B6B002B4FDD7B685B6B7A6811
:105110000021D1547B68180000F052F87B685022BF
:105120009B5C002B41D07B689A6B7B683C331900F9
:10513000100000F0ADF8031E06D01F4A7B68110076
:105140001800FFF794FF05E01C4A7B681100180067
:10515000FFF78DFF7B685022002199547B68002265
:105160005A637B6800229A631FE07B685B6B591C63
:105170007A6851630F22BA1811787A68D15414E012
:105180007B68DB6E002B10DD7B68DA6E7B685B6E04
:10519000D21A7B68DA667B68DB6E002B05DC7B68E5
:1051A00000225A637B6800221A70C046BD4604B0D4
:1051B00080BDC04634670008386700083C670008B7
:1051C00080B584B000AF78607B68FB607B680022AC
:1051D0009A637B68DB6BFA6812781A707B685B6B8A
:1051E000012B1CDDFB681B784D2B18D0FB680133AD
:1051F0001B782F2B13D9FB6801331B78392B0ED862
:105200007B68DB6B0133FA6852781A707B68DB6B62
:10521000023300221A70FB680233FB6007E07B68F0
:10522000DB6B013300221A70FB680133FB607B6883
:1052300001229A63154AFB681100180001F078F802
:105240000300BB6012E07B689B6B591C7A6891631A
:105250007A680E339B00D3180433BA681A600B4B7C
:105260001900002001F064F80300BB60BB68002B4C
:10527000E9D17B687422012199547B685022012175
:105280009954C046BD4604B080BDC0464067000882
:1052900090B585B000AF786039600B23FB18002211
:1052A0001A700023FB601AE03B681868114BFA681B
:1052B0009200D3581900FAF727FF031E0CD10E4BAA
:1052C000FA689200D3580B22BC1839687A6810002B
:1052D00098470300237005E0FB680133FB60FB681F
:1052E000022BE1DD0B23FB181B781800BD4605B02F
:1052F00090BDC046500800205C08002080B582B0F8
:1053000000AF7860396001231800BD4602B080BD4F
:10531000B0B586B000AF786039607B68022B01DCE5
:10532000002331E03B685B687B613B689B683B61C5
:105330007B69002B27D03B69002B24D00F257C19DB
:105340007B691800FFF740FD030023700E23FC1853
:105350003B691800FFF738FD030023707B191B78A9
:10536000062B10D80E23FB181B78062B0BD80E2308
:10537000FB181A780F23FB181B781100180000F097
:1053800069FC012300E000231800BD4606B0B0BD53
:1053900080B582B000AF7860396000231800BD4648
:1053A00002B080BD80B584B002AF7A4B7A4A03CA9E
:1053B00003C3784B794A083303CA03C3754B784A51
:1053C000103303CA03C3734B00221A76714B754A1C
:1053D0001C3303CA03C36F4B734A243303CA03C38A
:1053E0006C4B724A2C3303CA03C36A4B00221A76F1
:1053F000FAF728FF6E4B18686E4B6F490122009236
:105400001A685B68FFF7DBFD00F0F2F800F0CCF9FA
:1054100000F05CF900F098F900F038F9674B684A41
:105420001A60664BC82252009A806649634B61221B
:105430001800FEF776FA634B1B78AA2B3CD0FB1DB5
:1054400000221A7025E0FB1D1B781A015D4BD31852
:105450005A1C5D4B1000190004231A0000F0C0FE16
:10546000FB1D1B78FA1D12783132D1B2554A1B014F
:10547000D31804330A1C1A70FB1D1B78514A1B01F8
:10548000D318053300221A70FB1DFA1D1278013261
:105490001A70FB1D1B78052BD5D94A4BAA221A700E
:1054A0004849464B61221800FEF7D8F94549434B5D
:1054B00061221800FEF735FAC046444A444B1100F9
:1054C0001800FEF72FF9434A414B11001800FEF770
:1054D00097F903001A00FB1D1A703F4A3C4B11005C
:1054E0001800FEF78DF903001A00FB1D1A703B4BE4
:1054F0001800FEF703F9FB1D00221A7013E0FB1DD4
:105500001B781800FDF7FAFB03001A00FB1D1B783F
:10551000DB43DBB29A4201D0C04608E0FB1DFA1D16
:10552000127801321A70FB1D1B78FF2BE7D12C4B30
:105530001800FBF77BFB00F0F3F92A4B1B78DBB27A
:10554000002B08D0284B1B78DBB201225340DBB282
:10555000002B00D0EFE7224B1800FBF767FB224B34
:105560001B78DBB2002B0BD0204B5B78DBB2002B1F
:1055700006D01E4B1800FFF70DF801E000F00CFA02
:105580009023DB0502211800FBF7CCFA031EF5D0AF
:10559000D3E7C0465C180020046800080C680008C7
:1055A000146800081C680008246800082C680008BB
:1055B0004C08002034680008F81800200C0800206F
:1055C00000BC0008F81700205467000800C000085D
:1055D0006817002058670008646700083057050006
:1055E000E8170020301500203215002000000020B0
:1055F00090B591B000AF10243B19180030231A0069
:10560000002100F0F6FD3B00180010231A000021D5
:1056100000F0EFFD21007B180A221A607B1801229E
:10562000DA607B1810221A617B180122DA617B187C
:1056300002221A627B1800225A627B18C02252038F
:105640009A627B180022DA627B181800FBF7FEFAD8
:10565000031E01D000F01EFC3B0007221A603B0035
:1056600002225A603B0000229A603B00A022D20036
:10567000DA603B0001211800FBF7DCFD031E01D0BE
:1056800000F008FCC046BD4611B090BD80B500AF2B
:105690000B4B0C4A1A600A4B04225A60084B0A4A08
:1056A000DA60074B084A9A60054B1800FBF774FA5A
:1056B000031E01D000F0EEFBC046BD4680BDC046D3
:1056C000E817002000300040FF07000080B500AF61
:1056D0001B4B1C4A1A601A4B822252005A60184B0C
:1056E00000229A60164BE022D200DA60144B0222AC
:1056F0001A61134B01225A61114B802292009A6168
:105700000F4B0022DA610E4B00221A620C4B002272
:105710005A620B4B00229A62094B0722DA62084B4D
:1057200000221A63064B00225A63054B1800FBF750
:10573000EDFE031E01D000F0ADFBC046BD4680BDAE
:10574000941800200030014080B500AF144B154A7A
:105750001A60134B962292015A60114B00229A60F4
:105760000F4B0022DA600E4B00221A610C4B0C2208
:105770005A610B4B00229A61094B0022DA61084BF7
:1057800000221A62064B00225A62054B1800FCF7F1
:10579000A1FD031E01D000F07DFBC046BD4680BDCB
:1057A000F81800200044004090B589B000AF0C24E8
:1057B0003B19180014231A00002100F01AFD524B67
:1057C0005A69514B8021C9030A435A614E4B5A69A9
:1057D0008023DB031340BB60BB684B4B5A694A4BC9
:1057E000802189020A435A61474B5A6980239B02F0
:1057F00013407B607B68444B5A69434B8021C9024C
:105800000A435A61404B5A698023DB0213403B60D4
:105810003B683E499023DB0501221800FBF79FF906
:105820003B493C4B01221800FBF799F93B19032235
:105830001A603B1900225A603B1900229A603B19FA
:10584000354A19001000FAF7F9FF3B1902221A60D5
:105850003B19324A5A603B1901229A603A19902347
:10586000DB0511001800FAF7E9FF3B19274A1A6017
:105870003B1911225A603B1901229A603B19002200
:10588000DA603A199023DB0511001800FAF7D6FF09
:1058900021007B181E4A1A607B1811225A607B185F
:1058A00001229A607B180022DA600C007B18194AEA
:1058B00019001000FAF7C2FF21007B1880221202A3
:1058C0001A607B1800225A607B1801229A600C0033
:1058D0007B18104A19001000FAF7B0FF21007B185E
:1058E000C02292001A607B1800225A607B180122A5
:1058F0009A607A189023DB0511001800FAF79EFFD2
:10590000C046BD4609B090BD00100240109C00008A
:10591000187800000004004800140048000021101E
:1059200080B500AF154B00221A70154B00225A703B
:10593000134BFF229A70124BFF22DA70104B002299
:105940001A70FDF7C9F90F4B1800FDF7D7FEFDF7E8
:1059500019F90D4B1A680D4B1B8819001000FDF743
:1059600043F903001A00054B1A70094B00221A7004
:10597000084B00221A70C046BD4680BD321500207B
:1059800000000020A0860100680800206C080020AC
:105990003015002031150020B0B586B000AF1425B9
:1059A0007C19FDF735FE030023807B191B8801223B
:1059B000134005D03B1D1800FDF78AFAFFF7B0FF32
:1059C0001423FB181B880822134001D0FDF796FD15
:1059D0001423FB181B88042213400CD0FDF7B2F9E6
:1059E0000300012B03D1944B00221A7004E0934B67
:1059F00001221A7000E0C04614217B187A18128820
:105A000012091A807B181B88002B00D10EE1172386
:105A1000FB1801221A7002E114217B187A181288EF
:105A200052081A807B181B880122134000D1F0E035
:105A300011257C191723FB181B781800FDF7F8FCBB
:105A4000030023707B191B78012213400FD07C4B7D
:105A5000DB78DBB25AB21723FB181B78012199407F
:105A60000B005BB213435BB2DAB2754BDA701123F1
:105A7000FB181B780422134063D017217B181B7876
:105A8000B622520053436D3BFF3B1A006D4BD318B7
:105A9000FB6012257C197B181B781800FDF764FB4E
:105AA000030023807B191B88674A934205D9122380
:105AB000FB18664A1A80654902E01223FB18198810
:105AC000634A17243B191B781800FDF799FB122332
:105AD000FB181B885A4AD31800221A71FB68180059
