:020000040800F2
:10000000FF1F0020BD4E00080D4E0008114E0008D5
:1000100000000000000000000000000000000000E0
:10002000000000000000000000000000154E000865
:100030000000000000000000194E00081D4E0008DE
:100040000D4F0008000000000D4F00080D4F000884
:100050000D4F00080D4F00080D4F00080D4F000810
:10006000000000000D4F00080D4F0008254E00084D
:100070000D4F00080D4F00080D4F00080000000054
:100080000D4F00083D4E0008000000000D4F000815
:100090000D4F00080D4F00080D4F00080D4F0008D0
:1000A0000D4F00080D4F00080D4F00080D4F0008C0
:1000B0004D4E00080000000000000000000000009D
:1000C00010B5064C2378002B07D1054B002B02D02E
:1000D000044800E000BF0123237010BD98060020F3
:1000E000000000006C510008044B10B5002B03D039
:1000F0000349044800E000BF10BDC04600000000F6
:100100009C0600206C51000802780B78002A03D06E
:10011000013001319A42F7D0D01A70470023C25CF7
:100120000133002AFBD1581E70470000002243080B
:100130008B4274D303098B425FD3030A8B4244D3AF
:10014000030B8B4228D3030C8B420DD3FF220902F1
:1001500012BA030C8B4202D31212090265D0030BB0
:100160008B4219D300E0090AC30B8B4201D3CB03A6
:10017000C01A5241830B8B4201D38B03C01A5241E8
:10018000430B8B4201D34B03C01A5241030B8B42EA
:1001900001D30B03C01A5241C30A8B4201D3CB02D5
:1001A000C01A5241830A8B4201D38B02C01A5241BA
:1001B000430A8B4201D34B02C01A5241030A8B42BD
:1001C00001D30B02C01A5241CDD2C3098B4201D3D5
:1001D000CB01C01A524183098B4201D38B01C01A53
:1001E000524143098B4201D34B01C01A52410309CA
:1001F0008B4201D30B01C01A5241C3088B4201D379
:10020000CB00C01A524183088B4201D38B00C01A25
:10021000524143088B4201D34B00C01A5241411A4C
:1002200000D20146524110467047FFE701B5002059
:1002300000F006F802BDC0460029F7D076E7704707
:100240007047C04610B501006A22024800F094F8D9
:1002500010BDC0460000002001006A2210B503480E
:1002600000F016F80022024B1A7010BD00000020AA
:10027000B4060020054B10B51968082204F0B7FE3B
:10028000C0B243425841C0B210BDC046340600203F
:10029000F0B54746CE46036880B5994680231B01DA
:1002A0004B440F00140098464D4687B002E00435D9
:1002B000A8455DD02B68002BF9D02E00454504D30E
:1002C00005E00436B04502D933680133F9D172B67E
:1002D00000F04AFA0023029303934B460493012350
:1002E0000593A30801339B00F318984507D239E022
:1002F000290000220023022000F082FA0435AE42D9
:10030000F6D8B1460023494602201A4A00F078FA8E
:1003100000250436002C13D03B00019501A80437BA
:100320001A78013C01330270A4B20130BB420FD0F5
:10033000002CF5D1002331000220019A00F060FA70
:1003400000F026FA62B607B0C0BCB946B046F0BDB0
:10035000310000230220019A00F052FA0436002CEA
:10036000DAD1EDE702A903A800F0AEFA4E46C9E7DC
:100370004646ACE70A02CB07F0B580230E000568BD
:100380001B010021300083B01400EF1804F0EDFDD4
:10039000280002E00430874202D00368002BF9D025
:1003A0000D4B9C466544A84200D20430002C10D06E
:1003B00087420ED9036801AD0193330004362A78D1
:1003C000013C1A700133A4B201359E42EDD0002CDD
:1003D000F5D103B0F0BDC046FC07000010B5040025
:1003E000FA200E4B80001978FFF7A0FE0C4B01009D
:1003F0001868FFF79BFE00F077F800280CD1013059
:10040000032C00D910BD02380022210000F02EF884
:10041000044B00201C60F5E70120F3E708000020F2
:10042000940600200C0000201021064A10B5136825
:1004300000200B431360FFF7D1FF04F009FC0020FC
:1004400010BDC04600200240034A044B11681B78CF
:100450005B1813607047C046A00D00200800002004
:10046000014B18687047C046A00D002070B50028E9
:1004700014DB154B03229C46FF23840810401A000E
:10048000C026C000890182400B408340A400644420
:10049000B600A55995432B43A35170BD0B4A0F23BA
:1004A0009446032203401040FC321500C00089012D
:1004B00085400A408240083B9B089B006344DC69FE
:1004C000AC432243DA61E8E700E100E000ED00E040
:1004D000002805DB1F2318401E3B8340014A1360A0
:1004E0007047C04600E100E08022431E5204012014
:1004F00093420ED2C021074A07485360036A090697
:100500001B021B0A0B430362002300209360073386
:100510001360704710E000E000ED00E070B5041ECD
:1005200027D02125022343550068134A0368A16898
:100530001A4063680B43E1680B4321690B4361690F
:100540000B43A1690B43E1690B43134303600B4B5E
:1005500014219C466044FFF7E9FD094B0122E36347
:100560000023800020640020A36362551F32A3543F
:1005700070BD0120FCE7C0460FC0FFFFF8FFFDBFC4
:1005800000000240F0B52024055D012D37D0012583
:1005900021270555C55DEEB2012D03D0002303557B
:1005A0000220F0BD1E3CC455002484630468076C1F
:1005B0002568B543BE402560C56B6E6063604368C7
:1005C000102B0ED0C36AA160E260002B0ED00E2269
:1005D0002368134323600122236800201343236010
:1005E000DFE7C36AA260E160002BF0D10A22236832
:1005F000134323602368063A93432360EBE702200A
:10060000CFE7C046212330B5C25C022A06D00022C3
:100610001D3B83631C33C254012030BD0E2402688D
:10062000056C1168A1431160012114688C431460AA
:100630000C00AC40C26B5460C15400222023C25451
:100640000020EAE7212370B5C25C022A03D01D3BDB
:100650008363012070BD0E240268056C1168A143FC
:100660001160012114688C4314600C00AC40C26B13
:100670005460C15400222023C254436B002B02D08B
:1006800098470020E6E70020E4E7C046F8B50424D8
:100690002600036CC56B9E402A6801680F683242D1
:1006A0000DD03C420BD00B689B0602D40B68A343D1
:1006B0000B60C36A6E60002B00D09847F8BD02241F
:1006C00026009E40324214D03C4212D00B689B065A
:1006D00006D40A220B6893430B602123093AC254C3
:1006E000202300226E60C254836A002BE6D0984714
:1006F000E4E7082426009E403242DFD03C42DDD0B1
:100700000A680634A2430A6001221100994021239D
:1007100069608263C2540022013BC254036B002B08
:10072000CCD09847CAE7C04610210D4B10B5DA6807
:100730000B001340114205D00A4A0E39D3690B430E
:10074000D3611023064AD16804220A4205D001244D
:1007500004481343C1692143C161014AD36010BDFC
:1007600000200240A80D0020064B00201A69120646
:1007700006D5054A5A60054A5A6018690006C00F36
:100780007047C0460020024023016745AB89EFCD8A
:100790008021034A002013690B4313617047C04650
:1007A00000200240F8B50400FFF75AFE01260700BA
:1007B000124D01E0631C0FD1EB681E42FAD12023D9
:1007C000EA68134211D10D4BDA68D20612D4DB6805
:1007D00000205B070ED4F8BD002C04D0FFF740FECC
:1007E000C01BA042E8D90320F5E7EB60034BDA68B1
:1007F000D206ECD5FFF798FF0120ECE7002002407D
:10080000F0B54E465746DE464546E0B59A4683B0BB
:100810002A4B019299461B7E04000E00012B48D002
:1008200001254B4626481D76FFF7BCFF002836D130
:10083000012C40D0023C6042444104236442AC435A
:10084000A0469C46E044002300259B4618E0534602
:10085000D3404A46594601271A4CD16122699BB2BE
:100860003A43226116483380FFF79CFF2369BB435C
:100870002361002813D10135EBB2023698450ED919
:1008800020222B0152429A18E1D520225146D21A39
:1008900091400A000199D9400B001343D9E7002386
:1008A0004A46137603B0F0BCBB46B246A946A04602
:1008B000F0BD0220F6E701239846C4E7A80D00200A
:1008C00050C3000000200240F0B546464F46D646D1
:1008D000C0B5304F06003B7E8846012B57D0012320
:1008E0003B7603682C48012B34D0FFF75BFF0028D0
:1008F00034D1012342465B421360B36875689B02A2
:100900005B199D422AD20023244C99460AE0802399
:10091000DB009C46726865449446B3689B0263445E
:10092000AB421CD902224B469246FB6123691A480E
:1009300013432361656123693E3213432361FFF74B
:1009400031FF52462369934323610028DFD0434699
:100950001D6004E0FFF726FF002807D001200023D8
:100960003B76E0BCBA46B146A846F0BD042540221D
:100970000A4CF861236908482B4323612369134318
:100980002361FFF70FFF2369AB432361E7E70220F1
:10099000E7E7C046A80D002050C300000020024039
:1009A000F0B54E46DE4657464546E0B50A688946EC
:1009B000002387B0002A75D0012188466C498B46F8
:1009C000444615009C4025400195224266D04D4684
:1009D00003266D682E40AA46751E012D69D95F0059
:1009E000032E00D0A5E03400BC40E143029106682C
:1009F000029D354025430560C0255446AD022C427A
:100A00004CD059468C6941460C4359468C618C69DF
:100A1000414603260F270C4056491E408C46B6001F
:100A2000B74090210594059C9C08A4006444A568E7
:100A3000C905BD4388420ED04F4FB84200D18EE069
:100A40004E4FB84200D18EE04D4FB84200D182E007
:100A50000527B7403D434B49A5608C680199802527
:100A6000CE4351466D03294200D071E034404549E0
:100A70008C60CC685146890267D434404149CC60CF
:100A80004D68514689035DD435403E494D600C6840
:100A90005146C90352D434403A490C601400013322
:100AA000DC408DD107B0F0BCBB46B246A946A0469B
:100AB000F0BD85685F0003950325BD40AC46E94362
:100AC00002916146039D8D4349460395CD68BD4023
:100AD000AC466146039D0D43856041680D0051465B
:100AE000A5430C0941460C409C402C434460C4681B
:100AF00002990C40A4464C46A4686546BC402C4371
:100B0000C4603400BC40022E00D070E707270F25D8
:100B10001F40BF00BD40DE08B6008619316AA943F8
:100B20008C4649460969B9400F0061460F43376258
:100B30005DE70325BD40E9430291D8E701992143D0
:100B40000C00A9E701990D439FE701990C4395E734
:100B500001990C438BE70321B1400D437BE74146EC
:100B6000B1400D4377E70227B7403D4373E7C046E6
:100B70000010024000000140000400480008004846
:100B8000000C00480004014000690840411E8841F3
:100B9000C0B27047002A01D0816170478162FCE7D2
:100BA00070B5041E23D00368154A1A60154A1A60EE
:100BB00042685A6082689A60FFF752FC2368060018
:100BC000DA6852070CD00725FFF74AFC2368801B20
:100BD000272802D9DA6815420BD1DA681542F3D119
:100BE0001969E268914206D000201A6170BD0120A7
:100BF000FCE70320FAE7044A00201A60F6E7C04643
:100C0000CCCC000055550000AAAA00000368024A97
:100C100000201A607047C046AAAA0000F0B5CE4670
:100C2000474680B5040083B0002800D1EEE0036899
:100C3000DA0735D50C21C34842680A40042A00D19E
:100C400001E142681140082900D1F8E06368012BF6
:100C50000FD0002B00D11EE1052B00D1A7E1B94B2D
:100C6000B9491A680A401A601A68B8490A401A60F5
:100C700005E08023B34A5B0211680B431360FFF762
:100C8000EFFB80260500AF4FB60205E0FFF7E8FB5B
:100C9000401B642800D9FCE03B683342F6D023684F
:100CA0009A0729D50C22A7494868024200D1A6E03C
:100CB00048680240082A00D19DE0E368A14D002B5E
:100CC00000D11FE101222B68022713432B60FFF79D
:100CD000C7FB060005E0FFF7C3FB801B022800D915
:100CE000D7E02B681F42F6D0F8212A6823698A438F
:100CF000DB0013432B6023681A072DD45A0744D511
:100D0000802200208F4B5205D9698146114208D1BB
:100D1000D9691143D961DB691A400192019B012312
:100D2000994680278A4E7F0033683B4200D194E089
:100D3000A368012B00D1F8E0002B00D1C4E0052B03
:100D400000D140E101217F4B1A6A8A431A621A6A74
:100D500003318A431A62ECE0E3697A4D002B5BD0E1
:100D600001226B6A022713436B62FFF779FB0600CF
:100D700005E0FFF775FB801B022800D989E06B6A4C
:100D80001F42F6D023685A07BAD4DB0612D563692E
:100D9000012B00D13DE1053300D0E9E00421F8202A
:100DA000684A536B8B435363516BA3698143DB00E8
:100DB0000B435363236A002B1BD00C22614E7168D6
:100DC0000A40082A00D108E1022B00D13FE1336834
:100DD000604A802513403360FFF742FBAD040400F6
:100DE00004E0FFF73DFB001B022852D833682B427A
:100DF000F7D100200BE04A68D20300D55DE7514AE5
:100E00001268920739D5E268012A36D0012003B072
:100E1000C0BCB946B046F0BD01226B6A02279343BD
:100E20006B62FFF71DFB060004E0FFF719FB801B58
:100E300002282ED86B6A1F42F7D12368A3E74268C5
:100E4000D20300D402E73F4A1268920300D427E796
:100E50006268002A00D023E7D8E733683B43336059
:100E6000FFF7FEFA050004E0FFF7FAFA401B6428DA
:100E70000FD833683B42F7D05AE7F825314822694A
:100E80000168D200A9430A4302601A0700D435E77B
:100E900062E70320BBE72B4D2B4A2B6880271340CA
:100EA0002B602B68294ABF0213402B60FFF7D8FA4A
:100EB000060004E0FFF7D4FA801B6428E9D82B6809
:100EC0003B42F7D12368EBE601221E4E224D336AE6
:100ED00093433362336A033293433362FFF7C0FABA
:100EE00002230700984604E0FFF7BAFAC01BA842A5
:100EF000CFD84246336A1A42F6D14B46012B4FD027
:100F0000236842E701222B68022793432B60FFF7F7
:100F1000A7FA060004E0FFF7A3FA801B0228B8D85E
:100F20002B681F42F7D12368E6E606490A6A134395
:100F30000B62FFF795FA034B060098460227064D11
:100F400011E0C04600100240FFFFFEFFFFFFFBFF65
:100F500000700040FFFFFFFE88130000FFF780FADB
:100F6000801BA84295D843461B6A1F42F6D0C4E7AF
:100F70000422534D02276B6B13436B636B6B033A75
:100F800093436B63FFF76CFA060005E0FFF768FA1E
:100F9000801B022800D97CE76B6B1F42F6D109E762
:100FA000474A4849D3690B40D3612368EDE6802264
:100FB000434BD20219680A431A6080221968520210
:100FC0000A431A605BE604213D4B1A6A0A431A621F
:100FD0001A6A03390A431A62ABE7012B00D115E7FD
:100FE00080237268656A5B020120F16A1340AB429C
:100FF00000D00CE70F230B40E16A8B4200D006E7DC
:10100000F02080030240A06A101A421E9041C0B234
:10101000FDE604212A4E0227726B0A437263726B4B
:1010200013437363FFF71CFA050005E0FFF718FA96
:10103000401B022800D92CE7736B1F42F6D0F82121
:10104000726BA3698A43DB0013437363B2E63368B0
:101050001D4A802713403360FFF702FABF040500E2
:1010600005E0FFF7FDF9401B022800D911E73368BE
:101070003B42F6D10F22F36A80259343E26AAD0426
:101080001343F362616AA36A72680B430F490A4013
:1010900013437360802332685B0413433360FFF7AC
:1010A000DFF9074E040005E0FFF7DAF9001B02281C
:1010B00000D9EEE633682B42F6D00020A7E6C04602
:1010C00000100240FFFFFFEFFFFFFFFEFFFFC2FF28
:1010D000F8B5CE46474604000D0080B500280DD077
:1010E00001234A490A681A40AA420CD20A689A4364
:1010F0002A430A600A681340AB4204D00120C0BCF6
:10110000B946B046F8BD23689A070ED55A0705D5EB
:10111000E0223F49D200486802434A60F0203C493F
:101120004A688243A06802434A60DB0722D5384BF5
:1011300062681B68012A5BD0022A56D09B07DDD566
:101140000321334E73688B4313437360FFF788F9B1
:101150000C2398462F4B0700994604E0FFF780F9CF
:10116000C01B484547D8434672681A4063689B00D5
:101170009A42F3D10121254A13680B40AB4205D9AD
:1011800013688B43136013681942B7D123685B0758
:1011900006D51F4A204953680B40E1680B43536052
:1011A0000C231B494A681340082B0ED01B48184BD0
:1011B0001B4A5B681B061B0FD35CD840194B186099
:1011C0000020FFF70BF9002099E7C96A0733900C5C
:1011D0001840154C0B401549245CC95CD3030CD551
:1011E0000E48FEF7A3FF6043E1E79B01A8D485E723
:1011F0009B03A5D482E7032081E763011B1B9801B1
:10120000C01AC00000190002D1E7C0460020024009
:101210000010024088130000FFF8FFFF00127A0060
:10122000F85400089406002090510008A0510008CE
:101230000C23104910B54A681340082B01D00E4802
:1012400010BDC96A0733900C18400C4C0B400C4978
:10125000245CC95CD30304D50748FEF767FF6043ED
:10126000EEE763011B1B9801C01AC00000190002C1
:10127000E6E7C0460010024000127A0090510008D4
:10128000A0510008044B054A5B685B055B0FD35C0B
:10129000034A1068D8407047001002400855000803
:1012A00094060020F0B5C64600B50C00160082B0CA
:1012B0000700FFF7D5F83619361AFFF7D1F8802561
:1012C0008046274B1B685B011B0D734301933A68F3
:1012D00001E0631C07D193681D42FAD1002002B0DF
:1012E00080BCB846F0BDFFF7BBF84346C01AB04219
:1012F00008D2019B5A1E93415B421E40019B013B59
:101300000193E4E7E0213B685A688A435A608222ED
:1013100079685200914214D08021BA6A89018A42C8
:1013200007D05D230122FA540022013B0320FA5426
:10133000D5E719680B480140196019680A431A601B
:10134000EFE78021BA6809028A4203D08021C900F0
:101350008A42E1D140211A688A431A60DCE7C0461C
:1013600094060020FFDFFFFFF0B5DE4657464E46ED
:101370004546E0B583B01E006B46DF1C0023150018
:1013800081460C003B70FFF76BF87619331A9846CC
:10139000FFF766F84B461B68C0269A46354B8346D6
:1013A0001A68F60093009A18D3009B1A42461B0D48
:1013B00053435246019301E06B1C0BD193682342C7
:1013C0001DD0B442F8D153461B7BDBB23B703B7857
:1013D0006B1CF3D0FFF744F85B46C01A404516D2A9
:1013E000019B5A1E934142465B421A40019B904624
:1013F000013B01934B461A6893682342E1D10020D8
:1014000003B0F0BCBB46B246A946A046F0BD4B4671
:10141000E0211B685A688A4349465A60822249681B
:101420005200914216D04A468021926A89018A422E
:1014300008D05D2301224946CA540022013B032003
:10144000CA54DDE719680C480140196019680A435D
:101450001A60EEE74A468021926809028A4203D068
:101460008021C9008A42DED140211A688A431A606D
:10147000D9E7C04694060020FFDFFFFFF8B58223BE
:101480001700426804000E005B009A420DD03A003B
:1014900031002000FFF706FF051E1BD18223626882
:1014A0005B009A421CD02800F8BD8022836812029B
:1014B000934203D08022D2009342E8D14021226897
:1014C000200013688B43136031003A00FFF7EAFEF7
:1014D000051EE3D02022236E032513432366E2E793
:1014E0008022A3681202934203D08022D20093424A
:1014F000D9D1C0213B0032002000C900FFF734FFE2
:101500000028D0D0E6E7C04670B513000D001600E5
:101510000A00C02149010400FFF726FF00280FD16F
:10152000320029002000FFF7BDFE002808D1C021AD
:1015300033002A002000C900FFF716FF002804D05E
:1015400020220320236E1343236670BDF0B5D646D8
:101550004F4646460400C0B5002800D18EE0456ADB
:10156000002D65D00023036143610023A3625D3336
:10157000E35CDAB2002B68D05D2302224021E25402
:101580002268E06813688B431360E023DB00984215
:1015900062D9F0231B01984200D071E08023A16A38
:1015A0009B01194000238C469A46822366685B00A3
:1015B00033408426A76836023E403343022627691B
:1015C000A1693E40334301266769B14637403B433A
:1015D0008027BF000F403B433827E669090C37409E
:1015E00080263B433700266A374066463B433343F9
:1015F00013600823666B57463340F02636013040AF
:101600001843042319400143102005400D432F4384
:101610005760D3691C4900200B40D36100234A4620
:1016200023665D33E254E0BCBA46B146A846F0BD3D
:10163000822342685B009A4297D00023C561A3626F
:101640005D33E35CDAB2002B96D15C332000E254C8
:1016500003F016FB656A8FE7984206D080235B0192
:101660009A4600239C46A3629FE78023A16A9B01C0
:10167000194080235B018C469A4696E70120D2E709
:1016800000239A46EDE7C046FFF7FFFFF0B5CE46D0
:1016900047461D005C2380B59146C25C0400884625
:1016A00083B0012A64D00122C254FEF7D9FE5D2224
:1016B000A35C0600DFB2012B09D002275C230022C5
:1016C000E254380003B0C0BCB946B046F0BD434652
:1016D000002BF3D04B46002BF0D00323A3544246FB
:1016E0000023A2634A462366A287E287442223643A
:1016F000A3520232A3522365E3648023A2682068C8
:101700001B029A425CD040230268134202D1026855
:1017100013430360E023E268DB009A422AD963683E
:10172000002B57D04B46012B54D00222E38F90461A
:10173000002B0DD164E0A36B1A880233C260E28FE4
:10174000A363013A92B2E287E38F002B58D020685E
:10175000424683681A42EED1FEF782FE801BA84201
:10176000F2D36B1CF0D05D2301220327E254A5E7DE
:101770000227A6E76368002B37D04B46012B34D0F5
:10178000E38F002B3CD0022398460CE0A26B12782A
:101790001A73E28FA36B013A013392B2A363E2871B
:1017A000E38F002B2CD0414623689A681142EDD17B
:1017B000FEF756FE801BA842F2D36B1CF0D0D2E796
:1017C000402203689343036080230268DB011343D4
:1017D000036098E743461B88C3604346991CE38F28
:1017E000A163013B9BB2E3879FE743461B780373EA
:1017F000A36B0133A363E38F013B9BB2E387BFE796
:10180000320029002000FFF77FFE002801D02023AE
:101810002366A368002B06D101932368DA6801923E
:101820009B680193019B236E002B00D046E70122A9
:101830005D330027E25441E7F8B54746CE4680B510
:101840001F005C239146C25C04008846089D012A63
:1018500000D1A7E00122C254FEF702FE5D23E35C43
:1018600006006268D9B2012B10D0822302205B00EF
:101870009A4206D05C230022E254C0BCB946B0466E
:10188000F8BDA368002BF5D10429F3D14346002B02
:1018900000D185E04B46002B00D181E0002F00D124
:1018A0007EE05D23E15C042901D00521E154494635
:1018B000002321644621236667520239675241465C
:1018C000E3642365E023A163E168E787A787DB0082
:1018D000994269D923686648596801405960402196
:1018E0001868014202D1186801431960002A00D02B
:1018F000B5E042461288DA604346991CE38FA16343
:10190000013B9BB2E3870123994601334627984662
:10191000E38F002B02D1E35B002B34D041462368D8
:101920009A68114210D0E28F002A0DD04A46012A4F
:101930000AD1A26B11880232D960A263E28F013A08
:1019400092B2E28700229146012108009A68104075
:1019500011420CD0E25B002A09D08146DA68236C80
:101960001A8002332364E35B013B9BB2E353FEF72F
:1019700077FD801BA842CBD36B1CC9D05D2301220D
:101980000320E25476E7320029002000FFF7BCFD77
:10199000002802D0202301202366236E002B62D072
:1019A000012067E7022068E7802123684901586821
:1019B0000143596040211868014202D1186801436F
:1019C0001960002A48D1424612781A73A36B01337A
:1019D000A363E38F013B9BB2E38701239946013365
:1019E00046279846E38F002B02D1E35B002BCAD039
:1019F000414623689A68114212D0E28F002A0FD024
:101A00004A46012A0CD1A26B12781A730022914621
:101A1000A36B0133A363E38F013B9BB2E38723688E
:101A2000012108009A68104011420DD0E25B002AA3
:101A30000AD081461B7B226C1370236C0133236414
:101A4000E35B013B9BB2E353FEF70AFD801BA84218
:101A5000C8D36B1CC6D091E7012FBED1B3E7012FCD
:101A600000D050E745E701225D33E25402E7C0466B
:101A7000FFEFFFFFF0B5CE46474616005D2280B56A
:101A80001D00835C0400894683B0DFB2012B6DD159
:101A900004334168FF33994200D171E05C23E25C7A
:101AA000012A00D18BE00122E254FEF7D9FC4B461B
:101AB0008046002B5BD0002E59D05D230422E254D7
:101AC0004A460023226444222366A6520232A652CA
:101AD000E022A363A387E387E3642365E368D2007E
:101AE000934200D890E022684B4851680140516011
:101AF0008021A0680902884207D1402011688143F3
:101B00001160116845480140116040211068014290
:101B100002D1106801431160E021C9008B4250D905
:101B200046230121E35A89464626002B0DD135E094
:101B3000D268236C1A8002332364A25B013A92B20A
:101B4000A253A35B002B29D022684946936819420F
:101B5000EED1FEF785FC4346C01AA842F1D36B1CB8
:101B6000EFD05D234A460327E25400E002275C23BE
:101B70000022E254380003B0C0BCB946B046F0BD04
:101B80008368002B00D089E704338354494633002F
:101B90004A460095FFF750FE0700EBE74246290052
:101BA0002000FFF76BFC002801D020232366236E62
:101BB000002BDCD101225D330027E254D7E7022756
:101BC000D8E74623E35A002BE8D00123462699465E
:101BD0000DE0137B226C1370236C01332364A35B31
:101BE000013B9BB2A353A35B002BD7D0226849468D
:101BF00093681942EDD1FEF733FC4346C01AA84260
:101C0000F1D36B1CEFD0ACE780212268490150680A
:101C1000014351606CE7C046FFEFFFFFFFBFFFFFCE
:101C20003D22815C03000120012912D10131995428
:101C30001B68DA680243DA600D4A93420AD00D4A03
:101C4000934207D00C4A934204D01A68104318609C
:101C500000207047072299680A40062A05D0012112
:101C60001A6800200A431A60F3E70020F1E7C04633
:101C7000002C0140000400400040014001210368A5
:101C800010B5DA688A43DA601C6A074A144206D142
:101C90001C6A064A144202D11A688A431A603D231C
:101CA0000122C254002010BD1111000044040000A4
:101CB0007047C0467047C0467047C0467047C04630
:101CC0000222036810B5196904000A4202D0D968DB
:101CD0000A4265D1042219690A4202D0D9680A422F
:101CE0004BD1082219690A4202D0D9680A4233D17D
:101CF000102219690A4202D0D9680A421CD1012275
:101D000019690A4202D0D9680A425CD18022196955
:101D10000A4202D0D9680A425CD1402219690A42BB
:101D200002D0D9680A425DD1202219690A4202D044
:101D3000D9680A4241D110BD213A1A61193222777D
:101D4000DA69C0239B0020001A425ED0FFF7B2FF81
:101D5000002323772368D2E7113A1A610D322277E4
:101D6000DB6920009B074DD1FFF7A2FF2000FFF7A2
:101D7000A3FF002323772368BAE7093A1A610732E1
:101D800022779A69C0239B0020001A4237D1FFF7BF
:101D90008FFF2000FFF790FF002323772368A0E741
:101DA000053A1A61043202779B699B0721D0FFF73D
:101DB00081FF0023237723688CE7413A20001A61D2
:101DC00000F0A0F8B7E7033A1A61200002F0E4FE41
:101DD00023689BE7023AFF3A1A61200000F094F86A
:101DE00023689AE7813A1A612000FFF767FF2368AA
:101DF0009AE7FFF75DFF2000FFF75EFFD9E7FFF7E7
:101E000059FFC9E7FFF756FFB3E7FFF751FF20007F
:101E1000FFF752FF9CE7C0461D4A0368904223D05B
:101E20001C4A904217D01C4A904218D01B4A90423C
:101E30001ED01B4A90421BD01A4A904218D08022D2
:101E400093434A69134303608B68C3620B688362E0
:101E5000012343617047702293434A681343124A37
:101E60001340CA681343EAE7702293434A68134356
:101E70000D4A1340CA681343802293434A691343AF
:101E800003608B68C3620B6883620B690363DFE7DF
:101E9000002C0140000400400020004000400140B0
:101EA0000044014000480140FFFCFFFF70B5041EE4
:101EB00026D03D23C35CDAB2002B1CD002233D2583
:101EC0002100635501C9FFF7A7FF01234622002027
:101ED000A354083AA3540132A3540132A35401324B
:101EE000A3540132A3540132A3540132A35401324A
:101EF000A354635570BD3C33C25402F0F7FEDDE7D6
:101F00000120F7E77047C0467047C04630B5EFF391
:101F10001084012282F310880168124D0B682B4057
:101F20000B6084F31088EFF3108482F3108801684B
:101F30008B6893438B6084F31088036E012B0AD166
:101F4000EFF3108183F31088102402681368A34311
:101F5000136081F3108880232022C250002303667F
:101F6000836630BDDFFEFFFF7047C0467047C04646
:101F70007047C046802270B5446A2368E56FA05858
:101F800099680A4201D0212D0DD09B685B0601D5CE
:101F900022281BD084221021A35820000B43A350D9
:101FA00002F030F870BD52230022E252EFF31081AC
:101FB000513B83F3108822689F351368AB4313604D
:101FC00081F310882023E3672368DEE75A23002289
:101FD0002000E252FFF79AFFDCE7C04600235A22B6
:101FE00010B5406A8352083A835202F00BF810BDD4
:101FF000F8B5CE46474602680400D369AB4811687D
:1020000080B59568034200D077E02020184202D0C6
:10201000084200D0E6E0206E012814D080221A4247
:1020200009D140221A4202D00A4200D0DFE0C0BCEF
:10203000B946B046F8BD0A42F3D0E36E002BF6D0A5
:1020400020009847F3E710251D42E7D00D42E5D068
:1020500040231E00156292681640134200D1E4E04E
:10206000666F3268526892B2002AE0D058218846E2
:10207000615A9142DBD95A27E253B269202A32D001
:10208000EFF3108680F310882168894F0A683A4080
:102090000A6086F31088EFF3108680F310882168B9
:1020A0008A6882438A6086F31088EFF3108680F393
:1020B000108821688A689A438A6086F310882022F3
:1020C0004033E25000232366EFF3108180F3108841
:1020D00022681368AB43136081F31088606FFEF7CA
:1020E00091FA4346E15A022363665833E35A2000CB
:1020F000C91A89B201F056FF99E701266D483540AB
:102100000840284300D186E71E4206D0C80504D502
:1021100084271662E0590643E6510220184255D042
:10212000002D07D0842704261062E0593043E05187
:102130001E424FD108261E4208D0202008400543E9
:1021400004D0842516626059064366518020000140
:10215000034207D04D0105D5842520261062605921
:102160003043605184202058002800D15FE72020B0
:10217000184201D0084251D1842640272823A15972
:1021800095680B403D4020001D4300D18AE0FFF7D9
:10219000BDFE23689B681F423CD0EFF310810123F2
:1021A00083F3108822689368BB43936081F310889F
:1021B000606F00282ED0404B4363FEF743FA00289F
:1021C00000D134E7606F436B984730E75807B1D5CB
:1021D000002DAFD00420842602271062A059384376
:1021E000A051A7E7A36E002B00D029E71FE7EFF36C
:1021F0001080012383F3108821680B6893430B60E0
:1022000080F310882023E36700232000E366FFF7B4
:10221000ABFE0CE7200001F0F5FE08E7A36E002BF3
:10222000AAD0200098472268A6E75A22A35AA25AA9
:102230009BB2002A00D1FAE65822A15AC91A89B2E3
:10224000002900D1F3E6EFF3108780F310882368AC
:1022500099461B6898464246184B1A4013004A4656
:10226000136087F31088EFF3108780F310882268DB
:1022700093688343936087F3108880232022E25081
:102280002666A666EFF3108680F31088226813682E
:10229000AB43136086F3108802232000636601F0CD
:1022A00081FEC4E601F0AEFEA551C0E60F080000B5
:1022B000FFFEFFFF20010004DD1F0008DFFEFFFF1F
:1022C0000123406A10B54366036E012B02D0FFF76D
:1022D0004FFE10BD5733C15A490801F063FEF8E7BD
:1022E00003009B6970B5406A202B29D05A23002235
:1022F000C252EFF31084593B83F3108801681F4DDD
:102300000A682A400A6084F31088EFF3108483F38C
:10231000108801688A689A438A6084F31088EFF312
:10232000108183F31088402402689368A34393606C
:1023300081F3108880232022C250036E012B07D026
:1023400000234366036E012B12D0FFF70FFE70BD12
:10235000EFF3108183F310880268303C1368A343C5
:10236000136081F3108800234366036E012BECD1C8
:102370005733C15A01F016FEE9E7C046FFFEFFFFE2
:1023800070B504000268C569836800691168034379
:10239000606903433D482B4301400B43136053687E
:1023A0003B49206A0B40E1680B435360A369916885
:1023B0000343384801400B439360374B9A4207D0A0
:1023C000364B9A420BD001200023A366E36670BD12
:1023D000334B1A6B03231340013B022B16D9802386
:1023E0001B029D422CD0FEF74DFF00280CD06368E5
:1023F00061685B081818FDF799FE0200294B103A36
:102400009A42E0D82368D8600020DDE78020264A81
:102410000002D35C85420ED0042B06D008D8002BD6
:10242000E1D0022BCFD12148E1E7FEF701FFDCE745
:10243000082BDCD0C7E7042B24D01ED8002B18D1E2
:10244000FEF720FF0028DFD04000636861685B086A
:102450001818FDF76BFE0200124B103A9A42B2D8E0
:10246000134B226803400007400F1843D060002040
:10247000AAE7022BA7D10F48E7E780204002082BEC
:10248000E3D0A0E7FEF7D4FEDCE7C046F369FFFF28
:10249000FFCFFFFFFFF4FFFF003801400044004082
:1024A00000100240EFFF0000B051000800127A0057
:1024B000F0FF00000024F400436A30B5DA0706D5C7
:1024C0000168284C4A682240846A22434A609A077D
:1024D00006D50168244C4A682240C46A22434A60F7
:1024E0005A0706D50168214C4A682240046B2243F2
:1024F0004A601A0706D501681D4C4A682240446BA1
:1025000022434A60DA0606D501681A4C8A682240DE
:10251000846B22438A609A0606D50168164C8A6845
:102520002240C46B22438A605A060AD50168134DC3
:102530004A68046C2A4022434A6080225203944233
:1025400009D01B0606D502680D4953680B40816C03
:102550000B43536030BD4A680A4C2240446C22430E
:102560004A60EEE7FFFFFDFFFFFFFEFFFFFFFBFFFF
:10257000FF7FFFFFFFEFFFFFFFDFFFFFFFFFEFFF2B
:10258000FFFFF7FFFFFF9FFFF0B545469846042386
:1025900057464E46DE469A46043399468023E0B5B8
:1025A0001B0183B0150007000C009B460C9E0268BF
:1025B00001E0731C0ED1D36923401B1B59424B41D0
:1025C000AB42F6D0002003B0F0BCBB46B246A946F1
:1025D000A046F0BDFDF744FF4346C01AB0421DD8E7
:1025E000002E1BD051463A6813681942E3D0494681
:1025F000D369194001914946194211D15946D3690D
:102600000B42D8D038001162FFF780FC84232022CF
:10261000FA50019A0C3B0320FA54D4E70320D2E786
:1026200038001162FFF772FC84234A46FA500022F8
:102630000C3B0120FA54C6E770B584230026040041
:10264000C65082B0FDF70CFF236805001A68120718
:102650000ED41B685B071AD420238022E367A350A3
:1026600000230020083A23666366A35402B070BDBD
:102670008021244B00220093890303002000FFF7F0
:1026800083FF00282CD123681B685B07E4D58021D9
:102690001C4B0022009320002B00C903FFF774FF9E
:1026A0000028D9D0EFF31080012282F3108821682E
:1026B000154D0B682B400B6080F31088EFF31080F2
:1026C00082F3108821688B6893438B6080F31088B5
:1026D00080231F32E2500022083B0320E254C5E76A
:1026E000EFF31081012383F31088802022681368A0
:1026F0008343136081F310882023E3675833E65443
:102700007D38B3E7FFFFFF01DFFEFFFF10B5041EBA
:1027100026D0C36F002B25D0242301212268E36734
:10272000136820008B431360FFF72AFE012817D09F
:10273000636A002B10D123680D495A6820000A40B3
:1027400008215A609A688A439A601A6807390A43CE
:102750001A60FFF771FF10BD2000FFF7ADFEEAE73A
:102760000120F8E77822835402F0DEFAD4E7C0466D
:10277000FFF7FFFFF8B51300582241650D008352A3
:102780008427002280262221C25104008151406FFB
:1027900000280DD01D49426381621D492A00C16293
:1027A0001C49016321682431FDF7ECFE002827D184
:1027B0002369002B17D1EFF31080012383F31088D6
:1027C00021688A681A438A6080F31088EFF31081C9
:1027D00083F310884020226893680343936081F359
:1027E00010880020F8BDEFF31081012383F31088D7
:1027F0002268FF3310680343136081F31088DAE71F
:102800001023E35110330120A351EBE7E12200082C
:10281000C1220008751F00088023C35870B504004A
:10282000202B29D100290BD0002A09D080238068D1
:102830005B01984206D12369002B03D1CB0701D558
:10284000012070BD01232366002320006366FFF78B
:1028500091FF0028F5D1236E012BF1D110212268C0
:102860001162EFF3108583F31088226813680B431D
:10287000136085F31088E4E70220E2E770B50025D5
:10288000002429002000032200F0BEFA2000E91CE9
:1028900001340322C9B20635E4B200F0C7FAEDB242
:1028A000082CEED170BDC046F0B5C64600B582B06A
:1028B0000D00019000F0A6F800222B4B14245A764C
:1028C000DA76FF329A7606E0013C2848E4B200F05E
:1028D00047FB002C46D000F071F80128F4D001200D
:1028E00000F05EFA002830D1022000F0B1FA012099
:1028F000002D26D010235B4298461D4E0024B04484
:1029000002E00134082C13D0335DE5B2002BF8D07F
:1029100042466300D75A002FF3D00321280000F06D
:10292000D1F801343900280000F0E2F8082CEBD18E
:10293000002000F0B7F9002000F0D6F943425841DA
:10294000C0B202B080BCB846F0BD01A800F078F873
:1029500001A800F08BF8022000F07AFA0120002D87
:10296000EFD0C7E70020ECE718000020A0860100A8
:102970002800002010B5052000F098FA034B012232
:1029800099881868FEF706F910BDC04610000020AF
:1029900010B50400062000F089FA200000F0A6FA25
:1029A00000F0B2FA0400044B012218689988FEF77F
:1029B000F1F8200010BDC0461000002010B5262000
:1029C00000F074FA00F0A0FA0400044B0122186829
:1029D0009988FEF7DFF8200010BDC04610000020E7
:1029E00010B52C2000F062FA00F08EFA0400044BBF
:1029F000012218689988FEF7CDF8200010BDC04666
:102A00001000002010B5272000F050FA0A4B0122D8
:102A100099881868FEF7BEF8CA2403E0013CE4B2C6
:102A2000002C07D0054800F09BFAFFF7D9FF1028CB
:102A3000F4D010BDEA30FCE71000002010270000A1
:102A400070B50400222000F031FA251D20780134F1
:102A500000F04CFAAC42F9D1034B01229988186876
:102A6000FEF798F870BDC0461000002070B5040055
:102A7000232000F01BFA251D2078013400F036FADF
:102A8000AC42F9D1034B012299881868FEF782F80D
:102A900070BDC0461000002070B50400282025003D
:102AA00000F004FA083500F02FFA20700134AC422F
:102AB000F9D1034B012299881868FEF76BF870BDB5
:102AC0001000002070B505000C00342000F0EEF975
:102AD000280000F00BFA200000F008FA034B012256
:102AE00099881868FEF756F870BDC046100000209F
:102AF00070B505000C00332000F0D8F9280000F074
:102B0000F5F9E0B200F0F2F9200A00F0EFF9034B1A
:102B1000012299881868FEF73DF870BD100000206A
:102B2000F0B5C64600B51C4F0124FB7E804603412C
:102B30000D0016001C422CD18440184800F010FAF9
:102B4000FB7E1C42F9D0FB7E3920A343FB7600F0CC
:102B5000ADF9404600F0CAF9F0B200F0C7F9300A0A
:102B600000F0C4F9022000F0FBF90024002E07D089
:102B700001342878A4B200F0B9F90135A642F7D1A2
:102B8000074B012299881868FEF704F880BCB84604
:102B9000F0BD8440D7E7C046180000201027000091
:102BA0001000002070B505000C00392000F07EF9FF
:102BB000280000F09BF9E0B200F098F9200A00F03C
:102BC00095F9022000F0CCF970BDC04670B5050043
:102BD0000E1E08D0002401342878A4B200F086F933
:102BE0000135A642F7D170BD10B5034B012299887B
:102BF0001868FDF7CFFF10BD1000002010B50400CD
:102C00003B2000F053F9200000F070F900F07CF94F
:102C100084B200F079F9054B0002241801221868EB
:102C20009988A4B2FDF7B6FF200010BD1000002067
:102C300010B504002E2000F039F9200000F056F9FC
:102C4000034B012299881868FDF7A4FF10BDC04608
:102C50001000002070B504000E001500002900D1FE
:102C600070BD3C2000F022F9200000F03FF9F0B2E6
:102C700000F03CF9300A00F039F9012000F070F959
:102C8000002400F041F90134A4B228700135A642B5
:102C9000F7D1034B012299881868FDF77BFFDFE726
:102CA0001000002010B50400352000F0FFF82000CF
:102CB00000F01CF90A4B012299881868FDF76AFF99
:102CC000CA2403E0013CE4B2002C07D0054800F020
:102CD00047F9FFF785FE1028F4D010BDEA30FCE775
:102CE000100000208813000010B50400362000F00A
:102CF000DDF8200000F0FAF80A4B012299881868E4
:102D0000FDF748FFCA2403E0013CE4B2002C07D0E1
:102D1000054800F025F9FFF763FE1028F4D010BD38
:102D2000EA30FCE7100000208813000010B5040012
:102D3000382000F0BBF8200000F0D8F80A4B012240
:102D400099881868FDF726FFCA2403E0013CE4B225
:102D5000002C07D0054800F003F9FFF741FE1028CA
:102D6000F4D010BDEA30FCE710000020881300000A
:102D700010B50400302000F099F8200000F0B6F8FB
:102D8000022000F0EDF800F0BFF80400034B012230
:102D900018689988FDF7FEFE200010BD1000002085
:102DA00010B50400412000F081F8200000F09EF8EA
:102DB0000A4B012299881868FDF7ECFECA2403E04B
:102DC000013CE4B2002C07D0054800F0C9F8FFF739
:102DD00007FE1028F4D010BDEA30FCE710000020F8
:102DE000204E000010B5422000F060F800F08CF892
:102DF0000400044B012218689988FDF7CBFE2000DF
:102E000010BDC0461000002070B506000D00140073
:102E1000522000F04BF8300000F068F8280000F075
:102E200065F8200000F062F870BDC04670B506007D
:102E30000D001400532000F039F8300000F056F86F
:102E4000280000F053F8200000F050F870BDC04694
:102E500010B50400552000F029F8E0B200F046F863
:102E6000A0B2000A00F042F8200CC0B200F03EF818
:102E7000200E00F03BF810BD10B5192000F016F838
:102E8000022000F06DF800F03FF884B200F03CF84A
:102E9000054B00022418012218689988A4B2FDF796
:102EA00079FE200010BDC0461000002030B583B070
:102EB0006B460C4CD871A18820680122DD1DFDF7FE
:102EC00069FEA18820680022FDF764FE64230122C8
:102ED00029000548FEF7DAFB022000F041F803B0B4
:102EE00030BDC046100000207811002000B583B02E
:102EF0006B460122D91D087064230248FEF7C6FB09
:102F000003B000BD7811002010B582B06B46DC1D07
:102F10000122642321000348FEF7ACFD207802B0B3
:102F200010BDC0467811002010B504000A4B0822DD
:102F3000196802F06DF82000602200210A3002F0CA
:102F400014F8200002220021083002F00EF80122BD
:102F5000024B1A7010BDC04634060020B406002093
:102F6000400140080138C04601380028FBD17047B5
:102F7000054B994206D80B684360013302D00160CB
:102F8000012000E000207047FEFF0008F0B5464633
:102F9000D6464F469246C0B560C98146A84601E074
:102FA000002E19DD6B68504643441F000837390076
:102FB00004351C00013EFDF7A7F80028F0D1636836
:102FC00022684344494648460F604B608A60E0BC33
:102FD000BA46B146A846F0BD002200230027F1E71B
:102FE000F0B5C646046847680E00A04600B5002F3D
:102FF0000FD0002502E00135BD420AD061683000E3
:10300000083141440434FDF77FF80028F3D1012052
:1030100000E0002080BCB846F0BDC04670B5451D3C
:1030200004002800FDF77AF80B220449281801F063
:1030300093FF200000F04EFD70BDC0461C520008FA
:1030400070B5174982B0040000F05AFB154905001D
:10305000200000F055FB0600002D0FD000280DD0F9
:10306000280000F06FFB01AD2870300000F06AFB13
:103070002B786870062B01D8062807D996212000E6
:10308000094A490000F084FC02B070BD280002210A
:1030900001F0F8FA2000054900F04AF9F4E7C046CB
:1030A00028520008305200083852000850530008D7
:1030B00010B5C821014A00F06BFC10BD4452000855
:1030C00010B5C821014A00F063FC10BD5052000841
:1030D00030B583B00500022101A801F02BFD114B92
:1030E000114C1A68114922601B79062223716B4624
:1030F0001B79A01D3033637101F02EFF6B46200059
:103100005B7902223033237309490D3001F024FF2B
:1031100000232200C8212800E37300F039FC03B02B
:1031200030BDC04658520008B80600206052000862
:1031300068520008F0B5DE4657464E464546E0B5B3
:103140001F4B204F83B03900019018009B4600F0C0
:1031500097FE31231C4D03700C334370290010225D
:10316000023000F097FE0123184E322433702533CD
:103170009A46173399463C3B9846103553463900DA
:103180000370013000F07CFE4B4604704370290050
:103190001022023000F07EFE43460134E4B2337068
:1031A0001035372CEAD15A46C821019800F0F0FBBF
:1031B00003B0F0BCBB46B246A946A046F0BDC0462F
:1031C000C80600206C5200083E0D0020B406002006
:1031D00070B5164B82B000936A46002313714533D5
:1031E000C35C0600002B1BD00124114D6B46200050
:1031F000D91C00F0BFFA6946300000F081FA011EC8
:1032000003D01022280001F003FF0134A4B21035CE
:10321000072CEBD13000074900F08AF802B070BDEE
:103220009621054A490000F0B3FBF7E7616E740090
:103230003E0D002050530008705200080023452224
:103240000370835463320371C3708354103A835400
:1032500008328352014A9C33C2507047D00D00207F
:10326000F8B50400FCF75AFF0500032836D9461FBD
:10327000A61930001F49FCF747FF002830D02F1F48
:10328000E71938001C49FCF73FFF002828D0380018
:103290001A49FCF739FF002824D0E81E18492018E5
:1032A000FCF732FF002821D038001649FCF72CFF2C
:1032B00000281DD038001449FCF726FF002813D041
:1032C00030001249FCF720FF00280DD038001049CB
:1032D000FCF71AFF002801D10E4800E00E48F8BDA7
:1032E0000E48FCE70E48FAE70E48F8E70E48F6E706
:1032F0000E48F4E7B8520008C0520008C85200084F
:10330000D0520008D4520008DC520008E4520008F1
:10331000EC520008D05300080C540008DC5300089D
:10332000C4530008E8530008F45300081854000878
:10333000F8B5CE46474680B59C27C4590500894656
:1033400009222000464901F007FE26002000052240
:1033500044490C36083001F0FFFD3000FCF7DEFE7A
:1033600007224149301801F0F7FD12239846A04486
:103370004046FCF7D3FE3D4E03223100404401F0AD
:10338000EBFD14239846A0444046FCF7C7FE0D22EF
:103390003749404401F0E0FD20239846A0444046D0
:1033A000FCF7BCFE07223349404401F0D5FD26233B
:1033B0009846A0444046FCF7B1FE31000322404449
:1033C00001F0CAFD28239846A0444046FCF7A6FE1B
:1033D00011222949404401F0BFFD38239846A044FA
:1033E0004046FCF79BFE02222449404401F0B4FD14
:1033F00039239846A0444046FCF790FE3100032252
:10340000404401F0A9FD3B239846A0444046FCF708
:1034100085FE45340B221A49404401F09DFD2000F1
:10342000FCF77CFE4946201801F0A7FD040031009E
:10343000032201F091FD31000322A01C01F08CFD5C
:10344000E859FCF76BFE9A230022E8520633EA5251
:10345000083B0132EA54C0BCB946B046F8BDC0468C
:1034600040530008F4520008FC520008685200085B
:1034700004530008145300081C530008305300087C
:103480003453000810B50400FFF750FC0123A3409B
:10349000DB43054A5BB2517E19405176117E0B40E9
:1034A0001376FF23937610BD18000020F8B5076847
:1034B00004000E00002F0FD0380001F0E8FD051EBB
:1034C0000CD03000FCF72AFE060002000021280084
:1034D000AD1901F04AFD25603800F8BD2060FBE71A
:1034E000F0B54546DE4657464E46E0B50378050042
:1034F00085B0032B4ED03DD8002B5ED0012B3ED1A2
:10350000754B994601AB984649464046FFF7CEFFBA
:1035100000283CD0714B724F9A46724B02AE9B46CC
:103520000BE059462000FCF7EFFD002839D0494652
:103530004046FFF7BBFF002829D03200390001F0D8
:10354000EBFD041E23D00378002B20D05146FCF75E
:10355000DBFD0028E5D13200390001F0DDFD002857
:1035600000D18BE0604901F092FD0028DFD00123FB
:103570002B71DCE7042B02D1A8230122EA5401209D
:1035800005B0F0BCBB46B246A946A046F0BD2B78BC
:1035900001332B70EB78012B76D02B7801332B7015
:1035A000EAE73900320001F0B7FD011E66D02800BD
:1035B0004022583001F02CFDB9E7474B0191994664
:1035C00001AB494618009846FFF770FF041E55D01E
:1035D000C0224649D20001F03AFD00284ED0444BAB
:1035E00002AE2000320019009A4601F095FD041E3B
:1035F00044D04049FCF788FD002864D10023EB70DB
:1036000051463200002001F087FD011E36D06F1DAB
:103610004022380001F0FCFCEC78002C23D13F2143
:10362000380001F0C0FC00281DD043780470002B46
:1036300019D0314C03AF3A002100013001F06CFD8C
:10364000002810D045239B465B465946EB5C5A1C2C
:1036500012339B006A5458513A002100002001F0B7
:103660005BFD0028F0D132005146002001F054FDEE
:10367000002803D02B7801332B7045E70023A822C4
:103680002B700020AB547BE7134901A8FFF70EFF16
:10369000002800D181E7184C03AF3A00210001F067
:1036A0003BFD002800D178E74526AB5D21005A1C80
:1036B00012339B00AA5558513A00002001F02CFD0E
:1036C0000028F2D169E720000C49FCF71DFD002815
:1036D00094D10123EB7093E7485400082854000864
:1036E000C053000834540008585300084C530008D5
:1036F000245400083C540008545300084054000867
:103700004523F0B5C75C002F18D0483000250600CF
:10371000AB00F0580A000378002B07D10BE09C4265
:1037200009D1437801300132002B04D01478002CE9
:10373000F5D13D2B04D00135AF42E9DC0020F0BDCE
:103740000130FCE7020010B5C41C00201378002BE8
:103750000CD019003039092909D8810040184000DF
:103760001B18303B0132D8B2A242EFD110BDFF206E
:10377000FCE7C046F8B504000E00002822D0002562
:1037800020000A21FCF758FD2F003031F1552000B0
:103790000A21FCF7CBFC01352700EDB284B2092FDA
:1037A000EED800236C0873550AD06A1EB218107840
:1037B000F15CF05401331170D9B2013A8C42F6D861
:1037C0002800F8BD00250870FAE7C04682B0F0B5C1
:1037D000D6464F464646C0B588B011939C23050097
:1037E000C4581000170089461092FCF797FC8046D9
:1037F00003385D493818FCF787FC129E8246002882
:1038000000D19FE03800FFF72BFD0023070098460A
:1038100009222000554901F09FFB202323724B46CB
:103820000934210098B2FFF7A5FF24182000FCF707
:1038300075FC06224E49201801F08EFB631D18000E
:103840009946FCF76BFC0D2248444A4901F084FB81
:10385000112399462B79A1444846012B5DD0FCF7F2
:103860005DFC09224449484401F076FB4346193483
:10387000002B5DD12000FCF751FC0F223F4920189E
:103880000E3401F069FB3900200001F07FFB3800A5
:10389000FCF744FC24182000FCF740FC384F0322BE
:1038A0003900201801F058FBA31C18009846FCF7BB
:1038B00035FCB6B2112233494044123401F04CFBBE
:1038C00021003000FFF756FF24182000FCF726FCEB
:1038D000390003222018023401F03EFB2000FCF7DF
:1038E0001DFC03223900201801F036FB9C23E85808
:1038F000FCF714FC9A23119AE8520633EE52043373
:10390000EA5001220C3BEA5408B0E0BCBA46B1468A
:10391000A846F0BC08BC02B01847FCF7FFFB0D221C
:103920001949484401F018FB43461D34002BA1D02F
:103930002000FCF7F3FB19222018144901F00CFBBE
:10394000183497E7434639005A1C684601F004FBD7
:10395000404653466844033803706846FFF780FCCE
:1039600001230700984653E76053000840530008BE
:1039700064530008045300087C530008A453000853
:10398000685200081C5300086C5300088853000854
:103990009C23F0B5C646C45800B50F000500454944
:1039A00020001600092201F0D7FA202323720934DF
:1039B0002100B8B2FFF7DEFE24182000FCF7AEFBB2
:1039C000671D06223C49201801F0C6FA3800FCF7B2
:1039D000A5FB0D223818394901F0BEFA2B790C37B6
:1039E0003800012B5CD0FCF799FB092234493818C8
:1039F00001F0B2FA1934681DFFF732FC070020000D
:103A0000FCF78CFB0F222F4920180E3401F0A4FA8A
:103A10003900200001F0BAFA3800FCF77FFB2418C7
:103A20002000FCF77BFB284F03223900201801F00F
:103A300093FAA31C18009846FCF770FB1122234947
:103A4000404401F089FA3000FCF768FB1234210091
:103A500080B2FFF78FFE24182000FCF75FFB3900CF
:103A600003222018023401F077FA2000FCF756FBFD
:103A700039000322201801F06FFA9C23E858FCF764
:103A80004DFB9A23E8523000FCF748FBA0230122AB
:103A9000E8520433EE500C3BEA5480BCB846F0BD0B
:103AA000FCF73CFB0D220A49381801F055FA1D3489
:103AB000A1E7C046405300086453000804530008BF
:103AC0007C530008A4530008685200081C530008E7
:103AD0006C530008F0B5304C461D05009DB0310018
:103AE0002000FFF77DFA002821D03200210008A82D
:103AF000FFF74CFA089B002B3ED1284C284B2200A4
:103B000083CB83C240223100200001F05AFA20000A
:103B1000FCF704FB03222349201801F01DFACA21F7
:103B2000220028004900FFF733FF1DB0F0BD31002F
:103B30000BA801F022FA1C49042201F00DFA200022
:103B40000BA9FFF74DFA0028D7D021000BAA05A832
:103B5000FFF71CFA059B002BCFD021000BAA08A869
:103B6000FFF714FA0A9BC821039300932800089AD0
:103B7000099BFFF72BFED8E7320021000BA8FFF7C7
:103B800005FA0D9BC8210393009328000B9A0C9B08
:103B9000FFF71CFEC9E7C046C80D0020A80C002096
:103BA000B45300086852000860530008F0B5454659
:103BB000DE4657464E46E0B5847E050064B285B0C9
:103BC000002C17DD631E9A46A74BAC269946534638
:103BD0005E43B346CB445B46A8331B78002B10D121
:103BE000C37E5246AC2353434B441A00A932127889
:103BF00094422FD005B0F0BCBB46B246A946A046C1
:103C0000F0BD5B4698331B78002B3FD1002705366B
:103C10004E44B046954E40224046316801F0E7F9E7
:103C2000002800D1A1E001370836072FF3D158460C
:103C3000FFF750FFEB7E2341DB07D2D55246AC2382
:103C400053434B441A00A8321278002AC9D0983343
:103C50001B781FE0A8331B78002BCBD1844DE6B234
:103C600001230124834A117858B2002903D0297E08
:103C700019410C4205D10133AC32082BF3D101209C
:103C80004042A8763000FFF751F8B3E7C27E2241E8
:103C9000D207A6D5012B70D0022BABD15246AA3346
:103CA00053434B44A0331B887349E6B21A1C8B4222
:103CB00000D90A1C93B298465746AC235F4301973C
:103CC0004F44BC46A422624493465B464246196870
:103CD00030000297FEF724FF0122A240644DA03776
:103CE000EB7E039793434246EB763B003F88BF1A37
:103CF000BFB21F805B465A461B6843441360002FC7
:103D000000D06EE73000FFF7BDFB4B46019A9F5491
:103D1000029A130045331F7063331F70103B1F70EE
:103D2000039B17711F801300D770544A9C331A608D
:103D30004A460123A8320137117858B2002903D02E
:103D4000297E19410F4205D10133AC32082BF3D142
:103D500001204042AC23524653434B44A876A9333A
:103D60001B789C4200D045E77AE7404BFF009C4619
:103D7000674458467B6898475CE75246AB335343E9
:103D80004B441A009A3211883B4AA0331B88521ABE
:103D900095B2181CAB4200D9101C85B2AC46E6B2F5
:103DA0006144300089B2FEF7FDFEAC2352465A430F
:103DB00002924A4413009A3319889C2398469044EF
:103DC000434618681700FEF701FFA4239B46BB4437
:103DD0005B46290018680195FEF7F8FEFEF704FF20
:103DE0000122A240224D0198EB7E9343EB76A02363
:103DF0009C46BC446246138803921B1A99B21180F8
:103E00005A461268019194465A466044106000294F
:103E100003D0022398373B70E3E63000FFF732FB14
:103E20004B46019A02993A715A543B0045331A7035
:103E300063331A70039BFA7098373A701A804246BF
:103E40000E4B012713604A460123A832117858B25D
:103E5000002904D0297E19410F4200D07AE70133AE
:103E6000AC32082BF2D173E7480700203806002057
:103E700018000020F007002046050000D00D0020AB
:103E800002E00370013101300B78002BF9D10023DF
:103E9000037070470B7810B5002B0DD0002A0BD0A3
:103EA000821894B202E082B2A24205D003704B782D
:103EB00001310130002BF6D10023037010BDC04644
:103EC000F8B54546042380464344DE469B4603231B
:103ED00057464E464344E0B589469A460025434638
:103EE0001E78002E12D14B463022681CC0B25A55A3
:103EF000D04533D04B462E221A5401239C46451CF4
:103F0000E044EDB2D845EAD128002AE00024300090
:103F10000A21FCF791F92F004B463031D95530007A
:103F20000A21FCF703F9013501343700EDB2C6B2BE
:103F3000E4B2092FEBD860080DD000232C1B6A1EB9
:103F40004A444C441178E65C013A5670E15401331E
:103F5000D9B28142F6D32800D045CBD100234A46BE
:103F60001354F0BCBB46B246A946A046F8BDC046B5
:103F700070B50C2204000D0000F0EEFF01226E234C
:103F80000026E254023B2673E65229896868FCF752
:103F900001FE21002068202244622C312667FEF7B2
:103FA0003BFC70BD7223F0B5C646456A00B5EA5ABF
:103FB0008A4205D0202903D0E95280BCB846F0BD22
:103FC0006C27EB5B9AB29046002B09D02E002C3662
:103FD00000232022310028682B67FEF71DFCECE748
:103FE00070232E002800EB5A2C36CC1AA4B22200E3
:103FF000F1180C3001F00CF842462B191A73EC53EF
:10400000E6E7C046436A0022190010B518681A672F
:104010002C312032FEF700FC10BDC0463F23137048
:10402000323B5370002300209370704770B5160028
:10403000012582B001280AD9486801AA012100F0AF
:104040004BF9041E03D1019B013B012B02D928002F
:1040500002B070BD0221684600F06CFD0422300001
:10406000084900F079FF019B00251A006B44013BD1
:104070001B783032303333710D23F2707371B471A9
:10408000E5E7C0464C54000870B501230C0015004C
:1040900084B0022802D8180004B070BD00230121AA
:1040A000606802AA039300F017F9061E08D10221E6
:1040B000A06803AA00F010F9029B013B012B01D973
:1040C0000123E8E7039A062AFAD80D4901A80C7ED5
:1040D00004703424095D41700221C25400F0D2FA08
:1040E00004222800074900F037FF029BAE713033ED
:1040F000EB70039B30332B710D236B710023CAE7E8
:10410000B41000204C540008F0B5C646002300B59A
:1041100082B005000E004068012101AA019300F061
:10412000DBF8041E09D1019B01205F1E9846052F74
:1041300005D902B080BCB846F0BD0120F9E71049AE
:104140003F010A377F181022A968380000F060FF8D
:1041500005220C493000FC7300F0FEFE434630336C
:10416000182239003371300000F02BFF3000FBF7CC
:10417000D5FF02220449301800F0EEFE0020D8E7F7
:10418000340D002050540008585400080B0010B59E
:10419000110004000120022C02D91800FFF7B4FF1F
:1041A00010BDC04610B501230C001100012803D931
:1041B0002000FFF7A9FF0300180010BDF8B547461F
:1041C000CE460400904680B5002910D1FBF7A6FF2B
:1041D00081B2002928D023781A00413A192A0BD934
:1041E0003F2B09D0013989B2013400291CD0237832
:1041F0001A00413A192AF3D8012915D9324B334D07
:1042000099461D602B0022781E00100041381928A5
:1042100001D93F2A0ED1013989B2013332700134FC
:104220000029F0D19D424BD101204042C0BCB9468B
:10423000B046F8BD9D42F7D000221A705A1C0023E8
:1042400001279C462378202B03D02C2B01D0092B4F
:1042500021D1013989B201340029F3D11C4E280043
:1042600031680024FBF750FF002809D001340436E0
:10427000052CD9D028003168FBF746FF0028F5D17E
:10428000144BA200D358002B03D042464946F8B243
:1042900098472000CAE7180030380928DED84E4673
:1042A0001370501CBB00F0506346013989B20137CE
:1042B000013453700029D1D00232042FC2D1CDE78E
:1042C00001271970CAE7C046F80C0020080D00202D
:1042D0007406002070540008F0B50678002E19D03E
:1042E000002917DD070000250DE0AB005B195B001E
:1042F000303B0137F5183E78002E0CD0CC1B04194A
:1043000064B2002C07DD3300303B092BEDD90120CE
:10431000404202E0002500201560F0BD70B50400A9
:1043200023780800002B11D1A61CA37091B2320093
:10433000FFF744FFA3780500002B05D018213000BB
:1043400000F07AFEC0B26070280070BD01256D4299
:10435000FAE7C046002210B50F4B104C1A70A18826
:104360002068FCF717FCA189A0680022FCF712FC6A
:10437000A18A20690022FCF70DFC0022218CE06953
:10438000FCF708FC06490748FFF79AFD064B187032
:104390000648FDF745FC10BD8C060020B410002037
:1043A000240D002088060020200D00203011002060
:1043B00030B591B01822002105A800F0D6FD0021EB
:1043C0001022684600F0D1FD0A230493093B0793AD
:1043D0000B93C0231022002402255B0304A808923B
:1043E0000E930C950D940F94FCF718FC0723009383
:1043F000A0230121DB006846019502940393FCF79A
:1044000067FE11B030BDC046022170B5184B0024C4
:10441000FF2259741749184D59820139FF39998281
:1044200002212C705C769A76DA76144AFF31128873
:10443000D9825A809A80DA801A81114A1C761288B1
:104440005A819A81DA81FEF795FA0E48FEF788FDC7
:10445000FEF714FAFB220C4B502118685200FEF7AD
:1044600023FA0A4B28701C70094B1C7070BDC046A3
:104470001800002002020000180D00208E06002007
:1044800090060020A0860100880600201A0D00205A
:10449000190D0020F0B5DE4657464E464546E0B5BC
:1044A00085B0FEF7E9FC0400C30700D594E02307BC
:1044B00000D599E0630700D59BE02409A4B2002C45
:1044C0004AD0684B01259A469B46674E009303E00D
:1044D0000135AC36082D3FD0EBB298460123640875
:1044E00099462342F4D04046FEF742FC4B46070073
:1044F000034205D0AB405B4AD17E0B43DBB2D3769F
:104500007B0730D43B070CD55B461A7E0123AB40BA
:1045100059465BB21A43D2B20A76CA7E1343DBB263
:10452000CB76FB06D4D553461A7E0123AB405146C9
:104530005BB29A430A764A7E9A434A76CA7E13430E
:10454000DBB2CB768B7E5BB29D42C1D1FF230135BE
:104550008B76AC36082DBFD105B0F0BCBB46B24659
:10456000A946A046F0BD4046FEF748FBC022031C0A
:10457000D20090422ED29BB219003C4A4046994646
:10458000FEF768FB009900220B004B441A77374B6B
:104590000C3B5B5D0193012B33D0022B16D1300015
:1045A000FEF74CFEA923424630003049F254FEF794
:1045B00097FF00280AD00123AB4000994A7E13439D
:1045C000DBB24B768B7E5BB2002B48DB4046FEF7BE
:1045D0002FFB97E7264BCEE702A8FEF75DFAFFF721
:1045E00013FF230700D465E7FEF7FCFB630700D445
:1045F00063E7FEF7E3F901282DD001221D4B1A7065
:104600005BE73000FEF71AFE4246A9231749F25431
:1046100019484A46FFF782FE0028D7DB164B5B7825
:10462000002BD3D0A823019A1449F254124B5A7884
:104630009C23D2B2F05800F0EBFC0F4B00215A78CB
:104640009A23F252019A0633F152083BF2540023A6
:10465000094A5370BAE70022094B1A702DE76BB272
:104660008B76B3E7180000204807002034000020B4
:10467000FF0500001A0D0020441000204610002005
:10468000180D0020F8B5DE4657464E46454683468F
:10469000E0B50B1C022900D90223DBB29A4600299F
:1046A00032D01C4B002798460123994606E01C2374
:1046B0009C460137FBB2E0449A4525D95B46DE5D56
:1046C00043461B7EB342F2D043461E76F643454630
:1046D0000024F6B232004B462241A98828681A40CD
:1046E0000134FCF757FA0835032CF3D143460A4A44
:1046F0001B7ED3554A46094B01371A701C239C4632
:10470000FBB2E0449A45D9D8F0BCBB46B246A946B4
:10471000A046F8BDB41000203C0D0020B4060020D7
:10472000F0B5DE4645464E465746D94BE0B5180033
:10473000D84A8DB012CA12C00100D74A11CA11C19D
:10474000D64A11CA11C100241A00D5491C761C3260
:1047500021C921C21A00D349243221C921C21A0019
:10476000D1492C3221C921C2D04F342138005C54A8
:10477000CF4B24CB24C00200CE4B21CB21C2CE4B49
:1047800021CB21C23B00CD4A3C761C3321CA21C338
:104790003B00CB4A243321CA21C33B00C94A2C33F6
:1047A00021CA21C37C54FBF73FFE04A90A00C64B73
:1047B00061CB61C2C54BC64D1868FFF7D9FBFFF747
:1047C000F7FD1422002107A800F0CFFB80216A69C1
:1047D000C9030A436A616B6990200B4080210193F1
:1047E000019B6A6989020A436A616B69C0050B40D3
:1047F00080210293029B6A69C9020A436A616B695C
:1048000001220B400393039BB24B012619009946EA
:10481000FCF7C0F9B04B01221900B0489A46FCF7EA
:10482000B9F90323AE4807A9079308940994FCF744
:10483000B7F80223902098460793842307A99B0387
:10484000C00508930996FCF7ABF84B4690200793F8
:10485000112307A9C0059946089309960A94FCF705
:104860009FF8534607934B469C4807A9089309961F
:104870000A94FCF795F8802398481B0207A9079330
:1048800009960894FCF78CF8C023902007A99B0098
:10489000C005079309960894FCF782F89148924B5B
:1048A0004661036082235B004360E023DB00C3605A
:1048B00043460361FF33FF338361FA3BFF3BC3622F
:1048C0008460C46104624462846204634463FCF7EC
:1048D0003DFE8648864B8460036096239B014360BF
:1048E0000C23C460436104618461C4610462446256
:1048F000FDF70CFF6B69002133436B616B6900228C
:104900001E400B200796079BFBF7B0FD0B20FBF723
:10491000DFFD784B9A465246774B5046136005238D
:1049200053608023DB00D3609360FCF739F9734850
:10493000734B84600360FA239B014360FA235B009E
:10494000C360753BFF3B8361FDF7B0FA6D48FBF731
:1049500079FC6C48FBF78EFC002800D193E06A4696
:10496000684B02211B7A68461370664B5B7A537062
:10497000FFF788FE644C65492000FEF7F9FA200035
:104980006349FEF72DFB20006249FEF729FB6248D0
:10499000FEF7E6FA002403E00134E4B2FF2C06D06F
:1049A0002000FDF7F5FFE343DBB29842F4D0504618
:1049B000FCF72CF9594B9946594B9846594B9B4655
:1049C000FFF722FDFBF74CFD4B4618605046FCF705
:1049D0001DF9554B1B78002B03D043461B78002B49
:1049E000EED043461B78002B06D0504B5B7E002B4D
:1049F00002D033E0FFF74EFD90200221C005FCF706
:104A0000C3F80028F6D0FBF72BFD4B46FA221B68B3
:104A10000400C31A9200934203D3454B1B78002B2A
:104A200020D13E003D003C001836A1882068FCF7EC
:104A3000ABF800281FD10834A642F6D1298CE869CA
:104A4000FCF7A2F8002816D10835AE42F6D15B4635
:104A50001B787F2BBAD9FFF77DFCB7E73348FFF708
:104A6000A5F8C9E72748FBF7F7FB0022304B1A707F
:104A70004B461C60D5E75B461B787F2BA6D8FF23EF
:104A80005A461370A2E71F48FEF74EFA67E7C04682
:104A9000B410002098540008A0540008A85400083E
:104AA000B0540008B8540008C0540008DC110020BD
:104AB000C8540008D0540008D8540008E054000836
:104AC000E8540008F05400088451000870060020E3
:104AD00000100240109C0000187C000000040048F8
:104AE000001400487811002000300140141200200A
:104AF00000440040A410002000300040301100208D
:104B000000100040340D0020C80D002000C0000837
:104B10008454000890540008305705001C0D0020F4
:104B2000180D00208C0600201A0D0020180000200F
:104B3000B4060020F0B54F46D64646468146C0B57D
:104B40000B1C022900D90223DBB2984600291BD096
:104B5000104B00269A46554600240027A98828684D
:104B6000FCF712F843425841A04001340743FFB21A
:104B70000835032CF2D14B469F551C239C46013629
:104B8000F3B2E2449845E6D8E0BCBA46B146A8463E
:104B9000F0BDC046DC110020F8B5274B834200D0A1
:104BA000F8BD0022254CA256002A28DB24490978AA
:104BB0008A4224DA234B9A5C303AD2B2092A24D8AA
:104BC0000126D243204DD7B2A98828683240FBF78E
:104BD000E1FF7A08A989A8683240FBF7DBFFBA0831
:104BE000A98A28693240FBF7D5FFFA08298CE869C1
:104BF0003240FBF7CFFF237801332370D0E7FF2249
:104C000018002270FDF73AF8CAE70F4D0022A98874
:104C10002868FBF7BFFFA989A8680022FBF7BAFF45
:104C2000A98A28690022FBF7B5FF0022298CE869D0
:104C3000FBF7B0FFDFE7C046301100208C060020F4
:104C4000200D0020240D0020B41000207047C04625
:104C500001220A4B82B099691143996199690A400E
:104C600080210092009ADA6949050A43DA61DB691A
:104C70000B400193019B02B07047C04600100240F8
:104C800010B5040088B01422002103A800F06DF9CB
:104C9000144B22689A4201D008B010BD8020124BFC
:104CA000400199690143996180219A698902024012
:104CB0000192019A5A6990200A435A615B69C005C2
:104CC0000B400293029BE0230393DE3B0493013BE2
:104CD000059302330693002303A90793FBF760FEB5
:104CE000DAE7C046003001400010024000B50C4B2E
:104CF000026883B09A4201D003B000BD1023094A74
:104D00001120D1691943D161D26900211340019367
:104D10000022019BFBF7AAFB1120FBF7D9FBEBE775
:104D2000001000400010024030B5040089B0142289
:104D3000002103A800F019F92E4B22689A4201D0F5
:104D400009B030BD80222C4B9202D96990201143CA
:104D5000D961D969C005114001910199596911437F
:104D600059615B6903A91A400292029B0C2303223A
:104D700003930A3B0493013B059306920793FBF7C9
:104D80000FFE1E4D1E4B80222B6000236B60AB601C
:104D90002B616B61AB61802328005B01EA60EB61F2
:104DA000FBF7BCFB00281ED1164B65676C62164DE5
:104DB00080222B6010236B6000232800AB60EA6028
:104DC0002B616B61AB61EB61FBF7A8FB00280DD198
:104DD000002200211C2025676C62FBF747FB1C208A
:104DE000FBF776FBACE7FFF731FFDDE7FFF72EFFC0
:104DF000EEE7C04600440040001002406010002072
:104E00005800024044000240EC1000207047C046A9
:104E1000FEE7C0467047C0467047C04610B5FBF776
:104E200013FB10BD10B50348FBF730FC0248FBF73D
:104E30002DFC10BDEC1000206010002010B50248C1
:104E4000FCF73EFF10BDC0463011002010B50248EF
:104E5000FDF7CEF810BDC046141200200121114B01
:104E600011481A680A431A605A6802405A601A6860
:104E70000E4802401A601A680D4802401A605A68CB
:104E80000C4802400F205A60DA6A8243DA621A6BD9
:104E9000094802401A635A6B8A435A6300229A6097
:104EA0007047C046001002400CB8FF08FFFFF6FE36
:104EB000FFFFFBFFFFFFC0FFECFEFFFF0D48854635
:104EC0000D480E490E4A002302E0D458C450043362
:104ED000C4188C42F9D30B4A0B4C002301E0136039
:104EE0000432A242FBD3FFF7B9FF00F011F8FFF73D
:104EF00017FCFEE7FF1F002000000020980600209E
:104F000018550008980600209C120020FEE70000BB
:104F100070B500260C4D0D4C641BA410A64209D19F
:104F2000002600F023F90A4D0A4C641BA410A64287
:104F300005D170BDB300EB5898470136EEE7B300DA
:104F4000EB5898470136F2E7105500081055000855
:104F50001055000814550008002310B59A4200D1DE
:104F600010BDCC5CC4540133F8E7030082189342AF
:104F700000D1704719700133F9E703000A7818006F
:104F80001A7001310133002AF8D17047020010B5C0
:104F9000137814000132002BFAD1CA5CE2540133B9
:104FA000002AFAD110BDC9B20378002B04D08B427D
:104FB00000D170470130F7E74B4259414942084060
:104FC000F7E7030030B51C78002C08D18918002AB7
:104FD00004D055424D5D1D70002D02D130BD01330E
:104FE000F1E7012A00D15C700133013AEFE730B5F7
:104FF0000500101E0BD00024013A2B5D085D834292
:1050000004D1944202D00134002BF6D1181A30BDDD
:10501000030030B51D00002A06D00C78013A013398
:105020002C700131002CF5D100219A18934200D147
:1050300030BD19700133F9E7030041188B4201D1EB
:10504000181A70471A78002AFAD00133F6E770B5BB
:105050000E000500110030001400FFF7EDFF030003
:10506000844205D8325C002A02D00024200070BDA2
:1050700021003200280000F05FF8041EF5D0421B2A
:105080000021280000F04DF80028EED1EEE70A7864
:1050900030B5002A0CD130BD9A4208D10123CC5C36
:1050A000002CF8D0C55CA54201D10133F7E70130EF
:1050B0000378002BF0D11800EDE7F0B5002802D1FD
:1050C0001068002813D0040020000E000578013479
:1050D0003778002F04D1002D0FD12800156006E08D
:1050E0000136BD42F4D1002BEED114600370F0BD47
:1050F0002F000FE00133002E04D1230001341D786E
:1051000027000B001E78B542F4D1002DF0D000230B
:10511000013C23701760EAE710B50123FFF7CDFFCC
:1051200010BDC9B28218904201D1002070470378A7
:105130008B42FBD00130F6E7F0B5002B0CD0C91A3A
:1051400015784118884201D9002005E00478AC4266
:1051500009D15C1E002C00D1F0BD075D165DB74281
:1051600001D1013CF6E70130ECE70000F8B5C0469C
:10517000F8BC08BC9E467047F8B5C046F8BC08BCF1
:045180009E46704790
:105184001412002000040048000800000203040573
:10519400060708090A0B0C0D0E0F10100102030478
:1051A40005060708090A0B0C0D0E0F10040802006F
:1051B40073656C2E3100000073656C2E32000000A4
:1051C4006C6162656C2E31006C6162656C2E32001C
:1051D4006C6162656C2E33006C6162656C2E340008
:1051E4006C6162656C2E35006C6162656C2E3600F4
:1051F400424934574F5000002F737069666C6173D5
:10520400682F6366672E62696E0000002F737069F1
:10521400666C617368000000696E6465782E68745A
:105224006D6C000073656C310000000073656C32B6
:1052340000000000496E76616C69640D0A0000008C
:105244005374617475730D0A000000005265736530
:10525400740D0A0073656C313D0000002673656CA3
:10526400323D00000D0A0000616E7400426164204A
:1052740061726773000000002F73776974636800BC
:105284002F676574616C6C6F630000002F73746129
:10529400747573002F726573657400002F736574E1
:1052A4006C6162656C0000002F6765746C616265F7
:1052B4006C0000002E68746D6C0000002E68746D24
:1052C400000000002E637373000000002E6A730058
:1052D4002E706E67000000002E6A706700000000E8
:1052E4002E6A7065670000002E6769660000000082
:1052F400203330320000000020466F756E640000D9
:10530400436F6E6E656374696F6E3A20000000002F
:10531400436C6F7365640000436F6E74656E742D27
:105324004C656E6774683A2000000000300000008D
:105334004C6F636174696F6E3A2000004854545096
:105344002F312E3100000000485454502F0000002B
:10535400260000004B656570000000002E677A008F
:10536400204F4B0D0A0000004B6565702D416C69A0
:1053740076650D0A00000000436C6F7365640D0AC6
:1053840000000000436F6E74656E742D456E636F8C
:1053940064696E673A20677A69700D0A000000003C
:1053A400436F6E74656E742D547970653A200000F5
:1053B4004E6F7420466F756E643A20003A200000E8
:1053C400746578742F63737300000000696D6167FE
:1053D400652F676966000000746578742F68746DC2
:1053E4006C000000696D6167652F6A706567000075
:1053F4006170706C69636174696F6E2F6A61766144
:105404007363726970740000746578742F706C61D2
:10541400696E0000696D6167652F706E670000003A
:1054240020000000436F6E6E656374696F6E000048
:10543400436F6F6B6965000047455400504F5354E8
:10544400000000000D0A0000415558004E414D4532
:10545400000000000D0000003F0000003F415558CF
:10546400000000003F4E414D450000001D40000873
:105474002D40000889400008A54100088D4100081E
:105484002F696E6465782E68746D6C002F622E66C9
:105494000000000000040048100000000004004860
:1054A40008000000000000480080000000000048E0
:1054B4000010000000000048000800000000004840
:1054C4000004000000000048000200000000004842
:1054D40000010000000400480080000000040048AF
:1054E40000400000000400480020000000040048C0
:1054F400001000000000000000000000010203048E
:0C55040006070809000000000102030473
:04551000E9000008A6
:04551400C1000008CA
:1055180000BC0008000400000100000004000000B6
:10552800000000481000000000000000000000001B
:105538000000000000000000000000000000000063
:10554800000000FF00000000000000000000000054
:105558000000000000000000000000000000000043
:105568000000000000000000000000000000000033
:105578000000000000000000000000000000000023
:105588000000000000000000000000000000000013
:105B480000000000F4510008505300081D30000800
:105B58007C5200084130000884520008D130000807
:105B680090520008B130000898520008C13000086F
:105B7800A0520008D1310008AC52000835310008A5
:105B8800D00F00205C540008605400084C540008F2
:105B98006854000850540008C0A80401FF005000D1
:085BA800F601000000127A0072
:0400000508004EBDE4
:00000001FF
