:020000040800F2
:10000000002000204D6600088D65000891650008FD
:1000100000000000000000000000000000000000E0
:1000200000000000000000000000000095650008CE
:100030000000000000000000996500089D650008B0
:100040009D660008000000009D6600089D6600088F
:100050009D6600089D6600089D6600089D66000874
:10006000000000009D6600089D660008A565000868
:100070009D6600089D6600089D660008000000005F
:100080009D660008BD650008000000009D66000830
:100090009D6600089D6600089D6600089D66000834
:1000A0009D660008CD6500089D6600089D660008F5
:1000B000DD650008000000000000000000000000F6
:1000C00010B5064C2378002B07D1054B002B02D02E
:1000D000044800E000BF0123237010BDA8060020E3
:1000E0000000000058690008044B10B5002B03D035
:1000F0000349044800E000BF10BDC04600000000F6
:10010000AC0600205869000802780B78002A03D05A
:10011000013001319A42F7D0D01A70470023C25CF7
:100120000133002AFBD1581E70470000002243080B
:100130008B4274D303098B425FD3030A8B4244D3AF
:10014000030B8B4228D3030C8B420DD3FF220902F1
:1001500012BA030C8B4202D31212090265D0030BB0
:100160008B4219D300E0090AC30B8B4201D3CB03A6
:10017000C01A5241830B8B4201D38B03C01A5241E8
:10018000430B8B4201D34B03C01A5241030B8B42EA
:1001900001D30B03C01A5241C30A8B4201D3CB02D5
:1001A000C01A5241830A8B4201D38B02C01A5241BA
:1001B000430A8B4201D34B02C01A5241030A8B42BD
:1001C00001D30B02C01A5241CDD2C3098B4201D3D5
:1001D000CB01C01A524183098B4201D38B01C01A53
:1001E000524143098B4201D34B01C01A52410309CA
:1001F0008B4201D30B01C01A5241C3088B4201D379
:10020000CB00C01A524183088B4201D38B00C01A25
:10021000524143088B4201D34B00C01A5241411A4C
:1002200000D20146524110467047FFE701B5002059
:1002300000F006F802BDC0460029F7D076E7704707
:100240007047C0461C2101231B04984201D3000CB7
:1002500010391B0A984201D3000A08391B09984239
:1002600001D30009043902A2105C40187047C0464F
:10027000040302020101010100000000000000006F
:1002800010B501007022024800F0A2F810BDC0466F
:10029000000000200100702210B5034800F024F88F
:1002A0000022024B1A7010BD00000020C40600207E
:1002B0006A2370B5C35A04000025002B10D06C23AC
:1002C000C35A002B0CD0074B0822196806F085FA98
:1002D0006E23E35A002B03D0C0B245424541EDB234
:1002E000280070BD34060020F0B54746CE460368AE
:1002F00080B5994680231B014B440F00140098469B
:100300004D4687B002E00435A8455DD02B68002B30
:10031000F9D02E00454504D305E00436B04502D996
:1003200033680133F9D172B600F07CFB00230293ED
:1003300003934B46049301230593A30801339B00C9
:10034000F318984507D239E0290000220023022043
:1003500000F0B4FB0435AE42F6D8B146002349465E
:1003600002201A4A00F0AAFB00250436002C13D004
:100370003B00019501A804371A78013C0133027053
:10038000A4B20130BB420FD0002CF5D100233100C4
:100390000220019A00F092FB00F058FB62B607B011
:1003A000C0BCB946B046F0BD310000230220019A1E
:1003B00000F084FB0436002CDAD1EDE702A903A893
:1003C00000F0E0FB4E46C9E74646ACE70A02CB0721
:1003D000F0B580230E0005681B010021300083B0BA
:1003E0001400EF1806F089F9280002E00430874273
:1003F00002D00368002BF9D00D4B9C466544A842FF
:1004000000D20430002C10D087420ED9036801AD11
:100410000193330004362A78013C1A700133A4B2E8
:1004200001359E42EDD0002CF5D103B0F0BDC046A1
:10043000FC070000F0B5DE4657464E464546010033
:100440000023E0B58346484887B01831CA5812BA2D
:10045000C2500433402BF9D102001F21441CFF3449
:10046000156A536B6B4095686B40156804326B409E
:10047000CB41D3639442F3D15B461A6859689446E2
:1004800001921B229F68DE681B699246193A9146C9
:10049000002562469846029103970496059319E059
:1004A0000B007B4073400093304B9C465346140036
:1004B000DC41036844449846009B444464449C46A1
:1004C0004B46D9416444B0463E000F001100220063
:1004D00001350430132D0DD9272DE1D93B2D12D82C
:1004E0003C00330034430C403B4023430093204BFB
:1004F0009C46DBE73C0074400C40230073400093B3
:100500001C4B9C46D2E71C4C13004444A446544662
:10051000E34163441C000B007B407340E418036814
:100520009C464B466444D9414F2DCCD1019B944607
:1005300098465B465A4644441C60029B63445360A1
:10054000039B9C46049B61449C46059B67449C46D8
:1005500066449160D760166107B0F0BCBB46B246F6
:10056000A946A046F0BDC046C8060020A1EBD96E42
:10057000DCBC1B8F9979825AD6C162CA094B10B56F
:100580000360094B40224360084B00218360084B05
:10059000C360084B036100234361183006F0ADF8D7
:1005A00010BDC0460123456789ABCDEFFEDCBA988C
:1005B00076543210F0E1D2C3F0B5C6463F2400B500
:1005C0001F004369050082B01C40002A1BD09046E2
:1005D0000E00884405E06B69013601336B61B0455C
:1005E0000FD032782B1901341A76402CF3D1280021
:1005F000FFF720FF6B690136013300246B61B045C2
:10060000EFD13F241C408023601C2C1923762C0042
:100610001834382822D838222418121A0021200031
:1006200006F06BF828006A696946530FD204120C71
:1006300012BA1BBA019250300822009306F054F807
:100640002800FFF7F7FE0023EA5812BAFA500433E5
:10065000142BF9D102B080BCB846F0BD4022002175
:10066000121A201806F049F82800FFF7E3FE382296
:10067000D4E7C04610B50400FA200E4B800019786C
:10068000FFF754FD0C4B01001868FFF74FFD00F019
:1006900089F800280CD10130032C00D910BD023894
:1006A0000022210000F040F8044B00201C60F5E718
:1006B0000120F3E708000020A00600200C00002025
:1006C0001021064A10B5136800200B431360FFF792
:1006D000D1FF05F075FE002010BDC046002002408D
:1006E000034A044B11681B785B1813607047C046BF
:1006F000DC13002008000020014B18687047C0463A
:10070000DC13002070B50400FFF7F6FF0500631C42
:1007100002D0044B1B78E418FFF7EEFF401BA04209
:10072000FAD370BD0800002070B5002814DB154B0B
:1007300003229C46FF23840810401A00C026C000F4
:10074000890182400B408340A4006444B600A5594F
:1007500095432B43A35170BD0B4A0F2394460322AC
:1007600003401040FC321500C000890185400A405A
:100770008240083B9B089B006344DC69AC432243F6
:10078000DA61E8E700E100E000ED00E0002805DBC9
:100790001F2318401E3B8340014A13607047C04628
:1007A00000E100E08022431E5204012093420ED259
:1007B000C021074A07485360036A09061B021B0A47
:1007C0000B430362002300209360073313607047DC
:1007D00010E000E000ED00E070B5041E27D02125F8
:1007E000022343550068134A0368A1681A406368EE
:1007F0000B43E1680B4321690B4361690B43A1691A
:100800000B43E1690B43134303600B4B14219C46DC
:100810006044FFF78BFC094B0122E3630023800057
:1008200020640020A36362551F32A35470BD0120D1
:10083000FCE7C0460FC0FFFFF8FFFDBF000002400D
:10084000F0B52024055D012D37D001252127055560
:10085000C55DEEB2012D03D0002303550220F0BD8B
:100860001E3CC455002484630468076C2568B543A6
:10087000BE402560C56B6E6063604368102B0ED070
:10088000C36AA160E260002B0ED00E2223681343DE
:10089000236001222368002013432360DFE7C36A3B
:1008A000A260E160002BF0D10A2223681343236089
:1008B0002368063A93432360EBE70220CFE7C04664
:1008C000212330B5C25C022A06D000221D3B83637F
:1008D0001C33C254012030BD0E240268056C11681F
:1008E000A1431160012114688C4314600C00AC40DA
:1008F000C26B5460C15400222023C2540020EAE796
:10090000212370B5C25C022A03D01D3B8363012002
:1009100070BD0E240268056C1168A14311600121AD
:1009200014688C4314600C00AC40C26B5460C1541A
:1009300000222023C254436B002B02D09847002092
:10094000E6E70020E4E7C046F8B504242600036C7F
:10095000C56B9E402A6801680F6832420DD03C4248
:100960000BD00B689B0602D40B68A3430B60C36AD1
:100970006E60002B00D09847F8BD022426009E40F0
:10098000324214D03C4212D00B689B0606D40A2295
:100990000B6893430B602123093AC25420230022A1
:1009A0006E60C254836A002BE6D09847E4E70824BF
:1009B00026009E403242DFD03C42DDD00A68063439
:1009C000A2430A60012211009940212369608263D9
:1009D000C2540022013BC254036B002BCCD0984779
:1009E000CAE7C04610210D4B10B5DA680B00134062
:1009F000114205D00A4A0E39D3690B43D361102343
:100A0000064AD16804220A4205D00124044813434F
:100A1000C1692143C161014AD36010BD0020024079
:100A2000E0130020064B00201A69120606D5054A7D
:100A30005A60054A5A6018690006C00F7047C046E0
:100A40000020024023016745AB89EFCD8021034A96
:100A5000002013690B4313617047C0460020024019
:100A6000F8B50400FFF748FE01260700124D01E02B
:100A7000631C0FD1EB681E42FAD12023EA681342AF
:100A800011D10D4BDA68D20612D4DB6800205B0767
:100A90000ED4F8BD002C04D0FFF72EFEC01BA042E0
:100AA000E8D90320F5E7EB60034BDA68D206ECD512
:100AB000FFF798FF0120ECE700200240F0B54E461A
:100AC0005746DE464546E0B59A4683B02A4B01922A
:100AD00099461B7E04000E00012B48D001254B4691
:100AE00026481D76FFF7BCFF002836D1012C40D0E8
:100AF000023C6042444104236442AC43A0469C460D
:100B0000E044002300259B4618E05346D3404A4664
:100B1000594601271A4CD16122699BB23A4322619E
:100B200016483380FFF79CFF2369BB4323610028ED
:100B300013D10135EBB2023698450ED920222B0194
:100B400052429A18E1D520225146D21A91400A0009
:100B50000199D9400B001343D9E700234A46137685
:100B600003B0F0BCBB46B246A946A046F0BD022089
:100B7000F6E701239846C4E7E013002050C30000C5
:100B800000200240F0B546464F46D646C0B5304F2D
:100B900006003B7E8846012B57D001233B76036835
:100BA0002C48012B34D0FFF75BFF002834D1012300
:100BB00042465B421360B36875689B025B199D42B5
:100BC0002AD20023244C99460AE08023DB009C466D
:100BD000726865449446B3689B026344AB421CD977
:100BE00002224B469246FB6123691A481343236154
:100BF000656123693E3213432361FFF731FF52469B
:100C00002369934323610028DFD043461D6004E03D
:100C1000FFF726FF002807D0012000233B76E0BC29
:100C2000BA46B146A846F0BD042540220A4CF861F8
:100C3000236908482B432361236913432361FFF78A
:100C40000FFF2369AB432361E7E70220E7E7C046D4
:100C5000E013002050C3000000200240F0B54E46D3
:100C6000DE4657464546E0B50A688946002387B008
:100C7000002A75D0012188466C498B4644461500F0
:100C80009C4025400195224266D04D4603266D6862
:100C90002E40AA46751E012D69D95F00032E00D093
:100CA000A5E03400BC40E14302910668029D354056
:100CB00025430560C0255446AD022C424CD0594610
:100CC0008C6941460C4359468C618C694146032628
:100CD0000F270C4056491E408C46B600B740902165
:100CE0000594059C9C08A4006444A568C905BD43FF
:100CF00088420ED04F4FB84200D18EE04E4FB842DE
:100D000000D18EE04D4FB84200D182E00527B740B8
:100D10003D434B49A5608C6801998025CE435146DF
:100D20006D03294200D071E0344045498C60CC68A5
:100D30005146890267D434404149CC604D685146E0
:100D400089035DD435403E494D600C685146C90366
:100D500052D434403A490C6014000133DC408DD148
:100D600007B0F0BCBB46B246A946A046F0BD8568B8
:100D70005F0003950325BD40AC46E94302916146FF
:100D8000039D8D4349460395CD68BD40AC46614601
:100D9000039D0D43856041680D005146A5430C0934
:100DA00041460C409C402C434460C46802990C406E
:100DB000A4464C46A4686546BC402C43C46034003D
:100DC000BC40022E00D070E707270F251F40BF0050
:100DD000BD40DE08B6008619316AA9438C464946F3
:100DE0000969B9400F0061460F4337625DE703258B
:100DF000BD40E9430291D8E7019921430C00A9E7DE
:100E000001990D439FE701990C4395E701990C4324
:100E10008BE70321B1400D437BE74146B1400D43D1
:100E200077E70227B7403D4373E7C0460010024012
:100E3000000001400004004800080048000C004881
:100E40000004014000690840411E8841C0B270475B
:100E5000002A01D0816170478162FCE770B5041EF1
:100E600023D00368154A1A60154A1A6042685A600E
:100E700082689A60FFF740FC23680600DA68520730
:100E80000CD00725FFF738FC2368801B272802D9E0
:100E9000DA6815420BD1DA681542F3D11969E268B4
:100EA000914206D000201A6170BD0120FCE70320AA
:100EB000FAE7044A00201A60F6E7C046CCCC0000EE
:100EC00055550000AAAA00000368024A00201A60D3
:100ED0007047C046AAAA0000F0B5CE46474680B586
:100EE000040083B0002800D1EEE00368DA0735D5AE
:100EF0000C21C34842680A40042A00D101E142683B
:100F00001140082900D1F8E06368012B0FD0002BB5
:100F100000D11EE1052B00D1A7E1B94BB9491A68F0
:100F20000A401A601A68B8490A401A6005E080232E
:100F3000B34A5B0211680B431360FFF7DDFB8026A9
:100F40000500AF4FB60205E0FFF7D6FB401B642853
:100F500000D9FCE03B683342F6D023689A0729D5D4
:100F60000C22A7494868024200D1A6E04868024026
:100F7000082A00D19DE0E368A14D002B00D11FE1BC
:100F800001222B68022713432B60FFF7B5FB0600F5
:100F900005E0FFF7B1FB801B022800D9D7E02B68E2
:100FA0001F42F6D0F8212A6823698A43DB001343E5
:100FB0002B6023681A072DD45A0744D580220020BD
:100FC0008F4B5205D9698146114208D1D969114325
:100FD000D961DB691A400192019B01239946802760
:100FE0008A4E7F0033683B4200D194E0A368012B16
:100FF00000D1F8E0002B00D1C4E0052B00D140E186
:1010000001217F4B1A6A8A431A621A6A03318A43A2
:101010001A62ECE0E3697A4D002B5BD001226B6A27
:10102000022713436B62FFF767FB060005E0FFF73B
:1010300063FB801B022800D989E06B6A1F42F6D04F
:1010400023685A07BAD4DB0612D56369012B00D195
:101050003DE1053300D0E9E00421F820684A536BF4
:101060008B435363516BA3698143DB000B43536391
:10107000236A002B1BD00C22614E71680A40082A9B
:1010800000D108E1022B00D13FE13368604A80259E
:1010900013403360FFF730FBAD04040004E0FFF7BA
:1010A0002BFB001B022852D833682B42F7D10020BB
:1010B0000BE04A68D20300D55DE7514A12689207F7
:1010C00039D5E268012A36D0012003B0C0BCB94648
:1010D000B046F0BD01226B6A022793436B62FFF7B3
:1010E0000BFB060004E0FFF707FB801B02282ED84D
:1010F0006B6A1F42F7D12368A3E74268D20300D48A
:1011000002E73F4A1268920300D427E76268002A88
:1011100000D023E7D8E733683B433360FFF7ECFAAE
:10112000050004E0FFF7E8FA401B64280FD8336895
:101130003B42F7D05AE7F825314822690168D200CE
:10114000A9430A4302601A0700D435E762E7032087
:10115000BBE72B4D2B4A2B68802713402B602B6855
:10116000294ABF0213402B60FFF7C6FA060004E0CD
:10117000FFF7C2FA801B6428E9D82B683B42F7D1FD
:101180002368EBE601221E4E224D336A93433362FD
:10119000336A033293433362FFF7AEFA0223070048
:1011A000984604E0FFF7A8FAC01BA842CFD84246F1
:1011B000336A1A42F6D14B46012B4FD0236842E7DF
:1011C00001222B68022793432B60FFF795FA060054
:1011D00004E0FFF791FA801B0228B8D82B681F4261
:1011E000F7D12368E6E606490A6A13430B62FFF764
:1011F00083FA034B060098460227064D11E0C046CD
:1012000000100240FFFFFEFFFFFFFBFF00700040E9
:10121000FFFFFFFE88130000FFF76EFA801BA84255
:1012200095D843461B6A1F42F6D0C4E70422534DAB
:1012300002276B6B13436B636B6B033A93436B63D4
:10124000FFF75AFA060005E0FFF756FA801B02285E
:1012500000D97CE76B6B1F42F6D109E7474A484942
:10126000D3690B40D3612368EDE68022434BD20261
:1012700019680A431A608022196852020A431A60E8
:101280005BE604213D4B1A6A0A431A621A6A033963
:101290000A431A62ABE7012B00D115E7802372687D
:1012A000656A5B020120F16A1340AB4200D00CE793
:1012B0000F230B40E16A8B4200D006E7F020800349
:1012C0000240A06A101A421E9041C0B2FDE60421FD
:1012D0002A4E0227726B0A437263726B1343736365
:1012E000FFF70AFA050005E0FFF706FA401B02289F
:1012F00000D92CE7736B1F42F6D0F821726BA369FB
:101300008A43DB0013437363B2E633681D4A8027C8
:1013100013403360FFF7F0F9BF04050005E0FFF765
:10132000EBF9401B022800D911E733683B42F6D1A4
:101330000F22F36A80259343E26AAD041343F362FC
:10134000616AA36A72680B430F490A4013437360D2
:10135000802332685B0413433360FFF7CDF9074EF7
:10136000040005E0FFF7C8F9001B022800D9EEE6EB
:1013700033682B42F6D00020A7E6C046001002409A
:10138000FFFFFFEFFFFFFFFEFFFFC2FFF8B5CE46F6
:10139000474604000D0080B500280DD001234A49BE
:1013A0000A681A40AA420CD20A689A432A430A6081
:1013B0000A681340AB4204D00120C0BCB946B04615
:1013C000F8BD23689A070ED55A0705D5E0223F4994
:1013D000D200486802434A60F0203C494A68824390
:1013E000A06802434A60DB0722D5384B62681B685D
:1013F000012A5BD0022A56D09B07DDD50321334E4C
:1014000073688B4313437360FFF776F90C23984698
:101410002F4B0700994604E0FFF76EF9C01B4845C3
:1014200047D8434672681A4063689B009A42F3D1DA
:101430000121254A13680B40AB4205D913688B4341
:10144000136013681942B7D123685B0706D51F4A9A
:10145000204953680B40E1680B4353600C231B4940
:101460004A681340082B0ED01B48184B1B4A5B6878
:101470001B061B0FD35CD840194B18600020FFF7E8
:10148000F9F8002099E7C96A0733900C1840154C09
:101490000B401549245CC95CD3030CD50E48FEF7FC
:1014A00045FE6043E1E79B01A8D485E79B03A5D4F3
:1014B00082E7032081E763011B1B9801C01AC0006B
:1014C00000190002D1E7C04600200240001002408F
:1014D00088130000FFF8FFFF00127A00A86E0008D2
:1014E000A006002070690008806900080C231049DC
:1014F00010B54A681340082B01D00E4810BDC96AC8
:101500000733900C18400C4C0B400C49245CC95C10
:10151000D30304D50748FEF709FE6043EEE76301F5
:101520001B1B9801C01AC00000190002E6E7C04664
:101530000010024000127A007069000880690008FB
:10154000044B054A5B685B055B0FD35C034A10687C
:10155000D840704700100240B86E0008A006002076
:10156000F0B5C64600B50C00160082B00700FFF7C4
:10157000C3F83619361AFFF7BFF880258046274B87
:101580001B685B011B0D734301933A6801E0631C08
:1015900007D193681D42FAD1002002B080BCB84642
:1015A000F0BDFFF7A9F84346C01AB04208D2019B2C
:1015B0005A1E93415B421E40019B013B0193E4E7AD
:1015C000E0213B685A688A435A6082227968520057
:1015D000914214D08021BA6A89018A4207D05D23E2
:1015E0000122FA540022013B0320FA54D5E719687E
:1015F0000B480140196019680A431A60EFE780211F
:10160000BA6809028A4203D08021C9008A42E1D126
:1016100040211A688A431A60DCE7C046A006002011
:10162000FFDFFFFFF0B5DE4657464E464546E0B5C4
:1016300083B01E006B46DF1C0023150081460C00A2
:101640003B70FFF759F87619331A9846FFF754F8AC
:101650004B461B68C0269A46354B83461A68F600EF
:1016600093009A18D3009B1A42461B0D53435246CF
:10167000019301E06B1C0BD1936823421DD0B4424F
:10168000F8D153461B7BDBB23B703B786B1CF3D02D
:10169000FFF732F85B46C01A404516D2019B5A1E2E
:1016A000934142465B421A40019B9046013B0193A5
:1016B0004B461A6893682342E1D1002003B0F0BC86
:1016C000BB46B246A946A046F0BD4B46E0211B688A
:1016D0005A688A4349465A608222496852009142B8
:1016E00016D04A468021926A89018A4208D05D2339
:1016F00001224946CA540022013B0320CA54DDE7B7
:1017000019680C480140196019680A431A60EEE72D
:101710004A468021926809028A4203D08021C9008A
:101720008A42DED140211A688A431A60D9E7C0464E
:10173000A0060020FFDFFFFFF8B5822317004268F4
:1017400004000E005B009A420DD03A0031002000E8
:10175000FFF706FF051E1BD1822362685B009A42D9
:101760001CD02800F8BD802283681202934203D067
:101770008022D2009342E8D14021226820001368E1
:101780008B43136031003A00FFF7EAFE051EE3D0F9
:101790002022236E032513432366E2E78022A368F9
:1017A0001202934203D08022D2009342D9D1C021A9
:1017B0003B0032002000C900FFF734FF0028D0D0E2
:1017C000E6E7C04670B513000D0016000A00C02100
:1017D00049010400FFF726FF00280FD1320029003D
:1017E0002000FFF7BDFE002808D1C02133002A00E9
:1017F0002000C900FFF716FF002804D02022032094
:10180000236E1343236670BDF0B5D6464F46464659
:101810000400C0B5002800D18EE0456A002D65D0D7
:101820000023036143610023A3625D33E35CDAB20A
:10183000002B68D05D2302224021E2542268E06838
:1018400013688B431360E023DB00984262D9F023D6
:101850001B01984200D071E08023A16A9B011940CE
:1018600000238C469A46822366685B0033408426B8
:10187000A76836023E40334302262769A1693E40ED
:10188000334301266769B14637403B438027BF0099
:101890000F403B433827E669090C374080263B431D
:1018A0003700266A374066463B43334313600823BC
:1018B000666B57463340F026360130401843042308
:1018C00019400143102005400D432F435760D36951
:1018D0001C4900200B40D36100234A4623665D3338
:1018E000E254E0BCBA46B146A846F0BD8223426845
:1018F0005B009A4297D00023C561A3625D33E35C2D
:10190000DAB2002B96D15C332000E25404F070FD73
:10191000656A8FE7984206D080235B019A460023D0
:101920009C46A3629FE78023A16A9B011940802304
:101930005B018C469A4696E70120D2E700239A463F
:10194000EDE7C046FFF7FFFFF0B5CE4647461D0066
:101950005C2380B59146C25C0400884683B0012AAE
:1019600064D00122C254FEF7C7FE5D22A35C0600CC
:10197000DFB2012B09D002275C230022E254380099
:1019800003B0C0BCB946B046F0BD4346002BF3D00F
:101990004B46002BF0D00323A35442460023A263FE
:1019A0004A462366A287E28744222364A352023276
:1019B000A3522365E3648023A26820681B029A4235
:1019C0005CD040230268134202D1026813430360D3
:1019D000E023E268DB009A422AD96368002B57D0E3
:1019E0004B46012B54D00222E38F9046002B0DD1A1
:1019F00064E0A36B1A880233C260E28FA363013AEA
:101A000092B2E287E38F002B58D020684246836869
:101A10001A42EED1FEF770FE801BA842F2D36B1C77
:101A2000F0D05D2301220327E254A5E70227A6E7B1
:101A30006368002B37D04B46012B34D0E38F002B4B
:101A40003CD0022398460CE0A26B12781A73E28F06
:101A5000A36B013A013392B2A363E287E38F002BB9
:101A60002CD0414623689A681142EDD1FEF744FE1E
:101A7000801BA842F2D36B1CF0D0D2E7402203684F
:101A80009343036080230268DB011343036098E7FC
:101A900043461B88C3604346991CE38FA163013B07
:101AA0009BB2E3879FE743461B780373A36B013325
:101AB000A363E38F013B9BB2E387BFE732002900BA
:101AC0002000FFF77FFE002801D020232366A368B3
:101AD000002B06D101932368DA6801929B68019379
:101AE000019B236E002B00D046E701225D330027C7
:101AF000E25441E7F8B54746CE4680B51F005C2367
:101B00009146C25C04008846089D012A00D1A7E0E6
:101B10000122C254FEF7F0FD5D23E35C060062681B
:101B2000D9B2012B10D0822302205B009A4206D04A
:101B30005C230022E254C0BCB946B046F8BDA3689D
:101B4000002BF5D10429F3D14346002B00D185E0C9
:101B50004B46002B00D181E0002F00D17EE05D23B9
:101B6000E15C042901D00521E154494600232164A8
:101B7000462123666752023967524146E364236572
:101B8000E023A163E168E787A787DB00994269D971
:101B9000236866485968014059604021186801422D
:101BA00002D1186801431960002A00D0B5E042460E
:101BB0001288DA604346991CE38FA163013B9BB214
:101BC000E38701239946013346279846E38F002B8C
:101BD00002D1E35B002B34D0414623689A6811425E
:101BE00010D0E28F002A0DD04A46012A0AD1A26BFA
:101BF00011880232D960A263E28F013A92B2E28781
:101C000000229146012108009A68104011420CD030
:101C1000E25B002A09D08146DA68236C1A8002331D
:101C20002364E35B013B9BB2E353FEF765FD801B3E
:101C3000A842CBD36B1CC9D05D2301220320E25400
:101C400076E7320029002000FFF7BCFD002802D013
:101C5000202301202366236E002B62D0012067E73A
:101C6000022068E7802123684901586801435960D0
:101C700040211868014202D1186801431960002A06
:101C800048D1424612781A73A36B0133A363E38FE2
:101C9000013B9BB2E38701239946013346279846CF
:101CA000E38F002B02D1E35B002BCAD041462368AF
:101CB0009A68114212D0E28F002A0FD04A46012AB8
:101CC0000CD1A26B12781A7300229146A36B0133D8
:101CD000A363E38F013B9BB2E387236801210800E4
:101CE0009A68104011420DD0E25B002A0AD081466A
:101CF0001B7B226C1370236C01332364E35B013B79
:101D00009BB2E353FEF7F8FC801BA842C8D36B1CC0
:101D1000C6D091E7012FBED1B3E7012F00D050E725
:101D200045E701225D33E25402E7C046FFEFFFFFC3
:101D3000F0B5CE46474616005D2280B51D00835C97
:101D40000400894683B0DFB2012B6DD104334168B2
:101D5000FF33994200D171E05C23E25C012A00D19B
:101D60008BE00122E254FEF7C7FC4B468046002B75
:101D70005BD0002E59D05D230422E2544A46002352
:101D8000226444222366A6520232A652E022A363B2
:101D9000A387E387E3642365E368D200934200D816
:101DA00090E022684B485168014051608021A06852
:101DB0000902884207D140201168814311601168EF
:101DC00045480140116040211068014202D110686D
:101DD00001431160E021C9008B4250D94623012103
:101DE000E35A89464626002B0DD135E0D268236C94
:101DF0001A8002332364A25B013A92B2A253A35B1E
:101E0000002B29D02268494693681942EED1FEF78B
:101E100073FC4346C01AA842F1D36B1CEFD05D237C
:101E20004A460327E25400E002275C230022E254E2
:101E3000380003B0C0BCB946B046F0BD8368002B83
:101E400000D089E704338354494633004A4600955D
:101E5000FFF750FE0700EBE7424629002000FFF79E
:101E60006BFC002801D020232366236E002BDCD1DD
:101E700001225D330027E254D7E70227D8E7462343
:101E8000E35A002BE8D00123462699460DE0137B48
:101E9000226C1370236C01332364A35B013B9BB260
:101EA000A353A35B002BD7D02268494693681942FD
:101EB000EDD1FEF721FC4346C01AA842F1D36B1CBA
:101EC000EFD0ACE78021226849015068014351609E
:101ED0006CE7C046FFEFFFFFFFBFFFFF7047C04644
:101EE0000121F0B50E00026804005568936885B0C2
:101EF00098090640014205D1194203D0A8090142C0
:101F000000D088E00121980703D5E809014200D0FC
:101F10007DE00120070059090F40084251D06909AE
:101F200008424CD0002E0FD05D21615C032900D106
:101F300075E00420216E0143216600210091D168E3
:101F400000919168009100990120216E4026014383
:101F500021660021029191681B0A029111681840C4
:101F6000B14311600299002847D1236E002B26D07F
:101F7000E02153688B4353605D23DF39E154023124
:101F8000294254D05368A06D8B435360002809D078
:101F9000294B4363FEF7B4FC002803D04022236E94
:101FA00013432366606D002809D0234B4363FEF77B
:101FB000A7FC002803D04022236E1343236605B0FC
:101FC000F0BD002E13D069090842F8D05D21615C94
:101FD000032924D00426216E1B0A31432166009771
:101FE000D16818400091916800910099BBE71B0AE5
:101FF0001842E4D06B091842E1D00821236E0B434C
:1020000023660023039393680393039BADE72000AB
:10201000236D9847D3E72000E36C9847CFE7002370
:102020000193D368019393680193019BC7E7200054
:10203000FFF754FFC3E7C0463D20000800234622B7
:1020400010B5406A8352C387FFF748FF10BDC046F2
:102050003D22815C03000120012912D101319954F4
:102060001B68DA680243DA600D4A93420AD00D4ACF
:10207000934207D00C4A934204D01A681043186068
:1020800000207047072299680A40062A05D00121DE
:102090001A6800200A431A60F3E70020F1E7C046FF
:1020A000002C014000040040004001400121036871
:1020B00010B5DA688A43DA601C6A074A144206D10E
:1020C0001C6A064A144202D11A688A431A603D23E8
:1020D0000122C254002010BD111100004404000070
:1020E0007047C0467047C0467047C0467047C046FC
:1020F0000222036870B5DE681D6904002A4201D01F
:1021000032425AD104232B4201D0334241D1082319
:102110002B4201D033422AD110232B4201D033422B
:1021200014D101232B4201D033425AD180232B42B8
:1021300001D033425DD140232B4201D0334260D1E4
:1021400020232B4201D0334243D170BD112223689A
:1021500052421A6119322277DA69C0239B002000AB
:102160001A4262D0FFF7BEFF00232377D9E7092286
:10217000236852421A610D322277DB6920009B07E7
:1021800050D1FFF7ADFF2000FFF7AEFF002323770C
:10219000C2E70522236852421A61073222779A6900
:1021A000C0239B0020001A4239D1FFF799FF20007D
:1021B000FFF79AFF00232377A9E7053A1A61043253
:1021C00002779B699B0724D0FFF78CFF00232377BE
:1021D00098E721222368524220001A6100F0A8F8F3
:1021E000B3E702222368524220001A6103F068FF1D
:1021F0009CE781222368524220001A6100F09AF87D
:1022000099E741222368524220001A61FFF76EFFCE
:1022100096E7FFF765FF2000FFF766FFD6E7FFF7B9
:1022200061FFC7E7FFF75EFFB0E7FFF759FF200048
:10223000FFF75AFF98E7C046204A0368904229D02A
:102240001F4A90421DD01F4A90421ED01E4A904203
:1022500024D01E4A904221D01D4A90421ED0802296
:1022600093434A69134303608B68C3620B688362BC
:10227000012343610269134202D002699A43026159
:102280007047702293434A681343124A1340CA6846
:102290001343E4E7702293434A6813430D4A134003
:1022A000CA681343802293434A69134303608B68CF
:1022B000C3620B6883620B690363D9E7002C01409A
:1022C0000004004000200040004001400044014064
:1022D00000480140FFFCFFFF70B5041E26D03D23DF
:1022E000C35CDAB2002B1CD002233D2521006355CC
:1022F00001C9FFF7A1FF012346220020A354083A99
:10230000A3540132A3540132A3540132A354013225
:10231000A3540132A3540132A3540132A354635590
:1023200070BD3C33C25404F0A1F8DDE70120F7E7AB
:102330007047C0467047C04630B5EFF310840122A5
:1023400082F310880168124D0B682B400B6084F3F8
:102350001088EFF3108482F3108801688B68934330
:102360008B6084F31088036E012B0AD1EFF3108188
:1023700083F31088102402681368A343136081F369
:10238000108880232022C25000230366836630BD5C
:10239000DFFEFFFF1300C26F70B50400202A40D19A
:1023A00000292BD0002B29D0802280685201904236
:1023B0001FD05022E164A3520232A352212084256F
:1023C00000226251E067206F002819D0164E426348
:1023D0008662164E2268C662154E28320663FEF7E4
:1023E0002FFA00280CD01023635110330120E3672B
:1023F00005E02269002ADCD1CA07DAD5012070BDC8
:10240000402223681A62EFF31081012383F31088BE
:102410008020226893680343936081F31088002032
:10242000EDE70220EBE7C0463524000881240008D0
:1024300095240008826970B5436A202A1AD0522276
:1024400000219952EFF31084013181F31088802527
:1024500018688268AA43826084F31088EFF31080C2
:1024600081F310881A683F3113680B43136080F3BF
:10247000108870BD180002F019FDFAE77047C046D9
:1024800010B5406AFFF7FAFF10BDC0467047C0465E
:102490007047C046802270B5446A2368E56FA05833
:1024A00099680A4201D0212D0DD09B685B0601D5A9
:1024B00022281BD084221021A35820000B43A350B4
:1024C00002F006FD70BD52230022E252EFF31081AC
:1024D000513B83F3108822689F351368AB43136028
:1024E00081F310882023E3672368DEE75A23002264
:1024F0002000E252FFF720FFDCE7C04600235A220B
:1025000010B5406A8352083A835202F0E1FC10BDD4
:10251000F8B5CE46474602680400D369AB48116857
:1025200080B59568034200D077E02020184202D0A1
:10253000084200D0E6E0206E012814D080221A4222
:1025400009D140221A4202D00A4200D0DFE0C0BCCA
:10255000B946B046F8BD0A42F3D0E36E002BF6D080
:1025600020009847F3E710251D42E7D00D42E5D043
:1025700040231E00156292681640134200D1E4E029
:10258000666F3268526892B2002AE0D058218846BD
:10259000615A9142DBD95A27E253B269202A32D0DC
:1025A000EFF3108680F310882168894F0A683A405B
:1025B0000A6086F31088EFF3108680F31088216894
:1025C0008A6882438A6086F31088EFF3108680F36E
:1025D000108821688A689A438A6086F310882022CE
:1025E0004033E25000232366EFF3108180F310881C
:1025F00022681368AB43136081F31088606FFEF7A5
:102600005FF94346E15A022363665833E35A2000D8
:10261000C91A89B202F018FC99E701266D483540C5
:102620000840284300D186E71E4206D0C80504D5DD
:1026300084271662E0590643E6510220184255D01D
:10264000002D07D0842704261062E0593043E05162
:102650001E424FD108261E4208D0202008400543C4
:1026600004D084251662605906436651802000011B
:10267000034207D04D0105D58425202610626059FC
:102680003043605184202058002800D15FE720208B
:10269000184201D0084251D1842640272823A1594D
:1026A00095680B403D4020001D4300D18AE0FFF7B4
:1026B00043FE23689B681F423CD0EFF31081012347
:1026C00083F3108822689368BB43936081F310887A
:1026D000606F00282ED0404B4363FEF711F90028AD
:1026E00000D134E7606F436B984730E75807B1D5A6
:1026F000002DAFD00420842602271062A059384351
:10270000A051A7E7A36E002B00D029E71FE7EFF346
:102710001080012383F3108821680B6893430B60BA
:1027200080F310882023E36700232000E36602F093
:10273000BDFB0CE7200002F0CBFB08E7A36E002BEB
:10274000AAD0200098472268A6E75A22A35AA25A84
:102750009BB2002A00D1FAE65822A15AC91A89B2BE
:10276000002900D1F3E6EFF3108780F31088236887
:1027700099461B6898464246184B1A4013004A4631
:10278000136087F31088EFF3108780F310882268B6
:1027900093688343936087F3108880232022E2505C
:1027A0002666A666EFF3108680F310882268136809
:1027B000AB43136086F3108802232000636602F0A7
:1027C00043FBC4E602F084FBA551C0E60F080000FD
:1027D000FFFEFFFF20010004FD240008DFFEFFFFD5
:1027E0000123406A10B54366036E012B02D0FFF748
:1027F0004FFE10BD5733C15A490802F025FBF8E7D8
:1028000003009B6970B5406A202B29D05A2300220F
:10281000C252EFF31084593B83F3108801681F4DB7
:102820000A682A400A6084F31088EFF3108483F367
:10283000108801688A689A438A6084F31088EFF3ED
:10284000108183F31088402402689368A343936047
:1028500081F3108880232022C250036E012B07D001
:1028600000234366036E012B12D0FFF70FFE70BDED
:10287000EFF3108183F310880268303C1368A343A0
:10288000136081F3108800234366036E012BECD1A3
:102890005733C15A02F0D8FAE9E7C046FFFEFFFFFE
:1028A00070B504000268C569836800691168034354
:1028B000606903433D482B4301400B431360536859
:1028C0003B49206A0B40E1680B435360A369916860
:1028D0000343384801400B439360374B9A4207D07B
:1028E000364B9A420BD001200023A366E36670BDED
:1028F000334B1A6B03231340013B022B16D9802361
:102900001B029D422CD0FEF71BFE00280CD06368F2
:1029100061685B081818FDF709FC0200294B103AA2
:102920009A42E0D82368D8600020DDE78020264A5C
:102930000002D35C85420ED0042B06D008D8002BB1
:10294000E1D0022BCFD12148E1E7FEF7CFFDDCE754
:10295000082BDCD0C7E7042B24D01ED8002B18D1BD
:10296000FEF7EEFD0028DFD04000636861685B0879
:102970001818FDF7DBFB0200124B103A9A42B2D84E
:10298000134B226803400007400F1843D06000201B
:10299000AAE7022BA7D10F48E7E780204002082BC7
:1029A000E3D0A0E7FEF7A2FDDCE7C046F369FFFF36
:1029B000FFCFFFFFFFF4FFFF00380140004400405D
:1029C00000100240EFFF00009069000800127A003A
:1029D000F0FF00000024F400436A30B51A0706D562
:1029E0000168284C4A682240446B22434A60DA0757
:1029F00006D50168244C4A682240846A22434A6012
:102A00009A0706D50168214C4A682240C46A2243CD
:102A10004A605A0706D501681D4C4A682240046B7B
:102A200022434A60DA0606D501681A4C8A682240B9
:102A3000846B22438A609A0606D50168164C8A6820
:102A40002240C46B22438A605A060AD50168134D9E
:102A50004A68046C2A4022434A608022520394420E
:102A600009D01B0606D502680D4953680B40816CDE
:102A70000B43536030BD4A680A4C2240446C2243E9
:102A80004A60EEE7FF7FFFFFFFFFFDFFFFFFFEFF56
:102A9000FFFFFBFFFFEFFFFFFFDFFFFFFFFFEFFF8A
:102AA000FFFFF7FFFFFF9FFFF8B557464E4645462D
:102AB000DE46E0B516000A000D004021403A8A4388
:102AC0009946804692460A9F036801E07A1C0DD120
:102AD000DC692C40641B62425441B442F6D00020B1
:102AE000F0BCBB46B246A946A046F8BDFDF704FEC1
:102AF0004B46C01AB84223D8002F21D043461B684A
:102B00001A685207E4D55246002AE1D00824210071
:102B1000DA6911408B46144214D18022D96912011E
:102B20001142D5D01A624046FFF706FC84232022CA
:102B30004146CA50424659460C3B0320D154CFE788
:102B40000320CDE740461C62FFF7F6FB8423424694
:102B50004146D45000220C3B0120CA54C0E7C04675
:102B600070B5842300260400C65082B0FDF7C4FD72
:102B7000236805001A6812070ED41B685B071AD475
:102B800020238022E367A35000230020083A236615
:102B90006366A35402B070BD8021244B00220093D1
:102BA000890303002000FFF77FFF00282CD1236852
:102BB0001B685B07E4D580211C4B0022009320009A
:102BC0002B00C903FFF770FF0028D9D0EFF3108066
:102BD000012282F310882168154D0B682B400B6091
:102BE00080F31088EFF3108082F3108821688B68DF
:102BF00093438B6080F3108880231F32E2500022C1
:102C0000083B0320E254C5E7EFF31081012383F36F
:102C100010888020226813688343136081F3108832
:102C20002023E3675833E6547D38B3E7FFFFFF0105
:102C3000DFFEFFFF10B5041E22D0C36F002B25D08E
:102C4000242301212268E36713688B431360636ABE
:102C5000002B17D12000FFF723FE012810D0236896
:102C60000D495A6820000A4008215A609A688A4330
:102C70009A601A6807390A431A60FFF771FF10BD9E
:102C80000120FCE72000FFF7A7FEE3E7782283544A
:102C900003F00AFCD4E7C046FFF7FFFFF8B51300C6
:102CA000582241650D00835284270022802622216C
:102CB000C25104008151406F00280DD01D4942636C
:102CC00081621D492A00C1621C49016321682431C7
:102CD000FDF7B6FD002827D12369002B17D1EFF3AC
:102CE0001080012383F3108821688A681A438A6060
:102CF00080F31088EFF3108183F31088402022685E
:102D000093680343936081F310880020F8BDEFF3CC
:102D10001081012383F310882268FF331068034376
:102D2000136081F31088DAE71023E3511033012098
:102D3000A351EBE701280008E127000895240008CB
:102D40008023C35870B50400202B29D100290BD053
:102D5000002A09D0802380685B01984206D123694C
:102D6000002B03D1CB0701D5012070BD01232366C1
:102D7000002320006366FFF791FF0028F5D1236E42
:102D8000012BF1D1102122681162EFF3108583F33A
:102D90001088226813680B43136085F31088E4E7FA
:102DA0000220E2E70B0070B58D1D4C1D0668E21A8B
:102DB000B25C1A7001339D42F8D142230D000C0021
:102DC0008B710B35CB1D0A348668E21AB25C1A701F
:102DD00001339D42F8D183890D00CB7283890C00A9
:102DE0001B120B730B0011350D3310340669E21AF8
:102DF000B25C1A7001339D42F8D1838A0D004B7486
:102E0000838A0C001B128B740B0017351333163496
:102E10008669E21AB25C1A7001339D42F8D1037FD1
:102E20000C00CB75036A23340B76036A1B0A4B76BE
:102E3000438C8B762423C35CCB7600230B774B77B4
:102E40008B770B0022311F334568CA1AAA5C1A70AF
:102E500001339C42F8D1232070BDC04610B5040058
:102E600000236260100052082361A3616361E36183
:102E7000E2602160FDF7E6F9012301305B42C340C7
:102E8000A36010BDF8B54746CE460400884615003D
:102E900080B5002A06D0026947684669BE19B61A8D
:102EA000B54205D900263000C0BCB946B046F8BDD1
:102EB0000069A3682269184052193F1AB946226175
:102EC000AF420DD823684A469C464146604403F011
:102ED0000BFCAF4206D3A3699C466544A561E2E7BB
:102EE000A946EFE74B4641462068EA1A494403F0F9
:102EF000FBFBF0E7F0B5C64605000E00140000B578
:102F0000002A2CD0036942699B1A9C4202D30469AF
:102F10004269A41AAB68696919406B685F1AB846C0
:102F2000A74212D82B6842469C463000614403F009
:102F3000DBFBA7420BD36B691B196B61EB691B1998
:102F4000EB61200080BCB846F0BDA046EAE7300047
:102F5000434629684044E21A03F0C6FBEBE700242D
:102F6000EFE7C04670B500250024290020000322A9
:102F700000F00CFB2000E91C01340322C9B2063525
:102F8000E4B200F015FBEDB2082CEED170BDC046E6
:102F9000F0B5CE46474680B5062083B00E0000F05F
:102FA00019FB00F0BBF80023364D14246B76EB764A
:102FB000FF33AB7607E0F430013CFF30E4B2FDF7BD
:102FC000A1FB002C53D000F085F80128F3D001209C
:102FD00000F092FA002843D10120002E04D103B062
:102FE000C0BCB946B046F0BD0321002000F0FEF899
:102FF0003100002000F028F9002000F0FFF9002047
:1030000000F01EFA10235B429946804601241E4FB1
:10301000B9443B5DE6B2002B04D04A466300D15A66
:10302000002926D10134072CF3D10221072000F01A
:10303000DDF8012307205B4201A9019300F0B8F8F5
:103040000720E98900F0E8F80720E98900F0FCF89A
:10305000072000F0D3F9404646427041C0B2BEE7B7
:103060006420FDF74FFB0120002EB8D0BCE7002004
:10307000B5E7300000F0E8F80321300000F0B6F8C2
:10308000D0E7C046180000202800002010B5052019
:1030900000F0CEFA034B012299881868FDF7D8FE9C
:1030A00010BDC0461000002010B50400062000F03E
:1030B000BFFA200000F0DCFA00F0E8FA0400044B4C
:1030C000012218689988FDF7C3FE200010BDC04694
:1030D0001000002010B5262000F0AAFA00F0D6FA61
:1030E0000400044B012218689988FDF7B1FE200006
:1030F00010BDC0461000002010B52C2000F098FA3A
:1031000000F0C4FA0400044B012218689988FDF706
:103110009FFE200010BDC0461000002010B52720E3
:1031200000F086FA0A4B012299881868FDF790FE94
:10313000CA2403E0013CE4B2002C07D0054800F0AB
:10314000DDFAFFF7D9FF1028F4D010BDEA30FCE714
:10315000100000201027000070B50400402000F08F
:1031600067FAA51D00F092FA20700134AC42F9D143
:10317000034B012299881868FDF76AFE70BDC046AE
:103180001000002070B504002820250000F050FA3F
:10319000083500F07BFA20700134AC42F9D1034BC2
:1031A000012299881868FDF753FE70BD10000020B9
:1031B00070B505000C00312000F03AFA280000F04C
:1031C00057FA207800F054FA607800F051FAA078AD
:1031D00000F04EFAE07800F04BFA034B0122998898
:1031E0001868FDF735FE70BD1000002070B50500B1
:1031F0000C00342000F01CFA280000F039FA2000FE
:1032000000F036FA034B012299881868FDF720FE7A
:1032100070BDC0461000002070B505000C003220C3
:1032200000F006FA280000F023FAE0B200F020FADD
:10323000200A00F01DFA034B012299881868FDF757
:1032400007FE70BD1000002070B505000C00332093
:1032500000F0EEF9280000F00BFAE0B200F008FAF6
:10326000200A00F005FA034B012299881868FDF73F
:10327000EFFD70BD10000020F0B5C64600B51C4F34
:103280000124FB7E804603410D0016001C422CD118
:103290008440184800F032FAFB7E1C42F9D0FB7ED5
:1032A0003920A343FB7600F0C3F9404600F0E0F973
:1032B000F0B200F0DDF9300A00F0DAF9022000F097
:1032C0001DFA0024002E07D001342878A4B200F0A3
:1032D000CFF90135A642F7D1074B0122998818682A
:1032E000FDF7B6FD80BCB846F0BD8440D7E7C046C8
:1032F00018000020102700001000002070B5050005
:103300000C00392000F094F9280000F0B1F9E0B287
:1033100000F0AEF9200A00F0ABF9022000F0EEF95F
:1033200070BDC04670B505000E1E08D000240134E3
:103330002878A4B200F09CF90135A642F7D170BDFF
:1033400010B5034B012299881868FDF781FD10BD67
:103350001000002010B504003B2000F069F92000A7
:1033600000F086F900F092F984B200F08FF9054B75
:1033700000022418012218689988A4B2FDF768FD9C
:10338000200010BD1000002010B504002E2000F019
:103390004FF9200000F06CF9034B0122998818685E
:1033A000FDF756FD10BDC0461000002070B50400AA
:1033B0000E001500002900D170BD3C2000F038F946
:1033C000200000F055F9F0B200F052F9300A00F098
:1033D0004FF9012000F092F9002400F057F9013470
:1033E000A4B228700135A642F7D1034B0122998877
:1033F0001868FDF72DFDDFE71000002010B5040070
:10340000352000F015F9200000F032F90A4B0122B6
:1034100099881868FDF71CFDCA2403E0013CE4B25A
:10342000002C07D0054800F069F9FFF765FE102869
:10343000F4D010BDEA30FCE7100000208813000033
:1034400010B50400362000F0F3F8200000F010F969
:103450000A4B012299881868FDF7FAFCCA2403E098
:10346000013CE4B2002C07D0054800F047F9FFF713
:1034700043FE1028F4D010BDEA30FCE71000002015
:103480008813000010B50400382000F0D1F82000A7
:1034900000F0EEF80A4B012299881868FDF7D8FC75
:1034A000CA2403E0013CE4B2002C07D0054800F038
:1034B00025F9FFF721FE1028F4D010BDEA30FCE713
:1034C000100000208813000010B50400302000F028
:1034D000AFF8200000F0CCF8022000F00FF900F067
:1034E000D5F80400034B012218689988FDF7B0FC59
:1034F000200010BD1000002010B50400412000F095
:1035000097F8200000F0B4F80A4B01229988186857
:10351000FDF79EFCCA2403E0013CE4B2002C07D076
:10352000054800F0EBF8FFF7E7FD1028F4D010BDD8
:10353000EA30FCE710000020204E000010B54220C9
:1035400000F076F800F0A2F80400044B012218689D
:103550009988FDF77DFC200010BDC04610000020BA
:1035600070B504004320250000F062F8143500F027
:103570008DF820700134AC42F9D1034B01229988B7
:103580001868FDF765FC70BD1000002070B50600DE
:103590000D001400522000F04BF8300000F068F8E5
:1035A000280000F065F8200000F062F870BDC04609
:1035B00070B506000D001400532000F039F83000FB
:1035C00000F056F8280000F053F8200000F050F802
:1035D00070BDC04610B50400552000F029F8E0B2D7
:1035E00000F046F8A0B2000A00F042F8200CC0B289
:1035F00000F03EF8200E00F03BF810BD10B5192089
:1036000000F016F8022000F079F800F03FF884B2DC
:1036100000F03CF8054B0002241801221868998834
:10362000A4B2FDF715FC200010BDC046100000201C
:1036300030B583B06B460C4CD871A188206801224C
:10364000DD1DFDF705FCA18820680022FDF700FCC8
:103650006423012229000548FEF776F9022000F0D4
:103660004DF803B030BDC04610000020881A00207D
:1036700000B583B06B460122D91D0870642302484F
:10368000FEF762F903B000BD881A002010B582B0C1
:103690006B46DC1D0122642321000348FEF748FB32
:1036A000207802B010BDC046881A002010B5040072
:1036B0000F4B0822196803F0A1F8200060220021B6
:1036C0000A3003F01AF8200002220021083003F02B
:1036D00014F86A235022E252A7320233FF32E25238
:1036E000044A0233E2520122034B1A7010BDC04655
:1036F00034060020DC050000C4060020400140081C
:103700000138C04601380028FBD17047054B99426B
:1037100006D80B684360013302D00160012000E04D
:1037200000207047FEFF0008F0B54646D6464F46DB
:103730009246C0B560C98146A84601E0002E19DD59
:103740006B68504643441F000837390004351C009D
:10375000013EFCF7D9FC0028F0D16368226843449D
:10376000494648460F604B608A60E0BCBA46B146A5
:10377000A846F0BD002200230027F1E7F0B5C646B9
:10378000046847680E00A04600B5002F0FD0002542
:1037900002E00135BD420AD0616830000831414481
:1037A0000434FCF7B1FC0028F3D1012000E0002034
:1037B00080BCB846F0BDC04630B5244B85B00293FE
:1037C0003122002302AC2100636005002371E27006
:1037D00000F01EFDFF23002802D000F03BFD030097
:1037E0006A4613713223E3700023210028002371FD
:1037F00000F00EFDFF23002802D000F02BFD030097
:103800006A46022101A8537102F07AF82B79022B43
:103810000ED0002807D0962128000D4A490000F05C
:1038200059FE05B030BD28000A4900F0D5FAF8E786
:10383000002805D12800084A084900F0ADFAF0E751
:103840002800074A054900F0A7FAEAE773656C000B
:10385000546A0008D86B0008286A0008386A000813
:10386000406A000870B503790400022B0BD0451D97
:103870002800FCF753FC0B220349281802F034FF00
:10388000200000F0DDFE70BD606A0008037910B50D
:10389000054A022B03D0C82100F01CFE10BD0349CD
:1038A00000F07AFAFAE7C0466C6A0008746A000809
:1038B000037910B5054A022B03D0C82100F00AFE97
:1038C00010BD034900F068FAFAE7C0467C6A0008B8
:1038D000846A0008F8B5164D164B2A00060003CB83
:1038E00003C21B882C0013806A23134F0934210064
:1038F000F85A00F0E1FC24180A2220000F4902F0D7
:10390000F3FE6C230934F85A210000F0D5FC0023A3
:10391000235433792A00022B04D0C821300000F050
:10392000D9FDF8BD3000064900F036FAF9E7C04687
:10393000A00800208C6A00086C130020986A000818
:10394000A46A0008F0B5C64600B5204B82B00093CB
:103950006A46002313714833C35C0600002B2BD04A
:103960001B4B0124984601271A4D6B462000D91C99
:1039700000F0A2FC6946300000F04AFC011E05D0B0
:103980001022280002F0EDFE43461F700134A4B25D
:103990001035072CE9D13379022B07D030000E49BE
:1039A00000F01AFA02B080BCB846F0BD0B4A3000F5
:1039B0000B4900F0F1F9F5E703790A4A022BF6D03A
:1039C0009621490000F086FDECE7C046616E740068
:1039D000C406002076130020D86B0008286A00086F
:1039E000BC6A0008B06A0008F0B5DE4657464E468D
:1039F0004546E0B5244B254F83B0390001901800AF
:103A00009B4601F0DFF83123214D03700C334370E6
:103A100029001022023001F0DFF801231D4E32246C
:103A2000337025339A46173399463C3B98461035F8
:103A3000534639000370013001F0C4F84B4604705E
:103A4000437029001022023001F0C6F843460134C9
:103A5000E4B233701035372CEAD1019B1B79022B6D
:103A60000BD05A46C821019800F034FD03B0F0BCD9
:103A7000BB46B246A946A046F0BD5A460649019843
:103A800000F08AF9F2E7C04620080020C86A000862
:103A900076130020C4060020CC6A0008F0B5C646A4
:103AA000482300B5C35C0400012B1CD9254900F054
:103AB000AFFB051E0BD0052102F0B4FE013880B229
:103AC000042804D8280000F0DDFB002814D1237955
:103AD0001D4A022B0BD096212000490000F0FAFC71
:103AE00080BCB846F0BD0379184A022BF3D1200000
:103AF000174900F051F9F3E76A23164F164EF852B2
:103B00001649693B20009846337000F081FB051E82
:103B1000DDD0052102F086FE013880B20428D6D817
:103B2000280000F0AFFB0028D1D06C23F8524346A8
:103B300033702379022BD3D02000094900F04CF9CF
:103B4000CEE7C046E46A0008F86A0008B06A0008D8
:103B5000D86A00086C130020C4060020F06A000830
:103B6000D86B000810B5040082B001A8022101F052
:103B70002FFF062220000D4902F0B6FD6B461B798F
:103B80000722303363710A49A01D02F0ADFD6B4678
:103B900020005B7903223033237306490D3002F095
:103BA000A3FD00230F20E37302B010BD106B0008CB
:103BB000186B0008506A000870B50400084D280012
:103BC000FFF7D0FF23792A00022B04D0C821200060
:103BD00000F080FC70BD2000024900F0DDF8F9E73C
:103BE00008080020206B00080023482210B503704D
:103BF000835444320371C3708354103A835408329F
:103C00008352064A8033C25000220E33C25404004D
:103C1000FCF772FDA023E05010BDC0460814002040
:103C2000002348220370835444328354103A83544F
:103C300008328352014A8033C25070470814002072
:103C400010B50400FCF758FDA023E05010BDC0469D
:103C5000F8B50400FCF762FA0500032836D9461FC0
:103C6000A61930001F49FCF74FFA002830D02F1F4B
:103C7000E71938001C49FCF747FA002828D038001B
:103C80001A49FCF741FA002824D0E81E18492018E8
:103C9000FCF73AFA002821D038001649FCF734FA2C
:103CA00000281DD038001449FCF72EFA002813D044
:103CB00030001249FCF728FA00280DD038001049CE
:103CC000FCF722FA002801D10E4800E00E48F8BDAA
:103CD0000E48FCE70E48FAE70E48F8E70E48F6E70C
:103CE0000E48F4E72C6B0008346B00083C6B0008AE
:103CF000446B0008486B0008506B0008586B0008C4
:103D0000606B0008046D0008406D0008106D00082D
:103D1000F86C00081C6D0008286D00084C6D000848
:103D2000F8B54746CE46050080B514000F001E00CA
:103D3000002A29D00522164902F0D6FC8021200055
:103D400002F070FD814683B221007A1F281D98463B
:103D500002F007FD4B46E8182623037143465C1D1D
:103D6000A4B221002819013F7A1A310002F0F9FCAF
:103D70003000084902F056FD0023201880B22B5471
:103D8000C0BCB946B046F8BD00210024EBE7C046F0
:103D9000686B0008FF01000070B504000800802176
:103DA0000B4D1300490002002800FFF7B9FF8022E5
:103DB00003000849A0582A0002F0E0FA7E230022FE
:103DC000E0520633E252083B0132E25470BDC04675
:103DD0008C0D0020FF0100008023F0B5C646C458BA
:103DE00000B50500092288462000454902F07CFC08
:103DF00026002000052243490C36083002F074FCEE
:103E00003000FCF78BF9270007223F4912373018A2
:103E100002F06AFC3800FCF781F93C4E03223100C5
:103E20003818023702F060FC3800FCF777F90D22F1
:103E30003818374902F058FC2B790C373800002B22
:103E400054D1FCF76BF907223249381802F04CFCC8
:103E500026342000FCF762F9A71C31000322201849
:103E600002F042FC3800FCF759F911222A493818AF
:103E7000103702F039FC3800FCF750F902222749CC
:103E80003818013702F030FC3800FCF747F93100F0
:103E900003223818023702F027FC3800FCF73EF9FD
:103EA0001F340B221E49381802F01EFC2000FCF7BC
:103EB00035F94146201802F028FC040031000322A5
:103EC00002F012FC31000322A01C02F00DFC802342
:103ED000E858FCF723F97E230022E8520633EA5221
:103EE000083B0132EA5480BCB846F0BDFCF716F935
:103EF0000B220C49381802F0F7FB2A34A9E7C04618
:103F0000C86B0008706B0008786B0008506A0008E6
:103F1000806B0008906B0008A46B0008B86B000869
:103F2000BC6B0008986B000801238340DB43094AFF
:103F30005BB2517E013819405176117E0B401376E9
:103F4000FF2393765B3B43430348C0180023037170
:103F50007047C04618000020C0080020F8B5076868
:103F600004000E00002F0FD0380002F086FC051E62
:103F70000CD03000FCF7D2F8060002000021280027
:103F8000AD1902F0BAFB25603800F8BD2060FBE7F0
:103F9000F0B54546DE4657464E46E0B50378050087
:103FA00085B0032B64D053D8002B00D17BE0012BCC
:103FB00053D1894B984601AB994641464846FFF795
:103FC000CDFF002851D0854B854F9A46854B02AED8
:103FD0009B4620E059462000FCF796F8002808D0C0
:103FE00020008149FCF790F800280ED12B79022B94
:103FF0000BD03900320002F085FC011E00D1B4E084
:10400000280020225C3002F0F9FB41464846FFF7C9
:10401000A5FF002829D03200390002F073FC041EED
:1040200023D00378002B20D05146FCF76DF80028F0
:10403000D0D13200390002F065FC041E00D194E0BA
:104040006A4902F01AFC00281AD001232B71DCE720
:10405000042B02D18C230122EA54012005B0F0BCCC
:10406000BB46B246A946A046F0BD2B7801332B7063
:10407000EB78012B00D17EE02B7801332B70E9E740
:1040800020005B4902F0F9FB0028DED120005949ED
:1040900002F0F3FB002800D196E08E230022EA54C0
:1040A0008C3B2B71B1E74C4B0191984601AB4146DB
:1040B00018009946FFF752FF041E56D0C0224E4901
:1040C000D20002F0BAFB00284FD04C4B02AE2000C9
:1040D000320019009A4602F015FC041E45D04849EA
:1040E000FCF712F8002866D10023EB70514632002D
:1040F000002002F007FC011E37D06F1D402238005F
:1041000002F07CFBEC78002C24D13F21380002F037
:1041100012FB00281ED043780470002B1AD0394CB3
:1041200003AF3A002100013002F0ECFB002811D06F
:1041300048239B465B465946EB5C5A1C12339B0056
:10414000EB186A5458603A002100002002F0DAFBB4
:104150000028EFD132005146002002F0D3FB0028A6
:1041600003D02B7801332B7027E700238C222B7090
:104170000020AB5472E7184901A8FFF7EFFE0028B2
:1041800000D179E71F4C03AF3A00210002F0BAFBDF
:10419000002800D170E74826AB5D21005A1C12337D
:1041A0009B00EB18AA5558603A00002002F0AAFBC9
:1041B0000028F1D160E720001349FBF7A5FF002894
:1041C00092D10123EB7091E72000104902F055FBDA
:1041D000002800D061E718E77C6D00085C6D0008DE
:1041E000F46C0008006C0008686D0008E06B0008C3
:1041F000E86B0008F06B0008D46B0008586D0008ED
:10420000706D0008DC6B0008746D0008F86B000826
:104210004823F0B5C75C002F18D04C3000250600AD
:10422000AB00F0580A000378002B07D10BE09C424A
:1042300009D1437801300132002B04D01478002CCE
:10424000F5D13D2B04D00135AF42E9DC0020F0BDB3
:104250000130FCE7020010B5C41C00201378002BCD
:104260000CD019003039092909D8810040184000C4
:104270001B18303B0132D8B2A242EFD110BDFF2053
:10428000FCE7C046002210B5441D0378002B0CD07B
:104290001900303909290AD89100521852009B1888
:1042A000303B0130DAB2A042EFD190B210BD0148EC
:1042B000FCE7C046FFFF0000F8B504000E00002830
:1042C00022D0002520000A21FBF7B6FF2F00303155
:1042D000F15520000A21FBF729FF01352700EDB237
:1042E00084B2092FEED800236C0873550AD06A1ED9
:1042F000B2181078F15CF05401331170D9B2013A60
:104300008C42F6D82800F8BD00250870FAE7C046B0
:1043100082B0F0B5D6464F464646C0B588B0119338
:1043200080230500C4581000170089461092FBF73F
:10433000F5FE804603385D493818FBF7E5FE129E0E
:104340008246002800D19FE03800FFF781FC00235F
:104350000700984609222000554902F0C5F920239C
:1043600023724B460934210098B2FFF7A5FF2418A9
:104370002000FBF7D3FE06224E49201802F0B4F9C4
:10438000631D18009946FBF7C9FE0D2248444A49AF
:1043900002F0AAF9112399462B79A1444846002B33
:1043A0005DD1FBF7BBFE09224449484402F09CF969
:1043B00043461934002B5DD12000FBF7AFFE0F22DE
:1043C0003F4920180E3402F08FF93900200002F026
:1043D000A5F93800FBF7A2FE24182000FBF79EFE8B
:1043E000384F03223900201802F07EF9A31C180070
:1043F0009846FBF793FEB6B211223349404412347B
:1044000002F072F921003000FFF756FF2418200057
:10441000FBF784FE390003222018023402F064F90D
:104420002000FBF77BFE03223900201802F05CF924
:104430008023E858FBF772FE7E23119AE852063378
:10444000EE520433EA5001220C3BEA5408B0E0BCBF
:10445000BA46B146A846F0BC08BC02B01847FBF704
:104460005DFE0D221949484402F03EF943461D34D1
:10447000002BA1D02000FBF751FE1922201814496F
:1044800002F032F9183497E7434639005A1C68465F
:1044900002F02AF9404653466844033803706846E0
:1044A000FFF7D6FB01230700984653E7146C00087A
:1044B000C86B0008186C0008806B0008206C0008AE
:1044C000586C0008506A0008A46B00082C6C0008A7
:1044D0003C6C00088023F0B5C646C4580F0000B5F8
:1044E0004E49050016002000092202F0FDF82023A5
:1044F000237209342100B8B2FFF7DEFE2418C82F5A
:1045000000D180E0C8235B009F4208D12000FBF768
:1045100005FE09222018424902F0E6F8083420007E
:10452000FBF7FCFD27000D223E49201802F0DCF8C5
:104530002B790C373800002B5CD0FBF7EFFD0D22F8
:104540003949381802F0D0F81834681DFFF780FB9D
:1045500007002000FBF7E2FD0F22344920180E343B
:1045600002F0C2F83900200002F0D8F83800FBF75A
:10457000D5FD24182000FBF7D1FD2D4F0322390073
:10458000201802F0B1F8A31C18009846FBF7C6FDEE
:1045900011222849404402F0A7F83000FBF7BEFD85
:1045A0001234210080B2FFF787FE24182000FBF7A9
:1045B000B5FD390003222018023402F095F82000DE
:1045C000FBF7ACFD39000322201802F08DF88023A0
:1045D000E858FBF7A3FD7E23E8523000FBF79EFD71
:1045E00084230122E8520433EE500C3BEA5480BC91
:1045F000B846F0BDFBF792FD09220F49381802F0CA
:1046000073F81434A1E72000FBF788FD0622201878
:104610000A4902F069F8053481E7C046C86B000812
:10462000686C0008806B00082C6C0008586C00084F
:10463000506A0008A46B0008206C0008186C000881
:10464000F0B5304C461D05009DB031002000FFF74D
:1046500095F8002821D03200210008A8FFF764F85F
:10466000089B002B3ED1284C284B220083CB83C2D1
:1046700040223100200002F09AF82000FBF74EFDA6
:1046800003222349201802F02FF8CA212200280013
:104690004900FFF71FFF1DB0F0BD31000BA802F06D
:1046A00034F81C49042202F01FF820000BA9FFF780
:1046B00065F80028D7D021000BAA05A8FFF734F829
:1046C000059B002BCFD021000BAA08A8FFF72CF8E0
:1046D0000A9BC821039300932800089A099BFFF7BF
:1046E00017FED8E7320021000BA8FFF71DF80D9B3D
:1046F000C8210393009328000B9A0C9BFFF708FE38
:10470000C9E7C046001400203C0D0020746C00086E
:10471000506A0008146C0008F0B58026C64684591B
:1047200000B50F009046274909220500200001F03E
:10473000DBFF20232372093421006520FFF7BCFD35
:10474000241816222000204901F0CEFF2000152257
:104750001E49163001F0C8FF200016221C492A30DD
:1047600001F0C2FF200017221A4955343F3001F0F2
:10477000BBFF220030234146380001F07DFD2418A4
:10478000002815DD05222000134901F0ADFFAB59CB
:104790000434E41A7E238422EC5200230020AB521E
:1047A0000432AB507C33873AEA5480BCB846F0BD43
:1047B000C8212800094A4900FFF78CFE0120404229
:1047C000F3E7C046C86B0008806C0008986C0008CE
:1047D000B06C0008C86C0008E06C0008E86C0008C9
:1047E000F0B54546DE4657464E46E0B5847E0500A8
:1047F00064B283B0002C06DC03B0F0BCBB46B2460A
:10480000A946A046F0BD631E9B46FBF775FFD54B3E
:10481000A4269A465B465E4353469F193B00A0334D
:104820001860143B1B78002B7CD03B007C331B783A
:10483000002B7ED13B79022B00D1E1E0002398468A
:1048400005365644B146C84E40224846316801F00C
:10485000C4FF002800D1E9E001239C46E044434620
:104860000836092BF0D13800FFF7EAFEEB7E234132
:10487000DB0707D5A4235A46534353448C331B7894
:10488000002B5AD15A46A423534353441A008D3265
:1048900012789442B0D18C331B78002BACD1012319
:1048A0000126B24AB24D117858B2002903D0297EB0
:1048B00019410E4205D10133A432082BF3D1012056
:1048C00040425B46A4275F435346DE193379A876FE
:1048D0009846002B90D1E0B2FEF7D4FD0123A3400F
:1048E000DB436A7E5BB21A406A762A7E13402B76DF
:1048F000FF234246AB765346DA55330048331A70ED
:1049000033008C331A70103B1A701A813271F270B6
:10491000984A04331A6000229A73FBF7EDFEA03622
:10492000306069E78D37EB7E3B789C4200D063E7CF
:10493000B5E7EB7E2341DB07A4D55A46A4235343B6
:1049400053441A007C321278012A78D0022A00D00F
:1049500052E784331B88884A1F1C934200D9171CD6
:10496000A4235A465A43564690461C3B9946464411
:10497000B1444B46BFB23A001968E0B2FEF77CFC86
:104980000123A3404846DB4331000068784D84464C
:104990004846EA7E5BB21A408431EA760A88D21B26
:1049A00092B267440A800760002A00D06AE7307933
:1049B000002800D1E2E0697E0B406B76FF23414680
:1049C000AB7653465A54330048331A7044331A7046
:1049D000103B1A70674B8036336001230126634A0F
:1049E000117858B2002903D0297E19410E4205D111
:1049F0000133A432082BF3D101204042A87641E7CD
:104A00008C339846B84443461B78002B00D015E7FA
:104A10005C3656443000FBF781FB31000200380061
:104A2000FFF77AFE0123424613701FE74E4A4346C2
:104A30009446DB00634438005B68984716E71A0029
:104A40007E3211884C4A84331B88521A90B21F1C44
:104A5000834200D9171CBFB2C91989B2E0B2FEF770
:104A60004DFCA4235A465A430192524413007E330C
:104A700019888023994691444B4618681600FEF722
:104A800051FC88239846B044434639001868FEF725
:104A900049FCFEF755FC0123A3404046DB433100AF
:104AA0000068334D84464046EA7E5BB21A4084314A
:104AB000EA760A88D21B92B267440A800760002A0D
:104AC0002AD1307900282BD031008E310878022885
:104AD00072D0697E0B406B76FF23AB76534601990B
:104AE0005A54330048331A707C3644331A7032708B
:104AF0004A46204B1360012301261C4A117858B204
:104B0000002904D0297E19410E4200D076E70133F6
:104B1000A432082BF2D16FE702237C363370B1E662
:104B20006A7E1A406A762A7E307113402B76FF2304
:104B3000AB765346019AF070985433004A46483396
:104B4000187044331870103B18700A4B08801360BB
:104B5000330000228E331A70FBF7CEFDA036306092
:104B6000C9E7C046C0080020380600204C090020D4
:104B70001800002008140020460500006A7E1A4034
:104B80006A762A7E307113402B76FF234246AB763D
:104B900053469854330048331870094A4433187008
:104BA000103B5A600022F070187008809A74FBF76E
:104BB000A3FDA036306010E703230B709BE7C046CF
:104BC0000814002002E00370013101300B78002B43
:104BD000F9D10023037070470B7810B5002B0DD06E
:104BE000002A0BD0821894B202E082B2A24205D011
:104BF00003704B7801310130002BF6D10023037094
:104C000010BDC046F8B54546042388464344DE46F9
:104C10009B46032357464E464344E0B581469A4699
:104C2000002543461E78002E12D14B463022681CC8
:104C3000C0B25A55D04533D04B462E221A540123C8
:104C40009C46451CE044EDB2D845EAD128002AE054
:104C5000002430000A21FBF7EFFA2F004B463031D9
:104C6000D95530000A21FBF761FA013501343700CC
:104C7000EDB2C6B2E4B2092FEBD860080DD0002324
:104C80002C1B6A1E4A444C441178E65C013A56706B
:104C9000E1540133D9B28142F6D32800D045CBD1BB
:104CA00000234A461354F0BCBB46B246A946A04670
:104CB000F8BDC0460A4B10B5C154012907D03F3B8F
:104CC000C15A043B0022C058FCF7C2F810BDC323F0
:104CD0009B00C15A043B0122C058FCF7B9F8F5E724
:104CE0004B03000010B500210400FFF7E3FFC023D1
:104CF0009B00E35C002B08D1C12380229B00210094
:104D0000E0585200FEF71CF810BDC1238022611C40
:104D10009B00E058FF315200FEF712F8F4E7C0465E
:104D2000C12370B5040000269B001422C0180D009A
:104D300001F0DAFC0D4BE654463BE358E9685C624F
:104D4000C6239B002A8AE0180023FEF787F8D223A7
:104D500000259B00E652064B0021E5542000FFF79A
:104D6000A9FFC0239B00E55470BDC0464A03000064
:104D70004B030000F0B5C64604000D00160000B558
:104D8000002A0AD180212800490001F04BFD86B29B
:104D9000002802D180BCB846F0BD01212000FFF7F9
:104DA00089FF80239B009846A0442900320040469A
:104DB00001F09AFCFBF7A0FC0A4F050004E0FBF7AA
:104DC0009BFC401B632802D8E35D012BF7D0012236
:104DD000044B4146E254463B3200E058FDF7DAFA14
:104DE000D8E7C0464A03000070B50400D220154B36
:104DF00080001600E35C225C934216D00723134028
:104E00009D33FF335B001D5B013222542A1CB542E7
:104E100009D8C6239B0092B2E018FEF76BF8280071
:104E2000B54205D870BD321CF3E701204042F9E7D6
:104E3000CB239B00E558801B4019E05001204042E5
:104E4000F0E7C0464903000070B5164D426A2B6872
:104E50000C00934200D070BDC02292009A5C002AE0
:104E60001CD000215E1CFF36C0229200995418000D
:104E7000FFF738FF072328680B49425C13409D3336
:104E8000FF335B001C52C6239B009C4601324254F8
:104E9000220031006044FDF7F5FFDCE71E00012130
:104EA000E2E7C0468006002049030000064B426A44
:104EB0001B6810B5934200D010BD0021034A1800B2
:104EC0009954FFF7F7FEF7E7800600204A03000039
:104ED000064B426A1B6810B5934200D010BD0021FA
:104EE000034A18009954FFF7FDFEF7E780060020FB
:104EF0004A0300003F231370323B5370002300200D
:104F00009370704770B51600012582B001280AD948
:104F1000486801AA012100F05DF9041E03D1019B3C
:104F2000013B012B02D9280002B070BD0221684666
:104F300000F04EFD04223000084901F0D5FB019B32
:104F400000251A006B44013B1B783032303333713B
:104F50000D23F2707371B471E5E7C046806D0008EF
:104F600070B501230C00150084B0022802D8180087
:104F700004B070BD00230121606802AA039300F011
:104F800029F9061E08D10221A06803AA00F022F91F
:104F9000029B013B012B01D90123E8E7039A062A72
:104FA000FAD80D4901A80C7E04703424095D4170C3
:104FB0000221C25400F0A4FC04222800074901F099
:104FC00093FB029BAE713033EB70039B30332B713C
:104FD0000D236B710023CAE7C4190020806D0008FF
:104FE000F0B50F001600012483B0022802D820007B
:104FF00003B0F0BD00230121786801AA019300F0FD
:10500000E9F8051EF3D1019B591E0529EFD80C01C3
:105010000F490A34641810222000B96801F0A1FB7E
:1050200005220C49E573300001F05EFB019B210075
:1050300030333371701D01F08CFB3000FBF76EF8DC
:1050400002220549301801F04FFB0024CFE7C0468B
:105050006C130020846D00088C6D000870B515007D
:10506000012482B001280CD90023486801AA01213B
:10507000019300F0AFF8002803D1019E711E0529AD
:1050800002D9200002B070BD0C010A490A3464182C
:105090000522E07308492800303601F025FB210085
:1050A0002E71681D01F031FB0222044901F01CFB46
:1050B0000024E6E76C130020846D00088C6D000866
:1050C000F8B54746CE460400904680B5002910D179
:1050D000FBF724F881B2002926D023781A00413A40
:1050E000192A0BD93F2B09D0013989B20134002983
:1050F0001AD023781A00413A192AF3D8314B324D8D
:1051000099462A001D602378160018004138192896
:1051100001D93F2B0ED1013989B2013233700134EC
:105120000029F0D195424AD101204042C0BCB94685
:10513000B046F8BD9542F7D0002301270026501C49
:1051400013702378202B03D02C2B01D0092B23D1D3
:10515000013989B201340029F3D11C4E280031688D
:105160000024FAF7D1FF002809D001340436052CB9
:10517000DAD028003168FAF7C7FF0028F5D1144BC0
:10518000A200D358002B05D042464946F8B29847B2
:105190000028C9D12000C9E71A00303A092ADCD812
:1051A0004A4603700139BB00D05089B20130013743
:1051B000013406700029D0D0042FC2D1CDE70127D9
:1051C0001170CAE78C0E00209C0E0020840600207F
:1051D000A46D0008F0B50678002E19D0002917DD5F
:1051E000070000250DE0AB005B195B00303B013789
:1051F000F5183E78002E0CD0CC1B041964B2002C9C
:1052000007DD3300303B092BEDD90120404202E09D
:10521000002500201560F0BD70B50400237808005B
:10522000002B12D1261D91B223713200FFF748FFE7
:10523000051E08DB2379002B05D01821300001F072
:10524000F1FA80B26080280070BD01256D42FAE756
:10525000002210B5104B114C1A70A1882068013241
:10526000FBF7F6FDA189A0680022FBF7F1FDA18AFA
:1052700020690022FBF7ECFD0022218CE069FBF79E
:10528000E7FD07490748FFF7BDFC074B18700748C3
:10529000FCF7DEFE10BDC0469C060020C4190020AD
:1052A000AC0E0020C8110020C40F0020401A0020BE
:1052B00030B591B01822002105A801F01EFA002196
:1052C0001022684601F019FA0A230493093B079358
:1052D0000B93A0231022002402259B0304A808920C
:1052E0000E930C950D940F94FBF7F6FD0723009396
:1052F00080230121DB006846019502940393FCF7AB
:1053000045F811B030BDC046F8B5FF2200231B4957
:105310001B4F1C4E3B700C004B768A76CA760B7680
:105320000A006A33F55A03200B0010320E34107055
:105330001D8002330132A342F9D10123CB756D33B5
:10534000F35ACB81FDF7A2FE0F48FEF7D7F90F48BD
:10535000FDF702FFFDF706FE6C23F25A023BF15AFD
:105360000B4B1868FDF714FE00230A4A38701370BF
:10537000094A1370094A1370F8BDC046180000208E
:10538000BD0F00206C130020A0860100B40E002089
:10539000AC0E0020BF0F0020BE0F0020BC0F00206D
:1053A000F0B5DE4657464E464546E0B593B0FEF7AB
:1053B00025F90400C30700D5B2E0230700D595E026
:1053C000630700D587E02409A4B2002C14D0CF4B8A
:1053D00001259A461C2353449B465346CC4E0193C9
:1053E000012364089846EFB223420CD1072D03D065
:1053F0000135A436002CF3D113B0F0BCBB46B24645
:10540000A946A046F0BD3800FEF75EF84346814647
:10541000034205D0AB40BD4AD17E0B43DBB2D3760D
:105420004B465B072CD44B461B070BD50123AB40E7
:10543000B6495BB20A7E1A43D2B20A76CA7E1343D9
:10544000DBB2CB764B46DB06D0D553461A7E012322
:10545000AB4051465BB29A430A764A7E9A434A76FB
:10546000CA7E1343DBB2CB768B7E5BB29D4270D09B
:105470003000FEF7B9FB072DBED00135A436AFE7EB
:105480000122A44B30001A70FEF7DAFB3800FDF75A
:1054900061FFC02281B20290031CD200914260D20F
:1054A0009BB298465A4619003800FDF77FFF00224C
:1054B000019B43441A775B460C3B5B5D0393022BD5
:1054C00059D0032B00D1F8E0012B00D18FE0380038
:1054D000FDF75AFFA7E7FDF7FDFD8E4B012845D0EC
:1054E00001221A7000228C4B1A706CE7FEF726F826
:1054F0008A4B002837D101221A701B78002B00D16B
:105500005EE708A8FEF72CF8854B089A1A60099BFD
:105510000193019A834B1A600A9A834B1A604FE7F2
:1055200008A8FDF72FFE04ABDB7C04AA967C1B02C7
:105530007E4D1E437E4BEF1803E0A435BD4200D1E3
:105540003BE728002B884638B342F6D1FEF74CFBE8
:10555000F3E7FF2330008B76FEF746FB072D8CD157
:105560004AE7744B9CE700221A7029E700221A7060
:10557000694B187027E733793000002B00D1ECE03D
:10558000FEF74EFB8D23424659466B48F754FFF712
:1055900043FE00289BDB684B5B88002B97D00123E0
:1055A000984642468B33F254634B64495A888023B1
:1055B00092B2F05801F022F95F4B01995A887E238C
:1055C000F25200220633F2524246083BF25443465E
:1055D000AB404A7E1343DBB24B768B7E5BB2002B33
:1055E00001DA6BB28B760023534A53806FE73000A9
:1055F000FEF7FAFA8D23F754029B082B00D866E7D2
:10560000019B07A89A8BDB8B904602935B46042292
:10561000191D01F069F84346083B272B00D856E7CF
:1056200028224749474801F0D8F88046031E00D099
:105630004DE76C2203988C33F054434B08A8089331
:10564000394B42494360374B83608A5A8361828178
:105650008282E122520203230262242230498354CF
:1056600003777D330161F158FDF79CFB7E234246B1
:10567000F05203980633F252083BF0540300AB405B
:1056800001995BB20A7E1A43D2B20A76CA7E1A43E5
:10569000D2B2CA764A7E1343DBB24B768B7E5BB2C4
:1056A000002B01DA6BB28B76380007A9FDF780FD7D
:1056B00038000299FDF7B0FD09E733793000002B7F
:1056C00048D0FEF7ADFA8D234246F754584620499C
:1056D00001F0B3F83379002842D0022B6FD059463D
:1056E0003000FEF755FC002800D1F0E60123AB4066
:1056F00001994A7E1343DBB24B768B7E5BB2002B63
:1057000000DBE4E66BB28B76E1E6C04618000020D1
:10571000C0080020BD0F0020BF0F0020BC0F0020DC
:10572000AC0E0020B00E00209806002006090020D4
:105730007C040000FF0500005419002058190020C7
:10574000946900083C000020B40E00206C13002077
:10575000E86A0008FEF748FAB5E7FEF745FA11E7F0
:10576000022B31D0029B002BB9D0022301223371CE
:105770008C33F254320041465846903200F0A8FD76
:10578000002800DCA3E60123984642468B33F254FE
:105790000533F35C082B1CD0092B63D0012B2ED0D2
:1057A0000123AB40514A517E0B43DBB25376937ECB
:1057B0005BB2002B00DB8AE66BB2937687E68C3314
:1057C000F35C012B8BD1D5E78C33F35C012BC9D172
:1057D000D0E780230121F05800F0C0FD7E23002295
:1057E000F0520633F2524246083BF2540222123380
:1057F000F254023BF35C002B00D168E6D0E797330C
:10580000F2586733FF339A42CAD88023984614333C
:10581000F1584346F05800F067FF98224146B358CC
:1058200071580293002302980B54B358029333002B
:105830009C331A0043460299F05800F079FD434624
:105840009822F358B25818002949984600F0F5FFFD
:10585000002816D000213000264AFEF79DFA8C233E
:10586000F35CC8E78023F05800F072FD7E2300222D
:10587000F0520633F2524246083BF2541033F35CC6
:10588000B9E743461C4905A80593FEF767FB0028C6
:1058900002D18C23F35CAEE7184B06AA1900984698
:1058A00001F030F80028F4D0731D029311E0437822
:1058B000522B11D18378492B0ED1011D4022029821
:1058C00000F09CFF4146002006AA01F01BF80028CA
:1058D000DFD00378552BEAD04821735C5A1C123371
:1058E0009B00F31872545860ECE7C0461800002083
:1058F000B86D0008C06D0008506A0008DC6B000835
:10590000F8B54E46DE465746454681460023002000
:10591000E0B5002916D001244E46284D04E001339D
:10592000DAB23843914214D9F25CFF2A03D1DA008B
:10593000D21A9200AA5C270097403842EFD001208B
:10594000404200E00020F0BCBB46B246A946A0465B
:10595000F8BDB1460B1C022900D90223DBB29B46DD
:10596000174B0027984606E01C239C460137FBB2E4
:10597000E0445B45E6D24B46DE5DFF2EF4D0434665
:105980001E760123F643454600249A46F6B23200BD
:1059900053462241A98828681A400134FBF758FA77
:1059A0000835032CF3D14346064A1B7ED355524695
:1059B000054B1A70054B1A70D6E7C046DC1900205B
:1059C000C419002074130020C4060020C50F002055
:1059D000F0B54F46D64646468146C0B50B1C022957
:1059E00000D90223DBB2984600291BD0104B0026B9
:1059F0009A46554600240027A9882868FBF722FA12
:105A000043425841A04001340743FFB20835032CFC
:105A1000F2D14B469F551C239C460136F3B2E2441B
:105A20009845E6D8E0BCBA46B146A846F0BDC046A7
:105A3000EC1A002010B5002802D0FFF709FC10BDB9
:105A40000548FCF733FBFF22044B022100201A70AB
:105A5000FFF756FFF3E7C046401A00209C060020DF
:105A6000F0B5DE4657464E464546E14BE0B51800D8
:105A7000E04A002512CA12C00100DF4A8DB011CAE7
:105A800011C1DE4ADE4E11CA11C11A00DD491D7670
:105A90001C3211C911C21A00DB49243211C911C2CA
:105AA0001A00DA492C3211C911C23421D8485D5488
:105AB000D84B012714CB14C00200D74B11CB11C215
:105AC000D64B11CB11C2D24BD54A1D761C3311CA0D
:105AD00011C3CF4BD34A243311CA11C3D24ACC4B82
