:020000040800F2
:100000000020002079660008B9650008BD65000879
:1000100000000000000000000000000000000000E0
:10002000000000000000000000000000C1650008A2
:100030000000000000000000C5650008C965000858
:10004000C966000800000000C9660008C96600080B
:10005000C9660008C9660008C9660008C9660008C4
:1000600000000000C9660008C9660008D1650008E4
:10007000C9660008C9660008C966000800000000DB
:10008000C9660008E965000800000000C9660008AC
:10009000C9660008C9660008C9660008C966000884
:1000A000C9660008F9650008C9660008C966000845
:1000B00009660008000000000000000000000000C9
:1000C00010B5064C2378002B07D1054B002B02D02E
:1000D000044800E000BF0123237010BDB0060020DB
:1000E0000000000084690008044B10B5002B03D009
:1000F0000349044800E000BF10BDC04600000000F6
:10010000B40600208469000802780B78002A03D026
:10011000013001319A42F7D0D01A70470023C25CF7
:100120000133002AFBD1581E70470000002243080B
:100130008B4274D303098B425FD3030A8B4244D3AF
:10014000030B8B4228D3030C8B420DD3FF220902F1
:1001500012BA030C8B4202D31212090265D0030BB0
:100160008B4219D300E0090AC30B8B4201D3CB03A6
:10017000C01A5241830B8B4201D38B03C01A5241E8
:10018000430B8B4201D34B03C01A5241030B8B42EA
:1001900001D30B03C01A5241C30A8B4201D3CB02D5
:1001A000C01A5241830A8B4201D38B02C01A5241BA
:1001B000430A8B4201D34B02C01A5241030A8B42BD
:1001C00001D30B02C01A5241CDD2C3098B4201D3D5
:1001D000CB01C01A524183098B4201D38B01C01A53
:1001E000524143098B4201D34B01C01A52410309CA
:1001F0008B4201D30B01C01A5241C3088B4201D379
:10020000CB00C01A524183088B4201D38B00C01A25
:10021000524143088B4201D34B00C01A5241411A4C
:1002200000D20146524110467047FFE701B5002059
:1002300000F006F802BDC0460029F7D076E7704707
:100240007047C0461C2101231B04984201D3000CB7
:1002500010391B0A984201D3000A08391B09984239
:1002600001D30009043902A2105C40187047C0464F
:10027000040302020101010100000000000000006F
:1002800010B501007022024800F0A2F810BDC0466F
:10029000000000200100702210B5034800F024F88F
:1002A0000022024B1A7010BD00000020CC06002076
:1002B0006A2370B5C35A04000025002B10D06C23AC
:1002C000C35A002B0CD0074B0822196806F09BFA82
:1002D0006E23E35A002B03D0C0B245424541EDB234
:1002E000280070BD34060020F0B54746CE460368AE
:1002F00080B5994680231B014B440F00140098469B
:100300004D4687B002E00435A8455DD02B68002B30
:10031000F9D02E00454504D305E00436B04502D996
:1003200033680133F9D172B600F08AFB00230293DF
:1003300003934B46049301230593A30801339B00C9
:10034000F318984507D239E0290000220023022043
:1003500000F0C2FB0435AE42F6D8B1460023494650
:1003600002201A4A00F0B8FB00250436002C13D0F6
:100370003B00019501A804371A78013C0133027053
:10038000A4B20130BB420FD0002CF5D100233100C4
:100390000220019A00F0A0FB00F066FB62B607B0F5
:1003A000C0BCB946B046F0BD310000230220019A1E
:1003B00000F092FB0436002CDAD1EDE702A903A885
:1003C00000F0EEFB4E46C9E74646ACE70A02CB0713
:1003D000F0B580230E0005681B010021300083B0BA
:1003E0001400EF1806F09FF9280002E0043087425D
:1003F00002D00368002BF9D00D4B9C466544A842FF
:1004000000D20430002C10D087420ED9036801AD11
:100410000193330004362A78013C1A700133A4B2E8
:1004200001359E42EDD0002CF5D103B0F0BDC046A1
:10043000FC070000F0B5DE4657464E464546010033
:100440000023E0B58346484887B01831CA5812BA2D
:10045000C2500433402BF9D102001F21441CFF3449
:10046000156A536B6B4095686B40156804326B409E
:10047000CB41D3639442F3D15B461A6859689446E2
:1004800001921B229F68DE681B699246193A9146C9
:10049000002562469846029103970496059319E059
:1004A0000B007B4073400093304B9C465346140036
:1004B000DC41036844449846009B444464449C46A1
:1004C0004B46D9416444B0463E000F001100220063
:1004D00001350430132D0DD9272DE1D93B2D12D82C
:1004E0003C00330034430C403B4023430093204BFB
:1004F0009C46DBE73C0074400C40230073400093B3
:100500001C4B9C46D2E71C4C13004444A446544662
:10051000E34163441C000B007B407340E418036814
:100520009C464B466444D9414F2DCCD1019B944607
:1005300098465B465A4644441C60029B63445360A1
:10054000039B9C46049B61449C46059B67449C46D8
:1005500066449160D760166107B0F0BCBB46B246F6
:10056000A946A046F0BDC046D0060020A1EBD96E3A
:10057000DCBC1B8F9979825AD6C162CA094B10B56F
:100580000360094B40224360084B00218360084B05
:10059000C360084B036100234361183006F0C3F8C1
:1005A00010BDC0460123456789ABCDEFFEDCBA988C
:1005B00076543210F0E1D2C3F0B5C6463F2400B500
:1005C0001F004369050082B01C40002A1BD09046E2
:1005D0000E00884405E06B69013601336B61B0455C
:1005E0000FD032782B1901341A76402CF3D1280021
:1005F000FFF720FF6B690136013300246B61B045C2
:10060000EFD13F241C408023601C2C1923762C0042
:100610001834382822D838222418121A0021200031
:1006200006F081F828006A696946530FD204120C5B
:1006300012BA1BBA019250300822009306F06AF8F1
:100640002800FFF7F7FE0023EA5812BAFA500433E5
:10065000142BF9D102B080BCB846F0BD4022002175
:10066000121A201806F05FF82800FFF7E3FE382280
:10067000D4E7C04610B50400FA200E4B800019786C
:10068000FFF754FD0C4B01001868FFF74FFD00F019
:1006900089F800280CD10130032C00D910BD023894
:1006A0000022210000F040F8044B00201C60F5E718
:1006B0000120F3E708000020A80600200C0000201D
:1006C0001021064A10B5136800200B431360FFF792
:1006D000D1FF05F08BFE002010BDC0460020024077
:1006E000034A044B11681B785B1813607047C046BF
:1006F0005413002008000020014B18687047C046C2
:100700005413002070B50400FFF7F6FF0500631CCA
:1007100002D0044B1B78E418FFF7EEFF401BA04209
:10072000FAD370BD0800002070B5002814DB154B0B
:1007300003229C46FF23840810401A00C026C000F4
:10074000890182400B408340A4006444B600A5594F
:1007500095432B43A35170BD0B4A0F2394460322AC
:1007600003401040FC321500C000890185400A405A
:100770008240083B9B089B006344DC69AC432243F6
:10078000DA61E8E700E100E000ED00E0002805DBC9
:100790001F2318401E3B8340014A13607047C04628
:1007A00000E100E08022431E5204012093420ED259
:1007B000C021074A07485360036A09061B021B0A47
:1007C0000B430362002300209360073313607047DC
:1007D00010E000E000ED00E0054A1368042803D0B3
:1007E00004218B431360704718431060FBE7C04639
:1007F00010E000E070B5041E27D0212502234355E8
:100800000068134A0368A1681A4063680B43E168F3
:100810000B4321690B4361690B43A1690B43E169F8
:100820000B43134303600B4B14219C466044FFF7BA
:100830007DFC094B0122E36300238000206400203B
:10084000A36362551F32A35470BD0120FCE7C0466C
:100850000FC0FFFFF8FFFDBF00000240F0B52024ED
:10086000055D012D37D0012521270555C55DEEB267
:10087000012D03D0002303550220F0BD1E3CC455BA
:10088000002484630468076C2568B543BE40256076
:10089000C56B6E6063604368102B0ED0C36AA160A5
:1008A000E260002B0ED00E22236813432360012246
:1008B0002368002013432360DFE7C36AA260E1607E
:1008C000002BF0D10A222368134323602368063AE1
:1008D00093432360EBE70220CFE7C046212330B5E6
:1008E000C25C022A06D000221D3B83631C33C25423
:1008F000012030BD0E240268056C1168A14311600F
:10090000012114688C4314600C00AC40C26B54602D
:10091000C15400222023C2540020EAE7212370B5ED
:10092000C25C022A03D01D3B8363012070BD0E24EC
:100930000268056C1168A1431160012114688C43A1
:1009400014600C00AC40C26B5460C15400222023E0
:10095000C254436B002B02D098470020E6E70020EA
:10096000E4E7C046F8B504242600036CC56B9E403E
:100970002A6801680F6832420DD03C420BD00B68E8
:100980009B0602D40B68A3430B60C36A6E60002B06
:1009900000D09847F8BD022426009E40324214D071
:1009A0003C4212D00B689B0606D40A220B68934384
:1009B0000B602123093AC254202300226E60C254E6
:1009C000836A002BE6D09847E4E7082426009E407F
:1009D0003242DFD03C42DDD00A680634A2430A60CE
:1009E000012211009940212369608263C2540022D0
:1009F000013BC254036B002BCCD09847CAE7C046DA
:100A000010210D4B10B5DA680B001340114205D0D0
:100A10000A4A0E39D3690B43D3611023064AD168C1
:100A200004220A4205D0012404481343C16921432A
:100A3000C161014AD36010BD00200240581300205C
:100A4000064B00201A69120606D5054A5A60054A67
:100A50005A6018690006C00F7047C0460020024067
:100A600023016745AB89EFCD8021034A002013693C
:100A70000B4313617047C04600200240F8B50400E4
:100A8000FFF73AFE01260700124D01E0631C0FD16B
:100A9000EB681E42FAD12023EA68134211D10D4BB4
:100AA000DA68D20612D4DB6800205B070ED4F8BDEA
:100AB000002C04D0FFF720FEC01BA042E8D9032081
:100AC000F5E7EB60034BDA68D206ECD5FFF798FF49
:100AD0000120ECE700200240F0B54E465746DE46C6
:100AE0004546E0B59A4683B02A4B019299461B7E53
:100AF00004000E00012B48D001254B4626481D76E8
:100B0000FFF7BCFF002836D1012C40D0023C6042E8
:100B1000444104236442AC43A0469C46E044002385
:100B200000259B4618E05346D3404A4659460127C4
:100B30001A4CD16122699BB23A4322611648338034
:100B4000FFF79CFF2369BB432361002813D10135C4
:100B5000EBB2023698450ED920222B0152429A1848
:100B6000E1D520225146D21A91400A000199D9407C
:100B70000B001343D9E700234A46137603B0F0BCB9
:100B8000BB46B246A946A046F0BD0220F6E70123C7
:100B90009846C4E75813002050C3000000200240CC
:100BA000F0B546464F46D646C0B5304F06003B7EB0
:100BB0008846012B57D001233B7603682C48012B34
:100BC00034D0FFF75BFF002834D1012342465B425B
:100BD0001360B36875689B025B199D422AD200239B
:100BE000244C99460AE08023DB009C4672686544E9
:100BF0009446B3689B026344AB421CD902224B4625
:100C00009246FB6123691A48134323616561236996
:100C10003E3213432361FFF731FF5246236993436A
:100C200023610028DFD043461D6004E0FFF726FF64
:100C3000002807D0012000233B76E0BCBA46B1462D
:100C4000A846F0BD042540220A4CF86123690848F3
:100C50002B432361236913432361FFF70FFF2369AC
:100C6000AB432361E7E70220E7E7C04658130020C3
:100C700050C3000000200240F0B54E46DE46574605
:100C80004546E0B50A688946002387B0002A75D03A
:100C9000012188466C498B46444615009C402540FE
:100CA0000195224266D04D4603266D682E40AA4625
:100CB000751E012D69D95F00032E00D0A5E0340018
:100CC000BC40E14302910668029D35402543056022
:100CD000C0255446AD022C424CD059468C69414641
:100CE0000C4359468C618C69414603260F270C4002
:100CF00056491E408C46B600B74090210594059C8D
:100D00009C08A4006444A568C905BD4388420ED070
:100D10004F4FB84200D18EE04E4FB84200D18EE026
:100D20004D4FB84200D182E00527B7403D434B49C3
:100D3000A5608C6801998025CE4351466D032942F8
:100D400000D071E0344045498C60CC68514689023E
:100D500067D434404149CC604D68514689035DD425
:100D600035403E494D600C685146C90352D4344069
:100D70003A490C6014000133DC408DD107B0F0BC5F
:100D8000BB46B246A946A046F0BD85685F00039504
:100D90000325BD40AC46E94302916146039D8D4366
:100DA00049460395CD68BD40AC466146039D0D4361
:100DB000856041680D005146A5430C0941460C4031
:100DC0009C402C434460C46802990C40A4464C46A5
:100DD000A4686546BC402C43C4603400BC40022E6D
:100DE00000D070E707270F251F40BF00BD40DE0879
:100DF000B6008619316AA9438C4649460969B9404B
:100E00000F0061460F4337625DE70325BD40E943AC
:100E10000291D8E7019921430C00A9E701990D43FC
:100E20009FE701990C4395E701990C438BE7032158
:100E3000B1400D437BE74146B1400D4377E70227C0
:100E4000B7403D4373E7C046001002400000014038
:100E50000004004800080048000C0048000401405D
:100E600000690840411E8841C0B27047002A01D085
:100E7000816170478162FCE770B5041E23D003686E
:100E8000154A1A60154A1A6042685A6082689A6068
:100E9000FFF732FC23680600DA6852070CD00725FA
:100EA000FFF72AFC2368801B272802D9DA6815423D
:100EB0000BD1DA681542F3D11969E268914206D084
:100EC00000201A6170BD0120FCE70320FAE7044A04
:100ED00000201A60F6E7C046CCCC00005555000053
:100EE000AAAA00000368024A00201A607047C046A0
:100EF000AAAA0000F0B5CE46474680B5040083B0EC
:100F0000002800D1EEE00368DA0735D50C21C3488C
:100F100042680A40042A00D101E1426811400829D0
:100F200000D1F8E06368012B0FD0002B00D11EE147
:100F3000052B00D1A7E1B94BB9491A680A401A60DC
:100F40001A68B8490A401A6005E08023B34A5B0278
:100F500011680B431360FFF7CFFB80260500AF4FEE
:100F6000B60205E0FFF7C8FB401B642800D9FCE08F
:100F70003B683342F6D023689A0729D50C22A7494B
:100F80004868024200D1A6E048680240082A00D121
:100F90009DE0E368A14D002B00D11FE101222B68E9
:100FA000022713432B60FFF7A7FB060005E0FFF7BE
:100FB000A3FB801B022800D9D7E02B681F42F6D084
:100FC000F8212A6823698A43DB0013432B602368D6
:100FD0001A072DD45A0744D5802200208F4B520582
:100FE000D9698146114208D1D9691143D961DB69B8
:100FF0001A400192019B0123994680278A4E7F0067
:1010000033683B4200D194E0A368012B00D1F8E0A3
:10101000002B00D1C4E0052B00D140E101217F4B22
:101020001A6A8A431A621A6A03318A431A62ECE026
:10103000E3697A4D002B5BD001226B6A02271343D0
:101040006B62FFF759FB060005E0FFF755FB801BBD
:10105000022800D989E06B6A1F42F6D023685A073C
:10106000BAD4DB0612D56369012B00D13DE105330B
:1010700000D0E9E00421F820684A536B8B435363A6
:10108000516BA3698143DB000B435363236A002B3D
:101090001BD00C22614E71680A40082A00D108E179
:1010A000022B00D13FE13368604A80251340336052
:1010B000FFF722FBAD04040004E0FFF71DFB001B5B
:1010C000022852D833682B42F7D100200BE04A683F
:1010D000D20300D55DE7514A1268920739D5E2681C
:1010E000012A36D0012003B0C0BCB946B046F0BDDD
:1010F00001226B6A022793436B62FFF7FDFA060039
:1011000004E0FFF7F9FA801B02282ED86B6A1F4211
:10111000F7D12368A3E74268D20300D402E73F4A2D
:101120001268920300D427E76268002A00D023E700
:10113000D8E733683B433360FFF7DEFA050004E08D
:10114000FFF7DAFA401B64280FD833683B42F7D028
:101150005AE7F825314822690168D200A9430A43B9
:1011600002601A0700D435E762E70320BBE72B4D86
:101170002B4A2B68802713402B602B68294ABF021B
:1011800013402B60FFF7B8FA060004E0FFF7B4FA4B
:10119000801B6428E9D82B683B42F7D12368EBE633
:1011A00001221E4E224D336A93433362336A033267
:1011B00093433362FFF7A0FA02230700984604E046
:1011C000FFF79AFAC01BA842CFD84246336A1A42A8
:1011D000F6D14B46012B4FD0236842E701222B6802
:1011E000022793432B60FFF787FA060004E0FFF71E
:1011F00083FA801B0228B8D82B681F42F7D12368D6
:10120000E6E606490A6A13430B62FFF775FA034BD9
:10121000060098460227064D11E0C0460010024025
:10122000FFFFFEFFFFFFFBFF00700040FFFFFFFE20
:1012300088130000FFF760FA801BA84295D8434648
:101240001B6A1F42F6D0C4E70422534D02276B6B82
:1012500013436B636B6B033A93436B63FFF74CFA77
:10126000060005E0FFF748FA801B022800D97CE75A
:101270006B6B1F42F6D109E7474A4849D3690B40D7
:10128000D3612368EDE68022434BD20219680A43FA
:101290001A608022196852020A431A605BE6042130
:1012A0003D4B1A6A0A431A621A6A03390A431A62E0
:1012B000ABE7012B00D115E780237268656A5B02FA
:1012C0000120F16A1340AB4200D00CE70F230B4022
:1012D000E16A8B4200D006E7F02080030240A06A5A
:1012E000101A421E9041C0B2FDE604212A4E022788
:1012F000726B0A437263726B13437363FFF7FCF9FB
:10130000050005E0FFF7F8F9401B022800D92CE79B
:10131000736B1F42F6D0F821726BA3698A43DB001E
:1013200013437363B2E633681D4A8027134033606A
:10133000FFF7E2F9BF04050005E0FFF7DDF9401B08
:10134000022800D911E733683B42F6D10F22F36A35
:1013500080259343E26AAD041343F362616AA36A92
:1013600072680B430F490A4013437360802332684D
:101370005B0413433360FFF7BFF9074E040005E039
:10138000FFF7BAF9001B022800D9EEE633682B42BA
:10139000F6D00020A7E6C04600100240FFFFFFEF96
:1013A000FFFFFFFEFFFFC2FFF8B5CE464746040031
:1013B0000D0080B500280DD001234A490A681A4063
:1013C000AA420CD20A689A432A430A600A68134068
:1013D000AB4204D00120C0BCB946B046F8BD23687A
:1013E0009A070ED55A0705D5E0223F49D200486832
:1013F00002434A60F0203C494A688243A0680243A5
:101400004A60DB0722D5384B62681B68012A5BD033
:10141000022A56D09B07DDD50321334E73688B43D8
:1014200013437360FFF768F90C2398462F4B0700AE
:10143000994604E0FFF760F9C01B484547D843468A
:1014400072681A4063689B009A42F3D10121254AD1
:1014500013680B40AB4205D913688B4313601368C4
:101460001942B7D123685B0706D51F4A2049536844
:101470000B40E1680B4353600C231B494A6813403F
:10148000082B0ED01B48184B1B4A5B681B061B0F12
:10149000D35CD840194B18600020FFF7EBF8002010
:1014A00099E7C96A0733900C1840154C0B40154951
:1014B000245CC95CD3030CD50E48FEF737FE6043AD
:1014C000E1E79B01A8D485E79B03A5D482E703202D
:1014D00081E763011B1B9801C01AC00000190002BC
:1014E000D1E7C046002002400010024088130000EF
:1014F000FFF8FFFF00127A00AC6E0008A80600207B
:101500009C690008AC6900080C23104910B54A68B2
:101510001340082B01D00E4810BDC96A0733900C48
:1015200018400C4C0B400C49245CC95CD30304D517
:101530000748FEF7FBFD6043EEE763011B1B9801C4
:10154000C01AC00000190002E6E7C04600100240C1
:1015500000127A009C690008AC690008044B054A37
:101560005B685B055B0FD35C034A1068D84070472B
:1015700000100240BC6E0008A8060020F0B5C64668
:1015800000B50C00160082B00700FFF7B5F8361959
:10159000361AFFF7B1F880258046274B1B685B01A0
:1015A0001B0D734301933A6801E0631C07D19368F4
:1015B0001D42FAD1002002B080BCB846F0BDFFF752
:1015C0009BF84346C01AB04208D2019B5A1E934171
:1015D0005B421E40019B013B0193E4E7E0213B6835
:1015E0005A688A435A60822279685200914214D024
:1015F0008021BA6A89018A4207D05D230122FA5408
:101600000022013B0320FA54D5E719680B4801403A
:10161000196019680A431A60EFE78021BA68090265
:101620008A4203D08021C9008A42E1D140211A6850
:101630008A431A60DCE7C046A8060020FFDFFFFFF0
:10164000F0B5DE4657464E464546E0B583B01E002F
:101650006B46DF1C0023150081460C003B70FFF732
:101660004BF87619331A9846FFF746F84B461B6835
:10167000C0269A46354B83461A68F60093009A189E
:10168000D3009B1A42461B0D53435246019301E07F
:101690006B1C0BD1936823421DD0B442F8D1534642
:1016A0001B7BDBB23B703B786B1CF3D0FFF724F85D
:1016B0005B46C01A404516D2019B5A1E93414246D2
:1016C0005B421A40019B9046013B01934B461A68CE
:1016D00093682342E1D1002003B0F0BCBB46B24680
:1016E000A946A046F0BD4B46E0211B685A688A43D4
:1016F00049465A60822249685200914216D04A46B1
:101700008021926A89018A4208D05D2301224946DC
:10171000CA540022013B0320CA54DDE719680C4873
:101720000140196019680A431A60EEE74A468021B1
:10173000926809028A4203D08021C9008A42DED120
:1017400040211A688A431A60D9E7C046A8060020DB
:10175000FFDFFFFFF8B582231700426804000E0088
:101760005B009A420DD03A0031002000FFF706FFDF
:10177000051E1BD1822362685B009A421CD02800A0
:10178000F8BD802283681202934203D08022D200E7
:101790009342E8D140212268200013688B431360F4
:1017A00031003A00FFF7EAFE051EE3D02022236E47
:1017B000032513432366E2E78022A36812029342C3
:1017C00003D08022D2009342D9D1C0213B00320005
:1017D0002000C900FFF734FF0028D0D0E6E7C0465C
:1017E00070B513000D0016000A00C0214901040065
:1017F000FFF726FF00280FD1320029002000FFF755
:10180000BDFE002808D1C02133002A002000C900F5
:10181000FFF716FF002804D020220320236E134375
:10182000236670BDF0B5D6464F4646460400C0B5A7
:10183000002800D18EE0456A002D65D000230361A9
:1018400043610023A3625D33E35CDAB2002B68D00E
:101850005D2302224021E2542268E06813688B4332
:101860001360E023DB00984262D9F0231B01984209
:1018700000D071E08023A16A9B01194000238C46AF
:101880009A46822366685B0033408426A768360246
:101890003E40334302262769A1693E403343012677
:1018A0006769B14637403B438027BF000F403B4349
:1018B0003827E669090C374080263B433700266A03
:1018C000374066463B43334313600823666B5746F5
:1018D0003340F026360130401843042319400143B9
:1018E000102005400D432F435760D3691C49002049
:1018F0000B40D36100234A4623665D33E254E0BCCB
:10190000BA46B146A846F0BD822342685B009A42BF
:1019100097D00023C561A3625D33E35CDAB2002B8C
:1019200096D15C332000E25404F078FD656A8FE7BD
:10193000984206D080235B019A4600239C46A3620E
:101940009FE78023A16A9B01194080235B018C469D
:101950009A4696E70120D2E700239A46EDE7C04673
:10196000FFF7FFFFF0B5CE4647461D005C2380B56C
:101970009146C25C0400884683B0012A64D00122EB
:10198000C254FEF7B9FE5D22A35C0600DFB2012B54
:1019900009D002275C230022E254380003B0C0BC07
:1019A000B946B046F0BD4346002BF3D04B46002B62
:1019B000F0D00323A35442460023A2634A46236681
:1019C000A287E28744222364A3520232A3522365F2
:1019D000E3648023A26820681B029A425CD0402303
:1019E0000268134202D1026813430360E023E268F5
:1019F000DB009A422AD96368002B57D04B46012B53
:101A000054D00222E38F9046002B0DD164E0A36BEB
:101A10001A880233C260E28FA363013A92B2E2876E
:101A2000E38F002B58D02068424683681A42EED1DB
:101A3000FEF762FE801BA842F2D36B1CF0D05D2340
:101A400001220327E254A5E70227A6E76368002BDB
:101A500037D04B46012B34D0E38F002B3CD00223F0
:101A600098460CE0A26B12781A73E28FA36B013ACE
:101A7000013392B2A363E287E38F002B2CD041465F
:101A800023689A681142EDD1FEF736FE801BA8420A
:101A9000F2D36B1CF0D0D2E740220368934303607B
:101AA00080230268DB011343036098E743461B88E9
:101AB000C3604346991CE38FA163013B9BB2E3875C
:101AC0009FE743461B780373A36B0133A363E38F44
:101AD000013B9BB2E387BFE7320029002000FFF7FC
:101AE0007FFE002801D020232366A368002B06D1A7
:101AF00001932368DA6801929B680193019B236E2E
:101B0000002B00D046E701225D330027E25441E775
:101B1000F8B54746CE4680B51F005C239146C25CAF
:101B200004008846089D012A00D1A7E00122C25482
:101B3000FEF7E2FD5D23E35C06006268D9B2012B8B
:101B400010D0822302205B009A4206D05C23002240
:101B5000E254C0BCB946B046F8BDA368002BF5D12D
:101B60000429F3D14346002B00D185E04B46002BDE
:101B700000D181E0002F00D17EE05D23E15C0429EB
:101B800001D00521E1544946002321644621236602
:101B90006752023967524146E3642365E023A1633B
:101BA000E168E787A787DB00994269D9236866481F
:101BB00059680140596040211868014202D11868F3
:101BC00001431960002A00D0B5E042461288DA606D
:101BD0004346991CE38FA163013B9BB2E38701233A
:101BE0009946013346279846E38F002B02D1E35BE9
:101BF000002B34D0414623689A68114210D0E28FFE
:101C0000002A0DD04A46012A0AD1A26B118802325D
:101C1000D960A263E28F013A92B2E2870022914634
:101C2000012108009A68104011420CD0E25B002AA2
:101C300009D08146DA68236C1A8002332364E35B9F
:101C4000013B9BB2E353FEF757FD801BA842CBD369
:101C50006B1CC9D05D2301220320E25476E73200D9
:101C600029002000FFF7BCFD002802D0202301201E
:101C70002366236E002B62D0012067E7022068E70D
:101C80008021236849015868014359604021186840
:101C9000014202D1186801431960002A48D1424626
:101CA00012781A73A36B0133A363E38F013B9BB2DA
:101CB000E38701239946013346279846E38F002B9B
:101CC00002D1E35B002BCAD0414623689A681142D7
:101CD00012D0E28F002A0FD04A46012A0CD1A26B03
:101CE00012781A7300229146A36B0133A363E38F2A
:101CF000013B9BB2E3872368012108009A681040EA
:101D000011420DD0E25B002A0AD081461B7B226C77
:101D10001370236C01332364E35B013B9BB2E353F9
:101D2000FEF7EAFC801BA842C8D36B1CC6D091E723
:101D3000012FBED1B3E7012F00D050E745E70122C4
:101D40005D33E25402E7C046FFEFFFFFF0B5CE4639
:101D5000474616005D2280B51D00835C040089465D
:101D600083B0DFB2012B6DD104334168FF33994258
:101D700000D171E05C23E25C012A00D18BE00122FA
:101D8000E254FEF7B9FC4B468046002B5BD0002E98
:101D900059D05D230422E2544A460023226444229F
:101DA0002366A6520232A652E022A363A387E387EA
:101DB000E3642365E368D200934200D890E0226890
:101DC0004B485168014051608021A0680902884257
:101DD00007D14020116881431160116845480140D6
:101DE000116040211068014202D110680143116066
:101DF000E021C9008B4250D946230121E35A89468C
:101E00004626002B0DD135E0D268236C1A800233B0
:101E10002364A25B013A92B2A253A35B002B29D0A8
:101E20002268494693681942EED1FEF765FC4346A5
:101E3000C01AA842F1D36B1CEFD05D234A4603279A
:101E4000E25400E002275C230022E254380003B091
:101E5000C0BCB946B046F0BD8368002B00D089E70E
:101E600004338354494633004A460095FFF750FE39
:101E70000700EBE7424629002000FFF76BFC002833
:101E800001D020232366236E002BDCD101225D3399
:101E90000027E254D7E70227D8E74623E35A002B6E
:101EA000E8D00123462699460DE0137B226C13707F
:101EB000236C01332364A35B013B9BB2A353A35B5D
:101EC000002BD7D02268494693681942EDD1FEF71E
:101ED00013FC4346C01AA842F1D36B1CEFD0ACE709
:101EE0008021226849015068014351606CE7C04677
:101EF000FFEFFFFFFFBFFFFF7047C0460121F0B5B6
:101F00000E00026804005568936885B09809064081
:101F1000014205D1194203D0A809014200D088E04E
:101F20000121980703D5E809014200D07DE0012096
:101F3000070059090F40084251D0690908424CD0A6
:101F4000002E0FD05D21615C032900D175E00420D3
:101F5000216E0143216600210091D16800919168B2
:101F6000009100990120216E402601432166002145
:101F7000029191681B0A029111681840B1431160E7
:101F80000299002847D1236E002B26D0E021536808
:101F90008B4353605D23DF39E1540231294254D031
:101FA0005368A06D8B435360002809D0294B4363CD
:101FB000FEF7B4FC002803D04022236E13432366AF
:101FC000606D002809D0234B4363FEF7A7FC00286F
:101FD00003D04022236E1343236605B0F0BD002ECC
:101FE00013D069090842F8D05D21615C032924D02F
:101FF0000426216E1B0A314321660097D1681840E0
:102000000091916800910099BBE71B0A1842E4D047
:102010006B091842E1D00821236E0B43236600238D
:10202000039393680393039BADE72000236D9847C8
:10203000D3E72000E36C9847CFE700230193D368F0
:10204000019393680193019BC7E72000FFF754FFBA
:10205000C3E7C046592000080023462210B5406A55
:102060008352C387FFF748FF10BDC0463D22815C05
:1020700003000120012912D1013199541B68DA684B
:102080000243DA600D4A93420AD00D4A934207D0C8
:102090000C4A934204D01A6810431860002070471D
:1020A000072299680A40062A05D001211A680020F3
:1020B0000A431A60F3E70020F1E7C046002C014014
:1020C00000040040004001400121036810B5DA68B7
:1020D0008A43DA601C6A074A144206D11C6A064A1F
:1020E000144202D11A688A431A603D230122C25465
:1020F000002010BD11110000440400007047C046CC
:102100007047C0467047C0467047C0460222036809
:1021100070B5DE681D6904002A4201D032425AD1EE
:1021200004232B4201D0334241D108232B4201D05A
:1021300033422AD110232B4201D0334214D1012340
:102140002B4201D033425AD180232B4201D033425B
:102150005DD140232B4201D0334260D120232B425A
:1021600001D0334243D170BD1122236852421A611B
:1021700019322277DA69C0239B0020001A4262D00C
:10218000FFF7BEFF00232377D9E7092223685242D5
:102190001A610D322277DB6920009B0750D1FFF7CF
:1021A000ADFF2000FFF7AEFF00232377C2E7052233
:1021B000236852421A61073222779A69C0239B0032
:1021C00020001A4239D1FFF799FF2000FFF79AFF4C
:1021D00000232377A9E7053A1A61043202779B6945
:1021E0009B0724D0FFF78CFF0023237798E7212259
:1021F0002368524220001A6100F0A8F8B3E70222D7
:102200002368524220001A6103F05EFF9CE781229E
:102210002368524220001A6100F09AF899E741229F
:102220002368524220001A61FFF76EFF96E7FFF71E
:1022300065FF2000FFF766FFD6E7FFF761FFC7E7FE
:10224000FFF75EFFB0E7FFF759FF2000FFF75AFFE7
:1022500098E7C046204A0368904229D01F4A90421E
:102260001DD01F4A90421ED01E4A904224D01E4AC2
:10227000904221D01D4A90421ED0802293434A6949
:10228000134303608B68C3620B688362012343615D
:102290000269134202D002699A43026170477022B8
:1022A00093434A681343124A1340CA681343E4E74E
:1022B000702293434A6813430D4A1340CA6813437C
:1022C000802293434A69134303608B68C3620B689F
:1022D00083620B690363D9E7002C014000040040CE
:1022E00000200040004001400044014000480140FF
:1022F000FFFCFFFF70B5041E26D03D23C35CDAB29D
:10230000002B1CD002233D252100635501C9FFF796
:10231000A1FF012346220020A354083AA35401320E
:10232000A3540132A3540132A3540132A354013205
:10233000A3540132A3540132A354635570BD3C33FE
:10234000C25404F0A9F8DDE70120F7E77047C04662
:102350007047C04630B5EFF31084012282F3108835
:102360000168124D0B682B400B6084F31088EFF36B
:10237000108482F3108801688B6893438B6084F328
:102380001088036E012B0AD1EFF3108183F31088BC
:10239000102402681368A343136081F3108880231C
:1023A0002022C25000230366836630BDDFFEFFFF9C
:1023B0001300C26F70B50400202A40D100292BD031
:1023C000002B29D080228068520190421FD05022D9
:1023D000E164A3520232A3522120842500226251DB
:1023E000E067206F002819D0164E42638662164EB1
:1023F0002268C662154E28320663FEF72FFA0028BF
:102400000CD01023635110330120E36705E02269EB
:10241000002ADCD1CA07DAD5012070BD402223682A
:102420001A62EFF31081012383F310888020226861
:1024300093680343936081F310880020EDE7022046
:10244000EBE7C046512400089D240008B124000891
:10245000826970B5436A202A1AD05222002199520B
:10246000EFF31084013181F31088802518688268A9
:10247000AA43826084F31088EFF3108081F3108800
:102480001A683F3113680B43136080F3108870BDE6
:10249000180002F095FCFAE77047C04610B5406A94
:1024A000FFF7FAFF10BDC0467047C0467047C046F0
:1024B000802270B5446A2368E56FA05899680A4283
:1024C00001D0212D0DD09B685B0601D522281BD0A1
:1024D00084221021A35820000B43A35002F082FC59
:1024E00070BD52230022E252EFF31081513B83F37F
:1024F000108822689F351368AB43136081F31088FE
:102500002023E3672368DEE75A2300222000E252FB
:10251000FFF720FFDCE7C04600235A2210B5406ACF
:102520008352083A835202F05DFC10BDF8B5CE46E6
:10253000474602680400D369AB48116880B59568C6
:10254000034200D077E02020184202D0084200D099
:10255000E6E0206E012814D080221A4209D14022E0
:102560001A4202D00A4200D0DFE0C0BCB946B046F1
:10257000F8BD0A42F3D0E36E002BF6D02000984756
:10258000F3E710251D42E7D00D42E5D040231E00A1
:10259000156292681640134200D1E4E0666F32681B
:1025A000526892B2002AE0D058218846615A91427E
:1025B000DBD95A27E253B269202A32D0EFF31086D2
:1025C00080F310882168894F0A683A400A6086F3D0
:1025D0001088EFF3108680F3108821688A688243A0
:1025E0008A6086F31088EFF3108680F310882168E4
:1025F0008A689A438A6086F3108820224033E2502A
:1026000000232366EFF3108180F31088226813689B
:10261000AB43136081F31088606FFEF75FF94346A8
:10262000E15A022363665833E35A2000C91A89B27B
:1026300002F094FB99E701266D4835400840284395
:1026400000D186E71E4206D0C80504D5842716624D
:10265000E0590643E6510220184255D0002D07D01C
:10266000842704261062E0593043E0511E424FD1C6
:1026700008261E4208D020200840054304D08425A7
:10268000166260590643665180200001034207D05C
:102690004D0105D5842520261062605930436051D4
:1026A00084202058002800D15FE72020184201D064
:1026B000084251D1842640272823A15995680B4010
:1026C0003D4020001D4300D18AE0FFF743FE236810
:1026D0009B681F423CD0EFF31081012383F31088E5
:1026E00022689368BB43936081F31088606F002871
:1026F0002ED0404B4363FEF711F9002800D134E798
:10270000606F436B984730E75807B1D5002DAFD0C5
:102710000420842602271062A0593843A051A7E75D
:10272000A36E002B00D029E71FE7EFF310800123F1
:1027300083F3108821680B6893430B6080F3108843
:102740002023E36700232000E36602F039FB0CE757
:10275000200002F047FB08E7A36E002BAAD0200060
:1027600098472268A6E75A22A35AA25A9BB2002A87
:1027700000D1FAE65822A15AC91A89B2002900D11B
:10278000F3E6EFF3108780F31088236899461B68FF
:1027900098464246184B1A4013004A46136087F386
:1027A0001088EFF3108780F31088226893688343C2
:1027B000936087F3108880232022E2502666A66665
:1027C000EFF3108680F3108822681368AB43136020
:1027D00086F3108802232000636602F0BFFAC4E685
:1027E00002F000FBA551C0E60F080000FFFEFFFF4E
:1027F0002001000419250008DFFEFFFF0123406AC5
:1028000010B54366036E012B02D0FFF74FFE10BDDB
:102810005733C15A490802F0A1FAF8E703009B694F
:1028200070B5406A202B29D05A230022C252EFF300
:102830001084593B83F3108801681F4D0A682A40B1
:102840000A6084F31088EFF3108483F31088016822
:102850008A689A438A6084F31088EFF3108183F3C7
:102860001088402402689368A343936081F3108822
:1028700080232022C250036E012B07D00023436621
:10288000036E012B12D0FFF70FFE70BDEFF3108126
:1028900083F310880268303C1368A343136081F30C
:1028A000108800234366036E012BECD15733C15AC5
:1028B00002F054FAE9E7C046FFFEFFFF70B50400DE
:1028C0000268C5698368006911680343606903434E
:1028D0003D482B4301400B43136053683B49206A3A
:1028E0000B40E1680B435360A36991680343384888
:1028F00001400B439360374B9A4207D0364B9A42C4
:102900000BD001200023A366E36670BD334B1A6B26
:1029100003231340013B022B16D980231B029D4247
:102920002CD0FEF71BFE00280CD0636861685B08A2
:102930001818FDF7FBFB0200294B103A9A42E0D829
:102940002368D8600020DDE78020264A0002D35C9F
:1029500085420ED0042B06D008D8002BE1D0022BE4
:10296000CFD12148E1E7FEF7CFFDDCE7082BDCD033
:10297000C7E7042B24D01ED8002B18D1FEF7EEFD9C
:102980000028DFD04000636861685B081818FDF715
:10299000CDFB0200124B103A9A42B2D8134B226878
:1029A00003400007400F1843D0600020AAE7022B25
:1029B000A7D10F48E7E780204002082BE3D0A0E72B
:1029C000FEF7A2FDDCE7C046F369FFFFFFCFFFFF84
:1029D000FFF4FFFF003801400044004000100240B7
:1029E000EFFF0000BC69000800127A00F0FF000051
:1029F0000024F400436A30B51A0706D50168284C54
:102A00004A682240446B22434A60DA0706D50168CF
:102A1000244C4A682240846A22434A609A0706D5B9
:102A20000168214C4A682240C46A22434A605A071E
:102A300006D501681D4C4A682240046B22434A6057
:102A4000DA0606D501681A4C8A682240846B224354
:102A50008A609A0606D50168164C8A682240C46BC3
:102A600022438A605A060AD50168134D4A68046CED
:102A70002A4022434A6080225203944209D01B0616
:102A800006D502680D4953680B40816C0B435360B7
:102A900030BD4A680A4C2240446C22434A60EEE74B
:102AA000FF7FFFFFFFFFFDFFFFFFFEFFFFFFFBFFBD
:102AB000FFEFFFFFFFDFFFFFFFFFEFFFFFFFF7FF6E
:102AC000FFFF9FFFF8B557464E464546DE46E0B548
:102AD00016000A000D004021403A8A43994680467C
:102AE00092460A9F036801E07A1C0DD1DC692C40F4
:102AF000641B62425441B442F6D00020F0BCBB4695
:102B0000B246A946A046F8BDFDF7F6FD4B46C01AF1
:102B1000B84223D8002F21D043461B681A685207B9
:102B2000E4D55246002AE1D008242100DA69114098
:102B30008B46144214D18022D96912011142D5D09A
:102B40001A624046FFF706FC842320224146CA5001
:102B5000424659460C3B0320D154CFE70320CDE732
:102B600040461C62FFF7F6FB842342464146D450A0
:102B700000220C3B0120CA54C0E7C04670B5842334
:102B800000260400C65082B0FDF7B6FD236805009C
:102B90001A6812070ED41B685B071AD42023802200
:102BA000E367A35000230020083A23666366A3541A
:102BB00002B070BD8021244B0022009389030300E2
:102BC0002000FFF77FFF00282CD123681B685B07DC
:102BD000E4D580211C4B0022009320002B00C90368
:102BE000FFF770FF0028D9D0EFF31080012282F3A5
:102BF00010882168154D0B682B400B6080F31088FE
:102C0000EFF3108082F3108821688B6893438B6008
:102C100080F3108880231F32E2500022083B0320FB
:102C2000E254C5E7EFF31081012383F3108880207D
:102C3000226813688343136081F310882023E367BD
:102C40005833E6547D38B3E7FFFFFF01DFFEFFFF97
:102C500010B5041E22D0C36F002B25D024230121E0
:102C60002268E36713688B431360636A002B17D1F4
:102C70002000FFF723FE012810D023680D495A6871
:102C800020000A4008215A609A688A439A601A68AC
:102C900007390A431A60FFF771FF10BD0120FCE7F6
:102CA0002000FFF7A7FEE3E77822835403F012FC2D
:102CB000D4E7C046FFF7FFFFF8B51300582241657F
:102CC0000D0083528427002280262221C251040055
:102CD0008151406F00280DD01D49426381621D491A
:102CE0002A00C1621C49016321682431FDF7B6FD49
:102CF000002827D12369002B17D1EFF3108001237F
:102D000083F3108821688A681A438A6080F31088E8
:102D1000EFF3108183F31088402022689368034307
:102D2000936081F310880020F8BDEFF31081012338
:102D300083F310882268FF3310680343136081F324
:102D40001088DAE71023E35110330120A351EBE799
:102D50001D280008FD270008B12400088023C3585F
:102D600070B50400202B29D100290BD0002A09D0EE
:102D7000802380685B01984206D12369002B03D130
:102D8000CB0701D5012070BD01232366002320005D
:102D90006366FFF791FF0028F5D1236E012BF1D177
:102DA000102122681162EFF3108583F310882268E6
:102DB00013680B43136085F31088E4E70220E2E711
:102DC0000B0070B58D1D4C1D0668E21AB25C1A70BE
:102DD00001339D42F8D142230D000C008B710B355D
:102DE000CB1D0A348668E21AB25C1A7001339D4228
:102DF000F8D183890D00CB7283890C001B120B73F1
:102E00000B0011350D3310340669E21AB25C1A70EA
:102E100001339D42F8D1838A0D004B74838A0C00E4
:102E20001B128B740B001735133316348669E21AA4
:102E3000B25C1A7001339D42F8D1037F0C00CB7550
:102E4000036A23340B76036A1B0A4B76438C8B761A
:102E50002423C35CCB7600230B774B778B770B0057
:102E600022311F334568CA1AAA5C1A7001339C428A
:102E7000F8D1232070BDC04610B504000023626065
:102E8000100052082361A3616361E361E260216085
:102E9000FDF7D8F9012301305B42C340A36010BDA8
:102EA000F8B54746CE4604008846150080B5002A8E
:102EB00006D0026947684669BE19B61AB54205D9F7
:102EC00000263000C0BCB946B046F8BD0069A36812
:102ED0002269184052193F1AB9462261AF420DD8F3
:102EE00023684A469C464146604403F013FCAF42C7
:102EF00006D3A3699C466544A561E2E7A946EFE7CE
:102F00004B4641462068EA1A494403F003FCF0E7C7
:102F1000F0B5C64605000E00140000B5002A2CD0FE
:102F2000036942699B1A9C4202D304694269A41A4C
:102F3000AB68696919406B685F1AB846A74212D836
:102F40002B6842469C463000614403F0E3FBA742F5
:102F50000BD36B691B196B61EB691B19EB612000CB
:102F600080BCB846F0BDA046EAE730004346296879
:102F70004044E21A03F0CEFBEBE70024EFE7C04643
:102F800070B50025002429002000032200F0FEFA7D
:102F90002000E91C01340322C9B20635E4B200F076
:102FA00007FBEDB2082CEED170BDC046F0B5CE46A1
:102FB000474680B5062083B00E0000F00BFB00F002
:102FC000B9F800230524354D6B76EB76FF33AB76ED
:102FD00000F08CF801280DD1F430013CFF30E4B250
:102FE000FDF790FB002CF3D1002003B0C0BCB94624
:102FF000B046F0BD012000F081FA00283ED101204A
:10300000002EF2D00321002000F0FAF83100002059
:1030100000F024F9002000F0F9F9002000F016FA81
:1030200010235B429946804601241D4FB9443B5D05
:10303000E6B2002B04D04A466300D15A002924D1BD
:103040000134072CF3D10221072000F0D9F8012325
:1030500007205B4201A9019300F0B4F80720E98939
:1030600000F0E4F80720E98900F0F8F8072000F004
:10307000CDF9404646427041C0B2B6E76420FDF744
:1030800041FB0120002EB0D0BCE7300000F0E6F894
:103090000321300000F0B4F8D2E7C0461800002049
:1030A0002800002010B5052000F0C2FA034B0122D1
:1030B00099881868FDF7DAFE10BDC04610000020A0
:1030C00010B50400062000F0B3FA200000F0D0FA9A
:1030D00000F0DCFA0400044B012218689988FDF71F
:1030E000C5FE200010BDC0461000002010B52620EF
:1030F00000F09EFA00F0CAFA0400044B012218689E
:103100009988FDF7B3FE200010BDC04610000020D6
:1031100010B52C2000F08CFA00F0B8FA0400044B33
:10312000012218689988FDF7A1FE200010BDC04655
:103130001000002010B5272000F07AFA0A4B012277
:1031400099881868FDF792FECA2403E0013CE4B2B6
:10315000002C07D00A20FDF7D5FAFFF7D9FF102879
:10316000F4D010BDEA30FCE71000002070B5040078
:10317000402000F05DFAA51D00F088FA20700134AF
:10318000AC42F9D1034B012299881868FDF76EFE15
:1031900070BDC0461000002070B504002820250036
:1031A00000F046FA083500F071FA20700134AC42A4
:1031B000F9D1034B012299881868FDF757FE70BDBD
:1031C0001000002070B505000C00312000F030FA2E
:1031D000280000F04DFA207800F04AFA607800F0FC
:1031E00047FAA07800F044FAE07800F041FA034B87
:1031F000012299881868FDF739FE70BD1000002083
:1032000070B505000C00342000F012FA280000F020
:103210002FFA200000F02CFA034B0122998818683D
:10322000FDF724FE70BDC0461000002070B50500FB
:103230000C00322000F0FCF9280000F019FAE0B28E
:1032400000F016FA200A00F013FA034B01229988C5
:103250001868FDF70BFE70BD1000002070B505006A
:103260000C00332000F0E4F9280000F001FAE0B28D
:1032700000F0FEF9200A00F0FBF9034B01229988C7
:103280001868FDF7F3FD70BD10000020F0B5C646CC
:1032900000B51C4F0124FB7E804603410D00160043
:1032A0001C422CD184400A20FDF72CFAFB7E1C42E4
:1032B000F9D0FB7E3920A343FB7600F0B9F94046F4
:1032C00000F0D6F9F0B200F0D3F9300A00F0D0F9EE
:1032D000022000F011FA0024002E07D001342878D3
:1032E000A4B200F0C5F90135A642F7D1064B012280
:1032F00099881868FDF7BAFD80BCB846F0BD8440D7
:10330000D7E7C046180000201000002070B5050067
:103310000C00392000F08CF9280000F0A9F9E0B287
:1033200000F0A6F9200A00F0A3F9022000F0E4F969
:1033300070BDC04670B505000E1E08D000240134D3
:103340002878A4B200F094F90135A642F7D170BDF7
:1033500010B5034B012299881868FDF787FD10BD51
:103360001000002010B504003B2000F061F920009F
:1033700000F07EF900F08AF984B200F087F9054B7D
:1033800000022418012218689988A4B2FDF76EFD86
:10339000200010BD1000002010B504002E2000F009
:1033A00047F9200000F064F9034B0122998818685E
:1033B000FDF75CFD10BDC0461000002070B5040094
:1033C0000E001500002900D170BD3C2000F030F93E
:1033D000200000F04DF9F0B200F04AF9300A00F098
:1033E00047F9012000F088F9002400F04FF901347A
:1033F000A4B228700135A642F7D1034B0122998867
:103400001868FDF733FDDFE71000002010B5040059
:10341000352000F00DF9200000F02AF90A4B0122B6
:1034200099881868FDF722FDCA2403E0013CE4B244
:10343000002C07D00520FDF765F9FFF769FE10287D
:10344000F4D010BDEA30FCE71000002010B50400F5
:10345000362000F0EDF8200000F00AF90A4B0122B6
:1034600099881868FDF702FDCA2403E0013CE4B224
:10347000002C07D00520FDF745F9FFF749FE10287D
:10348000F4D010BDEA30FCE71000002010B50400B5
:10349000382000F0CDF8200000F0EAF80A4B0122B5
:1034A00099881868FDF7E2FCCA2403E0013CE4B205
:1034B000002C07D00520FDF725F9FFF729FE10287D
:1034C000F4D010BDEA30FCE71000002010B5040075
:1034D000302000F0ADF8200000F0CAF8022000F023
:1034E0000BF900F0D3F80400034B01221868998807
:1034F000FDF7BCFC200010BD1000002010B504003A
:10350000412000F095F8200000F0B2F80A4B0122AB
:1035100099881868FDF7AAFCCA2403E0013CE4B2CC
:10352000002C07D01420FDF7EDF8FFF7F1FD10286F
:10353000F4D010BDEA30FCE71000002010B54220A6
:1035400000F076F800F0A2F80400044B012218689D
:103550009988FDF78BFC200010BDC04610000020AC
:1035600070B504004320250000F062F8143500F027
:103570008DF820700134AC42F9D1034B01229988B7
:103580001868FDF773FC70BD1000002070B50600D0
:103590000D001400522000F04BF8300000F068F8E5
:1035A000280000F065F8200000F062F870BDC04609
:1035B00070B506000D001400532000F039F83000FB
:1035C00000F056F8280000F053F8200000F050F802
:1035D00070BDC04610B50400552000F029F8E0B2D7
:1035E00000F046F8A0B2000A00F042F8200CC0B289
:1035F00000F03EF8200E00F03BF810BD10B5192089
:1036000000F016F8022000F077F800F03FF884B2DE
:1036100000F03CF8054B0002241801221868998834
:10362000A4B2FDF723FC200010BDC046100000200E
:1036300030B583B06B460C4CD871A188206801224C
:10364000DD1DFDF713FCA18820680022FDF70EFCAC
:103650006423012229000548FEF784F9022000F0C6
:103660004BF803B030BDC04610000020001A002007
:1036700000B583B06B460122D91D0870642302484F
:10368000FEF770F903B000BD001A002010B582B03B
:103690006B46DC1D0122642321000348FEF756FB24
:1036A000207802B010BDC046001A002010B50400FA
:1036B0000E4B0822196803F06AF8200060220021EE
:1036C0000A3003F030F8200002220021083003F015
:1036D0002AF850236A22A3520232A352044A1E330C
:1036E000E2520122034B1A7010BDC046340600207E
:1036F000DC050000CC060020C3001B18DB0082B0F4
:10370000DB080193019B013B0193002B05D0C046D0
:10371000019B013B0193002BF9D102B07047C046D9
:10372000054B994206D80B684360013302D0016013
:10373000012000E000207047FEFF0008F0B546467B
:10374000D6464F469246C0B560C98146A84601E0BC
:10375000002E19DD6B68504643441F0008373900BE
:1037600004351C00013EFCF7CFFC0028F0D1636853
:1037700022684344494648460F604B608A60E0BC7B
:10378000BA46B146A846F0BD002200230027F1E763
:10379000F0B5C646046847680E00A04600B5002F85
:1037A0000FD0002502E00135BD420AD0616830002B
:1037B000083141440434FCF7A7FC0028F3D1012070
:1037C00000E0002080BCB846F0BDC04630B5254BB7
:1037D00085B002933122002302AC21006360050012
:1037E0002371E27000F0ACFCFF23002802D000F04F
:1037F000C9FC03006A4613713223E37000232100E1
:103800002800237100F09CFCFF23002802D000F068
:10381000B9FC03006A46022101A8537102F00AF8BC
:103820002B79022B0FD0002807D0962128000E4AB2
:10383000490000F0E5FD05B030BDC82128000B4A65
:1038400000F0DEFDF7E7002805D12800074A084907
:1038500000F0F6FAEFE72800034A054900F0F0FA15
:10386000E9E7C04673656C006C6A0008546A00089A
:10387000646A000870B503790400022B0BD0451D63
:103880002800FCF74BFC0B220349281802F042FFEA
:10389000200000F067FE70BD806A0008037910B553
:1038A000054A022B03D0C82100F0AAFD10BD034930
:1038B00000F0C6FAFAE7C0468C6A0008946A00086D
:1038C000037910B5054A022B03D0C82100F098FDFA
:1038D00010BD034900F0B4FAFAE7C0469C6A00083C
:1038E000A46A000870B5104C104B2200050003CBF1
:1038F00003C21B88210013806A230D4A0931D05A64
:1039000000F072FC0023201843722B792200022B56
:1039100004D0C821280000F073FD70BD28000549BF
:1039200000F08EFAF9E7C04690080020AC6A000863
:10393000E4120020B86A0008F0B5C64600B5204B76
:1039400082B000936A46002313712833C35C0600DB
:10395000002B2BD01B4B0124984601271A4D6B4698
:103960002000D91C00F040FC6946300000F0E8FB64
:10397000011E05D00C22280002F009FF43461F70EB
:103980000134A4B21035072CE9D133790F4A022B48
:1039900007D0C821300000F033FD02B080BCB8462B
:1039A000F0BD30000A4900F04BFAF6E70379094A06
:1039B000022BF6D09621490000F022FDEDE7C0462B
:1039C000616E7400CC060020EE120020546A0008DC
:1039D000D06A0008C46A0008F0B5DE4657464E4675
:1039E0004546E0B5244B254F83B0390001901800BF
:1039F0009B4601F06FF83123214D03700C33437067
:103A000029000C22023001F06FF801231D4E3224F0
:103A1000337025339A46173399463C3B9846103508
:103A2000534639000370013001F054F84B460470DE
:103A3000437029000C22023001F056F8434601344D
:103A4000E4B233701035372CEAD1019B1B79022B7D
:103A50000BD05A46C821019800F0D2FC03B0F0BC4C
:103A6000BB46B246A946A046F0BD5A460649019853
:103A700000F0E6F9F2E7C04628080020DC6A0008FA
:103A8000EE120020CC060020E06A0008282370B562
:103A9000C35C0400002B09D10379194A022B15D00D
:103AA00096212000490000F0ABFC70BD154900F0E4
:103AB00047FB051E06D0052102F0CAFE013880B280
:103AC000042808D92379104A022BE9D120000F4994
:103AD00000F0B6F9E9E7280000F06CFB0028F1D00F
:103AE0006A230B4AD05201220A4B1A702379022B07
:103AF000DBD0C8212000084A00F082FCD5E7C04690
:103B0000C46A0008F86A0008046B0008EC6A000840
:103B1000E4120020CC060020546A000810B504000E
:103B200082B001A8022101F0EDFE062220000D491D
:103B300002F0F0FD6B461B790722303363710A49AE
:103B4000A01D02F0E7FD6B4620005B7903223033B5
:103B5000237306490D3002F0DDFD00230F20E373CF
:103B600002B010BD1C6B0008246B00087C6A0008C2
:103B700070B50400084D2800FFF7D0FF23792A0014
:103B8000022B04D0C821200000F03AFC70BD2000B8
:103B9000024900F055F9F9E7100800202C6B0008E5
:103BA0002D21F0B557464E464546DE4689461D391D
:103BB000884644318B462949E0B50300012273272A
:103BC0003D2601258A46264C83B0A0440190110071
:103BD00030311F7059709E70217ED1400D4211D03E
:103BE0004146895C022931D0032924D001291ED005
:103BF0004921D970191D0132072A09D02620053321
:103C00000870E4E749460132D970191D072AF5D139
:103C10000D2301984377033B83770023C3771F204D
:103C200003B0F0BCBB46B246A946A046F0BD552144
:103C3000D970191DDFE75046510189188900415C90
:103C4000022907D04821D970191DD4E75946D970E7
:103C5000191DD0E75531D970191DCCE7B0080020E7
:103C60001800002070B50400084D2800FFF798FFE9
:103C700023792A00022B04D0C821200000F0C0FBC9
:103C800070BD2000024900F0DBF8F9E7B008002021
:103C9000386B00080023282210B503708354443287
:103CA0000371C3708354103A835408328352054B16
:103CB000002203666E23C2540400FCF71DFD80231E
:103CC000E05010BD8013002000232822037083548D
:103CD00044328354103A835408328352014B0366B2
:103CE0007047C0468013002010B50400FCF704FDA7
:103CF0008023E05010BDC046F8B50400FCF70EFA72
:103D00000500032836D9461FA61930001F49FCF7C5
:103D1000FBF9002830D02F1FE71938001C49FCF7A9
:103D2000F3F9002828D038001A49FCF7EDF90028EB
:103D300024D0E81E18492018FCF7E6F9002821D005
:103D400038001649FCF7E0F900281DD03800144966
:103D5000FCF7DAF9002813D030001249FCF7D4F947
:103D600000280DD038001049FCF7CEF9002801D109
:103D70000E4800E00E48F8BD0E48FCE70E48FAE792
:103D80000E48F8E70E48F6E70E48F4E7406B0008E7
:103D9000486B0008506B0008586B00085C6B00080B
:103DA000646B00086C6B0008746B0008086D0008F9
:103DB000446D0008146D0008FC6C0008206D0008BC
:103DC0002C6D0008506D0008F8B54746CE4605003A
:103DD00080B514000F001E00002A29D005221649C4
:103DE00002F098FC8021200002F032FD814683B26F
:103DF00021007A1F281D984602F0C9FC4B46E8189E
:103E00002623037143465C1DA4B221002819013FFB
:103E10007A1A310002F0BBFC3000084902F018FDAC
:103E20000023201880B22B54C0BCB946B046F8BD60
:103E300000210024EBE7C0467C6B0008FF01000076
:103E400070B50400080080210A4D130049000200EB
:103E50002800FFF7B9FF2A0003000749206E02F08F
:103E6000A3FA5E230022E0520633E252083B0132FD
:103E7000E25470BDFC0C0020FF01000010B50400EE
:103E8000FFF704FB0123A340DB43094A5BB2517EE9
:103E9000013C19405176117E60010B401376FF23DF
:103EA0009376002304190348A4000419237110BD5C
:103EB0001800002030090020F8B5076804000E0043
:103EC000002F0FD0380002F0EEFC051E0CD03000A1
:103ED000FCF724F90600020000212800AD1902F0C9
:103EE00022FC25603800F8BD2060FBE7F0B54546B0
:103EF000DE4657464E46E0B50378050085B0032BF5
:103F000067D056D8002B00D172E0012B56D1804BE0
:103F1000994601AB984649464046FFF7CDFF002839
:103F200054D07C4B7C4F9A467C4B02AE9B4620E0A3
:103F300059462000FCF7E8F8002808D0200078490E
:103F4000FCF7E2F800280ED12B79022B0BD03900B8
:103F5000320002F0EDFC011E00D1ABE0280020226F
:103F60003C3002F014FC49464046FFF7A5FF00280C
:103F70002CD03200390002F0DBFC041E26D003787E
:103F8000002B23D05146FCF7BFF80028D0D13200D7
:103F9000390002F0CDFC041E00D18BE0614902F033
:103FA00082FC00281CD06E230022EA546C3B2B714B
:103FB000D9E7042B02D16C230122EA54012005B079
:103FC000F0BCBB46B246A946A046F0BD2B780133F3
:103FD0002B70EB78012B73D02B7801332B70EAE731
:103FE0002000514902F05FFC0028DCD12871BAE7BB
:103FF000474B0191994601AB494618009846FFF797
:104000005BFF041E56D0C0224849D20002F02BFCB0
:1040100000284FD0464B02AE2000320019009A46CD
:1040200002F086FC041E45D04249FCF76DF80028DA
:1040300065D10023EB7051463200002002F078FC7D
:10404000011E37D06F1D2022380002F0A0FBEC7853
:10405000002C24D13F21380002F083FB00281ED021
:1040600043780470002B1AD0334F03AC2200390080
:10407000013002F05DFC002811D028239B465B46EE
:104080005946EB5C5A1C0A339B00EB186A54586083
:1040900022003900002002F04BFC0028EFD1320052
:1040A0005146002002F044FC002803D02B78013355
:1040B0002B7030E700236C222B700020AB547EE77E
:1040C000134901A8FFF7F8FE002885D01A4F03AC6A
:1040D0002200390002F02CFC002800D17CE72826C1
:1040E000AB5D39005A1C0A339B00EB18AA55586087
:1040F0002200002002F01CFC0028F1D16CE7200017
:104100000E49FCF701F8002893D10123EB7092E7E8
:10411000806D0008606D0008F86C0008046C0008F1
:104120006C6D0008F46B0008FC6B0008E86B00087D
:104130005C6D0008746D0008F06B0008786D000875
:104140002823F0B5C75C002F18D02C3000250600BE
:10415000AB00F0580A000378002B07D10BE09C421B
:1041600009D1437801300132002B04D01478002C9F
:10417000F5D13D2B04D00135AF42E9DC0020F0BD84
:104180000130FCE7020010B5C41C00201378002B9E
:104190000CD019003039092909D881004018400095
:1041A0001B18303B0132D8B2A242EFD110BDFF2024
:1041B000FCE7C046002210B5441D0378002B0CD04C
:1041C0001900303909290AD89100521852009B1859
:1041D000303B0130DAB2A042EFD190B210BD0148BD
:1041E000FCE7C046FFFF0000F8B504000E00002801
:1041F00022D0002520000A21FCF71EF82F003031C4
:10420000F15520000A21FBF791FF01352700EDB29F
:1042100084B2092FEED800236C0873550AD06A1EA9
:10422000B2181078F15CF05401331170D9B2013A30
:104230008C42F6D82800F8BD00250870FAE7C04681
:1042400082B0F0B5D6464F464646C0B5050088B0A8
:10425000046E10001700894610921193FBF75EFF61
:10426000804603385C493818FBF74EFF129E8246A1
:10427000002800D19DE03800FFF73EFD0023070035
:10428000984609222000554902F044FA202323725F
:104290004B460934210098B2FFF7A6FF24182000EE
:1042A000FBF73CFF06224E49201802F033FA631D4B
:1042B00018009946FBF732FF0D224844494902F0A5
:1042C00029FA112399462B79A1444846002B5BD14A
:1042D000FBF724FF09224449484402F01BFA4346F5
:1042E0001934002B5BD12000FBF718FF0F223F4948
:1042F00020180E3402F00EFA3900200002F024FAE1
:104300003800FBF70BFF24182000FBF707FF384F9E
:1043100003223900201802F0FDF9A31C180098466A
:10432000FBF7FCFEB6B2112232494044123402F0CF
:10433000F1F921003000FFF757FF24182000FBF7A8
:10434000EDFE390003222018023402F0E3F92000C8
:10435000FBF7E4FE03223900201802F0DBF9286E97
:10436000FBF7DCFE5E23E8520633EE52119B01227E
:10437000AB665C23EA5408B0E0BCBA46B146A84636
:10438000F0BC08BC02B01847FBF7C8FE0D221A4962
:10439000484402F0BFF943461D34002BA3D020004F
:1043A000FBF7BCFE19222018144902F0B3F91834A7
:1043B00099E7434639005A1C684602F0ABF940467B
:1043C00053466844033803706846FFF795FC0123A1
:1043D0000700984655E7C046186C0008DC6B0008DB
:1043E0001C6C0008946B0008246C00085C6C0008CE
:1043F0007C6A0008B86B0008306C0008406C00084C
:10440000F0B5C646046E0F0000B54D490500160014
:104410002000092202F07EF92023237209342100B2
:10442000B8B2FFF7E1FE2418C82F00D17EE0C82300
:104430005B009F4208D12000FBF770FE0922201884
:10444000404902F067F908342000FBF767FE2700B7
:104450000D223D49201802F05DF92B790C37380008
:10446000002B5AD0FBF75AFE0D223849381802F0BB
:1044700051F91834681DFFF73FFC07002000FBF7D7
:104480004DFE0F22324920180E3402F043F9390054
:10449000200002F059F93800FBF740FE24182000F4
:1044A000FBF73CFE2B4F03223900201802F032F9B3
:1044B000A31C18009846FBF731FE11222649404400
:1044C00002F028F93000FBF729FE1234210080B2F7
:1044D000FFF78AFE24182000FBF720FE3900032294
:1044E0002018023402F016F92000FBF717FE3900FD
:1044F0000322201802F00EF9286EFBF70FFE5E2350
:10450000E8523000FBF70AFE64230122E852083B20
:10451000AE66EA5480BCB846F0BDFBF7FFFD092249
:104520000E49381802F0F6F81434A3E72000FBF720
:10453000F5FD062220180A4902F0ECF8053483E75D
:10454000DC6B00086C6C0008946B0008306C000891
:104550005C6C00087C6A0008B86B0008246C0008DA
:104560001C6C0008F0B5304C461D050095B03100BC
:104570002000FFF70DF9002821D03200210008A803
:10458000FFF7DCF8089B002B3ED1284C284B22007B
:1045900083CB83C220223100200002F01EF92000CC
:1045A000FBF7BCFD03222349201802F0B3F8CA210F
:1045B000220028004900FFF723FF15B0F0BD3100AD
:1045C0000BA802F0B8F81C49042202F0A3F820005E
:1045D0000BA9FFF7DDF80028D7D021000BAA05A80A
:1045E000FFF7ACF8059B002BCFD021000BAA08A841
:1045F000FFF7A4F80A9BC821039300932800089AA8
:10460000099BFFF71DFED8E7320021000BA8FFF73A
:1046100095F80D9BC8210393009328000B9A0C9BDF
:10462000FFF70EFEC9E7C04678130020CC0C00202F
:10463000786C00087C6A0008186C0008F8B5046EF5
:104640000E001700254909220500200002F062F83B
:1046500020232372093421006520FFF7C5FD2418AB
:10466000162220001E4902F055F8200015221D498F
:10467000163002F04FF8200016221B492A3002F0B3
:1046800049F820001722194955343F3002F042F80A
:10469000220030233900300001F0F2FD24180028F8
:1046A00012DD05222000124902F034F82B6E04348A
:1046B000E41A5E236422EC5200230020AB52AB6666
:1046C000633A5C33EA54F8BDC8212800094A49001E
:1046D000FFF796FE01204042F5E7C046DC6B00087C
:1046E000846C00089C6C0008B46C0008CC6C00085A
:1046F000E46C0008EC6C0008F0B54546DE46574611
:104700004E46E0B5847E050064B283B0002C06DC22
:1047100003B0F0BCBB46B246A946A046F0BDFBF7CD
:10472000EBFFD44B671E9A467B01D9190093534681
:1047300089005E18330080331860143B1B78002B0F
:104740007CD033005C331B78002B7ED132790B0098
:10475000022A00D1E0E0053353449B46C64B2A00B1
:10476000994600231D003300A0465E464C469B46FA
:10477000914620223000216802F045F8002800D13F
:10478000E1E0013508340A2DF3D1584644464D4640
:10479000FFF7E8FEEB7E2341DB0707D5009BDB1923
:1047A0009B0053446C331B78002B52D1009BDB19C8
:1047B0009B0053441A006D3212789442A8D16C3396
:1047C0001B78002BA4D101230126AC4AAC4D1178F3
:1047D00058B2002903D0297E19410E4205D1013378
:1047E0008432082BF3D101204042009BA8769C46DE
:1047F00053466744BF00DD192E79002E00D087E7AD
:10480000E4B22000FEF742FE2000FFF737FB5346DC
:10481000DE552B0028331E7044331E70103B1E7073
:104820001E81984B00222B662B006E332E71EE708A
:104830001A70FBF761FF8035286069E76D36EB7E03
:1048400033789C4200D063E7BDE7EB7E2341DB0772
:10485000ACD5009BDB199B0053441A005C321278E4
:10486000012A7CD0022A00D052E764331B88864993
:10487000E2B291461A1C8B4200D90A1C93B29846A8
:10488000009B4246DB199B0001935344996E4846B6
:104890001E00FEF7FBFC0123A340DB435AB2642356
:1048A0009B46774DB344E97E5B461140E97641462D
:1048B0001B885B1A59469BB20B80B16E4144B166AE
:1048C000002B00D072E731798846002900D1DDE065
:1048D000697E0A406A76FF22AA76524601995354AD
:1048E00032002832137044321370103A1370654B43
:1048F000336601230126614A117858B2002903D09A
:10490000297E19410E4205D101338432082BF3D19F
:1049100001204042A87649E76C329046B0444246B6
:104920001278002A00D016E73C315144080089462D
:10493000FBF7F4FB494602003000FFF77FFE01233E
:104940004246137026E74446A8464B4A43469446DF
:10495000DB00634458465B684D4698471AE71A00E7
:104960005E321188484A64331B88521A95B2181C6B
:10497000AB4200D9101C83B29846E3B24144180000
:1049800089B29946FEF7C2FC009BDB199B009B464F
:1049900053441E005E331988306EFEF7CBFC41464F
:1049A000B06EFEF7C7FCFEF7D3FC0123A340DB4348
:1049B000334D5BB2EA7E40461A40EA766422944662
:1049C000B44461460A880191121A92B20A80B16E0B
:1049D0004144B166002A2AD13179884600292AD07B
:1049E00031006E31087802286ED0697E0B406B76FC
:1049F000FF235946AB7653465A54330028331A7076
:104A000044331A70103B1A701E4B33660123012683
:104A10001A4A117858B2002904D0297E19410E4251
:104A200000D077E701338432082BF2D170E70223FC
:104A30005C363370BAE64846FFF720FA41465346E3
:104A40005A46995433002833197033006C33197067
:104A5000103B1970019B002219800A4B317133669B
:104A600033006E33F1701A70FBF746FE803630600B
:104A7000CCE7C04630090020380600209C09002001
:104A80001800002080130020460500004846FFF76C
:104A9000F5F941465346019A317199543300283350
:104AA000197033006C331970103B19705B46198014
:104AB000074B0022336633006E33F1701A70FBF738
:104AC0001BFE8036306014E703230B709EE7C04660
:104AD0008013002002E00370013101300B78002BBD
:104AE000F9D10023037070470B7810B5002B0DD05F
:104AF000002A0BD0821894B202E082B2A24205D002
:104B000003704B7801310130002BF6D10023037084
:104B100010BDC046F8B54546042388464344DE46EA
:104B20009B46032357464E464344E0B581469A468A
:104B3000002543461E78002E12D14B463022681CB9
:104B4000C0B25A55D04533D04B462E221A540123B9
:104B50009C46451CE044EDB2D845EAD128002AE045
:104B6000002430000A21FBF767FB2F004B46303151
:104B7000D95530000A21FBF7D9FA01350134370045
:104B8000EDB2C6B2E4B2092FEBD860080DD0002315
:104B90002C1B6A1E4A444C441178E65C013A56705C
:104BA000E1540133D9B28142F6D32800D045CBD1AC
:104BB00000234A461354F0BCBB46B246A946A04661
:104BC000F8BDC0460A4B10B5C154012907D03F3B80
:104BD000C15A043B0022C058FCF748F910BDC3235A
:104BE0009B00C15A043B0122C058FCF73FF9F5E78E
:104BF0004B03000010B500210400FFF7E3FFC023C2
:104C00009B00E35C002B08D1C12380229B00210084
:104C1000E0585200FEF7A2F810BDC1238022611CAB
:104C20009B00E058FF315200FEF798F8F4E7C046C9
:104C3000C12370B5040000269B001422C0180D008B
:104C400001F068FD0D4BE654463BE358E9685C62B1
:104C5000C6239B002A8AE0180023FEF70DF9D22311
:104C600000259B00E652064B0021E5542000FFF78B
:104C7000A9FFC0239B00E55470BDC0464A03000055
:104C80004B030000F0B5C64604008846160000B588
:104C9000002A0AD180214046490001F0D9FD86B2A0
:104CA000002802D180BCB846F0BDFBF725FD124FAD
:104CB000050004E0FBF720FD401B632818D8E35DE6
:104CC000012BF7D020000121FFF77CFF80239B0000
:104CD000E51832004146280001F01CFD0122064B78
:104CE0002900E254463B3200E058FDF761FBD9E76A
:104CF000E35D012BD6D0E5E74A03000070B5040060
:104D0000D220154B80001600E35C225C934216D043
:104D1000072313409D33FF335B001D5B0132225498
:104D20002A1CB54209D8C6239B0092B2E018FEF7B0
:104D3000EFF82800B54205D870BD321CF3E701201A
:104D40004042F9E7CB239B00E558801B4019E05017
:104D500001204042F0E7C0464903000070B5164DFF
:104D6000426A2B680C00934200D070BDC0229200B2
:104D70009A5C002A1CD000215E1CFF36C0229200E3
:104D800099541800FFF736FF072328680B49425C47
:104D900013409D33FF335B001C52C6239B009C468F
:104DA00001324254220031006044FEF779F8DCE71A
:104DB0001E000121E2E7C0468806002049030000EA
:104DC000064B426A1B6810B5934200D010BD00210B
:104DD000034A18009954FFF7F5FEF7E7880600200C
:104DE0004A030000064B426A1B6810B5934200D08C
:104DF00010BD0021034A18009954FFF7FBFEF7E7A6
:104E0000880600204A0300003F231370323B537092
:104E1000002300209370704770B51600012582B002
:104E200001280AD9486801AA012100F05DF9041E91
:104E300003D1019B013B012B02D9280002B070BDB8
:104E40000221684600F05EFD04223000084901F0AE
:104E500061FC019B00251A006B44013B1B7830323A
:104E6000303333710D23F2707371B471E5E7C046CE
:104E7000846D000870B501230C00150084B0022871
:104E800002D8180004B070BD00230121606802AA96
:104E9000039300F029F9061E08D10221A06803AA95
:104EA00000F022F9029B013B012B01D90123E8E725
:104EB000039A062AFAD80D4901A80C7E04703424FE
:104EC000095D41700221C25400F0B4FC04222800A4
:104ED000074901F01FFC029BAE713033EB70039B5E
:104EE00030332B710D236B710023CAE73C1900206E
:104EF000846D0008F0B50F001600012483B002286D
:104F000002D8200003B0F0BD00230121786801AA77
:104F1000019300F0E9F8051EF3D1019B591E052904
:104F2000EFD80C010F490A3464180C222000B9682C
:104F300001F02DFC05220C49E572300001F0EAFB7E
:104F4000019B210030333371701D01F018FC3000DB
:104F5000FBF7E4F802220549301801F0DBFB0024DE
:104F6000CFE7C046E4120020886D0008906D00086D
:104F700070B51500012482B001280CD900234868BF
:104F800001AA0121019300F0AFF8002803D1019E8E
:104F9000711E052902D9200002B070BD0C010A491A
:104FA0000A3464180522E07208492800303601F0FE
:104FB000B1FB21002E71681D01F0BDFB02220449E6
:104FC00001F0A8FB0024E6E7E4120020886D000849
:104FD000906D0008F8B54746CE460400904680B56F
:104FE000002910D1FBF79AF881B2002926D0237846
:104FF0001A00413A192A0BD93F2B09D0013989B23D
:10500000013400291AD023781A00413A192AF3D81A
:10501000314B324D99462A001D6023781600180046
:105020004138192801D93F2B0ED1013989B20132FB
:10503000337001340029F0D195424AD10120404219
:10504000C0BCB946B046F8BD9542F7D00023012751
:105050000026501C13702378202B03D02C2B01D05A
:10506000092B23D1013989B201340029F3D11C4E17
:10507000280031680024FBF747F8002809D00134E4
:105080000436052CDAD028003168FBF73DF80028FB
:10509000F5D1144BA200D358002B05D04246494607
:1050A000F8B298470028C9D12000C9E71A00303A61
:1050B000092ADCD84A4603700139BB00D05089B2B6
:1050C00001300137013406700029D0D0042FC2D13D
:1050D000CDE701271170CAE7FC0D00200C0E00205F
:1050E0008C060020A86D0008F0B50678002E19D0B7
:1050F000002917DD070000250DE0AB005B195B0000
:10510000303B0137F5183E78002E0CD0CC1B04192B
:1051100064B2002C07DD3300303B092BEDD90120B0
:10512000404202E0002500201560F0BD70B504008B
:1051300023780800002B12D1261D91B22371320072
:10514000FFF748FF051E08DB2379002B05D0182147
:10515000300001F07DFB80B26080280070BD012529
:105160006D42FAE7002210B5104B114C1A70A1885D
:1051700020680132FBF77AFEA189A0680022FBF7C4
:1051800075FEA18A20690022FBF770FE0022218CA7
:10519000E069FBF76BFE07490748FFF7BBFC074BCD
:1051A00018700748FCF762FF10BDC046A406002037
:1051B0003C1900201C0E0020401100203C0F002054
:1051C000B819002030B591B01822002105A801F0CF
:1051D000AAFA00211022684601F0A5FA0A230493D6
:1051E000093B07930B93A0231022002402259B0365
:1051F00004A808920E930C950D940F94FBF77AFE79
:105200000723009380230121DB0068460393019567
:105210000294FCF7C9F80448FBF7C4FA0020FBF736
:10522000DBFA11B030BDC04670170000F8B5FF22A0
:1052300000231B491B4F1C4E3B700C004B768A769B
:10524000CA760B760A006A33F55A03200B00103237
:105250000E3410701D8002330132A342F9D10123B4
:10526000CB756D33F35ACB81FDF71CFF6420FBF740
:1052700049FA0E48FDF77AFFFDF782FE6C23F25AD9
:10528000023BF15A0A4B1868FDF790FE0023094AC9
:1052900038701370084A1370084A1370F8BDC0467E
:1052A000180000202D0F0020E4120020240E002002
:1052B0001C0E00202F0F00202E0F00202C0F00208E
:1052C000F0B5DE4657464E464546E0B593B0FEF78C
:1052D00095F90400C30700D5B2E0230700D595E097
:1052E000630700D587E02409A4B2002C14D0BA4B80
:1052F00001259A461C2353449B465346B74E0193BF
:10530000012364089846EFB223420CD1072D03D045
:1053100001358436002CF3D113B0F0BCBB46B24645
:10532000A946A046F0BD3800FEF7D0F843468146B6
:10533000034205D0AB40A84AD17E0B43DBB2D37603
:105340004B465B072CD44B461B070BD50123AB40C8
:10535000A1495BB20A7E1A43D2B20A76CA7E1343CF
:10536000DBB2CB764B46DB06D0D553461A7E012303
:10537000AB4051465BB29A430A764A7E9A434A76DC
:10538000CA7E1343DBB2CB768B7E5BB29D4270D07C
:105390003000FEF77FFC072DBED001358436AFE725
:1053A00001228F4B30001A70FEF79EFC3800FDF78B
:1053B000D9FFC02281B20290031CD200914260D278
:1053C0009BB298465A4619003800FDF7F7FF0022B5
:1053D000019B43441A775B460C3B5B5D0393022BB6
:1053E00059D0032B00D115E1012B00D18EE03800FC
:1053F000FDF7D2FFA7E7FDF779FE794B012845D0ED
:1054000001221A700022774B1A706CE7FEF796F8AB
:10541000754B002837D101221A701B78002B00D160
:105420005EE708A8FEF79CF8704B089A1A60099B83
:105430000193019A6E4B1A600A9A6E4B1A604FE7FD
:1054400008A8FDF7A9FE04ABDB7C04AA967C1B022E
:105450001E43E723614D9B00EF1803E08435BD42F6
:1054600000D13AE7EB8CB342F8D12800FEF712FCEA
:10547000F4E7FF2330008B76FEF70CFC072D8CD170
:105480004AE75D4B9CE700221A7029E700221A7058
:10549000544B187027E733793000002B00D1E7E038
:1054A000FEF712FC6D23424659465448F754FFF765
:1054B0003DFE00289BDB514B5B88002B97D00123DE
:1054C000984642466B33F2544C4B4D495A8892B23F
:1054D000306E01F0A9F9494B01995A885E23F252C6
:1054E00000220633F2524246083BF2544346AB4098
:1054F0004A7E1343DBB24B768B7E5BB2002B01DA24
:105500006BB28B7600233D4A538070E73000FEF784
:10551000C1FB6D23F754029B082B00D867E7019B62
:1055200007A89A8BDB8B904602935B460422191DD9
:1055300001F0F0F84346083B272B00D857E7282214
:105540003049314801F05FF98046031E00D04EE734
:105550006A2203986C33F0542C4B08A80893254B0F
:105560002B494360224B83608A5A83618281828205
:10557000E12252020323026224221C498354016166
:10558000316E0377FDF71CFC5E234246F052039810
:105590000633F252083BF0540300AB4001995BB272
:1055A0000A7E1A43D2B20A76CA7E1A43D2B2CA76A9
:1055B0004A7E1343DBB24B768B7E5BB2002B01DA63
:1055C0006BB28B76380007A9FDF7FCFD3800029915
:1055D000FDF72CFE0BE7C046180000203009002024
:1055E0002D0F00202F0F00202C0F00201C0E00205C
:1055F000200E0020A0060020FF050000CC1800208F
:10560000D0180020C06900083C000020240E0020B3
:10561000E412002033793000002B26D0FEF754FB33
:105620006D23424658467C49F75401F01CF9002886
:1056300021D03379022B03D16E23F35C012B1DD0D3
:1056400059463000FEF752FC00285FD00123AB40E2
:1056500001994A7E1343DBB24B768B7E5BB2002B03
:1056600000DBC4E66BB28B76C1E6FEF713FBD7E72F
:10567000FEF710FB16E7029B002BDAD03200414602
:105680005846703200F028FE002823DD3379022BC3
:1056900037D00223012233716C33F2540123984630
:1056A00042466B33F2540533F35C082B6DD0092B63
:1056B0005DD0012B34D00123AB40584A517E0B43BF
:1056C000DBB25376937E5BB2002B00DB8FE66BB2CE
:1056D00093768CE6424659465148FFF727FD00284D
:1056E00000DA84E64E4B5B88002B00D17FE6012375
:1056F000984642466B33F254494B5A88191D92B270
:10570000E6E66C33F35C012BC3D1C7E73800FDF745
:10571000BDFE3800FEF7B2FB3000FEF7BBFA66E6CE
:10572000FE33B26FFF339A42C5D8716F306E00F00E
:10573000F1FF0023326EB16F53543200B16F306EFF
:105740007C3200F00BFE336EB26F1800354998467C
:1057500001F089F800282AD000213000324AFEF7F3
:105760006FFB6C23F35C002B00D140E6A3E7306EA7
:1057700000F004FE5E230022F0520633F25242464D
:10578000083BF2541033F35CEDE70121306E00F07A
:10579000FBFD5E230022F0520633F2524246083BE4
:1057A000F25402221233F254023BF35CDBE743462D
:1057B0001E4905A80593FEF77FFB002802D16C2344
:1057C000F35CD0E71A4B06AA1900984601F0B0F82E
:1057D0000028F4D0731D029311E04378522B11D1AD
:1057E0008378492B0ED1011D2022029801F01CF86C
:1057F0004146002006AA01F09BF80028DFD003787C
:10580000552BEAD02821735C5A1C0A339B00F318ED
:1058100072545860ECE7C046FC6A0008180000208B
:10582000CC180020BC6D0008C46D00087C6A00081C
:10583000F06B0008F8B54E46DE46574645468146B1
:1058400000230020E0B5002916D001244E46284D43
:1058500004E00133DAB23843914214D9F25CFF2AF2
:1058600003D1DA00D21A9200AA5C2700974038428E
:10587000EFD00120404200E00020F0BCBB46B24621
:10588000A946A046F8BDB1460B1C022900D9022347
:10589000DBB29B46174B0027984606E01C239C462C
:1058A0000137FBB2E0445B45E6D24B46DE5DFF2E9E
:1058B000F4D043461E760123F643454600249A461B
:1058C000F6B2320053462241A98828681A400134B2
:1058D000FBF7CCFA0835032CF3D14346064A1B7E6E
:1058E000D3555246054B1A70054B1A70D6E7C04681
:1058F000541900203C190020EC120020CC06002096
:105900003D0F0020F0B54F46D64646468146C0B50D
:105910000B1C022900D90223DBB2984600291BD0B8
:10592000104B00269A46554600240027A98828686F
:10593000FBF796FA43425841A04001340743FFB2B7
:105940000835032CF2D14B469F551C239C4601364B
:10595000F3B2E2449845E6D8E0BCBA46B146A84660
:10596000F0BDC046641A002010B5002802D0FFF731
:10597000F9FB10BD0548FCF7A7FBFF22044B0221F1
:1059800000201A70FFF756FFF3E7C046B819002051
:10599000A4060020F0B5DE4657464E464546CD4BA0
:1059A000E0B51800CC4A002512CA12C00100CB4A4B
:1059B0008DB011CA11C1CA4ACA4E11CA11C11A000A
:1059C000C9491D761C3211C911C21A00C7492432B7
:1059D00011C911C21A00C6492C3211C911C2342191
:1059E000C4485D54C44B012714CB14C00200C34B00
:1059F00011CB11C2C24B11CB11C2BE4BC14A1D7695
:105A00001C3311CA11C3BB4BBF4A243311CA11C383
:105A1000BE4AB84B2C3311CA11C3B64B07AC5D5408
:105A2000FAF74EFEFFF7CEFB14220021200000F013
:105A30007AFE80217269C9030A43726173699020FA
:105A40000B4080210493049B726989020A437261AE
:105A50007369C0050B4080210593059B7269C902DB
:105A60000A437261736901220B400693069BA84B9F
:105A700019009A46FBF7FAF9A64B01221900A6482D
:105A80009B46FBF7F3F980231B0100221900A24873
:105A90009846FBF7EBF903232100A04807936560C4
:105AA000A560FBF7E9F80223902099460793842329
:105AB00021009B03C0056360A760FBF7DDF8534638
:105AC0009020079311232100C0059A466360E5608A
:105AD000A760FBF7D1F85B460793534621008E4839
