:020000040800F2
:10000000FF0F0020B9360008FD3500080136000852
:1000100000000000000000000000000000000000E0
:100020000000000000000000000000001D36000875
:1000300000000000000000001F3600082136000804
:1000400009370008000000000937000809370008D8
:100050000937000829360008093700080937000861
:1000600000000000093700080937000809370008B8
:1000700009370008093700080937000800000000A8
:1000800009370008000000000000000009370008E0
:100090000000000009370008093700080937000888
:1000A0000000000009370008000000004936000881
:1000B0000000000000000000000000000000000040
:1000C00010B5064C2378002B07D1054B002B02D02E
:1000D000044800E000BF0123237010BD5804002035
:1000E0000000000088390008044B10B5002B03D035
:1000F0000349044800E000BF10BDC04600000000F6
:100100005C0400208839000802780B78002A03D0AC
:10011000013001319A42F7D0D01A70470023C25CF7
:100120000133002AFBD1581E70470000002243080B
:100130008B4274D303098B425FD3030A8B4244D3AF
:10014000030B8B4228D3030C8B420DD3FF220902F1
:1001500012BA030C8B4202D31212090265D0030BB0
:100160008B4219D300E0090AC30B8B4201D3CB03A6
:10017000C01A5241830B8B4201D38B03C01A5241E8
:10018000430B8B4201D34B03C01A5241030B8B42EA
:1001900001D30B03C01A5241C30A8B4201D3CB02D5
:1001A000C01A5241830A8B4201D38B02C01A5241BA
:1001B000430A8B4201D34B02C01A5241030A8B42BD
:1001C00001D30B02C01A5241CDD2C3098B4201D3D5
:1001D000CB01C01A524183098B4201D38B01C01A53
:1001E000524143098B4201D34B01C01A52410309CA
:1001F0008B4201D30B01C01A5241C3088B4201D379
:10020000CB00C01A524183088B4201D38B00C01A25
:10021000524143088B4201D34B00C01A5241411A4C
:1002200000D20146524110467047FFE701B5002059
:1002300000F006F802BDC0460029F7D076E7704707
:100240007047C04610B5040000F0DAFDFA218900BD
:10025000FFF76CFF00F060F801200022210040420F
:1002600000F020F8002010BD10B5064A13681021D8
:100270000B4313600020FFF7E5FF03F037F9002080
:1002800010BDC04600200240024A136801331360CB
:100290007047C046F8060020014B18687047C046FA
:1002A000F806002070B5002811DB8408134DC03417
:1002B000A400625903231840C000FC331E0086408E
:1002C000B24389010B4083401343635170BDC0B2F8
:1002D0000F220240083A920806329200084BD318C7
:1002E0005D6803242040C000FF2214008440A54321
:1002F00089010A4082402A435A60E7E700E100E0B2
:1003000000ED00E01F2318401E3B8340014A1360AC
:100310007047C04600E100E001380A4B98420FD810
:10032000094A50600948036A1B021B0AC0210906DA
:100330000B43036200239360073313600020704770
:100340000120FCE7FFFFFF0010E000E000ED00E00F
:1003500010B52123C35C022B03D004238363012047
:1003600010BD026813680E218B43136001680A6890
:1003700001239A430A60C26B1900046CA1405160CA
:10038000212283541F330022C254436B002B02D01E
:1003900098470020E4E70020E2E7000010B5054B95
:1003A0000022DA61044A13690124234313610180A6
:1003B00010BDC04600070020002002400C4BDB6847
:1003C000DB0613D50B4AD36902210B43D3611023FB
:1003D000074AD268520706D50649CA690120024376
:1003E000CA6104221343024AD36070470023EFE737
:1003F0000020024000070020084B1B691B060BD59C
:10040000064B074A5A60074A5A601B691B0601D50A
:10041000012002E0002000E00020704700200240A0
:1004200023016745AB89EFCD034A136980210B4354
:10043000136100207047C0460020024070B50400E0
:10044000FFF72AFF0500134BDB68DB070AD5631CA7
:10045000F9D0002C19D0FFF71FFF401BA042F2D9A2
:10046000032011E00B4BDB689B0602D5094B2022D1
:10047000DA60084BDB68DB0603D4064BDB685B07FE
:1004800005D5FFF79BFF012070BD0320FCE700208E
:10049000FAE7C04600200240F0B5C64600B50400A9
:1004A0000D0090461E00214B1B7E012B3BD01F4BA5
:1004B00001221A761E48FFF7C1FF00282DD1012C1A
:1004C00006D0022C02D0042700241BE00227FBE701
:1004D0000127F9E72022D21A310091400A00414653
:1004E000D940114389B24019FFF758FF1048FFF770
:1004F000A5FF104A136901218B43136100280CD119
:100500000134E4B2BC4208D26000230120225242EE
:100510009A18DFD43100D140E4E7044B00221A7668
:1005200004BC9046F0BD0220FAE7C0460007002058
:1005300050C3000000200240064B0022DA61064B47
:100540001A6904210A431A611A693C310A431A6183
:100550007047C0460007002000200240064B0022E2
:10056000DA61064B1A6902210A431A6158611A6955
:100570003E310A431A617047000700200020024004
:1005800070B505000E00244B1B7E012B41D0224B81
:1005900001221A760368012B22D02048FFF74EFF74
:1005A000002831D101235B4233606C680130AB68B5
:1005B0009B026A6894466344A34226D92000FFF751
:1005C000CDFF1648FFF73AFF154A136902218B4306
:1005D0001361002816D18023DB009C466444E6E7C3
:1005E0000E48FFF72BFF002801D001200DE0FFF798
:1005F000A3FF0A48FFF722FF094A136904218B432E
:10060000136102E0346000E00120034B00221A76FF
:1006100070BD0220FCE7C0460007002050C3000068
:1006200000200240F0B5C64600B582B0002338E095
:10063000032600E00026AE4035003D430234A4000E
:10064000554EA551554C25684246D4432E002640B0
:100650004A68D20302D5424615432E004F4D2E6004
:100660006D682E0026404A68920302D54246154323
:100670002E004A4D6E60AD682E0026404A68D202B8
:1006800002D5424615432E00444DAE60ED682C4025
:100690004A68920202D542462A4314003F4AD46077
:1006A00001330A681400DC4071D001259D402A40C6
:1006B0009046F5D04C68022C01D0122C0ED1DC08EB
:1006C0000834A400275807261E40B6000F22B24067
:1006D00097430A69B24016003E43265002685F0005
:1006E00003242600BE40F643324094464A68144034
:1006F000BC406246144304604C68621E012A03D960
:10070000112C01D0122C10D184683440A446CC683E
:10071000BC406246144384604468AC434A68120992
:10072000012515409D4025434560C46826408C68DE
:10073000BC403443C4604A68D200B1D5184DAE699C
:1007400001242643AE61AD692C400194019C9C08B4
:10075000A51CAD00104EAF5903251D40AD000F265E
:10076000AE40B7439026F605B04200D162E70D4E89
:10077000B04208D00C4EB04207D00C4EB04200D16F
:1007800056E7052657E7012655E7022653E702B04C
:1007900004BC9046F0BDC04600000140000401408A
:1007A000001002400004004800080048000C004807
:1007B00003690B4201D1002070470120FCE7002AA9
:1007C00001D1816270478161FCE7704710B5054B2C
:1007D0005B69184200D110BD024B5861FFF7F5FF6D
:1007E000F9E7C0460004014070B582B00400036818
:1007F000DB0726D5AE4B5A680C231340042B18D0C8
:10080000AB4B5A680C231340082B0ED06368012BA6
:100810003CD0002B51D1A64B1A68A6490A401A6059
:100820001A68A5490A401A6036E0A14B5B68DB03F1
:10083000ECD59F4B1B689B0303D56368002B00D14D
:10084000ECE123689B0773D5994B5B680C221A4235
:100850005DD0974B5A680C231340082B53D0E368A4
:10086000002B00D186E0924A136801210B431360EC
:10087000FFF712FD05008E4B1B689B0771D4FFF735
:100880000BFD401B0228F6D90320CAE1884A1168F3
:1008900080235B020B4313606368002B25D0FFF7B6
:1008A000FBFC0500824B1B689B03CAD4FFF7F4FCDA
:1008B000401B6428F6D90320B3E1052B09D07C4BFB
:1008C0001A687C490A401A601A687B490A401A6013
:1008D000E2E7774B19688022D2020A431A6019684E
:1008E000802252020A431A60D6E7FFF7D5FC0500C2
:1008F0006F4B1B689B03A4D5FFF7CEFC401B6428FD
:10090000F6D903208DE16A4B5B68DB03A7D4684B03
:100910001B689B0704D5E368012B01D0012080E10F
:1009200063490B68F82293432269D20013430B609A
:1009300023681B0744D5E369002B2ED05C4A536A19
:1009400001210B435362FFF7A7FC0500584B5B6A7C
:100950009B0735D4FFF7A0FC401B0228F6D90320E3
:100960005FE153490B68F82293432269D200134395
:100970000B60DDE74E4A136801218B431360FFF7DC
:100980008BFC05004A4B1B689B07D1D5FFF784FC05
:10099000401B0228F6D9032043E1454A536A01214E
:1009A0008B435362FFF778FC0500414B5B6A9B0762
:1009B00006D5FFF771FC401B0228F6D9032030E171
:1009C00023685B0700D47FE0394BDB69DB001DD473
:1009D000374AD169802040050143D161D369034082
:1009E0000193019B0125354B1B68DB0510D5A368DE
:1009F000012B21D0002B36D12D4B1A6A01218A43BD
:100A00001A621A6A03318A431A621AE00025EAE779
:100A10002A4A116880235B000B431360FFF73CFCFC
:100A20000600264B1B68DB05E1D4FFF735FC801B75
:100A30006428F6D90320F4E01D4A136A01210B4310
:100A40001362A368002B24D0FFF726FC0600184B86
:100A50001B6A9B0736D4FFF71FFC801B184B98427C
:100A6000F5D90320DDE0052B09D0114B1A6A0121CD
:100A70008A431A621A6A03318A431A62E1E70C4B0D
:100A80001A6A04210A431A621A6A03390A431A626B
:100A9000D7E7FFF701FC0600054B1B6A9B0711D542
:100AA000FFF7FAFB801B064B9842F5D90320B8E00C
:100AB00000100240FFFFFEFFFFFFFBFF0070004041
:100AC00088130000012D33D02368DB0610D563693D
:100AD000012B33D0053351D1544A536B04218B433E
:100AE0005363536BF4318B43A169C9000B435363C8
:100AF000236A002B00D193E04C4A51680C220A4033
:100B0000082A00D18FE0022B4FD0484A1368484989
:100B10000B401360FFF7C0FB0400444B1B689B01B4
:100B20007AD5FFF7B9FB001B0228F6D9032078E03D
:100B30003E4AD3693F490B40D361C5E73B4B5A6BF3
:100B400004210A435A635A6B03390A435A63FFF775
:100B5000A3FB0500354B5B6B9B0706D4FFF79CFBA3
:100B6000401B0228F6D903205BE030494B6BF8228A
:100B70009343A269D20013434B63B9E72B4B5A6BE3
:100B800004210A435A635A6B03398A435A63FFF7B5
:100B900083FB0500254B5B6B9B07A9D5FFF77CFB0F
:100BA000401B0228F6D903203BE0204A1368204965
:100BB0000B401360FFF770FB05001C4B1B689B018B
:100BC00006D5FFF769FB401B0228F6D9032028E071
:100BD000164BDA6A0F218A43E16A0A43DA625A68DD
:100BE00015490A40A16A606A01430A435A601968BC
:100BF000802252040A431A60FFF74EFB04000B4B9D
:100C00001B689B0106D4FFF747FB001B0228F6D99F
:100C1000032006E0002004E0002002E0012000E0C4
:100C2000002002B070BD0120FBE7C046001002406A
:100C3000FFFFFFFEFFFFFFEFFFFFC2FF30B589B0F0
:100C400004AA174B180032C832C2110002680A60A9
:100C50006A46103313CB13C21B681360114B5A68DA
:100C60000C231340082B19D1910C0733194004A809
:100C7000445C0C49C96A0B406946C95CD30308D47B
:100C800063011B1B9801C01AC0000419200209B09F
:100C900030BD0548FFF74AFA6043F8E70248F6E737
:100CA000A03900080010024000127A0070B505005B
:100CB0000C004D4B1A68012313408B420BD24A495A
:100CC0000B680122934323430B600B681A40A24236
:100CD00001D0012070BD2B689B0706D5434A53689D
:100CE000F0218B43A9680B4353602B68DB074BD57E
:100CF0006B68012B20D0022B24D03C4A126892074B
:100D00006FD53A494A680320824313434B60FFF78B
:100D1000C3FA06006B68012B1AD0022B26D0334B86
:100D20005B680C221A422FD0FFF7B6FA801B304BBB
:100D30009842F4D90320CDE72C4A12689203E0D4FC
:100D40000120C7E7294A12689201DAD40120C1E7DD
:100D5000264B5A680C231340042B15D0FFF79CFA3E
:100D6000801B234B9842F3D90320B3E71F4B5A68EB
:100D70000C231340082B07D0FFF78EFA801B1C4B67
:100D80009842F3D90320A5E7174B1A6801231340B3
:100D9000A3420BD914490B680122934323430B60F0
:100DA0000B681A40A24201D0012093E72B685B0731
:100DB00006D50E4A53680F490B40E9680B43536050
:100DC000FFF73CFF094B5A6812090F2313400A4AE8
:100DD000D35CD840094B18600020FFF733FA00209D
:100DE00078E7012076E7C04600200240001002406C
:100DF00088130000FFF8FFFF003C000854040020A7
:100E0000014B18687047C0465404002010B5FFF726
:100E1000F7FF044B5A68120A07231340024AD35CB7
:100E2000D84010BD00100240103C000870B582B0E0
:100E300004000368DB0335D53C4BDB69DB0048D499
:100E40003A4AD169802040050143D161D36903400A
:100E50000193019B0125364B1B68DB053BD5334BCA
:100E60001B6AC0229200134013D061680A409A4264
:100E70000FD02E4B186A2F4A02401E6A8021490269
:100E800031431962196A2C4E314019621A62C30744
:100E900035D4264A136A27490B4061680B43136215
:100EA000012D3BD02368DB0706D5204A136B0321B5
:100EB0008B43A1680B43136323689B0633D51B4AFE
:100EC000136B10218B43E1680B431363002002B0C6
:100ED00070BD0025BFE7164A116880235B000B43F5
:100EE0001360FFF7D9F90600114B1B68DB05B6D478
:100EF000FFF7D2F9801B6428F6D90320E7E7FFF754
:100F0000CBF90600094B1B6A9B07C2D4FFF7C4F953
:100F1000801B0A4B9842F5D90320D8E7D3690849CA
:100F20000B40D361BEE70020D1E7C046001002406D
:100F300000700040FFFCFFFFFFFFFEFF8813000072
:100F4000FFFFFFEFF8B506000C0017001D003EE0A4
:100F5000002D05D0FFF7A0F9069BC01AA84236D392
:100F600032685368E0218B43536082235B007268D0
:100F70009A420CD080239B01B26A9A4216D05D231C
:100F80000122F254013B0022F254032027E0B3680F
:100F900080221202934203D08022D2009342E9D1F0
:100FA0003268136840218B431360E3E732681368AB
:100FB0000B490B4013603268116880239B010B437F
:100FC0001360DCE70123BB4208D06B1CC0D133683F
:100FD0009B682340A342F5D00023F4E70020F8BD2E
:100FE000FFDFFFFFF0B583B007000C0015001E0007
:100FF00001E0731C10D13A6893682340AB4245D09E
:10100000C023DB009C42F4D1002DF2D1137BDBB274
:101010006A46D371D379ECE7002E05D0FFF73CF98F
:10102000089BC01AB042E6D33A685368E0218B436C
:10103000536082235B007A689A420CD080239B0124
:10104000BA6A9A4216D05D230122FA54013B00226B
:10105000FA5403201BE0BB6880221202934203D0A3
:101060008022D2009342E9D13A68136840218B4331
:101070001360E3E73A68136806490B4013603A6867
:10108000116880239B010B431360DCE7002003B051
:10109000F0BDC046FFDFFFFF70B582B004000D0059
:1010A0001600C02100922B0000224901FFF79AFF91
:1010B000002818D100962B00002280212000FFF785
:1010C00041FF002816D1C02100962B000022C90044
:1010D0002000FFF787FF00280AD0236E2022134349
:1010E0002366032004E0236E20221343236603209B
:1010F00002B070BD236E2022134323660320F7E75E
:1011000070B582B004000D00160082235B004268B7
:101110009A420FD000962B00002280212000FFF77A
:1011200011FF002815D182235B0062689A4216D015
:1011300002B070BD836880221202934203D08022E5
:10114000D2009342E6D12268136840218B4313609A
:10115000E0E7236E2022134323660320E8E7A36819
:1011600080221202934203D08022D2009342DFD128
:10117000C02100962B000022C9002000FFF732FF9B
:101180000028D5D0236E2022134323660320CFE707
:1011900010B5041E5ED0002383625D33C35C002B58
:1011A0004CD05D230222E2542268136840218B4315
:1011B0001360E368E022D200934245D90022F02177
:1011C00009018B4205D0E021C9008B4201D00021EA
:1011D000A162216B002905D1E021C9008B4236D9DB
:1011E000022323636368A1680B4321690B43616990
:1011F0000B4380218900A06901400B43E1690B4347
:10120000216A0B432168A06A03430B60618B0423AE
:101210000B40616A0B43616B0B43E1680B43216830
:1012200013434B602268D3690B490B40D361002301
:1012300023665D330122E254002010BD5C3300229E
:10124000C25402F06BF9ACE780225201B7E70123E8
:101250002363C7E70120F0E7FFF7FFFFF0B585B094
:1012600004000D0016001F005C23C35C012B00D19D
:10127000D4E05C230122C254FFF70EF801905D23F5
:10128000E35C012B08D002205D230122E254013BE4
:101290000022E25405B0F0BD002D00D1B4E0002ED4
:1012A00000D1B3E05C330322E25400232366A5633C
:1012B000A687E68723644132A3520232A3522365F4
:1012C000E36480231B02A2689A421CD023681A6838
:1012D000520603D41A6840210A431A60E023DB0057
:1012E000E2689A4233D96368002B03D0E38F9BB244
:1012F000012B14D123682A88DA600235E38F013B81
:101300009BB2E3870BE0226811688023DB010B436B
:101310001360DBE7002F00D17AE07B1C0FD1E38F55
:101320009BB2002B58D023689A689207F2D52A887E
:10133000DA600235E38F013B9BB2E387EFE7FEF70C
:10134000ABFF019BC01AB842E9D303209CE7636856
:10135000002B03D0E38F9BB2012B21D1E38F9BB2F3
:10136000012B08D923682A88DA600235E38F023B13
:101370009BB2E38714E02B7822681373E38F013B61
:101380009BB2E38701350BE02A781A73E38F013BA8
:101390009BB2E387013503E0002F3BD07B1C13D1C8
:1013A000E38F9BB2002B17D023689A689207F3D57E
:1013B000E28F92B2012AE7D92A88DA600235E38FF8
:1013C000023B9BB2E387EBE7FEF766FF019BC01A87
:1013D000B842E5D3032057E7019A39002000FFF710
:1013E0005BFE002801D020232366A368002B06D1D2
:1013F00003932368DA6803929B680393039B236E2D
:10140000002B09D100203FE701203DE701203BE709
:10141000032039E7032037E7012035E7022039E7C9
:10142000F0B583B004000E0017001D005C23C35C00
:10143000012B00D142E15C230122C254FEF72CFFB4
:1014400001905D23E35CDBB26268012B14D0822142
:1014500049008A4208D002205D230122E254013B68
:101460000022E25403B0F0BDA268002A00D01BE1C4
:10147000042B01D00220EFE7002E00D116E1002F4F
:1014800000D115E1002D00D114E15D23E35C042BB4
:1014900002D05D230522E2540023236627644622FE
:1014A000A552023AA552A663E587A587E3642365A2
:1014B000E023DB00E2689A4204D84623E35A9BB259
:1014C000012B22D9226853687D490B405360236861
:1014D0001A68520603D41A6840210A431A60E023AE
:1014E000DB00E2689A4252D96368002B03D0E38F95
:1014F0009BB2012B07D123683288DA600236E38F72
:10150000013B9BB2E38701251BE0226851688023E1
:101510005B010B435360DAE74623E35A9BB2002B8F
:101520000CD023689A68D20708D5DB683B80023765
:101530004622A35A013B9BB2A3520125089B0133CB
:101540001CD1E38F9BB2002B05D14633E35A9BB2EB
:10155000002B00D19AE0002DDED0E38F9BB2002B50
:10156000DAD023689A689207D6D53288DA600236D4
:10157000E38F013B9BB2E3870025CDE7FEF78CFEAE
:10158000019BC01A089B9842DBD3032064E7636881
:10159000002B03D0E38F9BB2012B0BD1E38F9BB2C7
:1015A000012B09D923683288DA600236E38F023BC7
:1015B0009BB2E38701252EE0337822681373E38F13
:1015C000013B9BB2E3870136F4E732781A73E38F6D
:1015D000013B9BB2E387013600254623E35A9BB2C9
:1015E000002B15D023689A68D20711D54622A25A3B
:1015F00092B2012A37D9DB683B8002374622A35AD0
:10160000023B9BB2A352A35A9BB2012B23D90125C3
:10161000089B013331D1E38F9BB2002B04D14633B9
:10162000E35A9BB2002B31D0002DD6D0E38F9BB272
:10163000002BD2D023689A689207CED5E28F92B25F
:10164000012AC2D93288DA600236E38F023B9BB2AC
:10165000E3870025C1E72268516880235B010B43C3
:1016600053600125D4E71B7B3B704622A35A013B04
:101670009BB2A35201370125CAE7FEF70DFE019B7D
:10168000C01A089B9842C6D30320E5E6019A089940
:101690002000FFF701FD002801D020232366236EE0
:1016A000002B09D10020D7E60220D5E60120D3E6A1
:1016B0000120D1E60120CFE60120CDE60220D1E6CF
:1016C000FFEFFFFFF0B585B004000D0016001F000E
:1016D00082235B0042689A4217D05C23E35C012BB3
:1016E00000D1B1E05C230122E254FEF7D5FD039066
:1016F0005D23E35C012B14D002205D230122E25420
:10170000013B0022E25405B0F0BD8368002BE4D118
:101710005D330422C254009733000A00FFF780FEB5
:10172000F1E7002D00D185E0002E00D184E05C338C
:101730000422E2540023236625644032A65202327A
:10174000A652A363A387E387E3642365E023DB005A
:10175000E2689A4217D9226853683C490B405360AB
:1017600080231B02A2689A4214D023681A6852068A
:1017700003D41A6840210A431A60E023DB00E268C0
:101780009A4211D92EE02268516880235B010B43F5
:101790005360E5E7226813682D490B401360E4E7C6
:1017A000002F4BD07B1C11D14623E35A9BB2002B58
:1017B00032D023689A68D207F2D51B7B2B70013593
:1017C0004622A35A013B9BB2A352EDE7FEF764FD0C
:1017D000039BC01AB842E7D303208EE7002F2FD017
:1017E0007B1C11D14623E35A9BB2002B14D02368F3
:1017F0009A68D207F2D5DB682B8002354622A35ABD
:10180000013B9BB2A352EDE7FEF746FD039BC01AD6
:10181000B842E7D3032070E7039A39002000FFF7AE
:101820006FFC002801D020232366236E002B09D1F2
:10183000002062E7012060E701205EE703205CE70B
:1018400003205AE7012058E702205CE7FFEFFFFF83
:10185000FFBFFFFF0268136806490B401360026870
:1018600093682331FF318B4393606A232022C25453
:101870007047C046DFFEFFFF70477047704710B5E6
:10188000406A00235A228352083A8352FFF7F6FF38
:1018900010BD000010B5040083680269134342695B
:1018A0001343C269134301680A685C48024013434A
:1018B0000B60226853685A490B40E1680B43536040
:1018C000A269236A1A4321688B6856480340134370
:1018D0008B60554B1A6B03231340012B26D0002B32
:1018E00005D0022B24D0032B24D0102300E00023AA
:1018F00080221202E16991421ED0022B00D16FE0DA
:101900005ED9042B00D179E0082B00D084E0636815
:10191000580880231B029C4660446168FEF706FC61
:1019200023680004000CD86000202EE00423DFE7C9
:101930000823DDE70223DBE7022B27D00FD9042B96
:101940002FD0082B39D16368580880235B029C464E
:1019500060446168FEF7EAFB83B200200CE0002BD4
:101960002BD1FFF753FA400063685B08C018616829
:10197000FEF7DCFB83B200200F22190091435B10BD
:10198000083A13400B432268D36010BD63685808BF
:10199000264B9C4660446168FEF7C8FB83B200207A
:1019A000EAE7FFF74BF9400063685B08C01861681D
:1019B000FEF7BCFB83B20020DEE701200023DBE75B
:1019C000002B29D1FFF722FA63685B08C018616811
:1019D000FEF7ACFB23680004000CD8600020D4E7BD
:1019E00063685808124B9C4660446168FEF79EFB92
:1019F00023680004000CD8600020C6E7FFF71EF93A
:101A000063685B08C0186168FEF790FB23680004F8
:101A1000000CD8600020B8E70120B6E7F369FFFFAB
:101A2000FFCFFFFFFFF4FFFF001002400024F4008F
:101A300000127A00436ADB0706D5026853682C4916
:101A40000B40816A0B435360436A9B0706D50268CB
:101A5000536828490B40C16A0B435360436A5B07D4
:101A600006D50268536824490B40016B0B43536051
:101A7000436A1B0706D50268536820490B40416B37
:101A80000B435360436ADB0606D5026893681C4922
:101A90000B40816B0B439360436A9B0606D502683B
:101AA000936818490B40C16B0B439360436A5B0614
:101AB0000BD50268536814490B40016C0B4353600B
:101AC00080235B03026C9A420AD0436A1B0606D548
:101AD000026853680D490B40816C0B43536070479B
:101AE000026853680A490B40416C0B435360ECE7B2
:101AF000FFFFFDFFFFFFFEFFFFFFFBFFFF7FFFFF7D
:101B0000FFEFFFFFFFDFFFFFFFFFEFFFFFFFF7FF2D
:101B1000FFFF9FFF0023C366202269214254013149
:101B200042544832835400207047000010B5041E10
:101B300030D06923C35C002B22D069232422E254D5
:101B40002268136801218B4313602000FFF7A2FE77
:101B5000012814D0636A002B18D1226853680E49FB
:101B60000B4053602268936808218B43936022687E
:101B7000136807390B4313602000FFF7CBFF10BD3C
:101B800068330022C25401F0FDFCD6E72000FFF7C5
:101B900051FFE2E70120F2E7FFF7FFFF6923C35C93
:101BA000212B2FD13133C35A9BB2002B11D080236C
:101BB0005B0182689A4218D0C36C5A1CC2641B78BD
:101BC000026813855222835A013B9BB28352002044
:101BD00019E00268136880218B4313600268136860
:101BE00040390B43136000200DE00369002BE3D163
:101BF000C36C1B88DB05DB0D02681385C36C0233E5
:101C0000C364DFE70220704710B502681368402103
:101C10008B43136069232022C254FFF72DFE00205E
:101C200010BD000010B55C23C25A0E33C35C222BDA
:101C300032D103689B8C9BB28021490184688C421D
:101C40000ED0D2B2416D4C1C446513400B705A2229
:101C5000835A013B9BB28352002B0BD0002021E022
:101C600001690029EDD11340426D1380436D0233A9
:101C70004365ECE7026813680B490B401360026888
:101C800093682331FF318B4393606A232022C2542F
:101C9000FFF7F3FD002005E00268936908210B437C
:101CA0009361022010BDC046DFFEFFFF70B5040047
:101CB0000168CB6908680F221A4003D19D0601D53F
:101CC00085065BD48D68002A6ED001222A4003D19C
:101CD00090256D00284267D0DD0706D5C50504D5DF
:101CE00001250D62E16E2943E166990708D5002AB6
:101CF00006D0216802250D62E16E02352943E166B6
:101D0000590708D5002A06D0216804250D62E16E26
:101D1000023D2943E166190709D5810601D4002A4D
:101D200005D0226808211162E26E0A43E266E26E83
:101D3000002A41D09B0601D5830623D4E36E1B07FE
:101D400003D423689B685B0628D52000FFF782FD3B
:101D500023689A6852061DD59A6840218A439A6082
:101D6000636E002B12D0194A5A63606EFEF7F0FAC8
:101D7000002821D0606E436B98471DE02000FFF7DC
:101D800051FF19E02000FFF74DFFD7E72000FFF7D4
:101D900075FD11E02000FFF771FD0DE02000FFF759
:101DA0006DFD0023E36607E01A0601D5020604D4A0
:101DB0005B0601D5430604D470BD2000FFF7EEFE9C
:101DC000FAE72000FFF720FFF6E7C0467F1800087B
:101DD00030B583B001900D0000F09AF81E4B002240
:101DE0005A70DA70FF329A7000241C4800F0BCFA76
:101DF00000F058F8012803D10134E4B2042CF4D9DE
:101E0000042C02D9002003B030BD154800F0ACFA14
:101E1000012000F019FA002804D1022000F052FA43
:101E2000002410E001A800F091F801A800F0A8F843
:101E3000F3E70321200000F0BDF82900200000F0A6
:101E4000CFF80134E4B2032CF3D9002000F0A0F95C
:101E5000002000F0BFF9D6E708000020A0860100AE
:101E6000400D030010B5052000F040FA034B99889F
:101E700018680122FEF7A3FC10BDC0460000002038
:101E800010B5012000F032FA00F05EFA0400044BB5
:101E9000998818680122FEF792FC200010BDC04608
:101EA0000000002010B5262000F020FA00F04CFAC7
:101EB0000400044B998818680122FEF780FC20007A
:101EC00010BDC0460000002010B5292000F00EFA19
:101ED00000F03AFA0400044B998818680122FEF7D2
:101EE0006EFC200010BDC0460000002010B52C2064
:101EF00000F0FCF900F028FA0400044B99881868F7
:101F00000122FEF75CFC200010BDC046000000204E
:101F100010B5272000F0EAF90A4B998818680122C9
:101F2000FEF74DFC002400E01C00074800F01CFAFE
:101F3000FFF7DCFF102804D1631CDBB2C82CF3D9F7
:101F4000EA3010BD000000201027000070B5050029
:101F5000222000F0CBF9002406E06E1C287800F067
:101F6000E5F90134E4B23500032CF6D9034B998826
:101F700018680122FEF723FC70BDC0460000002057
:101F800070B50500232000F0B1F9002406E06E1CB6
:101F9000287800F0CBF90134E4B23500032CF6D9EF
:101FA000034B998818680122FEF709FC70BDC046F2
:101FB0000000002070B505000C00342000F096F9F8
:101FC000280000F0B3F9200000F0B0F9034B998825
:101FD00018680122FEF7F3FB70BDC0460000002028
:101FE00070B505000C00332000F080F9280000F0E7
:101FF0009DF9E0B200F09AF9200A00F097F9034B3E
:10200000998818680122FEF7DAFB70BD00000020F5
:1020100070B504000D00160004E0184800F0A4F9A3
:10202000FFF72EFF164BDB78DBB22341DB07F4D53D
:102030001348C3780121A1408B43C370392000F0BD
:1020400055F9200000F072F9F0B200F06FF9300A93
:1020500000F06CF9022000F087F9002405E02878F0
:1020600000F064F901350134A4B2B442F7D3054B52
:10207000998818680122FEF7A2FB70BD10270000A6
:10208000080000200000002070B505000C00392079
:1020900000F02CF9280000F049F9E0B200F046F910
:1020A000200A00F043F9022000F05EF970BD70B51F
:1020B00005000E00002405E0287800F037F901350E
:1020C0000134A4B2B442F7D370BD000010B5034B85
:1020D000998818680122FEF772FB10BD00000020ED
:1020E00070B504003B2000F001F9200000F01EF95B
:1020F00000F02AF985B200F027F980B2000284B21C
:102100006419A4B2034B998818680122FEF757FBA3
:10211000200070BD0000002010B504002E2000F04B
:10212000E5F8200000F002F9034B998818680122B5
:10213000FEF745FB10BDC0460000002070B504004E
:102140000E001500002900D170BD3C2000F0CEF833
:10215000200000F0EBF8F0B200F0E8F8300A00F0F0
:10216000E5F8012000F000F9002405E000F0ECF8AB
:10217000287001350134A4B2B442F7D3034B9988D7
:1021800018680122FEF71BFBDEE7C04600000020B6
:1021900010B50400352000F0A9F8200000F0C6F8C2
:1021A0000A4B998818680122FEF709FB002400E019
:1021B0001C00074800F0D8F8FFF798FE102804D15B
:1021C000631CDBB2C82CF3D9EA3010BD000000203C
:1021D0008813000010B50400362000F087F82000B6
:1021E00000F0A4F80A4B998818680122FEF7E7FA74
:1021F000002400E01C00074800F0B6F8FFF776FE68
:10220000102804D1631CDBB2C82CF3D9EA3010BD0E
:10221000000000208813000010B50400302000F0FA
:1022200065F8200000F082F8022000F09DF800F030
:102230008BF80400034B998818680122FEF7BFFA57
:10224000200010BD0000002010B50400412000F067
:102250004DF8200000F06AF80A4B998818680122AE
:10226000FEF7ADFA002400E01C00074800F07CF8FF
:10227000FFF73CFE102804D1631CDBB2C82CF3D955
:10228000EA3010BD00000020204E000070B50500AF
:102290000C00ED2000F02AF8280000F047F820009C
:1022A00000F044F870BD10B50400EC2000F01EF8FA
:1022B000200000F03BF8FA20800000F055F800F014
:1022C00043F810BD10B50400552000F00FF8E0B23F
:1022D00000F02CF8A0B2000A00F028F8200CC0B2E0
:1022E00000F024F8200E00F021F810BD30B583B0C6
:1022F0006B46DD1DD8710B4CA18801222068FEF7CA
:102300005EFAA18820680022FEF759FA64230122B0
:1023100029000548FEF7A2FF022000F025F803B0CF
:1023200030BDC04600000020B808002000B583B0D2
:102330006B46D91D0870642301220248FEF78EFF08
:1023400003B000BDB808002010B582B06B46DC1D9C
:102350006423012221000348FFF7B4F9207802B07A
:1023600010BDC046B8080020C000084B58600022CD
:102370009A6001321A60054B1B68054A1340012B15
:10238000F9D0024B00221A609A60704710E000E01A
:1023900001000100F0B5CE46474680B583B0070086
:1023A00001924E680D68A946002383604360036074
:1023B0000435013E2B684B441C0008239846A0447A
:1023C00041460198FDF7A0FE002802D0002EEFDC68
:1023D00006E043463B6063684B447B602368BB6018
:1023E000380003B00CBC90469946F0BDF0B583B000
:1023F000070001910468250000267B68B3420AD9D2
:1024000004342368591908310198FDF77DFE00282E
:1024100004D00136F1E7002003B0F0BD0120FBE756
:10242000F0B587B00E0014000568002302930395F1
:1024300001220492019372B6FDF7DEFF01A902A802
:10244000FEF79EF813E0317805AAD154013CA4B2FE
:10245000013601339BB2032B01D8002CF3D12F1D81
:10246000059A002329000220FEF716F83D00002CF3
:1024700002D000230593EEE7FDF7D6FF62B607B062
:10248000F0BD036805E01878087001310133013AA6
:1024900092B2002AF7D1704770B50500441D2000A4
:1024A000FDF73CFE20180B22034901F053F92800E8
:1024B00000F04EFC70BDC046D0390008F8B50400ED
:1024C000144900F067FA05001349200000F062FA91
:1024D0000600002D0CD000280AD0280000F07FFA5A
:1024E0000500300000F07BFA062D01D8062806D939
:1024F00096210A4A4900200000F086FBF8BD010041
:10250000280000F07FFF064AC821200000F07CFB75
:10251000F4E7C046003A0008083A0008183A0008F4
:10252000103A000810B5024AC82100F06DFB10BD3A
:10253000F439000810B5024AC82100F065FB10BD4F
:10254000DC39000870B5050000F0ACFF04000E4E49
:102550000E4B33800F2303403033B370F01C032243
:102560000B4901F0F7F82409E4B23034B471F01DDE
:102570000322084901F0EEF8002373723200C821EB
:10258000280000F041FB70BD74040020736500005A
:10259000C0390008C839000830B583B005001A4BAF
:1025A000009300236A4613714533C35C002B01D0AE
:1025B000012407E09621154A490000F025FB21E09F
:1025C0000134E4B2062C13D8A0B26B46D91C00F03B
:1025D0001CFA6946280000F0DDF9011EF0D0631EE8
:1025E0001B010B4818180130102201F00FF9E7E722
:1025F000612207490748FFF713FF074AC82128004F
:1026000000F002FB03B030BD616E7400E4390008D5
:10261000AC0700200C040020F039000870B505005C
:102620001148002401E00134E4B2052C15D80F490B
:1026300000F0BAFC2300313303703D2343700230B5
:1026400023010B4A99180131102200F0B6FC052C29
:10265000E9D0262303700130E5E7034AC8212800AA
:1026600000F0D2FA70BDC04680040020CC390008CA
:10267000AC07002000230370452283540371C3700C
:1026800043328354103A835408328352014BC36758
:102690007047C04620070020F8B50400FDF73EFD56
:1026A0000500032836D9471FE71923493800FDF7ED
:1026B0002BFD002830D02E1FA61920493000FDF731
:1026C00023FD00282AD01E493000FDF71DFD0028FB
:1026D00026D0E81E20181B49FDF716FD002821D042
:1026E00019493000FDF710FD00281DD017493000B2
:1026F000FDF70AFD002819D015493800FDF704FD43
:10270000002815D013493000FDF7FEFC002811D039
:10271000114800E01048F8BD1048FCE70F48FAE700
:102720000F48F8E70F48F6E70F48F4E70F48F2E7DD
:102730000E48F0E70E48EEE7603A0008683A0008F5
:10274000703A0008783A00087C3A0008843A000899
:102750008C3A0008943A00086C3B00083C3B0008A7
:10276000243B0008543B0008783B0008483B000825
:10277000303B0008F8B506000D000800FDF7CEFC60
:1027800007003468002C07D02900200001F071F800
:10279000051E03D1002333602000F8BD3A0000215C
:1027A00000F0E1FFED193560F6E7000030B585B0C7
:1027B00005000378012B4FD0002B07D0032B00D14D
:1027C000A8E0042B00D1ABE00120ADE00391674904
:1027D00003A8FFF7CFFF041E00D1C1E08022D20082
:1027E000634901F027F8002800D1B9E002AA614945
:1027F000200001F084F8041E00D1B1E05E49FDF72D
:1028000083FC00282DD10023EB7002AA5949002037
:1028100001F075F8002800D1A2E06C1D40220100F3
:10282000200000F0F3FF3F21200000F0B2FFEB7822
:10283000002B06D1002804D00370441C4378002BE1
:102840001BD102AA4B49002001F059F8002800D101
:1028500086E02B7801332B70444903A8FFF78AFFE9
:1028600031E046492000FDF74FFC002802D101234A
:10287000EB70CAE70023EB70C7E701AA40492000CC
:1028800001F03DF80BE04522AB5C591CA954123312
:102890009B00585101AA3A49002001F030F8002865
:1028A000F1D1CEE702AA374901F029F8002857D024
:1028B000354900F0DEFF002801D001232B712B49A0
:1028C00003A8FFF757FF002821D002AA2D4901F0E5
:1028D00016F8041E1BD00378002B18D02B49FDF7E7
:1028E00013FC0028DED02A492000FDF70DFC00284B
:1028F000E5D102AA234901F002F8002830D02B00CC
:10290000583320220100180000F080FFD7E72B7811
:1029100001332B70EB78012B08D02B7801332B700F
:1029200088230122EA54012005B030BD0F4903A8D5
:10293000FFF720FF0028F0D001AA114900F0DFFFC7
:102940000BE04522AB5C591CA95412339B00585133
:1029500001AA0B49002000F0D2FF0028F1D1DCE7EA
:1029600000232B708822AB540020DDE7A83B000831
:10297000B83B0008843B00089C3B0008A03B0008D3
:10298000C03B0008203B0008C43B0008883B00080F
:10299000943B0008F0B54523C75C002F1DD00026EE
:1029A00005E01278002A01D13D2B12D00136B74242
:1029B00011DD330012339B001C580A002378002BD2
:1029C000EFD01578002DECD0AB42EAD101320134C2
:1029D000F4E7601C00E00020F0BD0020FCE710B52B
:1029E0000400002000220AE0810040184100C9B222
:1029F0005B18DBB2303BD8B201340132D2B2022ACA
:102A000002D82378002BEFD110BDF8B504000D00DB
:102A100000270EE07E1CF6B2EF190A212000FDF718
:102A20000BFC303139700A212000FDF77FFB84B2A6
:102A30003700002CEED1EB1900221A70002309E0B8
:102A4000E9180C78FA1A013AAA1816780E70147060
:102A50000133DBB27A089A42F2D83800F8BD0000A0
:102A600082B0F0B58BB006000F00150010921193E4
:102A7000C46F1000FDF752FB033828185849FDF7C2
:102A800043FB002800D185E02800FFF705FE0190F8
:102A90000025002323702000FDF740FB20180922A9
:102AA000504900F057FE202323720934B8B22100A8
:102AB000FFF7ABFF24182000FDF730FB201806229B
:102AC000494900F047FE671D3800FDF727FB38181D
:102AD0000D22464900F03EFE0C373379012B6AD0B7
:102AE0003800FDF71BFB38180922414900F032FE7F
:102AF0001934002D69D12000FDF710FB20180F229A
:102B00003C4900F027FE0E34019D2900200000F012
:102B100032FE2800FDF702FB24182000FDF7FEFA24
:102B20002018354D0322290000F014FEA71C3800A0
:102B3000FDF7F4FA38181122304900F00BFE123478
:102B4000129B9FB221003800FFF75FFF241820007E
:102B5000FDF7E4FA20180322290000F0FBFD0234FF
:102B60002000FDF7DBFA20180322290000F0F2FD17
:102B7000F06FFDF7D3FA7A23F0520633F75204339D
:102B8000119AF2500C3B0122F2540BB0F0BC08BC7D
:102B900002B01847290002A800F009FE02A8FDF7BC
:102BA000BDFA0338002302AA13541000FFF774FD86
:102BB000019001256DE73800FDF7B0FA38180D22B5
:102BC0000F4900F0C7FD1D3493E72000FDF7A6FA7A
:102BD000201819220B4900F0BDFD18348BE7C046C0
:102BE0009C3A0008143B0008A03A0008A83A0008E4
:102BF000C83A0008F03A0008C8390008003B00084D
:102C0000B83A0008D43A0008F0B583B007000E00C7
:102C10000192C46F002323702000FDF77FFA201873
:102C20000922434900F096FD202323720934B0B2F3
:102C30002100FFF7EAFE24182000FDF76FFA2018A4
:102C400006223C4900F086FD661D3000FDF766FA5D
:102C500030180D22384900F07DFD0C363B79012BF0
:102C60005BD03000FDF75AFA30180922334900F0E2
:102C700071FD1934781DFFF70FFD06002000FDF7E8
:102C80004DFA20180F222E4900F064FD0E34310059
:102C9000200000F070FD3000FDF740FA24182000FD
:102CA000FDF73CFA2018274E0322310000F052FDB8
:102CB000A51C2800FDF732FA28181122224900F03D
:102CC00049FD1234019D2800FDF728FA80B2210049
:102CD000FFF79BFE24182000FDF720FA201803229E
:102CE000310000F037FD02342000FDF717FA2018FC
:102CF0000322310000F02EFDF86FFDF70FFA7A2362
:102D0000F8522800FDF70AFA8023F8520433FD50E8
:102D10000C3B0122FA5403B0F0BD3000FDF7FEF980
:102D200030180D22094900F015FD1D34A2E7C046F8
:102D3000143B0008A03A0008A83A0008C83A000866
:102D4000F03A0008C8390008003B0008B83A00080B
:102D5000F0B59FB00600451D29003048FFF746FB3F
:102D6000002816D02A002D4904A8FFF713FB049B66
:102D7000002B22D02A00294918A8FFF70BFB1A9B29
:102D800003930093189A199BC8213000FFF768FE3F
:102D90002BE0290007A800F00AFD07A8FDF7BEF9FF
:102DA00007AB9C46604404221D4900F0D3FC07A9F0
:102DB0001A48FFF71BFB002819D11A4C1A4B2200A6
:102DC00083CB83C240222900200000F0F8FC2000C1
:102DD000FDF7A4F920180322144900F0BBFCCA2116
:102DE000220049003000FFF70FFF1FB0F0BD07AA17
:102DF0000A4904A8FFF7CEFA049B002BDDD007AAEE
:102E000006491BA8FFF7C6FA1D9B039300931B9A64
:102E10001C9BC8213000FFF723FEE6E7A007002037
:102E20009C3A0008A4060020AC3B0008C839000802
:102E3000F0B583B007008678002E2CD08C24744324
:102E40008C3C564BE418C378DBB23341DB0722D508
:102E50008823E35C002B1ED00025062D13D8601DAF
:102E60000195EB004E4A9958402200F0BEFC002824
:102E700002D00135EDB2F0E7019BDA00484B9B1818
:102E80005B6820009847072D07D07823E35C012B6F
:102E900007D0022B4CD003B0F0BD2000FFF758FF45
:102EA000F3E77933E15AAF23DB005B1A9BB2802250
:102EB000A25A151C9A4200D91D1CADB2491989B2FB
:102EC0003000FFF7E1F87A23E15AE06FFFF7EFF8FF
:102ED00084262900A059FFF7EAF8FFF7F7F88022C7
:102EE000A35A5B1B9BB2A352A25994466544A551B9
:102EF000002B03D078230222E254CCE72000FFF716
:102F0000B9FB012301E00133DBB2032BC3D8591E07
:102F10008C225143214A521888321278002AF2D06A
:102F20003A78D2B21A41D207EDD55BB2BB70B2E7A4
:102F30007E33E55A0433E1581A4B9D4201D9AF253F
:102F4000ED002A003000FFF763F88022A35A5B1BD4
:102F50009BB2A3520432A1588C466544A550002B65
:102F600000D098E72000FFF785FB012301E0013343
:102F7000DBB2032B00D98EE7591E8C225143074A3E
:102F8000521888321278002AF1D03A78D2B21A4117
:102F9000D207ECD55BB2BB707DE7C04600050020D0
:102FA000140400207705000002E0037001310130B5
:102FB0000B78002BF9D10370704704E003700131E6
:102FC0000130013A92B20B78002B01D0002AF5D1E2
:102FD0000023037070470000F0B589B0142200216F
:102FE00003A800F0C0FB2B4B59698020C0030143AC
:102FF00059615A6902400092009A59698020800202
:10300000014359615A6902400192019A5A6980212B
:10301000C9020A435A615B690B400293029B00227A
:1030200003211D48FDF7CBFB1C4D002229009020F9
:10303000C005FDF7C4FB012210219020C005FDF75B
:10304000BEFB032303930124049402260596002764
:10305000069703A91048FDF7E5FA03950494059631
:10306000069703A99020C005FDF7DCFA102303930F
:1030700004940594069703A99020C005FDF7D2FAA1
:103080000396074B0493059403A90648FDF7CAFA73
:1030900009B0F0BD00100240001400480306000013
:1030A000000021100004004810B50F480F4B0360CA
:1030B00082235B00436000238360E022D200C26071
:1030C00002220261013A4261802292008261C36160
:1030D000036243628362FA3AFF3AC2620363436364
:1030E000FEF756F810BDC046B80800200030014079
:1030F00010B50948094B036096239B0143600023E8
:103100008360C36003610C2242618361C361036217
:103110004362FEF70BFD10BD480800200038014057
:1031200010B5002200210520FDF7BCF80520FDF7B1
:10313000E9F810BD10B594B02C22002109A800F0C8
:1031400012FB1022002104A800F00DFB1022002128
:10315000684600F008FB0223089301240B940E3309
:103160000C9308A8FDF740FB072304930023059365
:1031700006930793002104A8FDF798FD009403230C
:1031800002936846FDF752FE14B010BD70B5464B71
:1031900046491A0011C911C2454812C812C211008D
:1031A000444A11CA11C100221A7643491A001C323E
:1031B00011C911C241491A00243211C911C2404A31
:1031C0002C3303CA03C3FDF74FF8FFF7B3FFFFF734
:1031D00003FFFFF769FFFFF78BFFFFF7A1FF3948F8
:1031E000394B0360C8235B008380384C6122210087
:1031F000FFF747F92378AA2B54D13548FFF7B4F8E5
:10320000FEF730FE3248FFF7AFF800218020FFF7CD
:103210003DF800218420FFF739F8FF218520FFF7D2
:1032200035F82C4B19882C4B1868FEF7D1FD2B4B29
:10323000187000232A4A13702A4A1370284B1B78EF
:10324000002BDDD1274B1B78002BD9D1234B1B78CA
:10325000002BF3D0244B5B78002BEFD02248FFF7F4
:10326000E7FDEBE72501194BED18681C04221F4907
:1032700000F070FA230031336B710023AB7101341D
:10328000E4B2052CEED9114CAA2323700D4D612216
:1032900021002800FFF7C4F8612221002800FFF771
:1032A000F0F8AAE70024ECE710080020CC3B000867
:1032B000D43B0008DC3B0008E43B0008EC3B000882
:1032C000F43B00080C04002000500008AC0700206C
:1032D00020A10700500400204C040020F406002028
:1032E0000D080020A807002008000020FC3B000873
:1032F000F8B5CE46474680B5FEF7E6FD430702D552
:103300003B4B01221A700009C4B2002C6BD001257E
:1033100037E08C276F438C3F364BFF182800FEF7B1
:10332000DFFE8046344B984200D99846334B99468D
:103330001A0041462800FEF701FF4B46181F404483
:10334000002303713800FFF795F98923FD5449469E
:103350003800FFF72BFA00280AD0294A53780121B8
:10336000A9400B43DBB2537093785BB2002B03DBB5
:103370002800FEF7D1FE18E06BB29370F8E7013534
:10338000EDB2032D2FD86408E307F8D52800FEF727
:1033900043FF0600C30706D51949CB780122AA408E
:1033A0001343DBB2CB707307B3D4330706D514498C
:1033B0000B780122AA401343DBB20B70F306DED573
:1033C0000F4A11780123AB40DB435BB21940117007
:1033D00051780B40537093785BB29D42CFD113006C
:1033E000FF229A70CBE70CBC90469946F8BDC046C8
:1033F0000D08002000050020FF0300000C00002045
:1034000008000020F0B5CE46474680B587B00400DE
:10341000234B187634229954884201D0002438E096
:10342000002836D037E0E9461D4B9C46E200151BCC
:10343000AB0063444D46C0CBC0C5161BB30063440C
:1034400018001E0008362F000ACE0AC704AE03007B
:103450001033370003CB03C7121B930063441F7E56
:10346000012398461A003A404B4699880098FDF788
:10347000A6F97A0843461A40A9880298FDF79FF9F1
:10348000BF0802223A40B1880498FDF798F9013448
:10349000E4B2012CC7D907B00CBC90469946F0BDE8
:1034A0001008002010B58120FEF7FDFE82080123E0
:1034B00013404208D2B2520002210A401343810055
:1034C00004220A4013430209D2B2120110210A4019
:1034D00013438209D2B2520110310A40134340090A
:1034E000C0B2800140221040184310BD82B00A4B88
:1034F000996901221143996199690A400092009AE1
:10350000DA69802149050A43DA61DB690B400193DE
:10351000019B02B07047C0460010024010B588B051
:1035200004001422002103A800F01DF92268134BA7
:103530009A4201D008B010BD114B9969802040011A
:10354000014399619A6902400192019A5A69802166
:1035500089020A435A615B690B400293029BE02394
:103560000393DE3B0493013B0593023306939020C3
:1035700003A9C005FDF756F8DCE7C046003001405E
:103580000010024010B588B004001422002103A8E6
:1035900000F0E9F82268174B9A4201D008B010BD3C
:1035A000154B99698020C001014399619A690240D5
:1035B0000192019A5A69802189020A435A615B6922
:1035C0000B400293029B0C2303930A3B04930133A9
:1035D0000693023B0793902003A9C005FDF722F84C
:1035E000002200211B20FCF75DFE1B20FCF78AFE59
:1035F000D4E7C04600380140001002407047000088
:10360000BFF34F8F034B044ADA60BFF34F8FC046BE
:10361000FDE7C04600ED00E00400FA057047704782
:1036200010B5FCF731FE10BD10B501E0FFF760FEEC
:1036300002210448FDF7BCF80028F7D00220FDF76E
:10364000C5F810BD0004004810B50248FEF72EFB77
:1036500010BDC04648080020114B1A6801210A43DA
:103660001A605A680F4802405A601A680E480240B1
:103670001A601A680D4802401A605A680C480240E5
:103680005A60DA6A0F208243DA621A6B09480240F4
:103690001A635A6B8A435A6300229A607047C04685
:1036A000001002400CB8FF08FFFFF6FEFFFFFBFF13
:1036B000FFFFC0FFECFEFFFF0D4885460D480E4999
:1036C0000E4A002302E0D458C4500433C4188C427C
:1036D000F9D30B4A0B4C002301E013600432A242E1
:1036E000FBD3FFF7B9FF00F011F8FFF74FFDFEE73E
:1036F000FF0F00200000002058040020203C00089C
:10370000580400201C090020FEE7000070B50026C8
:103710000C4D0D4C641BA410A64209D1002600F0EC
:1037200033F90A4D0A4C641BA410A64205D170BDA2
:10373000B300EB5898470136EEE7B300EB589847D3
:103740000136F2E7183C0008183C0008183C000855
:103750001C3C0008002310B59A4200D110BDCC5C7F
:10376000C4540133F8E703001218934200D17047A4
:1037700019700133F9E7020010B51378541C002BBF
:1037800005D1CC5CD4540133002CFAD110BD2200F9
:10379000F3E7C9B20378002B04D08B4200D1704705
:1037A0000130F7E74B42594149420840F7E703002F
:1037B0000A7801311A700133002AF9D17047F0B547
:1037C00004002378002B08D11F00561E934203D01B
:1037D000CD5CE554002D02D1F0BD0134F1E79E42ED
:1037E00001D1A5196F700133F0E7002330B59A427B
:1037F0000AD0013AC45CCD5CAC4204D1934202D001
:103800000133002CF6D1631B180030BD30B5050024
:10381000002A00D130BD0C78013A6B1C2C700131AC
:10382000002C05D19A189A42F4D01C700133FAE7A3
:103830001D00EDE770B50E0005001100300014000A
:1038400000F087F80300844202D8325C002A0DD1D0
:1038500021003200280000F062F8041E06D0421B4E
:103860000021280000F050F8002800D0002420009B
:1038700070BD10B50378002B0FD10B785A4253411D
:103880005B42184010BD0023CA5C002AFAD0C45C19
:10389000944201D10133F7E701300378002BF2D1D4
:1038A0001800EFE7F0B5002804D11068002801D116
:1038B000F0BD20000E000578441C3778002F04D19D
:1038C000002D10D115602800F2E70136BD42F4D179
:1038D000002BEED114600370EAE733000DE00135F0
:1038E000002F03D11C000D002678631C2F78BE42E8
:1038F000F5D1002EF1D0002121701360D8E710B56A
:103900000123FFF7CFFF10BDC9B28218904201D149
:103910000020704703788B42FBD00130F6E7F7B503
:103920000700009101921E0004000D00002B09D138
:103930002000FEBD32000199200000F015F800289B
:10394000F6D0013D009BFC18641BB542F2D2002466
:10395000EEE7030041188B4202D01A78002A01D109
:10396000181A70470133F6E730B50024A24201D19E
:10397000002005E0035D651C0C5DA34201D0181B0F
:1039800030BD2C00F2E70000F8B5C046F8BC08BC1A
:103990009E467047F8B5C046F8BC08BC9E467047C6
:1039A00002030405060708090A0B0C0D0E0F101080
:1039B0000102030405060708090A0B0C0D0E0F107F
:1039C0002673656C323D00000D0A0000616E7400C4
:1039D000696E6465782E68746D6C0000526573655D
:1039E000740D0A0042616420617267730000000078
:1039F0004F4B00005374617475730D0A0000000092
:103A000073656C310000000073656C3200000000CB
:103A10004F4B0D0A00000000496E76616C69640D21
:103A20000A0000002F737769746368002F6765745C
:103A3000616C6C6F630000002F73746174757300A8
:103A40002F726573657400002F7365746C61626515
:103A50006C0000002F6765746C6162656C0000008B
:103A60002E68746D6C0000002E68746D00000000FC
:103A70002E637373000000002E6A73002E706E6751
:103A8000000000002E6A7067000000002E6A70655A
:103A9000670000002E676966000000002E677A004C
:103AA000204F4B0D0A000000436F6E6E6563746912
:103AB0006F6E3A20000000004B6565702D416C6907
:103AC00076650D0A00000000436C6F7365640D0A93
:103AD00000000000436F6E74656E742D456E636F59
:103AE00064696E673A20677A69700D0A0000000009
:103AF000436F6E74656E742D547970653A200000C2
:103B0000436F6E74656E742D4C656E6774683A20F1
:103B100000000000485454502F312E3100000000A6
:103B20003A200000746578742F63737300000000FE
:103B3000696D6167652F6769660000007465787458
:103B40002F68746D6C000000696D6167652F6A7085
:103B5000656700006170706C69636174696F6E2FD6
:103B60006A61766173637269707400007465787459
:103B70002F706C61696E0000696D6167652F706EF2
:103B80006700000020000000436F6E6E656374697B
:103B90006F6E0000436F6F6B69650000474554000E
:103BA000504F5354000000000D0A00004E6F742067
:103BB000466F756E643A2000485454502F00000040
:103BC000260000004B6565700000000000140048EE
:103BD0000100000000000048000400000000004850
:103BE0000002000000000048020000000000004841
:103BF000010000000014004802000000416E740043
:103C0000000000000000000001020304060708098C
:083C10000000000001020304A2
:043C1800E9000008B7
:043C1C00C1000008DB
:103C20000000004810000000000000FF000000003D
:103C30000000000000000000000000000000000084
:103C40000000000000000000000000000000000074
:103C50000000000000000000000000000000000064
:103C60000000000000000000000000000000000054
:104020000000000000000000000000000050000838
:1040300000040000BC3B000899240008243A000852
:10404000BD2400082C3A000845250008383A00082D
:1040500025250008403A000835250008483A0008A0
:1040600099250008543A00081D260008C0A804013C
:084070005000000000127A006C
:04000005080036B900
:00000001FF
