:020000040800F2
:10000000FF0F0020B92F0008292F00082B2F000810
:1000100000000000000000000000000000000000E0
:100020000000000000000000000000002D2F00086C
:1000300000000000000000002F2F0008312F0008F2
:1000400009300008000000000930000809300008ED
:1000500009300008392F000809300008093000086D
:1000600000000000093000080930000809300008CD
:1000700009300008093000080930000800000000BD
:1000800009300008000000000000000009300008EE
:10009000000000000930000809300008093000089D
:1000A00000000000093000080000000009300008CE
:1000B0000000000000000000000000000000000040
:1000C00010B5064C2378002B07D1054B002B02D02E
:1000D000044800E000BF0123237010BD400400204D
:1000E0000000000088320008044B10B5002B03D03C
:1000F0000349044800E000BF10BDC04600000000F6
:10010000440400208832000802780B78002A03D0CB
:10011000013001319A42F7D0D01A70470023C25CF7
:100120000133002AFBD1581E70470000002243080B
:100130008B4274D303098B425FD3030A8B4244D3AF
:10014000030B8B4228D3030C8B420DD3FF220902F1
:1001500012BA030C8B4202D31212090265D0030BB0
:100160008B4219D300E0090AC30B8B4201D3CB03A6
:10017000C01A5241830B8B4201D38B03C01A5241E8
:10018000430B8B4201D34B03C01A5241030B8B42EA
:1001900001D30B03C01A5241C30A8B4201D3CB02D5
:1001A000C01A5241830A8B4201D38B02C01A5241BA
:1001B000430A8B4201D34B02C01A5241030A8B42BD
:1001C00001D30B02C01A5241CDD2C3098B4201D3D5
:1001D000CB01C01A524183098B4201D38B01C01A53
:1001E000524143098B4201D34B01C01A52410309CA
:1001F0008B4201D30B01C01A5241C3088B4201D379
:10020000CB00C01A524183088B4201D38B00C01A25
:10021000524143088B4201D34B00C01A5241411A4C
:1002200000D20146524110467047FFE701B5002059
:1002300000F006F802BDC0460029F7D076E7704707
:100240007047C04610B5040000F070FCFA21890028
:10025000FFF76CFF00F060F801200022210040420F
:1002600000F020F8002010BD10B5064A13681021D8
:100270000B4313600020FFF7E5FF02F0D5FD0020DF
:1002800010BDC04600200240024A136801331360CB
:100290007047C04634080020014B18687047C046BC
:1002A0003408002070B5002811DB8408134DC034D9
:1002B000A400625903231840C000FC331E0086408E
:1002C000B24389010B4083401343635170BDC0B2F8
:1002D0000F220240083A920806329200084BD318C7
:1002E0005D6803242040C000FF2214008440A54321
:1002F00089010A4082402A435A60E7E700E100E0B2
:1003000000ED00E01F2318401E3B8340014A1360AC
:100310007047C04600E100E001380A4B98420FD810
:10032000094A50600948036A1B021B0AC0210906DA
:100330000B43036200239360073313600020704770
:100340000120FCE7FFFFFF0010E000E000ED00E00F
:10035000F0B5C64600B582B0002338E0032600E0C1
:100360000026AE4035003D430234A400554EA55151
:10037000554C25684246D4432E0026404A68D20395
:1003800002D5424615432E004F4D2E606D682E005B
:1003900026404A68920302D5424615432E004A4D34
:1003A0006E60AD682E0026404A68D20202D54246F1
:1003B00015432E00444DAE60ED682C404A68920211
:1003C00002D542462A4314003F4AD46001330A68EA
:1003D0001400DC4071D001259D402A409046F5D0A4
:1003E0004C68022C01D0122C0ED1DC080834A40079
:1003F000275807261E40B6000F22B24097430A69CD
:10040000B24016003E43265002685F0003242600D7
:10041000BE40F643324094464A681440BC406246AF
:10042000144304604C68621E012A03D9112C01D0C8
:10043000122C10D184683440A446CC68BC4062467B
:10044000144384604468AC434A681209012515408E
:100450009D4025434560C46826408C68BC403443B9
:10046000C4604A68D200B1D5184DAE690124264354
:10047000AE61AD692C400194019C9C08A51CAD00A7
:10048000104EAF5903251D40AD000F26AE40B743B7
:100490009026F605B04200D162E70D4EB04208D07A
:1004A0000C4EB04207D00C4EB04200D156E70526A4
:1004B00057E7012655E7022653E702B004BC9046F1
:1004C000F0BDC046000001400004014000100240A1
:1004D0000004004800080048000C004803690B4273
:1004E00001D1002070470120FCE7002A01D1816280
:1004F00070478161FCE7704710B5054B5B69184296
:1005000000D110BD024B5861FFF7F5FFF9E7C04677
:100510000004014070B582B004000368DB0726D5F3
:10052000AE4B5A680C231340042B18D0AB4B5A68BF
:100530000C231340082B0ED06368012B3CD0002BFA
:1005400051D1A64B1A68A6490A401A601A68A549F3
:100550000A401A6036E0A14B5B68DB03ECD59F4B89
:100560001B689B0303D56368002B00D1ECE1236873
:100570009B0773D5994B5B680C221A425DD0974B51
:100580005A680C231340082B53D0E368002B00D18A
:1005900086E0924A136801210B431360FFF77CFE4B
:1005A00005008E4B1B689B0771D4FFF775FE401B3F
:1005B0000228F6D90320CAE1884A116880235B0229
:1005C0000B4313606368002B25D0FFF765FE050021
:1005D000824B1B689B03CAD4FFF75EFE401B642856
:1005E000F6D90320B3E1052B09D07C4B1A687C496E
:1005F0000A401A601A687B490A401A60E2E7774BA2
:1006000019688022D2020A431A60196880225202B5
:100610000A431A60D6E7FFF73FFE05006F4B1B68E1
:100620009B03A4D5FFF738FE401B6428F6D90320AE
:100630008DE16A4B5B68DB03A7D4684B1B689B07A3
:1006400004D5E368012B01D0012080E163490B68E8
:10065000F82293432269D20013430B6023681B07DF
:1006600044D5E369002B2ED05C4A536A01210B4329
:100670005362FFF711FE0500584B5B6A9B0735D4A8
:10068000FFF70AFE401B0228F6D903205FE1534919
:100690000B68F82293432269D20013430B60DDE715
:1006A0004E4A136801218B431360FFF7F5FD0500E7
:1006B0004A4B1B689B07D1D5FFF7EEFD401B022874
:1006C000F6D9032043E1454A536A01218B43536223
:1006D000FFF7E2FD0500414B5B6A9B0706D5FFF77C
:1006E000DBFD401B0228F6D9032030E123685B07BD
:1006F00000D47FE0394BDB69DB001DD4374AD16978
:10070000802040050143D161D36903400193019BDF
:100710000125354B1B68DB0510D5A368012B21D0C3
:10072000002B36D12D4B1A6A01218A431A621A6AAC
:1007300003318A431A621AE00025EAE72A4A11685F
:1007400080235B000B431360FFF7A6FD0600264BDA
:100750001B68DB05E1D4FFF79FFD801B6428F6D9F9
:100760000320F4E01D4A136A01210B431362A368BE
:10077000002B24D0FFF790FD0600184B1B6A9B0747
:1007800036D4FFF789FD801B184B9842F5D903201A
:10079000DDE0052B09D0114B1A6A01218A431A6248
:1007A0001A6A03318A431A62E1E70C4B1A6A042180
:1007B0000A431A621A6A03390A431A62D7E7FFF733
:1007C0006BFD0600054B1B6A9B0711D5FFF764FD07
:1007D000801B064B9842F5D90320B8E00010024078
:1007E000FFFFFEFFFFFFFBFF0070004088130000CB
:1007F000012D33D02368DB0610D56369012B33D07C
:10080000053351D1544A536B04218B435363536BCB
:10081000F4318B43A169C9000B435363236A002B56
:1008200000D193E04C4A51680C220A40082A00D1BA
:100830008FE0022B4FD0484A136848490B401360A1
:10084000FFF72AFD0400444B1B689B017AD5FFF794
:1008500023FD001B0228F6D9032078E03E4AD36925
:100860003F490B40D361C5E73B4B5A6B04210A4318
:100870005A635A6B03390A435A63FFF70DFD0500AB
:10088000354B5B6B9B0706D4FFF706FD401B022828
:10089000F6D903205BE030494B6BF8229343A26901
:1008A000D20013434B63B9E72B4B5A6B04210A4325
:1008B0005A635A6B03398A435A63FFF7EDFC05000C
:1008C000254B5B6B9B07A9D5FFF7E6FC401B022875
:1008D000F6D903203BE0204A136820490B401360FF
:1008E000FFF7DAFC05001C4B1B689B0106D5FFF7E0
:1008F000D3FC401B0228F6D9032028E0164BDA6A05
:100900000F218A43E16A0A43DA625A6815490A40AC
:10091000A16A606A01430A435A601968802252043E
:100920000A431A60FFF7B8FC04000B4B1B689B01DD
:1009300006D4FFF7B1FC001B0228F6D9032006E01D
:10094000002004E0002002E0012000E0002002B0CE
:1009500070BD0120FBE7C04600100240FFFFFFFE14
:10096000FFFFFFEFFFFFC2FF30B589B004AA174BAE
:10097000180032C832C2110002680A606A46103399
:1009800013CB13C21B681360114B5A680C2313401E
:10099000082B19D1910C0733194004A8445C0C4969
:1009A000C96A0B406946C95CD30308D463011B1BA9
:1009B0009801C01AC0000419200209B030BD0548D2
:1009C000FFF7B4FB6043F8E70248F6E7A0320008FF
:1009D0000010024000127A0070B505000C004D4B6B
:1009E0001A68012313408B420BD24A490B6801223B
:1009F000934323430B600B681A40A24201D00120AD
:100A000070BD2B689B0706D5434A5368F0218B4382
:100A1000A9680B4353602B68DB074BD56B68012B30
:100A200020D0022B24D03C4A126892076FD53A4955
:100A30004A680320824313434B60FFF72DFC0600F6
:100A40006B68012B1AD0022B26D0334B5B680C222B
:100A50001A422FD0FFF720FC801B304B9842F4D96C
:100A60000320CDE72C4A12689203E0D40120C7E7A7
:100A7000294A12689201DAD40120C1E7264B5A684C
:100A80000C231340042B15D0FFF706FC801B234BCF
:100A90009842F3D90320B3E71F4B5A680C23134045
:100AA000082B07D0FFF7F8FB801B1C4B9842F3D9AB
:100AB0000320A5E7174B1A6801231340A3420BD963
:100AC00014490B680122934323430B600B681A40BF
:100AD000A24201D0012093E72B685B0706D50E4A9E
:100AE00053680F490B40E9680B435360FFF73CFF25
:100AF000094B5A6812090F2313400A4AD35CD840A5
:100B0000094B18600020FFF79DFB002078E70120CB
:100B100076E7C04600200240001002408813000023
:100B2000FFF8FFFFD03400083C040020014B186898
:100B30007047C0463C04002010B5FFF7F7FF044B98
:100B40005A68120A07231340024AD35CD84010BDEA
:100B500000100240E034000870B582B00400036861
:100B6000DB0335D53C4BDB69DB0048D43A4AD1691D
:100B7000802040050143D161D36903400193019B6B
:100B80000125364B1B68DB053BD5334B1B6AC02266
:100B90009200134013D061680A409A420FD02E4B46
:100BA000186A2F4A02401E6A8021490231431962A5
:100BB000196A2C4E314019621A62C30735D4264A8D
:100BC000136A27490B4061680B431362012D3BD028
:100BD0002368DB0706D5204A136B03218B43A168EA
:100BE0000B43136323689B0633D51B4A136B1021F9
:100BF0008B43E1680B431363002002B070BD0025F6
:100C0000BFE7164A116880235B000B431360FFF7B0
:100C100043FB0600114B1B68DB05B6D4FFF73CFB1A
:100C2000801B6428F6D90320E7E7FFF735FB0600B1
:100C3000094B1B6A9B07C2D4FFF72EFB801B0A4B94
:100C40009842F5D90320D8E7D36908490B40D3610E
:100C5000BEE70020D1E7C04600100240007000400F
:100C6000FFFCFFFFFFFFFEFF88130000FFFFFFEF09
:100C7000F8B506000C0017001D003EE0002D05D061
:100C8000FFF70AFB069BC01AA84236D332685368A6
:100C9000E0218B43536082235B0072689A420CD040
:100CA00080239B01B26A9A4216D05D230122F2543E
:100CB000013B0022F254032027E0B3688022120295
:100CC000934203D08022D2009342E9D13268136864
:100CD00040218B431360E3E7326813680B490B40F4
:100CE00013603268116880239B010B431360DCE7BB
:100CF0000123BB4208D06B1CC0D133689B682340E2
:100D0000A342F5D00023F4E70020F8BDFFDFFFFF8A
:100D1000F0B583B007000C0015001E0001E0731C45
:100D200010D13A6893682340AB4245D0C023DB0022
:100D30009C42F4D1002DF2D1137BDBB26A46D37111
:100D4000D379ECE7002E05D0FFF7A6FA089BC01A6E
:100D5000B042E6D33A685368E0218B435360822364
:100D60005B007A689A420CD080239B01BA6A9A424F
:100D700016D05D230122FA54013B0022FA540320CD
:100D80001BE0BB6880221202934203D08022D20073
:100D90009342E9D13A68136840218B431360E3E73B
:100DA0003A68136806490B4013603A68116880235B
:100DB0009B010B431360DCE7002003B0F0BDC0468D
:100DC000FFDFFFFF70B582B004000D001600C021E8
:100DD00000922B0000224901FFF79AFF002818D14A
:100DE00000962B00002280212000FFF741FF002801
:100DF00016D1C02100962B000022C9002000FFF769
:100E000087FF00280AD0236E202213432366032085
:100E100004E0236E202213432366032002B070BD3A
:100E2000236E2022134323660320F7E770B582B0B8
:100E300004000D00160082235B0042689A420FD026
:100E400000962B00002280212000FFF711FF0028D0
:100E500015D182235B0062689A4216D002B070BD41
:100E6000836880221202934203D08022D2009342F0
:100E7000E6D12268136840218B431360E0E7236EBC
:100E80002022134323660320E8E7A368802212028E
:100E9000934203D08022D2009342DFD1C02100963A
:100EA0002B000022C9002000FFF732FF0028D5D018
:100EB000236E2022134323660320CFE710B5041EC0
:100EC0005ED0002383625D33C35C002B4CD05D2376
:100ED0000222E2542268136840218B431360E368C6
:100EE000E022D200934245D90022F02109018B4231
:100EF00005D0E021C9008B4201D00021A162216B05
:100F0000002905D1E021C9008B4236D90223236391
:100F10006368A1680B4321690B4361690B4380211E
:100F20008900A06901400B43E1690B43216A0B432F
:100F30002168A06A03430B60618B04230B40616A44
:100F40000B43616B0B43E1680B43216813434B6018
:100F50002268D3690B490B40D361002323665D33BC
:100F60000122E254002010BD5C330022C25401F083
:100F700073FFACE780225201B7E701232363C7E781
:100F80000120F0E7FFF7FFFFF0B585B004000D008A
:100F900016001F005C23C35C012B00D1D4E05C234E
:100FA0000122C254FFF778F901905D23E35C012B25
:100FB00008D002205D230122E254013B0022E254CA
:100FC00005B0F0BD002D00D1B4E0002E00D1B3E09B
:100FD0005C330322E25400232366A563A687E687D9
:100FE00023644132A3520232A3522365E364802377
:100FF0001B02A2689A421CD023681A68520603D4C6
:101000001A6840210A431A60E023DB00E2689A4232
:1010100033D96368002B03D0E38F9BB2012B14D12B
:1010200023682A88DA600235E38F013B9BB2E387AD
:101030000BE0226811688023DB010B431360DBE7C0
:10104000002F00D17AE07B1C0FD1E38F9BB2002BE5
:1010500058D023689A689207F2D52A88DA60023558
:10106000E38F013B9BB2E387EFE7FFF715F9019BA5
:10107000C01AB842E9D303209CE76368002B03D071
:10108000E38F9BB2012B21D1E38F9BB2012B08D9B7
:1010900023682A88DA600235E38F023B9BB2E3873C
:1010A00014E02B7822681373E38F013B9BB2E38734
:1010B00001350BE02A781A73E38F013B9BB2E3877B
:1010C000013503E0002F3BD07B1C13D1E38F9BB293
:1010D000002B17D023689A689207F3D5E28F92B25B
:1010E000012AE7D92A88DA600235E38F023B9BB2F6
:1010F000E387EBE7FFF7D0F8019BC01AB842E5D3CE
:10110000032057E7019A39002000FFF75BFE002813
:1011100001D020232366A368002B06D10393236804
:10112000DA6803929B680393039B236E002B09D11B
:1011300000203FE701203DE701203BE7032039E79E
:10114000032037E7012035E7022039E7F0B583B007
:1011500004000E0017001D005C23C35C012B00D1AE
:1011600042E15C230122C254FFF796F801905D230F
:10117000E35CDBB26268012B14D0822149008A4211
:1011800008D002205D230122E254013B0022E254F8
:1011900003B0F0BDA268002A00D01BE1042B01D0EF
:1011A0000220EFE7002E00D116E1002F00D115E15B
:1011B000002D00D114E15D23E35C042B02D05D23FC
:1011C0000522E2540023236627644622A552023AF0
:1011D000A552A663E587A587E3642365E023DB00CA
:1011E000E2689A4204D84623E35A9BB2012B22D9E3
:1011F000226853687D490B40536023681A68520681
:1012000003D41A6840210A431A60E023DB00E26835
:101210009A4252D96368002B03D0E38F9BB2012B13
:1012200007D123683288DA600236E38F013B9BB234
:10123000E38701251BE02268516880235B010B4393
:101240005360DAE74623E35A9BB2002B0CD02368A5
:101250009A68D20708D5DB683B8002374622A35A3A
:10126000013B9BB2A3520125089B01331CD1E38FA4
:101270009BB2002B05D14633E35A9BB2002B00D121
:101280009AE0002DDED0E38F9BB2002BDAD02368EA
:101290009A689207D6D53288DA600236E38F013B2E
:1012A0009BB2E3870025CDE7FEF7F6FF019BC01A4E
:1012B000089B9842DBD3032064E76368002B03D0CC
:1012C000E38F9BB2012B0BD1E38F9BB2012B09D98A
:1012D00023683288DA600236E38F023B9BB2E387F1
:1012E00001252EE0337822681373E38F013B9BB214
:1012F000E3870136F4E732781A73E38F013B9BB240
:10130000E387013600254623E35A9BB2002B15D014
:1013100023689A68D20711D54622A25A92B2012AAE
:1013200037D9DB683B8002374622A35A023B9BB287
:10133000A352A35A9BB2012B23D90125089B013349
:1013400031D1E38F9BB2002B04D14633E35A9BB2D9
:10135000002B31D0002DD6D0E38F9BB2002BD2D002
:1013600023689A689207CED5E28F92B2012AC2D939
:101370003288DA600236E38F023B9BB2E3870025B6
:10138000C1E72268516880235B010B43536001254C
:10139000D4E71B7B3B704622A35A013B9BB2A3526E
:1013A00001370125CAE7FEF777FF019BC01A089BAA
:1013B0009842C6D30320E5E6019A08992000FFF77A
:1013C00001FD002801D020232366236E002B09D1C4
:1013D0000020D7E60220D5E60120D3E60120D1E6A1
:1013E0000120CFE60120CDE60220D1E6FFEFFFFF8E
:1013F000F0B585B004000D0016001F0082235B00CD
:1014000042689A4217D05C23E35C012B00D1B1E023
:101410005C230122E254FEF73FFF03905D23E35C6F
:10142000012B14D002205D230122E254013B002253
:10143000E25405B0F0BD8368002BE4D15D33042293
:10144000C254009733000A00FFF780FEF1E7002D39
:1014500000D185E0002E00D184E05C330422E25408
:101460000023236625644032A6520232A652A363AB
:10147000A387E387E3642365E023DB00E2689A4205
:1014800017D9226853683C490B40536080231B02E4
:10149000A2689A4214D023681A68520603D41A68C4
:1014A00040210A431A60E023DB00E2689A4211D926
:1014B0002EE02268516880235B010B435360E5E70F
:1014C000226813682D490B401360E4E7002F4BD0CE
:1014D0007B1C11D14623E35A9BB2002B32D02368E8
:1014E0009A68D207F2D51B7B2B7001354622A35A8E
:1014F000013B9BB2A352EDE7FEF7CEFE039BC01A61
:10150000B842E7D303208EE7002F2FD07B1C11D1E8
:101510004623E35A9BB2002B14D023689A68D20763
:10152000F2D5DB682B8002354622A35A013B9BB2E1
:10153000A352EDE7FEF7B0FE039BC01AB842E7D313
:10154000032070E7039A39002000FFF76FFC0028A2
:1015500001D020232366236E002B09D1002062E7EF
:10156000012060E701205EE703205CE703205AE7E3
:10157000012058E702205CE7FFEFFFFFFFBFFFFFFE
:1015800010B5040083680269134342691343C269BA
:10159000134301680A685C48024013430B602268E9
:1015A00053685A490B40E1680B435360A269236AB0
:1015B0001A4321688B685648034013438B60554B90
:1015C0001A6B03231340012B26D0002B05D0022BCE
:1015D00024D0032B24D0102300E000238022120209
:1015E000E16991421ED0022B00D16FE05ED9042B3D
:1015F00000D179E0082B00D084E06368580880238C
:101600001B029C4660446168FEF790FD236800045D
:10161000000CD86000202EE00423DFE70823DDE77C
:101620000223DBE7022B27D00FD9042B2FD0082B66
:1016300039D16368580880235B029C466044616826
:10164000FEF774FD83B200200CE0002B2BD1FFF7D6
:1016500073FA400063685B08C0186168FEF766FDB6
:1016600083B200200F22190091435B10083A134007
:101670000B432268D36010BD63685808264B9C4614
:1016800060446168FEF752FD83B20020EAE7FFF78D
:101690006BF9400063685B08C0186168FEF746FD9F
:1016A00083B20020DEE701200023DBE7002B29D1F5
:1016B000FFF742FA63685B08C0186168FEF736FD01
:1016C00023680004000CD8600020D4E76368580841
:1016D000124B9C4660446168FEF728FD23680004B5
:1016E000000CD8600020C6E7FFF73EF963685B088E
:1016F000C0186168FEF71AFD23680004000CD8606A
:101700000020B8E70120B6E7F369FFFFFFCFFFFF36
:10171000FFF4FFFF001002400024F40000127A00E2
:10172000436ADB0706D5026853682C490B40816A7F
:101730000B435360436A9B0706D5026853682849E8
:101740000B40C16A0B435360436A5B0706D50268CE
:10175000536824490B40016B0B435360436A1B07DA
:1017600006D50268536820490B40416B0B43536018
:10177000436ADB0606D5026893681C490B40816BFF
:101780000B439360436A9B0606D502689368184929
:101790000B40C16B0B439360436A5B060BD5026839
:1017A000536814490B40016C0B43536080235B0367
:1017B000026C9A420AD0436A1B0606D50268536837
:1017C0000D490B40816C0B435360704702685368AE
:1017D0000A490B40416C0B435360ECE7FFFFFDFFF0
:1017E000FFFFFEFFFFFFFBFFFF7FFFFFFFEFFFFF9E
:1017F000FFDFFFFFFFFFEFFFFFFFF7FFFFFF9FFF91
:101800000023C366202269214254013142544832E8
:10181000835400207047000010B5041E30D06923A7
:10182000C35C002B22D069232422E254226813686F
:1018300001218B4313602000FFF7A2FE012814D082
:10184000636A002B18D1226853680E490B4053601D
:101850002268936808218B439360226813680739D4
:101860000B4313602000FFF7CBFF10BD683300224D
:10187000C25401F025FBD6E72000FFF751FFE2E755
:101880000120F2E7FFF7FFFF30B583B001900D00B4
:1018900000F094F800241C4800F0B0FA00F058F86A
:1018A000012803D10134E4B2042CF4D9042C02D968
:1018B000002003B030BD154800F0A0FA012000F070
:1018C00019FA002804D1022000F045FA002410E0A3
:1018D00001A800F091F801A800F0A8F8F3E70321AF
:1018E000200000F0BDF82900200000F0CFF80134FE
:1018F000E4B2032CF3D9002000F0A0F9002000F09E
:10190000BFF90120D5E7C046A0860100400D0300C5
:1019100010B5052000F034FA034B998818680122AD
:10192000FEF7E3FD10BDC0460000002010B5012009
:1019300000F026FA00F052FA0400044B9988186867
:101940000122FEF7D2FD200010BDC046000000209D
:1019500010B5262000F014FA00F040FA0400044B01
:10196000998818680122FEF7C0FD200010BDC0460E
:101970000000002010B5292000F002FA00F02EFA35
:101980000400044B998818680122FEF7AEFD200080
:1019900010BDC0460000002010B52C2000F0F0F96A
:1019A00000F01CFA0400044B998818680122FEF725
:1019B0009CFD200010BDC0460000002010B527206F
:1019C00000F0DEF90A4B998818680122FEF78DFDB8
:1019D000002400E01C00074800F010FAFFF7DCFFCD
:1019E000102804D1631CDBB2C82CF3D9EA3010BD37
:1019F000000000201027000070B50500222000F034
:101A0000BFF9002406E06E1C287800F0D9F90134F3
:101A1000E4B23500032CF6D9034B998818680122EB
:101A2000FEF763FD70BDC0460000002070B50500E4
:101A3000232000F0A5F9002406E06E1C287800F0B1
:101A4000BFF90134E4B23500032CF6D9034B998871
:101A500018680122FEF749FD70BDC0460000002055
:101A600070B505000C00342000F08AF9280000F061
:101A7000A7F9200000F0A4F9034B99881868012207
:101A8000FEF733FD70BDC0460000002070B50500B4
:101A90000C00332000F074F9280000F091F9E0B256
:101AA00000F08EF9200A00F08BF9034B9988186832
:101AB0000122FEF71AFD70BD0000002070B5040081
:101AC0000D00160004E0184800F098F9FFF72EFF0B
:101AD000164B9B78DBB22341DB07F4D513488378A0
:101AE0000121A1408B438370392000F049F9200087
:101AF00000F066F9F0B200F063F9300A00F060F926
:101B0000022000F07BF9002405E0287800F058F965
:101B100001350134A4B2B442F7D3054B9988186853
:101B20000122FEF7E2FC70BD102700000800002033
:101B30000000002070B505000C00392000F020F9ED
:101B4000280000F03DF9E0B200F03AF9200A00F078
:101B500037F9022000F052F970BD70B505000E0093
:101B6000002405E0287800F02BF901350134A4B2F7
:101B7000B442F7D370BD000010B5034B99881868C4
:101B80000122FEF7B2FC10BD0000002070B5040079
:101B90003B2000F0F5F8200000F012F900F01EF9EB
:101BA00085B200F01BF980B2000284B26419A4B2BD
:101BB000034B998818680122FEF797FC200070BD3E
:101BC0000000002010B504002E2000F0D9F82000FD
:101BD00000F0F6F8034B998818680122FEF785FC9F
:101BE00010BDC0460000002070B504000E001500B6
:101BF000002900D170BD3C2000F0C2F8200000F0A8
:101C0000DFF8F0B200F0DCF8300A00F0D9F801207B
:101C100000F0F4F8002405E000F0E0F82870013549
:101C20000134A4B2B442F7D3034B99881868012257
:101C3000FEF75BFCDEE7C0460000002010B50400A4
:101C4000352000F09DF8200000F0BAF80A4B998882
:101C500018680122FEF749FC002400E01C00074838
:101C600000F0CCF8FFF798FE102804D1631CDBB21B
:101C7000C82CF3D9EA3010BD000000208813000002
:101C800010B50400362000F07BF8200000F098F832
:101C90000A4B998818680122FEF727FC002400E00F
:101CA0001C00074800F0AAF8FFF776FE102804D1C0
:101CB000631CDBB2C82CF3D9EA3010BD0000002051
:101CC0008813000010B50400302000F059F82000FF
:101CD00000F076F8022000F091F800F07FF80400A0
:101CE000034B998818680122FEF7FFFB200010BD06
:101CF0000000002010B50400412000F041F8200051
:101D000000F05EF80A4B998818680122FEF7EDFB97
:101D1000002400E01C00074800F070F8FFF73CFECC
:101D2000102804D1631CDBB2C82CF3D9EA3010BDF3
:101D300000000020204E000010B50400EC2000F050
:101D40001FF8200000F03CF8FA20800000F056F860
:101D500000F044F810BD10B50400552000F010F854
:101D6000E0B200F02DF8A0B2000A00F029F8200C33
:101D7000C0B200F025F8200E00F022F810BD0000DF
:101D800030B583B06B46DD1DD8710B4CA1880122A4
:101D90002068FEF7AAFBA18820680022FEF7A5FBB9
:101DA0006423012229000548FFF7EEF8022000F025
:101DB00025F803B030BDC04600000020EC0800202C
:101DC00000B583B06B46D91D087064230122024818
:101DD000FFF7DAF803B000BDEC08002010B582B0C0
:101DE0006B46DC1D6423012221000348FFF700FB42
:101DF000207802B010BDC046EC080020C000084B9F
:101E0000586000229A6001321A60054B1B68054A2F
:101E10001340012BF9D0024B00221A609A607047E0
:101E200010E000E001000100064B994206D80B6863
:101E30004360013304D00160012000E000207047BE
:101E40000020FCE7FE7F0008F0B5CE46474680B58F
:101E500083B0070001924E680D68A9460023836095
:101E6000436003600435013E2B684B441C0008238B
:101E70009846A04441460198FEF746F9002802D052
:101E8000002EEFDC06E043463B6063684B447B601A
:101E90002368BB60380003B00CBC90469946F0BD87
:101EA000F0B583B0070001910468250000267B6827
:101EB000B3420AD904342368591908310198FEF74E
:101EC00023F9002804D00136F1E7002003B0F0BD6B
:101ED0000120FBE770B50500441D2000FEF71EF948
:101EE00020180B22034901F0B5F8280000F0EEFBA2
:101EF00070BDC046CC320008F8B50400144900F0AB
:101F0000F9F905001349200000F0F4F90600002D4E
:101F10000CD000280AD0280000F011FA050030008B
:101F200000F00DFA062D01D8062806D996210A4A96
:101F30004900200000F022FBF8BD0100280000F05D
:101F4000FFFE064AC821200000F018FBF4E7C04657
:101F5000EC320008F0320008FC320008F4320008CD
:101F600010B5024AC82100F009FB10BDE03200089C
:101F700010B5024AC82100F001FB10BDD83200089C
:101F800070B5050000F02CFF04000F4E0F4B1B88AE
:101F900033800F2303403033B370F01C04220C490C
:101FA00001F058F82409E4B23034B471F01D032272
:101FB000084901F04FF8002373723200C82128004D
:101FC00000F0DCFA70BDC0465C040020C03200089E
:101FD000C4320008C832000800230370452283542D
:101FE0000371C370DF3283548C3A8354843283523A
:101FF00070470000F8B50400FEF790F805000328CC
:1020000036D9471FE71923493800FEF77DF8002825
:1020100030D02E1FA61920493000FEF775F8002891
:102020002AD01E493000FEF76FF8002826D0E81E9F
:1020300020181B49FEF768F8002821D01949300004
:10204000FEF762F800281DD017493000FEF75CF853
:10205000002819D015493800FEF756F8002815D089
:1020600013493000FEF750F8002811D0114800E065
:102070001048F8BD1048FCE70F48FAE70F48F8E7AA
:102080000F48F6E70F48F4E70F48F2E70E48F0E78D
:102090000E48EEE72C330008343300083C330008C8
:1020A0004433000848330008503300085833000810
:1020B000603300083834000808340008F0330008A2
:1020C000203400084434000814340008FC330008AD
:1020D000F8B506000D000800FEF720F80700346888
:1020E000002C07D02900200001F043F8051E03D181
:1020F000002333602000F8BD3A00002100F0B3FF58
:10210000ED193560F6E7000030B585B005000378BD
:10211000012B4FD0002B07D0032B00D1A8E0042BBC
:1021200000D1ABE00120AEE00391684903A8FFF7BE
:10213000CFFF041E00D1C2E08022D200644900F02B
:10214000F9FF002800D1BAE002AA6249200001F09C
:1021500056F8041E00D1B2E05F49FDF7D5FF002814
:102160002DD10023EB7002AA5A49002001F047F854
:10217000002800D1A3E06C1D40220100200000F0E7
:10218000C5FF3F21200000F084FFEB78002B06D133
:10219000002804D00370441C4378002B1BD102AAF2
:1021A0004C49002001F02BF8002800D187E02B7863
:1021B00001332B70454903A8FFF78AFF31E04749F7
:1021C0002000FDF7A1FF002802D10123EB70CAE730
:1021D0000023EB70C7E701AA4149200001F00FF886
:1021E0000BE04522AB5C591CA95412339B0058519B
:1021F00001AA3B49002001F002F80028F1D1CEE706
:1022000002AA384900F0FBFF002858D0364900F0F8
:10221000B0FF002801D001232B712C4903A8FFF740
:1022200057FF002821D002AA2E4900F0E8FF041E23
:102230001BD00378002B18D02C49FDF765FF002830
:10224000DED02B492000FDF75FFF0028E5D102AA70
:10225000244900F0D4FF002831D02B00583340220D
:102260000100180000F052FFD7E72B7801332B70E4
:10227000EB78012B09D02B7801332B7092235B0074
:102280000122EA54012005B030BD104903A8FFF730
:102290001FFF0028EFD001AA114900F0B0FF0BE0AA
:1022A0004522AB5C591CA95412339B00585101AA1A
:1022B0000B49002000F0A3FF0028F1D1DBE7002349
:1022C0002B7092225200AB540020DCE774340008DB
:1022D0008434000850340008683400086C34000866
:1022E0008C340008EC3300089034000854340008A3
:1022F00060340008F0B54523C75C002F1DD00026D0
:1023000005E01278002A01D13D2B12D00136B742E8
:1023100011DD330012339B001C580A002378002B78
:10232000EFD01578002DECD0AB42EAD10132013468
:10233000F4E7601C00E00020F0BD0020FCE710B5D1
:102340000400002000220AE0810040184100C9B2C8
:102350005B18DBB2303BD8B201340132D2B2022A70
:1023600002D82378002BEFD110BDF8B504000D0082
:1023700000270EE07E1CF6B2EF190A212000FDF7BF
:102380005BFF303139700A212000FDF7CFFE84B2A7
:102390003700002CEED1EB1900221A70002309E05F
:1023A000E9180C78FA1A013AAA1816780E70147007
:1023B0000133DBB27A089A42F2D83800F8BD000047
:1023C00082B0F0B5CE4600B58AB006000C0015000C
:1023D0001092119307009C371000FDF79FFE033801
:1023E00028185C49FDF790FE002800D18CE02800F9
:1023F000FFF700FE019000259C230022F2543800D4
:10240000FDF78CFE38180922534900F023FEA4235F
:102410002022F254A0B23400A5342100FFF7A5FF1A
:1024200024182000FDF77AFE201806224B4900F000
:1024300011FE631D99461800FDF770FE48440D22F9
:10244000474900F007FE11239946A1443379012B37
:102450006BD04846FDF762FE48440922414900F02E
:10246000F9FD1934002D6AD12000FDF757FE201820
:102470000F223D4900F0EEFD0E34019D29002000A1
:1024800000F0F9FD2800FDF749FE24182000FDF7B3
:1024900045FE20180322354900F0DCFDA51C28006C
:1024A000FDF73CFE28181122314900F0D3FD12340B
:1024B000129B9DB221002800FFF757FF241820002F
:1024C000FDF72CFE20180322284900F0C3FD02343A
:1024D0002000FDF723FE20180322244900F0BAFD56
:1024E0003800FDF71BFE9A23F0528233F552043375
:1024F000119AF250883B0122F2540AB004BC914672
:10250000F0BC08BC02B01847290002A800F0CFFDBB
:1025100002A8FDF703FE0338002302AA135410009B
:10252000FFF768FD0190012566E74846FDF7F6FDD7
:1025300048440D220F4900F08DFD1D3492E7200024
:10254000FDF7ECFD201819220B4900F083FD18342B
:102550008AE7C04668330008E03300086C3300089F
:102560007433000894330008BC330008C8320008F4
:10257000CC33000884330008A0330008F0B583B0E2
:1025800007000E00019205009C359C230022C254D6
:102590002800FDF7C3FD28180922444900F05AFD20
:1025A000A4232022FA543C00A534B0B22100FFF746
:1025B000DCFE24182000FDF7B1FD201806223C495E
:1025C00000F048FD661D3000FDF7A8FD30180D2213
:1025D000384900F03FFD0C363B79012B5BD03000D1
:1025E000FDF79CFD30180922334900F033FD193402
:1025F000781DFFF7FFFC06002000FDF78FFD201877
:102600000F222E4900F026FD0E343100200000F08C
:1026100032FD3000FDF782FD24182000FDF77EFD1D
:1026200020180322264900F015FDA61C3000FDF7F6
:1026300075FD30181122234900F00CFD1234019E63
:102640003000FDF76BFD80B22100FFF78EFE2418ED
:102650002000FDF763FD20180322194900F0FAFC61
:1026600002342000FDF75AFD20180322144900F01F
:10267000F1FC2800FDF752FD9A23F8523000FDF7D7
:102680004DFD8E235B00F8520433FE50883B01223F
:10269000FA5403B0F0BD3000FDF740FD30180D22B4
:1026A000094900F0D7FC1D34A2E7C046E03300081A
:1026B0006C3300087433000894330008BC330008FE
:1026C000C8320008CC33000884330008F0B59FB04E
:1026D0000600451D29003048FFF7E2FB002816D010
:1026E0002A002D4904A8FFF7AFFB049B002B22D042
:1026F0002A00294918A8FFF7A7FB1A9B0393009308
:10270000189A199BC8213000FFF75AFE2BE02900C8
:1027100007A800F0CCFC07A8FDF700FD07AB9C461E
:10272000604404221D4900F095FC07A91A48FFF7F0
:10273000B7FB002819D11A4C1A4B220083CB83C255
:1027400040222900200000F0BAFC2000FDF7E6FC42
:1027500020180322144900F07DFCCA212200490000
:102760003000FFF70BFF1FB0F0BD07AA0A4904A80D
:10277000FFF76AFB049B002BDDD007AA06491BA8C4
:10278000FFF762FB1D9B039300931B9A1C9BC821C0
:102790003000FFF715FEE6E7380800206833000830
:1027A000E007002078340008C8320008F0B5C646BB
:1027B00000B582B0050001240EE0019BDA003D4B1C
:1027C0009B185B6830009847052F33D09823F35C43
:1027D000012B33D00134E4B2032C67D8E3001B197A
:1027E0009B001B19DE00293EFF3E334836186B78EC
:1027F000DBB22341DB07EDD592235B00F35C002BBA
:10280000E8D06B780121A1408B436B7092235B0071
:102810000022F2540027042FD6D8701D0197FB0028
:10282000244A9958402200F060FC0028C5D00137A6
:10283000FFB2F0E73000FFF749FFC7E79933F15ADD
:10284000AF23DB005B1A9BB28E225200B25A171CD8
:102850009A4200D91F1CBFB2C91989B22000FFF7E4
:1028600069F930009C309A23F15AFFF776F99023EA
:102870005B0098463900F058FFF76FF9FFF77CF9D5
:102880008E225200B35ADB1B9BB2B3524246B2585F
:10289000944667444246B750002B03D19833002238
:1028A000F25497E798230222F25493E702B004BC53
:1028B0009046F0BD0C04002068040020F0B589B0FB
:1028C0001422002103A800F0CEFB2B4B5969802075
:1028D000C003014359615A6902400092009A596944
:1028E00080208002014359615A6902400192019A95
:1028F0005A698021C9020A435A615B690B400293FD
:10290000029B002203211D48FDF7EFFD1C4D002214
:1029100029009020C005FDF7E8FD0122102190203C
:10292000C005FDF7E2FD032303930124049402266E
:1029300005960027069703A91048FDF709FD0395A2
:1029400004940596069703A99020C005FDF700FDA5
:102950001023039304940594069703A99020C005BF
:10296000FDF7F6FC0396074B0493059403A906486C
:10297000FDF7EEFC09B0F0BD001002400014004865
:1029800003060000000021100004004810B50F48A5
:102990000F4B036082235B00436000238360E022CF
:1029A000D200C26002220261013A4261802292009A
:1029B0008261C361036243628362FA3AFF3AC26290
:1029C00003634363FEF77AFA10BDC046EC080020AB
:1029D0000030014010B50948094B036096239B0164
:1029E000436000238360C36003610C224261836102
:1029F000C36103624362FEF70FFF10BD7C08002035
:102A00000038014010B5002200210520FDF74AFCE6
:102A10000520FDF777FC10BD10B594B02C220021E5
:102A200009A800F020FB1022002104A800F01BFBE5
:102A300010220021684600F016FB022308930124AF
:102A40000B940E330C9308A8FDF764FD0723049341
:102A50000023059306930793002104A8FDF7BCFF0C
:102A60000094032302936846FEF776F814B010BD75
:102A700030B585B02D4B2E491A0011C911C22D4811
:102A800012C812C211002C4A11CA11C100221A76B2
:102A90002A491A001C3211C911C229491A002432CC
:102AA00011C911C2274A2C3303CA03C3FDF7DCFB4B
:102AB000FFF7B2FFFFF702FFFFF768FFFFF78AFF9C
:102AC000FFF7A0FF204C21492000FFF7ADF9204A75
:102AD000210001A8FFF7B8F91E48FFF78FF9FEF7AC
:102AE00017FF1D48FFF78AF91C4D00242C701C4B62
:102AF00019881C4B1868FEF7C7FE28701A4B1C700B
:102B00001A4B1C70184B1B78002BE5D1174B1B7808
:102B1000002BE1D1114B1B78002BF3D0144B5B78C9
:102B2000002BEFD01248FFF741FEEBE744080020EE
:102B300098340008A0340008A8340008B034000815
:102B4000B8340008C03400083808002000400008ED
:102B5000C8340008E0930400400D03003008002052
:102B600038040020340400204108002040080020E0
:102B700008000020F8B5CE46474680B5FEF7FAFEBD
:102B8000430702D5684B01221A700009C5B2002D17
:102B900000D1C5E0012437E01B33FF33F35A9846D8
:102BA00090235B00F158614B984501D90133984659
:102BB00042462000FEF782FF8E225200B35A414661
:102BC0005B1A9BB2B3529021490072584244725032
:102BD000002B70D07B0776D43B0706D554490B7881
:102BE0000122A2401343DBB20B70FB060AD5504A08
:102BF00011780123A340DB435BB219401170517877
:102C00000B4053700134E4B2032C00D988E06D0806
:102C1000EB07F7D52000FFF755F80700C307D9D514
:102C200043498B780122A2401343DBB28B70E3004F
:102C30001B199B001B19DE00293EFF3E3D4BF61879
:102C40009823F35C022BA7D0012BC3D19933F15AFF
:102C5000AF23DB005B1A9BB28E225200B25A101CCB
:102C60009A4200D9181C83B29846414489B2200088
:102C7000FEF760FF30009C309A23F15AFEF76DFF9B
:102C800090235B0099464146F058FEF766FFFEF739
:102C900073FF8E225200B35A41465B1A9BB2B35265
:102CA0004A46B258424449467250002B07D19833E5
:102CB0000022F2548EE73000FFF78EF98AE798235E
:102CC0000222F25486E7E3001B199B001B19DE0069
:102CD000293EFF3E174BF6182000FEF757FF011C58
:102CE000154B984200D9191C89B2144A2000FEF7EE
:102CF0007BFF3000FFF770F92623FF33F4540F49B0
:102D00003000FFF701FA002806D009494B7801226C
:102D1000A2401343DBB24B702000FEF753FF5BE78A
:102D20000CBC90469946F8BD41080020770500008C
:102D30000800002068040020FF0300000B000020B2
:102D4000F0B5CE46474680B587B00400234B1876D1
:102D500034229954884201D0002438E0002836D02B
:102D600037E0E9461D4B9C46E200151BAB0063446F
:102D70004D46C0CBC0C5161BB300634418001E00EF
:102D800008362F000ACE0AC704AE030010333700FE
:102D900003CB03C7121B930063441F7E0123984695
:102DA0001A003A404B4699880098FDF79EFB7A0836
:102DB00043461A40A9880298FDF797FBBF080222F4
:102DC0003A40B1880498FDF790FB0134E4B2012C3D
:102DD000C7D907B00CBC90469946F0BD4408002006
:102DE00010B58120FEF7A8FF820801231340420896
:102DF000D2B2520002210A401343810004220A4049
:102E000013430209D2B2120110210A40134382096E
:102E1000D2B2520110310A4013434009C0B28001BE
:102E200040221040184310BD82B00A4B996901221C
:102E30001143996199690A400092009ADA698021E8
:102E400049050A43DA61DB690B400193019B02B03B
:102E50007047C0460010024010B588B0040014222C
:102E6000002103A800F0FFF82268134B9A4201D01A
:102E700008B010BD114B9969802040010143996150
:102E80009A6902400192019A5A69802189020A4393
:102E90005A615B690B400293029BE0230393DE3B84
:102EA0000493013B059302330693902003A9C005C8
:102EB000FDF74EFADCE7C04600300140001002404A
:102EC00010B588B004001422002103A800F0CBF84C
:102ED0002268134B9A4201D008B010BD114B99697A
:102EE0008020C001014399619A6902400192019AD0
:102EF0005A69802189020A435A615B690B40029337
:102F0000029B0C2303930A3B049301330693023B79
:102F10000793902003A9C005FDF71AFADCE7C04625
:102F200000380140001002407047FEE770477047CC
:102F300010B5FDF7A9F910BD10B501E0FFF71AFEB5
:102F400002210448FDF7CAFA0028F7D00220FDF755
:102F5000D3FA10BD00040048114B1A6801210A433E
:102F60001A605A680F4802405A601A680E480240B8
:102F70001A601A680D4802401A605A680C480240EC
:102F80005A60DA6A0F208243DA621A6B09480240FB
:102F90001A635A6B8A435A6300229A607047C0468C
:102FA000001002400CB8FF08FFFFF6FEFFFFFBFF1A
:102FB000FFFFC0FFECFEFFFF0D4885460D480E49A0
:102FC0000E4A002302E0D458C4500433C4188C4283
:102FD000F9D30B4A0B4C002301E013600432A242E8
:102FE000FBD3FFF7B9FF00F011F8FFF741FDFEE753
:102FF000FF0F00200000002040040020F0340008F3
:103000004004002050090020FEE7000070B50026B3
:103010000C4D0D4C641BA410A64209D1002600F0F3
:1030200033F90A4D0A4C641BA410A64205D170BDA9
:10303000B300EB5898470136EEE7B300EB589847DA
:103040000136F2E7E8340008E8340008E834000804
:10305000EC340008002310B59A4200D110BDCC5CBE
:10306000C4540133F8E703001218934200D17047AB
:1030700019700133F9E7020010B51378541C002BC6
:1030800005D1CC5CD4540133002CFAD110BD220000
:10309000F3E7C9B20378002B04D08B4200D170470C
:1030A0000130F7E74B42594149420840F7E7030036
:1030B0000A7801311A700133002AF9D17047F0B54E
:1030C00004002378002B08D11F00561E934203D022
:1030D000CD5CE554002D02D1F0BD0134F1E79E42F4
:1030E00001D1A5196F700133F0E7002330B59A4282
:1030F0000AD0013AC45CCD5CAC4204D1934202D008
:103100000133002CF6D1631B180030BD30B505002B
:10311000002A00D130BD0C78013A6B1C2C700131B3
:10312000002C05D19A189A42F4D01C700133FAE7AA
:103130001D00EDE770B50E00050011003000140011
:1031400000F087F80300844202D8325C002A0DD1D7
:1031500021003200280000F062F8041E06D0421B55
:103160000021280000F050F8002800D000242000A2
:1031700070BD10B50378002B0FD10B785A42534124
:103180005B42184010BD0023CA5C002AFAD0C45C20
:10319000944201D10133F7E701300378002BF2D1DB
:1031A0001800EFE7F0B5002804D11068002801D11D
:1031B000F0BD20000E000578441C3778002F04D1A4
:1031C000002D10D115602800F2E70136BD42F4D180
:1031D000002BEED114600370EAE733000DE00135F7
:1031E000002F03D11C000D002678631C2F78BE42EF
:1031F000F5D1002EF1D0002121701360D8E710B571
:103200000123FFF7CFFF10BDC9B28218904201D150
:103210000020704703788B42FBD00130F6E7F7B50A
:103220000700009101921E0004000D00002B09D13F
:103230002000FEBD32000199200000F015F80028A2
:10324000F6D0013D009BFC18641BB542F2D200246D
:10325000EEE7030041188B4202D01A78002A01D110
:10326000181A70470133F6E730B50024A24201D1A5
:10327000002005E0035D651C0C5DA34201D0181B16
:1032800030BD2C00F2E70000F8B5C046F8BC08BC21
:103290009E467047F8B5C046F8BC08BC9E467047CD
:1032A00002030405060708090A0B0C0D0E0F101087
:1032B0000102030405060708090A0B0C0D0E0F1086
:1032C000413D000026423D000D0A0000696E646524
:1032D000782E68746D6C000052657365740D0A0079
:1032E0005374617475730D0A000000004100000002
:1032F000420000004F4B0D0A00000000496E76614D
:103300006C69640D0A0000002F73776974636800AC
:103310002F676574416C6C6F630000002F737461DC
:10332000747573002F726573657400002E68746D78
:103330006C0000002E68746D000000002E63737333
:10334000000000002E6A73002E706E6700000000FF
:103350002E6A7067000000002E6A7065670000002A
:103360002E676966000000002E677A00204F4B0D23
:103370000A000000436F6E6E656374696F6E3A20D9
:10338000000000004B6565702D416C6976650D0A83
:1033900000000000436C6F7365640D0A00000000BC
:1033A000436F6E74656E742D456E636F64696E67EE
:1033B0003A20677A69700D0A00000000436F6E744E
:1033C000656E742D547970653A200000436F6E74F9
:1033D000656E742D4C656E6774683A2000000000BD
:1033E000485454502F312E31000000003A20000084
:1033F000746578742F63737300000000696D6167F2
:10340000652F676966000000746578742F68746DB5
:103410006C000000696D6167652F6A706567000068
:103420006170706C69636174696F6E2F6A61766137
:103430007363726970740000746578742F706C61C6
:10344000696E0000696D6167652F706E670000002E
:1034500020000000436F6E6E656374696F6E00003C
:10346000436F6F6B6965000047455400504F5354DC
:10347000000000000D0A00004E6F7420466F756E4C
:10348000643A2000485454502F00000026000000E9
:103490004B6565700000000000140048010000004A
:1034A0000000004800040000000000480002000086
:1034B0000000004802000000000000480100000079
:1034C00000140048020000002F612E747874000080
:1034D00000000000000000000102030406070809C4
:0834E0000000000001020304DA
:0434E800E9000008EF
:0434EC00C100000813
:1034F00000000048100000000000FF000000000075
:1035000000000000000000000000000000000000BB
:1035100000000000000000000000000000000000AB
:10352000000000000000000000000000000000009B
:10353000000000000000000000000000000000008B
:1038F0000000000000000000000000008834000804
:10390000D51E000808330008F91E0008103300080F
:10391000811F00081C330008611F000824330008C1
:10392000711F0008C0A804015000000000127A00B6
:0400000508002FB907
:00000001FF
