:020000040800F2
:10000000FF0F0020213400089133000893330008CB
:1000100000000000000000000000000000000000E0
:100020000000000000000000000000009533000800
:10003000000000000000000097330008993300081A
:1000400071340008000000007134000871340008A9
:1000500071340008A13300087134000871340008BD
:100060000000000071340008713400087134000889
:100070007134000871340008713400080000000079
:100080007134000800000000000000007134000816
:100090000000000071340008713400087134000859
:1000A00000000000713400080000000071340008F6
:1000B0000000000000000000000000000000000040
:1000C00010B5064C2378002B07D1054B002B02D02E
:1000D000044800E000BF0123237010BD5804002035
:1000E00000000000F0360008044B10B5002B03D0D0
:1000F0000349044800E000BF10BDC04600000000F6
:100100005C040020F036000802780B78002A03D047
:10011000013001319A42F7D0D01A70470023C25CF7
:100120000133002AFBD1581E70470000002243080B
:100130008B4274D303098B425FD3030A8B4244D3AF
:10014000030B8B4228D3030C8B420DD3FF220902F1
:1001500012BA030C8B4202D31212090265D0030BB0
:100160008B4219D300E0090AC30B8B4201D3CB03A6
:10017000C01A5241830B8B4201D38B03C01A5241E8
:10018000430B8B4201D34B03C01A5241030B8B42EA
:1001900001D30B03C01A5241C30A8B4201D3CB02D5
:1001A000C01A5241830A8B4201D38B02C01A5241BA
:1001B000430A8B4201D34B02C01A5241030A8B42BD
:1001C00001D30B02C01A5241CDD2C3098B4201D3D5
:1001D000CB01C01A524183098B4201D38B01C01A53
:1001E000524143098B4201D34B01C01A52410309CA
:1001F0008B4201D30B01C01A5241C3088B4201D379
:10020000CB00C01A524183088B4201D38B00C01A25
:10021000524143088B4201D34B00C01A5241411A4C
:1002200000D20146524110467047FFE701B5002059
:1002300000F006F802BDC0460029F7D076E7704707
:100240007047C04610B5040000F0B4FDFA218900E3
:10025000FFF76CFF00F060F801200022210040420F
:1002600000F020F8002010BD10B5064A13681021D8
:100270000B4313600020FFF7E5FF03F009F80020AF
:1002800010BDC04600200240024A136801331360CB
:100290007047C046C4080020014B18687047C0462C
:1002A000C408002070B5002811DB8408134DC03449
:1002B000A400625903231840C000FC331E0086408E
:1002C000B24389010B4083401343635170BDC0B2F8
:1002D0000F220240083A920806329200084BD318C7
:1002E0005D6803242040C000FF2214008440A54321
:1002F00089010A4082402A435A60E7E700E100E0B2
:1003000000ED00E01F2318401E3B8340014A1360AC
:100310007047C04600E100E001380A4B98420FD810
:10032000094A50600948036A1B021B0AC0210906DA
:100330000B43036200239360073313600020704770
:100340000120FCE7FFFFFF0010E000E000ED00E00F
:1003500010B5054B0022DA61044A136901242343D6
:100360001361018010BDC046C80800200020024073
:100370000C4BDB68DB0613D50B4AD36902210B4318
:10038000D3611023074AD268520706D50649CA69C5
:1003900001200243CA6104221343024AD36070471A
:1003A0000023EFE700200240C8080020084B1B692B
:1003B0001B060BD5064B074A5A60074A5A601B6951
:1003C0001B0601D5012002E0002000E0002070475C
:1003D0000020024023016745AB89EFCD034A136932
:1003E00080210B43136100207047C046002002406B
:1003F00070B50400FFF750FF0500134BDB68DB0707
:100400000AD5631CF9D0002C19D0FFF745FF401B1B
:10041000A042F2D9032011E00B4BDB689B0602D50A
:10042000094B2022DA60084BDB68DB0603D4064B5D
:10043000DB685B0705D5FFF79BFF012070BD03203C
:10044000FCE70020FAE7C04600200240F0B5C646AF
:1004500000B504000D0090461E00214B1B7E012BB1
:100460003BD01F4B01221A761E48FFF7C1FF002820
:100470002DD1012C06D0022C02D0042700241BE031
:100480000227FBE70127F9E72022D21A3100914029
:100490000A004146D940114389B24019FFF758FF7D
:1004A0001048FFF7A5FF104A136901218B43136120
:1004B00000280CD10134E4B2BC4208D26000230110
:1004C000202252429A18DFD43100D140E4E7044B95
:1004D00000221A7604BC9046F0BD0220FAE7C0461E
:1004E000C808002050C3000000200240064B002234
:1004F000DA61064B1A6904210A431A611A693C3110
:100500000A431A617047C046C80800200020024014
:10051000064B0022DA61064B1A6902210A431A616E
:1005200058611A693E310A431A617047C8080020B1
:100530000020024070B505000E00244B1B7E012BED
:1005400041D0224B01221A760368012B22D0204889
:10055000FFF74EFF002831D101235B4233606C6806
:100560000130AB689B026A6894466344A34226D973
:100570002000FFF7CDFF1648FFF73AFF154A136931
:1005800002218B431361002816D18023DB009C4697
:100590006444E6E70E48FFF72BFF002801D0012056
:1005A0000DE0FFF7A3FF0A48FFF722FF094A13698E
:1005B00004218B43136102E0346000E00120034B0F
:1005C00000221A7670BD0220FCE7C046C808002051
:1005D00050C3000000200240F0B5C64600B582B00E
:1005E000002338E0032600E00026AE4035003D43FE
:1005F0000234A400554EA551554C25684246D443BB
:100600002E0026404A68D20302D5424615432E00EA
:100610004F4D2E606D682E0026404A68920302D529
:10062000424615432E004A4D6E60AD682E002640AE
:100630004A68D20202D5424615432E00444DAE60B0
:10064000ED682C404A68920202D542462A431400C3
:100650003F4AD46001330A681400DC4071D00125A0
:100660009D402A409046F5D04C68022C01D0122CB7
:100670000ED1DC080834A400275807261E40B60017
:100680000F22B24097430A69B24016003E432650FB
:1006900002685F0003242600BE40F64332409446C1
:1006A0004A681440BC406246144304604C68621EB1
:1006B000012A03D9112C01D0122C10D184683440A6
:1006C000A446CC68BC406246144384604468AC4392
:1006D0004A681209012515409D4025434560C468BC
:1006E00026408C68BC403443C4604A68D200B1D50F
:1006F000184DAE6901242643AE61AD692C400194CA
:10070000019C9C08A51CAD00104EAF5903251D404F
:10071000AD000F26AE40B7439026F605B04200D19B
:1007200062E70D4EB04208D00C4EB04207D00C4EDE
:10073000B04200D156E7052657E7012655E70226C5
:1007400053E702B004BC9046F0BDC0460000014033
:100750000004014000100240000400480008004866
:10076000000C004803690B4201D1002070470120B2
:10077000FCE7002A01D1816270478161FCE7704784
:1007800010B5054B5B69184200D110BD024B586192
:10079000FFF7F5FFF9E7C0460004014070B582B0ED
:1007A00004000368DB0726D5AE4B5A680C231340C0
:1007B000042B18D0AB4B5A680C231340082B0ED0D7
:1007C0006368012B3CD0002B51D1A64B1A68A64977
:1007D0000A401A601A68A5490A401A6036E0A14B1F
:1007E0005B68DB03ECD59F4B1B689B0303D56368F9
:1007F000002B00D1ECE123689B0773D5994B5B6814
:100800000C221A425DD0974B5A680C231340082BD8
:1008100053D0E368002B00D186E0924A136801218F
:100820000B431360FFF738FD05008E4B1B689B07D9
:1008300071D4FFF731FD401B0228F6D90320CAE12D
:10084000884A116880235B020B4313606368002BA6
:1008500025D0FFF721FD0500824B1B689B03CAD4FE
:10086000FFF71AFD401B6428F6D90320B3E1052BDE
:1008700009D07C4B1A687C490A401A601A687B4987
:100880000A401A60E2E7774B19688022D2020A43D5
:100890001A601968802252020A431A60D6E7FFF7ED
:1008A000FBFC05006F4B1B689B03A4D5FFF7F4FC12
:1008B000401B6428F6D903208DE16A4B5B68DB039B
:1008C000A7D4684B1B689B0704D5E368012B01D0B4
:1008D000012080E163490B68F82293432269D2002A
:1008E00013430B6023681B0744D5E369002B2ED00C
:1008F0005C4A536A01210B435362FFF7CDFC0500AC
:10090000584B5B6A9B0735D4FFF7C6FC401B022897
:10091000F6D903205FE153490B68F822934322691B
:10092000D20013430B60DDE74E4A136801218B436D
:100930001360FFF7B1FC05004A4B1B689B07D1D53C
:10094000FFF7AAFC401B0228F6D9032043E1454AE1
:10095000536A01218B435362FFF79EFC0500414B14
:100960005B6A9B0706D5FFF797FC401B0228F6D968
:10097000032030E123685B0700D47FE0394BDB695B
:10098000DB001DD4374AD169802040050143D16185
:10099000D36903400193019B0125354B1B68DB059F
:1009A00010D5A368012B21D0002B36D12D4B1A6A0C
:1009B00001218A431A621A6A03318A431A621AE0D1
:1009C0000025EAE72A4A116880235B000B43136085
:1009D000FFF762FC0600264B1B68DB05E1D4FFF73E
:1009E0005BFC801B6428F6D90320F4E01D4A136ADF
:1009F00001210B431362A368002B24D0FFF74CFCAA
:100A00000600184B1B6A9B0736D4FFF745FC801B7A
:100A1000184B9842F5D90320DDE0052B09D0114B86
:100A20001A6A01218A431A621A6A03318A431A62D6
:100A3000E1E70C4B1A6A04210A431A621A6A033965
:100A40000A431A62D7E7FFF727FC0600054B1B6A2B
:100A50009B0711D5FFF720FC801B064B9842F5D968
:100A60000320B8E000100240FFFFFEFFFFFFFBFF86
:100A70000070004088130000012D33D02368DB068E
:100A800010D56369012B33D0053351D1544A536BD0
:100A900004218B435363536BF4318B43A169C90029
:100AA0000B435363236A002B00D193E04C4A5168F7
:100AB0000C220A40082A00D18FE0022B4FD0484A6E
:100AC000136848490B401360FFF7E6FB0400444BF2
:100AD0001B689B017AD5FFF7DFFB001B0228F6D9C4
:100AE000032078E03E4AD3693F490B40D361C5E714
:100AF0003B4B5A6B04210A435A635A6B03390A432E
:100B00005A63FFF7C9FB0500354B5B6B9B0706D4A7
:100B1000FFF7C2FB401B0228F6D903205BE03049F7
:100B20004B6BF8229343A269D20013434B63B9E79E
:100B30002B4B5A6B04210A435A635A6B03398A437D
:100B40005A63FFF7A9FB0500254B5B6B9B07A9D5F3
:100B5000FFF7A2FB401B0228F6D903203BE0204A06
:100B6000136820490B401360FFF796FB05001C4BF0
:100B70001B689B0106D5FFF78FFB401B0228F6D9A7
:100B8000032028E0164BDA6A0F218A43E16A0A4300
:100B9000DA625A6815490A40A16A606A01430A4349
:100BA0005A601968802252040A431A60FFF774FBE6
:100BB00004000B4B1B689B0106D4FFF76DFB001B69
:100BC0000228F6D9032006E0002004E0002002E01D
:100BD000012000E0002002B070BD0120FBE7C0460C
:100BE00000100240FFFFFFFEFFFFFFEFFFFFC2FF0D
:100BF00030B589B004AA174B180032C832C21100B0
:100C000002680A606A46103313CB13C21B68136074
:100C1000114B5A680C231340082B19D1910C073340
:100C2000194004A8445C0C49C96A0B406946C95C78
:100C3000D30308D463011B1B9801C01AC000041918
:100C4000200209B030BD0548FFF770FA6043F8E7AD
:100C50000248F6E7083700080010024000127A0048
:100C600070B505000C004D4B1A68012313408B42F0
:100C70000BD24A490B680122934323430B600B6854
:100C80001A40A24201D0012070BD2B689B0706D5F7
:100C9000434A5368F0218B43A9680B4353602B6888
:100CA000DB074BD56B68012B20D0022B24D03C4AAC
:100CB000126892076FD53A494A680320824313436A
:100CC0004B60FFF7E9FA06006B68012B1AD0022B84
:100CD00026D0334B5B680C221A422FD0FFF7DCFA88
:100CE000801B304B9842F4D90320CDE72C4A126880
:100CF0009203E0D40120C7E7294A12689201DAD4AE
:100D00000120C1E7264B5A680C231340042B15D051
:100D1000FFF7C2FA801B234B9842F3D90320B3E7B5
:100D20001F4B5A680C231340082B07D0FFF7B4FA67
:100D3000801B1C4B9842F3D90320A5E7174B1A6878
:100D400001231340A3420BD914490B68012293439A
:100D500023430B600B681A40A24201D0012093E7A5
:100D60002B685B0706D50E4A53680F490B40E968AC
:100D70000B435360FFF73CFF094B5A6812090F23DE
:100D800013400A4AD35CD840094B18600020FFF793
:100D900059FA002078E7012076E7C046002002409B
:100DA0000010024088130000FFF8FFFF64390008BC
:100DB00054040020014B18687047C04654040020BA
:100DC00010B5FFF7F7FF044B5A68120A07231340C8
:100DD000024AD35CD84010BD0010024074390008AC
:100DE00070B582B004000368DB0335D53C4BDB698A
:100DF000DB0048D43A4AD169802040050143D161E3
:100E0000D36903400193019B0125364B1B68DB0529
:100E10003BD5334B1B6AC0229200134013D061684C
:100E20000A409A420FD02E4B186A2F4A02401E6A7F
:100E30008021490231431962196A2C4E31401962EE
:100E40001A62C30735D4264A136A27490B406168E2
:100E50000B431362012D3BD02368DB0706D5204AE4
:100E6000136B03218B43A1680B43136323689B0619
:100E700033D51B4A136B10218B43E1680B4313637B
:100E8000002002B070BD0025BFE7164A116880231C
:100E90005B000B431360FFF7FFF90600114B1B6863
:100EA000DB05B6D4FFF7F8F9801B6428F6D90320D8
:100EB000E7E7FFF7F1F90600094B1B6A9B07C2D46D
:100EC000FFF7EAF9801B0A4B9842F5D90320D8E7CF
:100ED000D36908490B40D361BEE70020D1E7C04683
:100EE0000010024000700040FFFCFFFFFFFFFEFF0C
:100EF00088130000FFFFFFEFF8B506000C00170095
:100F00001D003EE0002D05D0FFF7C6F9069BC01A74
:100F1000A84236D332685368E0218B435360822362
:100F20005B0072689A420CD080239B01B26A9A429D
:100F300016D05D230122F254013B0022F25403201B
:100F400027E0B36880221202934203D08022D200AD
:100F50009342E9D13268136840218B431360E3E781
:100F6000326813680B490B401360326811688023A4
:100F70009B010B431360DCE70123BB4208D06B1CD1
:100F8000C0D133689B682340A342F5D00023F4E727
:100F90000020F8BDFFDFFFFFF0B583B007000C00B5
:100FA00015001E0001E0731C10D13A6893682340BD
:100FB000AB4245D0C023DB009C42F4D1002DF2D1DE
:100FC000137BDBB26A46D371D379ECE7002E05D0F0
:100FD000FFF762F9089BC01AB042E6D33A6853683B
:100FE000E0218B43536082235B007A689A420CD0E5
:100FF00080239B01BA6A9A4216D05D230122FA54DB
:10100000013B0022FA5403201BE0BB68802212023D
:10101000934203D08022D2009342E9D13A68136808
:1010200040218B431360E3E73A68136806490B409D
:1010300013603A68116880239B010B431360DCE75F
:10104000002003B0F0BDC046FFDFFFFF70B582B0E7
:1010500004000D001600C02100922B00002249015F
:10106000FFF79AFF002818D100962B00002280215C
:101070002000FFF741FF002816D1C02100962B0069
:101080000022C9002000FFF787FF00280AD0236E46
:10109000202213432366032004E0236E20221343FF
:1010A0002366032002B070BD236E20221343236603
:1010B0000320F7E770B582B004000D00160082230C
:1010C0005B0042689A420FD000962B0000228021DC
:1010D0002000FFF711FF002815D182235B00626812
:1010E0009A4216D002B070BD8368802212029342E9
:1010F00003D08022D2009342E6D1226813684021B7
:101100008B431360E0E7236E202213432366032002
:10111000E8E7A36880221202934203D08022D20023
:101120009342DFD1C02100962B000022C90020008D
:10113000FFF732FF0028D5D0236E20221343236609
:101140000320CFE710B5041E5ED0002383625D3319
:10115000C35C002B4CD05D230222E254226813684A
:1011600040218B431360E368E022D200934245D9CB
:101170000022F02109018B4205D0E021C9008B42F9
:1011800001D00021A162216B002905D1E021C90015
:101190008B4236D9022323636368A1680B4321691C
:1011A0000B4361690B4380218900A06901400B4317
:1011B000E1690B43216A0B432168A06A03430B607A
:1011C000618B04230B40616A0B43616B0B43E16845
:1011D0000B43216813434B602268D3690B490B40D2
:1011E000D361002323665D330122E254002010BD49
:1011F0005C330022C25402F063F8ACE78022520153
:10120000B7E701232363C7E70120F0E7FFF7FFFFFC
:10121000F0B585B004000D0016001F005C23C35C10
:10122000012B00D1D4E05C230122C254FFF734F833
:1012300001905D23E35C012B08D002205D23012295
:10124000E254013B0022E25405B0F0BD002D00D174
:10125000B4E0002E00D1B3E05C330322E25400235B
:101260002366A563A687E68723644132A352023230
:10127000A3522365E36480231B02A2689A421CD018
:1012800023681A68520603D41A6840210A431A6078
:10129000E023DB00E2689A4233D96368002B03D075
:1012A000E38F9BB2012B14D123682A88DA600235C0
:1012B000E38F013B9BB2E3870BE022681168802338
:1012C000DB010B431360DBE7002F00D17AE07B1CCE
:1012D0000FD1E38F9BB2002B58D023689A689207F6
:1012E000F2D52A88DA600235E38F013B9BB2E387AF
:1012F000EFE7FEF7D1FF019BC01AB842E9D3032004
:101300009CE76368002B03D0E38F9BB2012B21D1B4
:10131000E38F9BB2012B08D923682A88DA60023553
:10132000E38F023B9BB2E38714E02B7822681373B0
:10133000E38F013B9BB2E38701350BE02A781A73F8
:10134000E38F013B9BB2E387013503E0002F3BD0E5
:101350007B1C13D1E38F9BB2002B17D023689A68B4
:101360009207F3D5E28F92B2012AE7D92A88DA6090
:101370000235E38F023B9BB2E387EBE7FEF78CFF7E
:10138000019BC01AB842E5D3032057E7019A390000
:101390002000FFF75BFE002801D020232366A3680E
:1013A000002B06D103932368DA6803929B680393AA
:1013B000039B236E002B09D100203FE701203DE76E
:1013C00001203BE7032039E7032037E7012035E719
:1013D000022039E7F0B583B004000E0017001D00AD
:1013E0005C23C35C012B00D142E15C230122C25487
:1013F000FEF752FF01905D23E35CDBB26268012BD4
:1014000014D0822149008A4208D002205D230122A3
:10141000E254013B0022E25403B0F0BDA268002A6E
:1014200000D01BE1042B01D00220EFE7002E00D1F9
:1014300016E1002F00D115E1002D00D114E15D234C
:10144000E35C042B02D05D230522E25400232366D3
:1014500027644622A552023AA552A663E587A587CE
:10146000E3642365E023DB00E2689A4204D8462364
:10147000E35A9BB2012B22D9226853687D490B4065
:10148000536023681A68520603D41A6840210A433D
:101490001A60E023DB00E2689A4252D96368002BAD
:1014A00003D0E38F9BB2012B07D123683288DA6027
:1014B0000236E38F013B9BB2E38701251BE02268E4
:1014C000516880235B010B435360DAE74623E35AFC
:1014D0009BB2002B0CD023689A68D20708D5DB6832
:1014E0003B8002374622A35A013B9BB2A3520125FF
:1014F000089B01331CD1E38F9BB2002B05D14633EF
:10150000E35A9BB2002B00D19AE0002DDED0E38F8E
:101510009BB2002BDAD023689A689207D6D532881E
:10152000DA600236E38F013B9BB2E3870025CDE70B
:10153000FEF7B2FE019BC01A089B9842DBD3032042
:1015400064E76368002B03D0E38F9BB2012B0BD1C0
:10155000E38F9BB2012B09D923683288DA60023607
:10156000E38F023B9BB2E38701252EE033782268AC
:101570001373E38F013B9BB2E3870136F4E73278C4
:101580001A73E38F013B9BB2E387013600254623A4
:10159000E35A9BB2002B15D023689A68D20711D565
:1015A0004622A25A92B2012A37D9DB683B80023721
:1015B0004622A35A023B9BB2A352A35A9BB2012BD1
:1015C00023D90125089B013331D1E38F9BB2002B36
:1015D00004D14633E35A9BB2002B31D0002DD6D034
:1015E000E38F9BB2002BD2D023689A689207CED5A6
:1015F000E28F92B2012AC2D93288DA600236E38FD2
:10160000023B9BB2E3870025C1E722685168802333
:101610005B010B4353600125D4E71B7B3B704622E3
:10162000A35A013B9BB2A35201370125CAE7FEF73B
:1016300033FE019BC01A089B9842C6D30320E5E6FF
:10164000019A08992000FFF701FD002801D020230E
:101650002366236E002B09D10020D7E60220D5E6B1
:101660000120D3E60120D1E60120CFE60120CDE61E
:101670000220D1E6FFEFFFFFF0B585B004000D00BA
:1016800016001F0082235B0042689A4217D05C2339
:10169000E35C012B00D1B1E05C230122E254FEF7B0
:1016A000FBFD03905D23E35C012B14D002205D233E
:1016B0000122E254013B0022E25405B0F0BD8368F0
:1016C000002BE4D15D330422C254009733000A009A
:1016D000FFF780FEF1E7002D00D185E0002E00D15C
:1016E00084E05C330422E254002323662564403204
:1016F000A6520232A652A363A387E387E36423655D
:10170000E023DB00E2689A4217D9226853683C491B
:101710000B40536080231B02A2689A4214D02368B6
:101720001A68520603D41A6840210A431A60E0235B
:10173000DB00E2689A4211D92EE0226851688023CA
:101740005B010B435360E5E7226813682D490B40AA
:101750001360E4E7002F4BD07B1C11D14623E35AE2
:101760009BB2002B32D023689A68D207F2D51B7B3C
:101770002B7001354622A35A013B9BB2A352EDE7E1
:10178000FEF78AFD039BC01AB842E7D303208EE719
:10179000002F2FD07B1C11D14623E35A9BB2002B84
:1017A00014D023689A68D207F2D5DB682B80023503
:1017B0004622A35A013B9BB2A352EDE7FEF76CFD14
:1017C000039BC01AB842E7D3032070E7039A39009D
:1017D0002000FFF76FFC002801D020232366236E32
:1017E000002B09D1002062E7012060E701205EE7BD
:1017F00003205CE703205AE7012058E702205CE75A
:10180000FFEFFFFFFFBFFFFF10B504008368026911
:10181000134342691343C269134301680A685C4871
:10182000024013430B60226853685A490B40E16839
:101830000B435360A269236A1A4321688B68564898
:10184000034013438B60554B1A6B03231340012B4A
:1018500026D0002B05D0022B24D0032B24D010231C
:1018600000E0002380221202E16991421ED0022B87
:1018700000D16FE05ED9042B00D179E0082B00D0B5
:1018800084E06368580880231B029C4660446168BA
:10189000FEF74CFC23680004000CD86000202EE00A
:1018A0000423DFE70823DDE70223DBE7022B27D051
:1018B0000FD9042B2FD0082B39D163685808802307
:1018C0005B029C4660446168FEF730FC83B20020F6
:1018D0000CE0002B2BD1FFF773FA400063685B0824
:1018E000C0186168FEF722FC83B200200F221900A5
:1018F00091435B10083A13400B432268D36010BD3C
:1019000063685808264B9C4660446168FEF70EFCED
:1019100083B20020EAE7FFF76BF9400063685B08D9
:10192000C0186168FEF702FC83B20020DEE70120E8
:101930000023DBE7002B29D1FFF742FA63685B083D
:10194000C0186168FEF7F2FB23680004000CD86041
:101950000020D4E763685808124B9C4660446168D5
:10196000FEF7E4FB23680004000CD8600020C6E703
:10197000FFF73EF963685B08C0186168FEF7D6FBA5
:1019800023680004000CD8600020B8E70120B6E707
:10199000F369FFFFFFCFFFFFFFF4FFFF00100240DE
:1019A0000024F40000127A00436ADB0706D50268BF
:1019B00053682C490B40816A0B435360436A9B0771
:1019C00006D50268536828490B40C16A0B4353602F
:1019D000436A5B0706D50268536824490B40016BD4
:1019E0000B435360436A1B0706D5026853682049BE
:1019F0000B40416B0B435360436ADB0606D502681C
:101A000093681C490B40816B0B439360436A9B06B0
:101A100006D50268936818490B40C16B0B4393606D
:101A2000436A5B060BD50268536814490B40016C8E
:101A30000B43536080235B03026C9A420AD0436AD3
:101A40001B0606D5026853680D490B40816C0B4399
:101A500053607047026853680A490B40416C0B435E
:101A60005360ECE7FFFFFDFFFFFFFEFFFFFFFBFF03
:101A7000FF7FFFFFFFEFFFFFFFDFFFFFFFFFEFFF36
:101A8000FFFFF7FFFFFF9FFF0023C36620226921AE
:101A900042540131425448328354002070470000C0
:101AA00010B5041E30D06923C35C002B22D06923FB
:101AB0002422E2542268136801218B431360200022
:101AC000FFF7A2FE012814D0636A002B18D1226808
:101AD00053680E490B4053602268936808218B437A
:101AE00093602268136807390B4313602000FFF7E7
:101AF000CBFF10BD68330022C25401F015FCD6E7BD
:101B00002000FFF751FFE2E70120F2E7FFF7FFFFB8
:101B100030B583B001900D0000F094F800241C480B
:101B200000F0B0FA00F058F8012803D10134E4B213
:101B3000042CF4D9042C02D9002003B030BD154880
:101B400000F0A0FA012000F019FA002804D10220C8
:101B500000F045FA002410E001A800F091F801A877
:101B600000F0A8F8F3E70321200000F0BDF82900F9
:101B7000200000F0CFF80134E4B2032CF3D90020A8
:101B800000F0A0F9002000F0BFF90120D5E7C04621
:101B9000A0860100400D030010B5052000F034FAC6
:101BA000034B998818680122FEF7E3FD10BDC0467B
:101BB0000000002010B5012000F026FA00F052FAD3
:101BC0000400044B998818680122FEF7D2FD20001A
:101BD00010BDC0460000002010B5262000F014FA09
:101BE00000F040FA0400044B998818680122FEF7BF
:101BF000C0FD200010BDC0460000002010B5292007
:101C000000F002FA00F02EFA0400044B99881868DC
:101C10000122FEF7AEFD200010BDC04600000020EE
:101C200010B52C2000F0F0F900F01CFA0400044B71
:101C3000998818680122FEF79CFD200010BDC0465F
:101C40000000002010B5272000F0DEF90A4B99882B
:101C500018680122FEF78DFD002400E01C000748F3
:101C600000F010FAFFF7DCFF102804D1631CDBB290
:101C7000C82CF3D9EA3010BD000000201027000066
:101C800070B50500222000F0BFF9002406E06E1CAC
:101C9000287800F0D9F90134E4B23500032CF6D9E4
:101CA000034B998818680122FEF763FD70BDC0469A
:101CB0000000002070B50500232000F0A5F90024E5
:101CC00006E06E1C287800F0BFF90134E4B235005C
:101CD000032CF6D9034B998818680122FEF749FDB9
:101CE00070BDC0460000002070B505000C00342017
:101CF00000F08AF9280000F0A7F9200000F0A4F90C
:101D0000034B998818680122FEF733FD70BDC04669
:101D10000000002070B505000C00332000F074F9BD
:101D2000280000F091F9E0B200F08EF9200A00F0EE
:101D30008BF9034B998818680122FEF71AFD70BDD4
:101D40000000002070B504000D00160004E01848E3
:101D500000F098F9FFF72EFF164B9B78DBB223417A
:101D6000DB07F4D5134883780121A1408B438370AE
:101D7000392000F049F9200000F066F9F0B200F0D7
:101D800063F9300A00F060F9022000F07BF90024CA
:101D900005E0287800F058F901350134A4B2B442C6
:101DA000F7D3054B998818680122FEF7E2FC70BD55
:101DB00010270000080000200000002070B505007A
:101DC0000C00392000F020F9280000F03DF9E0B2C5
:101DD00000F03AF9200A00F037F9022000F052F939
:101DE00070BD70B505000E00002405E0287800F0F5
:101DF0002BF901350134A4B2B442F7D370BD000011
:101E000010B5034B998818680122FEF7B2FC10BD8B
:101E10000000002070B504003B2000F0F5F8200021
:101E200000F012F900F01EF985B200F01BF980B243
:101E3000000284B26419A4B2034B99881868012285
:101E4000FEF797FC200070BD0000002010B50400D4
:101E50002E2000F0D9F8200000F0F6F8034B998806
:101E600018680122FEF785FC10BDC0460000002066
:101E700070B504000E001500002900D170BD3C2093
:101E800000F0C2F8200000F0DFF8F0B200F0DCF85B
:101E9000300A00F0D9F8012000F0F4F8002405E041
:101EA00000F0E0F8287001350134A4B2B442F7D351
:101EB000034B998818680122FEF75BFCDEE7C046F9
:101EC0000000002010B50400352000F09DF820002F
:101ED00000F0BAF80A4B998818680122FEF749FC0D
:101EE000002400E01C00074800F0CCF8FFF798FE43
:101EF000102804D1631CDBB2C82CF3D9EA3010BD22
:101F0000000000208813000010B50400362000F007
:101F10007BF8200000F098F80A4B99881868012295
:101F2000FEF727FC002400E01C00074800F0AAF898
:101F3000FFF776FE102804D1631CDBB2C82CF3D95E
:101F4000EA3010BD000000208813000010B5040026
:101F5000302000F059F8200000F076F8022000F060
:101F600091F800F07FF80400034B9988186801226B
:101F7000FEF7FFFB200010BD0000002010B504009C
:101F8000412000F041F8200000F05EF80A4B9988EB
:101F900018680122FEF7EDFB002400E01C00074852
:101FA00000F070F8FFF73CFE102804D1631CDBB290
:101FB000C82CF3D9EA3010BD00000020204E0000EC
:101FC00010B50400EC2000F01FF8200000F03CF8F1
:101FD000FA20800000F056F800F044F810BD10B56B
:101FE0000400552000F010F8E0B200F02DF8A0B287
:101FF000000A00F029F8200CC0B200F025F8200EED
:1020000000F022F810BD000030B583B06B46DD1D36
:10201000D8710B4CA18801222068FEF7AAFBA18889
:1020200020680022FEF7A5FB642301222900054851
:10203000FFF7EEF8022000F025F803B030BDC046EF
:1020400000000020F809002000B583B06B46D91DC0
:102050000870642301220248FFF7DAF803B000BDDC
:10206000F809002010B582B06B46DC1D6423012204
:1020700021000348FFF700FB207802B010BDC046E6
:10208000F8090020C000084B586000229A60013215
:102090001A60054B1B68054A1340012BF9D0024B0F
:1020A00000221A609A60704710E000E00100010011
:1020B000064B994206D80B684360013304D0016097
:1020C000012000E0002070470020FCE7FE7F0008B0
:1020D000F0B5CE46474680B583B0070001924E6802
:1020E0000D68A94600238360436003600435013E08
:1020F0002B684B441C0008239846A0444146019895
:10210000FEF702F8002802D0002EEFDC06E043467E
:102110003B6063684B447B602368BB60380003B05E
:102120000CBC90469946F0BDF0B583B00700019114
:102130000468250000267B68B3420AD9043423686A
:10214000591908310198FDF7DFFF002804D0013646
:10215000F1E7002003B0F0BD0120FBE7F0B587B048
:102160000E001400056800230293039501220492D7
:10217000019372B6FEF71AF901A902A8FEF7DAF97F
:1021800013E0317805AAD154013CA4B201360133E1
:102190009BB2032B01D8002CF3D12F1D059A0023ED
:1021A00029000220FEF752F93D00002C02D0002346
:1021B0000593EEE7FEF712F962B607B0F0BD0368CB
:1021C00005E01878087001310133013A92B2002A13
:1021D000F7D1704770B50500441D2000FDF79EFF44
:1021E00020180B22034901F069F9280000F05EFC79
:1021F00070BDC04638370008F8B50400144900F037
:1022000069FA05001349200000F064FA0600002D69
:102210000CD000280AD0280000F081FA0500300018
:1022200000F07DFA062D01D8062806D996210A4A23
:102230004900200000F092FBF8BD0100280000F0EA
:10224000B3FF064AC821200000F088FBF4E7C0462F
:10225000683700086C3700087837000870370008C6
:1022600010B5024AC82100F079FB10BD5C370008A8
:1022700010B5024AC82100F071FB10BD44370008B8
:1022800070B5050000F0E0FF04000F4E0F4B1B88F7
:1022900033800F2303403033B370F01C04220C4909
:1022A00001F00CF92409E4B23034B471F01D0322BA
:1022B000084901F003F9002373723200C821280095
:1022C00000F04CFB70BDC0467404002028370008A5
:1022D0002C3700083037000830B583B005001B4BA1
:1022E000009300236A4613714533C35C002B01D071
:1022F000012407E09621164A490000F02FFB22E056
:102300000134E4B2062C14D8A0B26B46D91C00F0FC
:102310001CFA6946280000F0DDF9011EF0D0601EAD
:1023200003011B1A0B48181801300F2201F022F983
:10233000E6E75B2207490848FFF710FF074AC82174
:10234000280000F00BFB03B030BDC046616E740086
:102350004C370008F40800200C040020583700080F
:1023600070B505001148002401E00134E4B2052CE9
:1023700016D80F4900F092FC2300313303703D233F
:10238000437002302101091B0A4BC91801310F2289
:1023900000F08DFC052CE8D0262303700130E4E723
:1023A000024AC821280000F0D9FA70BD800400203C
:1023B00034370008F40800200023037045228354BA
:1023C0000371C370DF3283548C3A83548432835256
:1023D00070470000F8B50400FDF7A0FE05000328D3
:1023E00036D9471FE71923493800FDF78DFE00282D
:1023F00030D02E1FA61920493000FDF785FE002899
:102400002AD01E493000FDF77FFE002826D0E81EA6
:1024100020181B49FDF778FE002821D0194930000B
:10242000FDF772FE00281DD017493000FDF76CFE45
:10243000002819D015493800FDF766FE002815D090
:1024400013493000FDF760FE002811D0114800E06C
:102450001048F8BD1048FCE70F48FAE70F48F8E7C6
:102460000F48F6E70F48F4E70F48F2E70E48F0E7A9
:102470000E48EEE7C0370008C8370008D03700081C
:10248000D8370008DC370008E4370008EC370008CC
:10249000F4370008CC3800089C380008843800085D
:1024A000B4380008D8380008A83800089038000868
:1024B000F8B506000D000800FDF730FE070034688F
:1024C000002C07D02900200001F087F8051E03D159
:1024D000002333602000F8BD3A00002100F0F7FF30
:1024E000ED193560F6E7000030B585B005000378DA
:1024F000012B4FD0002B07D0032B00D1A8E0042BD9
:1025000000D1ABE00120AEE00391684903A8FFF7DA
:10251000CFFF041E00D1C2E08022D200644901F046
:102520003DF8002800D1BAE002AA6249200001F07B
:102530009AF8041E00D1B2E05F49FDF7E5FD0028DE
:102540002DD10023EB7002AA5A49002001F08BF82C
:10255000002800D1A3E06C1D40220100200001F002
:1025600009F83F21200000F0C8FFEB78002B06D1CE
:10257000002804D00370441C4378002B1BD102AA0E
:102580004C49002001F06FF8002800D187E02B783B
:1025900001332B70454903A8FFF78AFF31E0474913
:1025A0002000FDF7B1FD002802D10123EB70CAE73E
:1025B0000023EB70C7E701AA4149200001F053F85E
:1025C0000BE04522AB5C591CA95412339B005851B7
:1025D00001AA3B49002001F046F80028F1D1CEE7DE
:1025E00002AA384901F03FF8002858D0364900F0D7
:1025F000F4FF002801D001232B712C4903A8FFF719
:1026000057FF002821D002AA2E4901F02CF8041E01
:102610001BD00378002B18D02C49FDF775FD00283E
:10262000DED02B492000FDF76FFD0028E5D102AA7E
:10263000244901F018F8002831D02B0058334022EB
:102640000100180000F096FFD7E72B7801332B70BC
:10265000EB78012B09D02B7801332B7092235B0090
:102660000122EA54012005B030BD104903A8FFF74C
:102670001FFF0028EFD001AA114900F0F4FF0BE082
:102680004522AB5C591CA95412339B00585101AA36
:102690000B49002000F0E7FF0028F1D1DBE7002321
:1026A0002B7092225200AB540020DCE7083900085E
:1026B00018390008E4380008FC3800080039000820
:1026C000203900088038000824390008E83800085C
:1026D000F4380008F0B54523C75C002F1DD0002654
:1026E00005E01278002A01D13D2B12D00136B74205
:1026F00011DD330012339B001C580A002378002B95
:10270000EFD01578002DECD0AB42EAD10132013484
:10271000F4E7601C00E00020F0BD0020FCE710B5ED
:102720000400002000220AE0810040184100C9B2E4
:102730005B18DBB2303BD8B201340132D2B2022A8C
:1027400002D82378002BEFD110BDF8B504000D009E
:1027500000270EE07E1CF6B2EF190A212000FDF7DB
:102760006BFD303139700A212000FDF7DFFC84B2A7
:102770003700002CEED1EB1900221A70002309E07B
:10278000E9180C78FA1A013AAA1816780E70147023
:102790000133DBB27A089A42F2D83800F8BD000063
:1027A00082B0F0B5CE4600B58AB006000C00150028
:1027B0001092119307009C371000FDF7AFFC03380F
:1027C00028185C49FDF7A0FC002800D18CE0280007
:1027D000FFF700FE019000259C230022F2543800F0
:1027E000FDF79CFC38180922534900F067FEA4232A
:1027F0002022F254A0B23400A5342100FFF7A5FF37
:1028000024182000FDF78AFC201806224B4900F00E
:1028100055FE631D99461800FDF780FC48440D22C3
:10282000474900F04BFE11239946A1443379012B0F
:102830006BD04846FDF772FC48440922414900F03C
:102840003DFE1934002D6AD12000FDF767FC2018E9
:102850000F223D4900F032FE0E34019D2900200078
:1028600000F03DFE2800FDF759FC24182000FDF77C
:1028700055FC20180322354900F020FEA51C280035
:10288000FDF74CFC28181122314900F017FE1234D4
:10289000129B9DB221002800FFF757FF241820004B
:1028A000FDF73CFC20180322284900F007FE023403
:1028B0002000FDF733FC20180322244900F0FEFD20
:1028C0003800FDF72BFC9A23F0528233F552043383
:1028D000119AF250883B0122F2540AB004BC91468E
:1028E000F0BC08BC02B01847290002A800F013FE93
:1028F00002A8FDF713FC0338002302AA13541000AA
:10290000FFF768FD0190012566E74846FDF706FCE4
:1029100048440D220F4900F0D1FD1D3492E72000FC
:10292000FDF7FCFB201819220B4900F0C7FD1834F5
:102930008AE7C046FC3700087438000800380008F1
:1029400008380008283800085038000830370008D8
:10295000603800081838000834380008F0B583B033
:1029600007000E00019205009C359C230022C254F2
:102970002800FDF7D3FB28180922444900F09EFDEA
:10298000A4232022FA543C00A534B0B22100FFF762
:10299000DCFE24182000FDF7C1FB201806223C496C
:1029A00000F08CFD661D3000FDF7B8FB30180D22DD
:1029B000384900F083FD0C363B79012B5BD03000A9
:1029C000FDF7ACFB30180922334900F077FD1934CC
:1029D000781DFFF7FFFC06002000FDF79FFB201885
:1029E0000F222E4900F06AFD0E343100200000F065
:1029F00076FD3000FDF792FB24182000FDF78EFBDA
:102A000020180322264900F059FDA61C3000FDF7CE
:102A100085FB30181122234900F050FD1234019E2D
:102A20003000FDF77BFB80B22100FFF78EFE2418FB
:102A30002000FDF773FB20180322194900F03EFD2A
:102A400002342000FDF76AFB20180322144900F02D
:102A500035FD2800FDF762FB9A23F8523000FDF7A0
:102A60005DFB8E235B00F8520433FE50883B01224D
:102A7000FA5403B0F0BD3000FDF750FB30180D22C2
:102A8000094900F01BFD1D34A2E7C0467438000858
:102A900000380008083800082838000850380008B6
:102AA000303700086038000818380008F0B59FB0CB
:102AB0000600451D29003048FFF736FB002816D0D8
:102AC0002A002D4904A8FFF703FB049B002B22D00A
:102AD0002A00294918A8FFF7FBFA1A9B03930093D1
:102AE000189A199BC8213000FFF75AFE2BE02900E5
:102AF00007A800F010FD07A8FDF710FB07AB9C46E8
:102B0000604404221D4900F0D9FC07A91A48FFF7C8
:102B10000BFB002819D11A4C1A4B220083CB83C21D
:102B200040222900200000F0FEFC2000FDF7F6FA0C
:102B300020180322144900F0C1FCCA2122004900D8
:102B40003000FFF70BFF1FB0F0BD07AA0A4904A829
:102B5000FFF7BEFA049B002BDDD007AA06491BA88D
:102B6000FFF7B6FA1D9B039300931B9A1C9BC82189
:102B70003000FFF715FEE6E7E8080020FC37000804
:102B8000700800200C39000830370008F0B5C64640
:102B900000B582B0060001241CE00137FFB2062F09
:102BA00010D8681D0197FB003A4A9958402200F05E
:102BB000D0FC0028F1D1019BDA00364B9B185B68F2
:102BC00028009847072F25D09823EB5C012B25D0B0
:102BD0000134E4B2032C59D8E3001B199B001B19E4
:102BE000DD00293DFF3D2C4BED187378DBB223410E
:102BF000DB07EDD592235B00EB5C002BE8D073780C
:102C00000121A1408B43737092235B000022EA54A0
:102C10000027C4E72800FFF749FFD5E79933E95AB1
:102C2000AF23DB005B1A9BB28E225200AA5A171CFC
:102C30009A4200D91F1CBFB2C91989B22000FFF700
:102C4000BDF828009C309A23E95AFFF7CAF8902370
:102C50005B0098463900E858FFF7C3F8FFF7D0F853
:102C60008E225200AB5ADB1B9BB2AB524246AA5893
:102C7000944667444246AF50002B03D1983300225C
:102C8000EA54A5E798230222EA54A1E702B004BC63
:102C90009046F0BD14040020F804002002E0037008
:102CA000013101300B78002BF9D10370704704E03B
:102CB000037001310130013A92B20B78002B01D040
:102CC000002AF5D10023037070470000F0B589B0E9
:102CD0001422002103A800F0FAFB2B4B5969802035
:102CE000C003014359615A6902400092009A596930
:102CF00080208002014359615A6902400192019A81
:102D00005A698021C9020A435A615B690B400293E8
:102D1000029B002203211D48FDF72BFD1C4D0022C4
:102D200029009020C005FDF724FD012210219020EC
:102D3000C005FDF71EFD032303930124049402261E
:102D400005960027069703A91048FDF745FC039553
:102D500004940596069703A99020C005FDF73CFC56
:102D60001023039304940594069703A99020C005AB
:102D7000FDF732FC0396074B0493059403A906481C
:102D8000FDF72AFC09B0F0BD001002400014004815
:102D900003060000000021100004004810B50F4891
:102DA0000F4B036082235B00436000238360E022BB
:102DB000D200C26002220261013A42618022920086
:102DC0008261C361036243628362FA3AFF3AC2627C
:102DD00003634363FEF7B6F910BDC046F80900204F
:102DE0000030014010B50948094B036096239B0150
:102DF000436000238360C36003610C2242618361EE
:102E0000C36103624362FEF74BFE10BD88090020D8
:102E10000038014010B5002200210520FDF742FADC
:102E20000520FDF76FFA10BD10B594B02C220021DB
:102E300009A800F04CFB1022002104A800F047FB79
:102E400010220021684600F042FB0223089301246F
:102E50000B940E330C9308A8FDF7A0FC07230493F2
:102E60000023059306930793002104A8FDF7F8FEBD
:102E70000094032302936846FDF7B2FF14B010BD1F
:102E800030B585B03C4B3D491A0011C911C23C48D0
:102E900012C812C211003B4A11CA11C100221A768F
:102EA00039491A001C3211C911C238491A0024329A
:102EB00011C911C2364A2C3303CA03C3FDF7D4F932
:102EC000FFF7B2FFFFF702FFFFF768FFFFF78AFF88
:102ED000FFF7A0FF2F4C5B2221002F48FFF76FF96F
:102EE0002378AA2B13D02D4C5A220021200000F069
:102EF000EEFA013CAA232370274D5B222100280013
:102F0000FFF72CF95B2221002800FFF758F9244C29
:102F100024492000FFF7CCF8234A210001A8FFF73D
:102F2000D7F82248FFF7AEF8FEF736FE2048FFF745
:102F3000A9F8204D00242C701F4B19881F4B1868CE
:102F4000FEF7E6FD28701E4B1C701E4B1C701C4BC0
:102F50001B78002BE5D11B4B1B78002BE1D1154BC7
:102F60001B78002BF3D0184B5B78002BEFD0164862
:102F7000FFF70CFEEBE7C046500900202C39000893
:102F8000343900083C390008443900084C3900083D
:102F900054390008F40800200C040020F508002033
:102FA000E8080020004400085C390008E0930400B1
:102FB000400D0300C0080020500400204C040020F5
:102FC0004F090020F008002008000020F8B5CE4688
:102FD000474680B5FEF712FE430702D56C4B01222F
:102FE0001A700009C5B2002D00D1CCE0012437E0F1
:102FF0001B33FF33F35A984690235B00F158654B1F
:10300000984501D90133984642462000FEF79AFEC2
:103010008E225200B35A41465B1A9BB2B3529021A2
:103020004900725842447250002B70D07B0776D40E
:103030003B0706D558490B780122A2401343DBB267
:103040000B70FB060AD5544A11780123A340DB43D9
:103050005BB21940117051780B4053700134E4B2E7
:10306000032C00D98FE06D08EB07F7D52000FEF7A1
:103070006DFF0700C307D9D547498B780122A240CD
:103080001343DBB28B70E3001B199B001B19DE009E
:10309000293EFF3E414BF6189823F35C022BA7D044
:1030A000012BC3D19933F15AAF23DB005B1A9BB2DA
:1030B0008E225200B25A101C9A4200D9181C83B2B8
:1030C0009846414489B22000FEF778FE30009C30DB
:1030D0009A23F15AFEF785FE90235B0099464146FC
:1030E000F058FEF77EFEFEF78BFE8E225200B35A9A
:1030F00041465B1A9BB2B3524A46B25842444946D3
:103100007250002B07D198330022F2548EE7300022
:10311000FFF752F98AE798230222F25486E7E30088
:103120001B199B001B19DE00293EFF3E1B4BF618A6
:103130002000FEF76FFE8046194B984200D9984652
:10314000184B99461A0041462000FEF791FE4B4667
:10315000D81E40440023C3703000FFF72DF926230A
:10316000FF33F45449463000FFF7BEF9002806D07B
:1031700009494B780122A2401343DBB24B70200077
:10318000FEF764FE54E70CBC90469946F8BDC04675
:103190004F0900207705000008000020F8040020F7
:1031A000FF0300000B000020F0B5CE46474680B577
:1031B00087B00400234B187634229954884201D0FA
:1031C000002438E0002836D037E0E9461D4B9C4605
:1031D000E200151BAB0063444D46C0CBC0C5161BB7
:1031E000B300634418001E0008362F000ACE0AC739
:1031F00004AE03001033370003CB03C7121B930048
:1032000063441F7E012398461A003A404B46998832
:103210000098FDF7AEFA7A0843461A40A98802984A
:10322000FDF7A7FABF0802223A40B1880498FDF7DB
:10323000A0FA0134E4B2012CC7D907B00CBC904607
:103240009946F0BD5009002010B58120FEF7B8FE68
:103250008208012313404208D2B2520002210A40E0
:103260001343810004220A4013430209D2B212011F
:1032700010210A4013438209D2B2520110310A4090
:1032800013434009C0B2800140221040184310BDD2
:1032900082B00A4B996901221143996199690A40E8
:1032A0000092009ADA69802149050A43DA61DB69F4
:1032B0000B400193019B02B07047C04600100240D2
:1032C00010B588B004001422002103A800F0FFF814
:1032D0002268134B9A4201D008B010BD114B996976
:1032E00080204001014399619A6902400192019A4C
:1032F0005A69802189020A435A615B690B40029333
:10330000029BE0230393DE3B0493013B05930233CE
:103310000693902003A9C005FDF75EF9DCE7C046DF
:10332000003001400010024010B588B004001422A3
:10333000002103A800F0CBF82268134B9A4201D079
:1033400008B010BD114B99698020C00101439961FB
:103350009A6902400192019A5A69802189020A43BE
:103360005A615B690B400293029B0C2303930A3B57
:10337000049301330693023B0793902003A9C005F1
:10338000FDF72AF9DCE7C046003801400010024092
:103390007047FEE77047704710B5FCF775FF10BD2A
:1033A00010B501E0FFF712FE02210448FDF7DAF93B
:1033B0000028F7D00220FDF7E3F910BD0004004813
:1033C000114B1A6801210A431A605A680F480240DB
:1033D0005A601A680E4802401A601A680D48024086
:1033E0001A605A680C4802405A60DA6A0F20824319
:1033F000DA621A6B094802401A635A6B8A435A63AD
:1034000000229A607047C046001002400CB8FF08C6
:10341000FFFFF6FEFFFFFBFFFFFFC0FFECFEFFFF1D
:103420000D4885460D480E490E4A002302E0D45847
:10343000C4500433C4188C42F9D30B4A0B4C0023FC
:1034400001E013600432A242FBD3FFF7B9FF00F0A2
:1034500011F8FFF715FDFEE7FF0F00200000002028
:103460005804002084390008580400205C0A002019
:10347000FEE7000070B500260C4D0D4C641BA41037
:10348000A64209D1002600F033F90A4D0A4C641B0C
:10349000A410A64205D170BDB300EB589847013681
:1034A000EEE7B300EB5898470136F2E77C390008A5
:1034B0007C3900087C39000880390008002310B5E9
:1034C0009A4200D110BDCC5CC4540133F8E703002C
:1034D0001218934200D1704719700133F9E70200C6
:1034E00010B51378541C002B05D1CC5CD454013397
:1034F000002CFAD110BD2200F3E7C9B20378002BEB
:1035000004D08B4200D170470130F7E74B4259415C
:1035100049420840F7E703000A7801311A70013385
:10352000002AF9D17047F0B504002378002B08D1A8
:103530001F00561E934203D0CD5CE554002D02D1EE
:10354000F0BD0134F1E79E4201D1A5196F7001333E
:10355000F0E7002330B59A420AD0013AC45CCD5C52
:10356000AC4204D1934202D00133002CF6D1631B4C
:10357000180030BD30B50500002A00D130BD0C78F0
:10358000013A6B1C2C700131002C05D19A189A421B
:10359000F4D01C700133FAE71D00EDE770B50E00A2
:1035A000050011003000140000F087F80300844289
:1035B00002D8325C002A0DD121003200280000F030
:1035C00062F8041E06D0421B0021280000F050F8CB
:1035D000002800D00024200070BD10B50378002B17
:1035E0000FD10B785A4253415B42184010BD002363
:1035F000CA5C002AFAD0C45C944201D10133F7E7D7
:1036000001300378002BF2D11800EFE7F0B5002865
:1036100004D11068002801D1F0BD20000E0005780B
:10362000441C3778002F04D1002D10D115602800DC
:10363000F2E70136BD42F4D1002BEED114600370E5
:10364000EAE733000DE00135002F03D11C000D0027
:103650002678631C2F78BE42F5D1002EF1D00021D0
:1036600021701360D8E710B50123FFF7CFFF10BD1D
:10367000C9B28218904201D10020704703788B4272
:10368000FBD00130F6E7F7B50700009101921E006C
:1036900004000D00002B09D12000FEBD320001996D
:1036A000200000F015F80028F6D0013D009BFC1822
:1036B000641BB542F2D20024EEE7030041188B42AE
:1036C00002D01A78002A01D1181A70470133F6E7A0
:1036D00030B50024A24201D1002005E0035D651C45
:1036E0000C5DA34201D0181B30BD2C00F2E7000096
:1036F000F8B5C046F8BC08BC9E467047F8B5C04651
:08370000F8BC08BC9E467047AE
:1037080002030405060708090A0B0C0D0E0F10101A
:103718000102030405060708090A0B0C0D0E0F1019
:10372800413D000026423D000D0A0000616E740014
:10373800696E6465782E68746D6C000052657365F7
:10374800740D0A0042616420617267730000000012
:103758004F4B00005374617475730D0A000000002C
:1037680041000000420000004F4B0D0A000000001D
:10377800496E76616C69640D0A0000002F737769E1
:10378800746368002F676574616C6C6F6300000078
:103798002F737461747573002F72657365740000FC
:1037A8002F7365746C6162656C0000002F67657427
:1037B8006C6162656C0000002E68746D6C0000001E
:1037C8002E68746D000000002E6373730000000003
:1037D8002E6A73002E706E67000000002E6A7067F4
:1037E800000000002E6A7065670000002E67696699
:1037F800000000002E677A00204F4B0D0A000000E1
:10380800436F6E6E656374696F6E3A200000000046
:103818004B6565702D416C6976650D0A00000000E6
:10382800436C6F7365640D0A00000000436F6E748B
:10383800656E742D456E636F64696E673A20677AAA
:1038480069700D0A00000000436F6E74656E742D78
:10385800547970653A200000436F6E74656E742D5C
:103868004C656E6774683A20000000004854545054
:103878002F312E31000000003A2000007465787462
:103888002F63737300000000696D6167652F6769B6
:1038980066000000746578742F68746D6C00000011
:1038A800696D6167652F6A70656700006170706C8B
:1038B80069636174696F6E2F6A6176617363726997
:1038C80070740000746578742F706C61696E000004
:1038D800696D6167652F706E670000002000000049
:1038E800436F6E6E656374696F6E0000436F6F6B34
:1038F8006965000047455400504F535400000000CC
:103908000D0A00004E6F7420466F756E643A2000F1
:10391800485454502F000000260000004B65657085
:1039280000000000001400480100000000000048EA
:1039380000040000000000480002000000000048E9
:1039480002000000000000480100000000140048C8
:10395800020000002F612E7478740000000000003F
:103968000000000001020304060708090000000027
:043978000102030441
:04397C00E900000856
:04398000C10000087A
:1039840000000048100000000000FF0000000000DC
:103994000000000000000000000000000000000023
:1039A4000000000000000000000000000000000013
:1039B4000000000000000000000000000000000003
:1039C40000000000000000000000000000000000F3
:103D840000000000000000000000000000400008E7
:103D9400000400001C390008D521000884370008FD
:103DA400F92100088C3700088122000898370008A0
:103DB40061220008A037000871220008A837000813
:103DC400D9220008B437000861230008C0A8040100
:083DD4005000000000127A000B
:04000005080034219A
:00000001FF
