:020000040800F2
:10000000FF1F002091520008E1510008E55100084F
:1000100000000000000000000000000000000000E0
:10002000000000000000000000000000E95100088E
:100030000000000000000000ED510008F151000830
:10004000E152000800000000E1520008E1520008FF
:10005000E1520008E1520008E1520008E1520008B4
:1000600000000000E1520008E1520008F9510008C8
:10007000E1520008E1520008E152000800000000CF
:10008000E15200081152000800000000E15200088F
:10009000E1520008E1520008E1520008E152000874
:1000A000E1520008E1520008E1520008E152000864
:1000B00021520008000000000000000000000000C5
:1000C00010B5064C2378002B07D1054B002B02D02E
:1000D000044800E000BF0123237010BDA8060020E3
:1000E0000000000040550008044B10B5002B03D061
:1000F0000349044800E000BF10BDC04600000000F6
:10010000AC0600204055000802780B78002A03D086
:10011000013001319A42F7D0D01A70470023C25CF7
:100120000133002AFBD1581E70470000002243080B
:100130008B4274D303098B425FD3030A8B4244D3AF
:10014000030B8B4228D3030C8B420DD3FF220902F1
:1001500012BA030C8B4202D31212090265D0030BB0
:100160008B4219D300E0090AC30B8B4201D3CB03A6
:10017000C01A5241830B8B4201D38B03C01A5241E8
:10018000430B8B4201D34B03C01A5241030B8B42EA
:1001900001D30B03C01A5241C30A8B4201D3CB02D5
:1001A000C01A5241830A8B4201D38B02C01A5241BA
:1001B000430A8B4201D34B02C01A5241030A8B42BD
:1001C00001D30B02C01A5241CDD2C3098B4201D3D5
:1001D000CB01C01A524183098B4201D38B01C01A53
:1001E000524143098B4201D34B01C01A52410309CA
:1001F0008B4201D30B01C01A5241C3088B4201D379
:10020000CB00C01A524183088B4201D38B00C01A25
:10021000524143088B4201D34B00C01A5241411A4C
:1002200000D20146524110467047FFE701B5002059
:1002300000F006F802BDC0460029F7D076E7704707
:100240007047C04610B501007022024800F094F8D3
:1002500010BDC046000000200100702210B5034808
:1002600000F016F80022024B1A7010BD00000020AA
:10027000C4060020054B10B51968082205F0A1F846
:10028000C0B243425841C0B210BDC046340600203F
:10029000F0B54746CE46036880B5994680231B01DA
:1002A0004B440F00140098464D4687B002E00435D9
:1002B000A8455DD02B68002BF9D02E00454504D30E
:1002C00005E00436B04502D933680133F9D172B67E
:1002D00000F05CFA0023029303934B46049301233E
:1002E0000593A30801339B00F318984507D239E022
:1002F000290000220023022000F094FA0435AE42C7
:10030000F6D8B1460023494602201A4A00F08AFA7C
:1003100000250436002C13D03B00019501A80437BA
:100320001A78013C01330270A4B20130BB420FD0F5
:10033000002CF5D1002331000220019A00F072FA5E
:1003400000F038FA62B607B0C0BCB946B046F0BD9E
:10035000310000230220019A00F064FA0436002CD8
:10036000DAD1EDE702A903A800F0C0FA4E46C9E7CA
:100370004646ACE70A02CB07F0B580230E000568BD
:100380001B010021300083B01400EF1804F0D7FFE8
:10039000280002E00430874202D00368002BF9D025
:1003A0000D4B9C466544A84200D20430002C10D06E
:1003B00087420ED9036801AD0193330004362A78D1
:1003C000013C1A700133A4B201359E42EDD0002CDD
:1003D000F5D103B0F0BDC046FC07000010B5040025
:1003E000FA200E4B80001978FFF7A0FE0C4B01009D
:1003F0001868FFF79BFE00F089F800280CD1013047
:10040000032C00D910BD02380022210000F040F872
:10041000044B00201C60F5E70120F3E708000020F2
:10042000A00600200C0000201021064A10B5136819
:1004300000200B431360FFF7D1FF04F0F3FD002011
:1004400010BDC04600200240034A044B11681B78CF
:100450005B1813607047C046040E0020080000209F
:10046000014B18687047C046040E002070B50400A8
:10047000FFF7F6FF0500631C02D0044B1B78E4185D
:10048000FFF7EEFF401BA042FAD370BD080000202A
:1004900070B5002814DB154B03229C46FF2384080B
:1004A00010401A00C026C000890182400B408340E2
:1004B000A4006444B600A55995432B43A35170BDD5
:1004C0000B4A0F239446032203401040FC321500D0
:1004D000C000890185400A408240083B9B089B0080
:1004E0006344DC69AC432243DA61E8E700E100E001
:1004F00000ED00E0002805DB1F2318401E3B834071
:10050000014A13607047C04600E100E08022431EAC
:100510005204012093420ED2C021074A074853607B
:10052000036A09061B021B0A0B4303620023002017
:10053000936007331360704710E000E000ED00E0C7
:1005400070B5041E27D02125022343550068134AA5
:100550000368A1681A4063680B43E1680B43216993
:100560000B4361690B43A1690B43E1690B431343DF
:1005700003600B4B14219C466044FFF7D7FD094BE9
:100580000122E3630023800020640020A3636255FE
:100590001F32A35470BD0120FCE7C0460FC0FFFF0F
:1005A000F8FFFDBF00000240F0B52024055D012DDD
:1005B00037D0012521270555C55DEEB2012D03D0A9
:1005C000002303550220F0BD1E3CC4550024846363
:1005D0000468076C2568B543BE402560C56B6E6036
:1005E00063604368102B0ED0C36AA160E260002BE9
:1005F0000ED00E22236813432360012223680020BB
:1006000013432360DFE7C36AA260E160002BF0D1EF
:100610000A222368134323602368063A9343236026
:10062000EBE70220CFE7C046212330B5C25C022AA7
:1006300006D000221D3B83631C33C254012030BD11
:100640000E240268056C1168A14311600121146831
:100650008C4314600C00AC40C26B5460C154002247
:100660002023C2540020EAE7212370B5C25C022A8D
:1006700003D01D3B8363012070BD0E240268056C0E
:100680001168A1431160012114688C4314600C00AF
:10069000AC40C26B5460C15400222023C254436B4F
:1006A000002B02D098470020E6E70020E4E7C04690
:1006B000F8B504242600036CC56B9E402A680168C7
:1006C0000F6832420DD03C420BD00B689B0602D41F
:1006D0000B68A3430B60C36A6E60002B00D0984781
:1006E000F8BD022426009E40324214D03C4212D073
:1006F0000B689B0606D40A220B6893430B602123E8
:10070000093AC254202300226E60C254836A002B2F
:10071000E6D09847E4E7082426009E403242DFD026
:100720003C42DDD00A680634A2430A60012211006F
:100730009940212369608263C2540022013BC25464
:10074000036B002BCCD09847CAE7C04610210D4B55
:1007500010B5DA680B001340114205D00A4A0E3971
:10076000D3690B43D3611023064AD16804220A429D
:1007700005D0012404481343C1692143C161014AE2
:10078000D36010BD00200240080E0020064B002060
:100790001A69120606D5054A5A60054A5A60186950
:1007A0000006C00F7047C046002002402301674585
:1007B000AB89EFCD8021034A002013690B431361FD
:1007C0007047C04600200240F8B50400FFF748FE1D
:1007D00001260700124D01E0631C0FD1EB681E4299
:1007E000FAD12023EA68134211D10D4BDA68D20600
:1007F00012D4DB6800205B070ED4F8BD002C04D0B7
:10080000FFF72EFEC01BA042E8D90320F5E7EB60FE
:10081000034BDA68D206ECD5FFF798FF0120ECE72E
:1008200000200240F0B54E465746DE464546E0B54C
:100830009A4683B02A4B019299461B7E04000E0013
:10084000012B48D001254B4626481D76FFF7BCFFFB
:10085000002836D1012C40D0023C604244410423A0
:100860006442AC43A0469C46E044002300259B46DE
:1008700018E05346D3404A46594601271A4CD161E5
:1008800022699BB23A43226116483380FFF79CFFEE
:100890002369BB432361002813D10135EBB2023633
:1008A00098450ED920222B0152429A18E1D52022D8
:1008B0005146D21A91400A000199D9400B001343C6
:1008C000D9E700234A46137603B0F0BCBB46B246D4
:1008D000A946A046F0BD0220F6E701239846C4E7EA
:1008E000080E002050C3000000200240F0B546462C
:1008F0004F46D646C0B5304F06003B7E8846012B9A
:1009000057D001233B7603682C48012B34D0FFF7E6
:100910005BFF002834D1012342465B421360B36879
:1009200075689B025B199D422AD20023244C99468C
:100930000AE08023DB009C46726865449446B368F5
:100940009B026344AB421CD902224B469246FB6198
:1009500023691A4813432361656123693E321343B7
:100960002361FFF731FF5246236993432361002837
:10097000DFD043461D6004E0FFF726FF002807D0C4
:10098000012000233B76E0BCBA46B146A846F0BD44
:10099000042540220A4CF861236908482B4323614F
:1009A000236913432361FFF70FFF2369AB432361DF
:1009B000E7E70220E7E7C046080E002050C300002A
:1009C00000200240F0B54E46DE4657464546E0B5AB
:1009D0000A688946002387B0002A75D0012188461D
:1009E0006C498B46444615009C40254001952242A7
:1009F00066D04D4603266D682E40AA46751E012D11
:100A000069D95F00032E00D0A5E03400BC40E1436B
:100A100002910668029D354025430560C025544675
:100A2000AD022C424CD059468C6941460C43594684
:100A30008C618C69414603260F270C4056491E40A5
:100A40008C46B600B74090210594059C9C08A400F4
:100A50006444A568C905BD4388420ED04F4FB842D3
:100A600000D18EE04E4FB84200D18EE04D4FB842DB
:100A700000D182E00527B7403D434B49A5608C6813
:100A800001998025CE4351466D03294200D071E083
:100A9000344045498C60CC685146890267D4344063
:100AA0004149CC604D68514689035DD435403E498B
:100AB0004D600C685146C90352D434403A490C6029
:100AC00014000133DC408DD107B0F0BCBB46B24608
:100AD000A946A046F0BD85685F0003950325BD408B
:100AE000AC46E94302916146039D8D434946039517
:100AF000CD68BD40AC466146039D0D4385604168AD
:100B00000D005146A5430C0941460C409C402C4326
:100B10004460C46802990C40A4464C46A4686546EB
:100B2000BC402C43C4603400BC40022E00D070E7AF
:100B300007270F251F40BF00BD40DE08B6008619FD
:100B4000316AA9438C4649460969B9400F0061469C
:100B50000F4337625DE70325BD40E9430291D8E7C3
:100B6000019921430C00A9E701990D439FE70199E1
:100B70000C4395E701990C438BE70321B1400D43EA
:100B80007BE74146B1400D4377E70227B7403D433D
:100B900073E7C04600100240000001400004004816
:100BA00000080048000C00480004014000690840AB
:100BB000411E8841C0B27047002A01D08161704750
:100BC0008162FCE770B5041E23D00368154A1A60E1
:100BD000154A1A6042685A6082689A60FFF740FCC2
:100BE00023680600DA6852070CD00725FFF738FCA7
:100BF0002368801B272802D9DA6815420BD1DA68EE
:100C00001542F3D11969E268914206D000201A61B9
:100C100070BD0120FCE70320FAE7044A00201A60B7
:100C2000F6E7C046CCCC000055550000AAAA00004B
:100C30000368024A00201A607047C046AAAA000052
:100C4000F0B5CE46474680B5040083B0002800D1F9
:100C5000EEE00368DA0735D50C21C34842680A4044
:100C6000042A00D101E142681140082900D1F8E0CE
:100C70006368012B0FD0002B00D11EE1052B00D1A2
:100C8000A7E1B94BB9491A680A401A601A68B8490D
:100C90000A401A6005E08023B34A5B0211680B43E7
:100CA0001360FFF7DDFB80260500AF4FB60205E0BD
:100CB000FFF7D6FB401B642800D9FCE03B683342B9
:100CC000F6D023689A0729D50C22A7494868024222
:100CD00000D1A6E048680240082A00D19DE0E36800
:100CE000A14D002B00D11FE101222B6802271343E5
:100CF0002B60FFF7B5FB060005E0FFF7B1FB801B9B
:100D0000022800D9D7E02B681F42F6D0F8212A68C4
:100D100023698A43DB0013432B6023681A072DD411
:100D20005A0744D5802200208F4B5205D96981464D
:100D3000114208D1D9691143D961DB691A40019286
:100D4000019B0123994680278A4E7F0033683B42EE
:100D500000D194E0A368012B00D1F8E0002B00D172
:100D6000C4E0052B00D140E101217F4B1A6A8A4380
:100D70001A621A6A03318A431A62ECE0E3697A4D17
:100D8000002B5BD001226B6A022713436B62FFF7D3
:100D900067FB060005E0FFF763FB801B022800D914
:100DA00089E06B6A1F42F6D023685A07BAD4DB0683
:100DB00012D56369012B00D13DE1053300D0E9E094
:100DC0000421F820684A536B8B435363516BA3692A
:100DD0008143DB000B435363236A002B1BD00C229F
:100DE000614E71680A40082A00D108E1022B00D147
:100DF0003FE13368604A802513403360FFF730FBE2
:100E0000AD04040004E0FFF72BFB001B022852D8BE
:100E100033682B42F7D100200BE04A68D20300D59B
:100E20005DE7514A1268920739D5E268012A36D047
:100E3000012003B0C0BCB946B046F0BD01226B6AC8
:100E4000022793436B62FFF70BFB060004E0FFF7FA
:100E500007FB801B02282ED86B6A1F42F7D123683C
:100E6000A3E74268D20300D402E73F4A1268920324
:100E700000D427E76268002A00D023E7D8E7336868
:100E80003B433360FFF7ECFA050004E0FFF7E8FAB4
:100E9000401B64280FD833683B42F7D05AE7F82547
:100EA000314822690168D200A9430A4302601A0747
:100EB00000D435E762E70320BBE72B4D2B4A2B68B4
:100EC000802713402B602B68294ABF0213402B60F8
:100ED000FFF7C6FA060004E0FFF7C2FA801B642899
:100EE000E9D82B683B42F7D12368EBE601221E4E7E
:100EF000224D336A93433362336A0332934333623E
:100F0000FFF7AEFA02230700984604E0FFF7A8FABD
:100F1000C01BA842CFD84246336A1A42F6D14B468C
:100F2000012B4FD0236842E701222B68022793430D
:100F30002B60FFF795FA060004E0FFF791FA801B9B
:100F40000228B8D82B681F42F7D12368E6E6064985
:100F50000A6A13430B62FFF783FA034B06009846B5
:100F60000227064D11E0C04600100240FFFFFEFFC1
:100F7000FFFFFBFF00700040FFFFFFFE8813000033
:100F8000FFF76EFA801BA84295D843461B6A1F42A2
:100F9000F6D0C4E70422534D02276B6B13436B63F7
:100FA0006B6B033A93436B63FFF75AFA060005E055
:100FB000FFF756FA801B022800D97CE76B6B1F42B3
:100FC000F6D109E7474A4849D3690B40D361236802
:100FD000EDE68022434BD20219680A431A60802250
:100FE000196852020A431A605BE604213D4B1A6AF3
:100FF0000A431A621A6A03390A431A62ABE7012BE1
:1010000000D115E780237268656A5B020120F16AEE
:101010001340AB4200D00CE70F230B40E16A8B4238
:1010200000D006E7F02080030240A06A101A421E9A
:101030009041C0B2FDE604212A4E0227726B0A439A
:101040007263726B13437363FFF70AFA050005E0DE
:10105000FFF706FA401B022800D92CE7736B1F42EA
:10106000F6D0F821726BA3698A43DB0013437363E4
:10107000B2E633681D4A802713403360FFF7F0F96A
:10108000BF04050005E0FFF7EBF9401B022800D97B
:1010900011E733683B42F6D10F22F36A8025934370
:1010A000E26AAD041343F362616AA36A72680B4398
:1010B0000F490A4013437360802332685B04134373
:1010C0003360FFF7CDF9074E040005E0FFF7C8F9DC
:1010D000001B022800D9EEE633682B42F6D0002030
:1010E000A7E6C04600100240FFFFFFEFFFFFFFFE34
:1010F000FFFFC2FFF8B5CE46474604000D0080B59D
:1011000000280DD001234A490A681A40AA420CD28D
:101110000A689A432A430A600A681340AB4204D023
:101120000120C0BCB946B046F8BD23689A070ED569
:101130005A0705D5E0223F49D200486802434A6079
:10114000F0203C494A688243A06802434A60DB07BA
:1011500022D5384B62681B68012A5BD0022A56D020
:101160009B07DDD50321334E73688B4313437360B4
:10117000FFF776F90C2398462F4B0700994604E0B9
:10118000FFF76EF9C01B484547D8434672681A40BE
:1011900063689B009A42F3D10121254A13680B40F2
:1011A000AB4205D913688B43136013681942B7D15A
:1011B00023685B0706D51F4A204953680B40E16846
:1011C0000B4353600C231B494A681340082B0ED075
:1011D0001B48184B1B4A5B681B061B0FD35CD8408F
:1011E000194B18600020FFF7F9F8002099E7C96A49
:1011F0000733900C1840154C0B401549245CC95C12
:10120000D3030CD50E48FEF791FF6043E1E79B0145
:10121000A8D485E79B03A5D482E7032081E7630177
:101220001B1B9801C01AC00000190002D1E7C0467C
:10123000002002400010024088130000FFF8FFFF6A
:1012400000127A0040590008A006002064550008EA
:10125000745500080C23104910B54A681340082B38
:1012600001D00E4810BDC96A0733900C18400C4CD1
:101270000B400C49245CC95CD30304D50748FEF736
:1012800055FF6043EEE763011B1B9801C01AC000C5
:1012900000190002E6E7C0460010024000127A0082
:1012A0006455000874550008044B054A5B685B05EB
:1012B0005B0FD35C034A1068D840704700100240AF
:1012C00050590008A0060020F0B5C64600B50C0035
:1012D000160082B00700FFF7C3F83619361AFFF779
:1012E000BFF880258046274B1B685B011B0D7343AD
:1012F00001933A6801E0631C07D193681D42FAD15B
:10130000002002B080BCB846F0BDFFF7A9F8434604
:10131000C01AB04208D2019B5A1E93415B421E4044
:10132000019B013B0193E4E7E0213B685A688A4353
:101330005A60822279685200914214D08021BA6AA0
:1013400089018A4207D05D230122FA540022013B21
:101350000320FA54D5E719680B4801401960196851
:101360000A431A60EFE78021BA6809028A4203D073
:101370008021C9008A42E1D140211A688A431A605B
:10138000DCE7C046A0060020FFDFFFFFF0B5DE4629
:1013900057464E464546E0B583B01E006B46DF1CFF
:1013A0000023150081460C003B70FFF759F87619B1
:1013B000331A9846FFF754F84B461B68C0269A46E6
:1013C000354B83461A68F60093009A18D3009B1A8F
:1013D00042461B0D53435246019301E06B1C0BD157
:1013E000936823421DD0B442F8D153461B7BDBB235
:1013F0003B703B786B1CF3D0FFF732F85B46C01AAA
:10140000404516D2019B5A1E934142465B421A4008
:10141000019B9046013B01934B461A689368234217
:10142000E1D1002003B0F0BCBB46B246A946A046BD
:10143000F0BD4B46E0211B685A688A4349465A6012
:10144000822249685200914216D04A468021926A0F
:1014500089018A4208D05D2301224946CA540022EC
:10146000013B0320CA54DDE719680C4801401960AC
:1014700019680A431A60EEE74A4680219268090219
:101480008A4203D08021C9008A42DED140211A68F5
:101490008A431A60D9E7C046A0060020FFDFFFFF9D
:1014A000F8B582231700426804000E005B009A42E0
:1014B0000DD03A0031002000FFF706FF051E1BD1BA
:1014C000822362685B009A421CD02800F8BD80220B
:1014D00083681202934203D08022D2009342E8D163
:1014E00040212268200013688B43136031003A00CA
:1014F000FFF7EAFE051EE3D02022236E03251343E7
:101500002366E2E78022A3681202934203D080227E
:10151000D2009342D9D1C0213B0032002000C90043
:10152000FFF734FF0028D0D0E6E7C04670B51300BF
:101530000D0016000A00C02149010400FFF726FF34
:1015400000280FD1320029002000FFF7BDFE00283F
:1015500008D1C02133002A002000C900FFF716FF80
:10156000002804D020220320236E1343236670BD7D
:10157000F0B5D6464F4646460400C0B5002800D117
:101580008EE0456A002D65D000230361436100238E
:10159000A3625D33E35CDAB2002B68D05D230222E4
:1015A0004021E2542268E06813688B431360E02313
:1015B000DB00984262D9F0231B01984200D071E011
:1015C0008023A16A9B01194000238C469A468223FE
:1015D00066685B0033408426A76836023E4033438A
:1015E00002262769A1693E40334301266769B14657
:1015F00037403B438027BF000F403B433827E66915
:10160000090C374080263B433700266A3740664640
:101610003B43334313600823666B57463340F02641
:10162000360130401843042319400143102005407F
:101630000D432F435760D3691C4900200B40D361F1
:1016400000234A4623665D33E254E0BCBA46B14605
:10165000A846F0BD822342685B009A4297D00023DF
:10166000C561A3625D33E35CDAB2002B96D15C33D3
:101670002000E25403F0EEFC656A8FE7984206D042
:1016800080235B019A4600239C46A3629FE7802348
:10169000A16A9B01194080235B018C469A4696E71C
:1016A0000120D2E700239A46EDE7C046FFF7FFFF8F
:1016B000F0B5CE4647461D005C2380B59146C25C1E
:1016C0000400884683B0012A64D00122C254FEF788
:1016D000C7FE5D22A35C0600DFB2012B09D0022702
:1016E0005C230022E254380003B0C0BCB946B046C7
:1016F000F0BD4346002BF3D04B46002BF0D0032324
:10170000A35442460023A2634A462366A287E28787
:1017100044222364A3520232A3522365E36480234C
:10172000A26820681B029A425CD0402302681342E0
:1017300002D1026813430360E023E268DB009A42AF
:101740002AD96368002B57D04B46012B54D0022274
:10175000E38F9046002B0DD164E0A36B1A8802330F
:10176000C260E28FA363013A92B2E287E38F002B5B
:1017700058D02068424683681A42EED1FEF770FEC8
:10178000801BA842F2D36B1CF0D05D2301220327FB
:10179000E254A5E70227A6E76368002B37D04B4643
:1017A000012B34D0E38F002B3CD0022398460CE071
:1017B000A26B12781A73E28FA36B013A013392B2D3
:1017C000A363E287E38F002B2CD0414623689A68FD
:1017D0001142EDD1FEF744FE801BA842F2D36B1CF0
:1017E000F0D0D2E74022036893430360802302686D
:1017F000DB011343036098E743461B88C3604346FD
:10180000991CE38FA163013B9BB2E3879FE74346AB
:101810001B780373A36B0133A363E38F013B9BB27C
:10182000E387BFE7320029002000FFF77FFE002892
:1018300001D020232366A368002B06D101932368DF
:10184000DA6801929B680193019B236E002B00D004
:1018500046E701225D330027E25441E7F8B54746E9
:10186000CE4680B51F005C239146C25C04008846CA
:10187000089D012A00D1A7E00122C254FEF7F0FD25
:101880005D23E35C06006268D9B2012B10D082238D
:1018900002205B009A4206D05C230022E254C0BCC6
:1018A000B946B046F8BDA368002BF5D10429F3D1A1
:1018B0004346002B00D185E04B46002B00D181E050
:1018C000002F00D17EE05D23E15C042901D00521D9
:1018D000E1544946002321644621236667520239B8
:1018E00067524146E3642365E023A163E168E7872B
:1018F000A787DB00994269D9236866485968014087
:10190000596040211868014202D1186801431960EA
:10191000002A00D0B5E042461288DA604346991C9E
:10192000E38FA163013B9BB2E38701239946013317
:1019300046279846E38F002B02D1E35B002B34D07F
:10194000414623689A68114210D0E28F002A0DD0D8
:101950004A46012A0AD1A26B11880232D960A263D9
:10196000E28F013A92B2E2870022914601210800FB
:101970009A68104011420CD0E25B002A09D08146DF
:10198000DA68236C1A8002332364E35B013B9BB269
:10199000E353FEF765FD801BA842CBD36B1CC9D077
:1019A0005D2301220320E25476E732002900200063
:1019B000FFF7BCFD002802D0202301202366236E00
:1019C000002B62D0012067E7022068E780212368AE
:1019D000490158680143596040211868014202D109
:1019E000186801431960002A48D1424612781A73D8
:1019F000A36B0133A363E38F013B9BB2E387012316
:101A00009946013346279846E38F002B02D1E35BCA
:101A1000002BCAD0414623689A68114212D0E28F47
:101A2000002A0FD04A46012A0CD1A26B12781A73F1
:101A300000229146A36B0133A363E38F013B9BB26A
:101A4000E3872368012108009A68104011420DD0F5
:101A5000E25B002A0AD081461B7B226C1370236C48
:101A600001332364E35B013B9BB2E353FEF7F8FCD5
:101A7000801BA842C8D36B1CC6D091E7012FBED1F2
:101A8000B3E7012F00D050E745E701225D33E25470
:101A900002E7C046FFEFFFFFF0B5CE46474616000F
:101AA0005D2280B51D00835C0400894683B0DFB2EF
:101AB000012B6DD104334168FF33994200D171E0AD
:101AC0005C23E25C012A00D18BE00122E254FEF7A4
:101AD000C7FC4B468046002B5BD0002E59D05D23BF
:101AE0000422E2544A460023226444222366A6527A
:101AF0000232A652E022A363A387E387E36423654F
:101B0000E368D200934200D890E022684B485168C5
:101B1000014051608021A0680902884207D140201D
:101B200011688143116011684548014011604021EE
:101B30001068014202D1106801431160E021C90020
:101B40008B4250D946230121E35A89464626002B71
:101B50000DD135E0D268236C1A8002332364A25B76
:101B6000013A92B2A253A35B002B29D022684946C6
:101B700093681942EED1FEF773FC4346C01AA8429F
:101B8000F1D36B1CEFD05D234A460327E25400E0FB
:101B900002275C230022E254380003B0C0BCB946DF
:101BA000B046F0BD8368002B00D089E7043383542E
:101BB000494633004A460095FFF750FE0700EBE721
:101BC000424629002000FFF76BFC002801D02023AB
:101BD0002366236E002BDCD101225D330027E25403
:101BE000D7E70227D8E74623E35A002BE8D00123A2
:101BF000462699460DE0137B226C1370236C01334B
:101C00002364A35B013B9BB2A353A35B002BD7D000
:101C10002268494693681942EDD1FEF721FC4346FC
:101C2000C01AA842F1D36B1CEFD0ACE78021226828
:101C300049015068014351606CE7C046FFEFFFFF68
:101C4000FFBFFFFF3D22815C03000120012912D16B
:101C5000013199541B68DA680243DA600D4A9342F5
:101C60000AD00D4A934207D00C4A934204D01A6816
:101C70001043186000207047072299680A40062A1E
:101C800005D001211A6800200A431A60F3E70020FA
:101C9000F1E7C046002C0140000400400040014034
:101CA0000121036810B5DA688A43DA601C6A074AC2
:101CB000144206D11C6A064A144202D11A688A43A9
:101CC0001A603D230122C254002010BD11110000F2
:101CD000440400007047C0467047C0467047C04685
:101CE0007047C0460222036810B5196904000A4211
:101CF00002D0D9680A4265D1042219690A4202D089
:101D0000D9680A424BD1082219690A4202D0D9681F
:101D10000A4233D1102219690A4202D0D9680A4214
:101D20001CD1012219690A4202D0D9680A425CD149
:101D3000802219690A4202D0D9680A425CD1402245
:101D400019690A4202D0D9680A425DD12022196974
:101D50000A4202D0D9680A4241D110BD213A1A6123
:101D600019322277DA69C0239B0020001A425ED024
:101D7000FFF7B2FF002323772368D2E7113A1A61F5
:101D80000D322277DB6920009B074DD1FFF7A2FFC0
:101D90002000FFF7A3FF002323772368BAE7093A5F
:101DA0001A61073222779A69C0239B0020001A42E9
:101DB00037D1FFF78FFF2000FFF790FF0023237735
:101DC0002368A0E7053A1A61043202779B699B07F2
:101DD00021D0FFF781FF0023237723688CE7413A66
:101DE00020001A6100F0A0F8B7E7033A1A6120005A
:101DF00003F0A6F823689BE7023AFF3A1A61200035
:101E000000F094F823689AE7813A1A612000FFF7FE
:101E100067FF23689AE7FFF75DFF2000FFF75EFF8B
:101E2000D9E7FFF759FFC9E7FFF756FFB3E7FFF719
:101E300051FF2000FFF752FF9CE7C0461D4A036890
:101E4000904223D01C4A904217D01C4A904218D08E
:101E50001B4A90421ED01B4A90421BD01A4A904205
:101E600018D0802293434A69134303608B68C3628E
:101E70000B688362012343617047702293434A6871
:101E80001343124A1340CA681343EAE7702293438C
:101E90004A6813430D4A1340CA6813438022934390
:101EA0004A69134303608B68C3620B6883620B69E2
:101EB0000363DFE7002C01400004004000200040E5
:101EC000004001400044014000480140FFFCFFFF8A
:101ED00070B5041E26D03D23C35CDAB2002B1CD0A3
:101EE00002233D252100635501C9FFF7A7FF012308
:101EF00046220020A354083AA3540132A3540132CD
:101F0000A3540132A3540132A3540132A354013229
:101F1000A3540132A354635570BD3C33C25403F043
:101F2000CFF8DDE70120F7E77047C0467047C046AD
:101F300030B5EFF31084012282F310880168124D4E
:101F40000B682B400B6084F31088EFF3108482F34E
:101F5000108801688B6893438B6084F31088036E4C
:101F6000012B0AD1EFF3108183F31088102402684B
:101F70001368A343136081F3108880232022C2508A
:101F800000230366836630BDDFFEFFFF7047C04657
:101F90007047C0467047C046802270B5446A2368C7
:101FA000E56FA05899680A4201D0212D0DD09B6899
:101FB0005B0601D522281BD084221021A3582000C3
:101FC0000B43A35002F004F970BD52230022E252E9
:101FD000EFF31081513B83F3108822689F3513681B
:101FE000AB43136081F310882023E3672368DEE7A7
:101FF0005A2300222000E252FFF79AFFDCE7C04696
:1020000000235A2210B5406A8352083A835202F0E4
:10201000DFF810BDF8B5CE46474602680400D36924
:10202000AB48116880B59568034200D077E0202066
:10203000184202D0084200D0E6E0206E012814D0F9
:1020400080221A4209D140221A4202D00A4200D00C
:10205000DFE0C0BCB946B046F8BD0A42F3D0E36E3B
:10206000002BF6D020009847F3E710251D42E7D05B
:102070000D42E5D040231E001562926816401342BF
:1020800000D1E4E0666F3268526892B2002AE0D074
:1020900058218846615A9142DBD95A27E253B269E6
:1020A000202A32D0EFF3108680F310882168894F00
:1020B0000A683A400A6086F31088EFF3108680F3CE
:1020C000108821688A6882438A6086F31088EFF35B
:1020D000108680F3108821688A689A438A6086F3A4
:1020E000108820224033E25000232366EFF3108152
:1020F00080F3108822681368AB43136081F3108863
:10210000606FFEF791FA4346E15A02236366583343
:10211000E35A2000C91A89B202F02AF899E7012689
:102120006D4835400840284300D186E71E4206D05E
:10213000C80504D584271662E0590643E6510220FB
:10214000184255D0002D07D0842704261062E0598C
:102150003043E0511E424FD108261E4208D02020B5
:102160000840054304D08425166260590643665131
:1021700080200001034207D04D0105D5842520268B
:10218000106260593043605184202058002800D1EB
:102190005FE72020184201D0084251D18426402711
:1021A0002823A15995680B403D4020001D4300D1D4
:1021B0008AE0FFF7BDFE23689B681F423CD0EFF327
:1021C0001081012383F3108822689368BB439360D6
:1021D00081F31088606F00282ED0404B4363FEF7D8
:1021E00043FA002800D134E7606F436B984730E72B
:1021F0005807B1D5002DAFD00420842602271062E5
:10220000A0593843A051A7E7A36E002B00D029E7BF
:102210001FE7EFF31080012383F3108821680B6818
:1022200093430B6080F310882023E3670023200092
:10223000E366FFF7ABFE0CE7200001F0C9FF08E7FB
:10224000A36E002BAAD0200098472268A6E75A2246
:10225000A35AA25A9BB2002A00D1FAE65822A15AE8
:10226000C91A89B2002900D1F3E6EFF3108780F391
:102270001088236899461B6898464246184B1A40B6
:1022800013004A46136087F31088EFF3108780F33A
:102290001088226893688343936087F310888023B3
:1022A0002022E2502666A666EFF3108680F310889F
:1022B00022681368AB43136086F310880223200062
:1022C000636601F055FFC4E601F082FFA551C0E648
:1022D0000F080000FFFEFFFF20010004012000089E
:1022E000DFFEFFFF0123406A10B54366036E012B3A
:1022F00002D0FFF74FFE10BD5733C15A490801F015
:1023000037FFF8E703009B6970B5406A202B29D09E
:102310005A230022C252EFF31084593B83F31088F2
:1023200001681F4D0A682A400A6084F31088EFF3A1
:10233000108483F3108801688A689A438A6084F362
:102340001088EFF3108183F31088402402689368AB
:10235000A343936081F3108880232022C250036E30
:10236000012B07D000234366036E012B12D0FFF729
:102370000FFE70BDEFF3108183F310880268303CCC
:102380001368A343136081F3108800234366036E30
:10239000012BECD15733C15A01F0EAFEE9E7C04600
:1023A000FFFEFFFF70B504000268C569836800691D
:1023B00011680343606903433D482B4301400B43CD
:1023C000136053683B49206A0B40E1680B4353603C
:1023D000A36991680343384801400B439360374B2E
:1023E0009A4207D0364B9A420BD001200023A366B5
:1023F000E36670BD334B1A6B03231340013B022B82
:1024000016D980231B029D422CD0FEF74DFF0028D9
:102410000CD0636861685B081818FDF787FE02003E
:10242000294B103A9A42E0D82368D8600020DDE7B3
:102430008020264A0002D35C85420ED0042B06D0B1
:1024400008D8002BE1D0022BCFD12148E1E7FEF7DD
:1024500001FFDCE7082BDCD0C7E7042B24D01ED813
:10246000002B18D1FEF720FF0028DFD04000636862
:1024700061685B081818FDF759FE0200124B103A0C
:102480009A42B2D8134B226803400007400F18430A
:10249000D0600020AAE7022BA7D10F48E7E78020F1
:1024A0004002082BE3D0A0E7FEF7D4FEDCE7C046ED
:1024B000F369FFFFFFCFFFFFFFF4FFFF003801408C
:1024C0000044004000100240EFFF00008455000867
:1024D00000127A00F0FF00000024F400436A30B5D7
:1024E000DA0706D50168284C4A682240846A2243EC
:1024F0004A609A0706D50168244C4A682240C46A9B
:1025000022434A605A0706D50168214C4A68224096
:10251000046B22434A601A0706D501681D4C4A68BD
:102520002240446B22434A60DA0606D501681A4C01
:102530008A682240846B22438A609A0606D5016825
:10254000164C8A682240C46B22438A605A060AD518
:102550000168134D4A68046C2A4022434A60802275
:102560005203944209D01B0606D502680D495368F0
:102570000B40816C0B43536030BD4A680A4C2240CB
:10258000446C22434A60EEE7FFFFFDFFFFFFFEFFC2
:10259000FFFFFBFFFF7FFFFFFFEFFFFFFFDFFFFFFF
:1025A000FFFFEFFFFFFFF7FFFFFF9FFFF0B545467F
:1025B0009846042357464E46DE469A4604339946CB
:1025C0008023E0B51B0183B0150007000C009B467B
:1025D0000C9E026801E0731C0ED1D36923401B1BC3
:1025E00059424B41AB42F6D0002003B0F0BCBB4691
:1025F000B246A946A046F0BDFDF732FF4346C01AD9
:10260000B0421DD8002E1BD051463A6813681942BB
:10261000E3D04946D369194001914946194211D185
:102620005946D3690B42D8D038001162FFF780FCBD
:1026300084232022FA50019A0C3B0320FA54D4E759
:102640000320D2E738001162FFF772FC84234A4668
:10265000FA5000220C3B0120FA54C6E770B58423DF
:1026600000260400C65082B0FDF7FAFE236805007C
:102670001A6812070ED41B685B071AD42023802225
:10268000E367A35000230020083A23666366A3543F
:1026900002B070BD8021244B002200938903030007
:1026A0002000FFF783FF00282CD123681B685B07FD
:1026B000E4D580211C4B0022009320002B00C9038D
:1026C000FFF774FF0028D9D0EFF31080012282F3C6
:1026D00010882168154D0B682B400B6080F3108823
:1026E000EFF3108082F3108821688B6893438B602E
:1026F00080F3108880231F32E2500022083B032021
:10270000E254C5E7EFF31081012383F310888020A2
:10271000226813688343136081F310882023E367E2
:102720005833E6547D38B3E7FFFFFF01DFFEFFFFBC
:1027300010B5041E26D0C36F002B25D02423012101
:102740002268E367136820008B431360FFF72AFEBB
:10275000012817D0636A002B10D123680D495A68ED
:1027600020000A4008215A609A688A439A601A68D1
:1027700007390A431A60FFF771FF10BD2000FFF709
:10278000ADFEEAE70120F8E77822835402F0B6FCB8
:10279000D4E7C046FFF7FFFFF8B5130058224165A4
:1027A0000D0083528427002280262221C25104007A
:1027B0008151406F00280DD01D49426381621D493F
:1027C0002A00C1621C49016321682431FDF7ECFE37
:1027D000002827D12369002B17D1EFF310800123A4
:1027E00083F3108821688A681A438A6080F310880E
:1027F000EFF3108183F3108840202268936803432D
:10280000936081F310880020F8BDEFF3108101235D
:1028100083F310882268FF3310680343136081F349
:102820001088DAE71023E35110330120A351EBE7BE
:1028300005230008E5220008991F00088023C358DB
:1028400070B50400202B29D100290BD0002A09D013
:10285000802380685B01984206D12369002B03D155
:10286000CB0701D5012070BD012323660023200082
:102870006366FFF791FF0028F5D1236E012BF1D19C
:10288000102122681162EFF3108583F3108822680B
:1028900013680B43136085F31088E4E70220E2E736
:1028A00010B54A1D0468531ADBB2E35C0B700131AA
:1028B000F8E7C04670B50025002429002000032257
:1028C00000F0F6FA2000E91C01340322C9B20635F3
:1028D000E4B200F0FFFAEDB2082CEED170BDC046B4
:1028E000F0B5C64600B5062082B00E00170000F015
:1028F00003FB00F0C7F800233D4D14246B76EB7604
:10290000FF33AB7607E0F430013CFF30E4B2FDF773
:10291000ADFD002C62D000F091F80128F3D0012029
:1029200000F07CFA002852D10120002E03D102B021
:1029300080BCB846F0BD0321002000F00BF9310047
:10294000002000F035F9002000F00CFA002000F023
:102950002BFA0321042000F0FDF83900042000F0D8
:1029600027F9042000F0FEF9042000F01DFA6B4264
:1029700007002E000124984602E00134E4B201363B
:10298000042CFAD0737C002B05D04246731C5B00EC
:10299000995A002924D1062CEFD10221072000F0FA
:1029A000D9F8012307205B4201A9019300F0B4F894
:1029B0000720E98900F0E4F80720E98900F0F8F839
:1029C000072000F0CFF978427841C0B2AFE7642029
:1029D000FDF74CFD0120002EA9D0ACE70020A6E7B2
:1029E000200000F0E5F80321200000F0B3F8D2E762
:1029F0001800002010B5052000F0ACFA034B0122AE
:102A000099881868FEF7D8F810BDC046100000205D
:102A100010B50400062000F09DFA200000F0BAFA7C
:102A200000F0C6FA0400044B012218689988FEF7EA
:102A3000C3F8200010BDC0461000002010B52620AD
:102A400000F088FA00F0B4FA0400044B0122186880
:102A50009988FEF7B1F8200010BDC0461000002094
:102A600010B52C2000F076FA00F0A2FA0400044B16
:102A7000012218689988FEF79FF8200010BDC04613
:102A80001000002010B5272000F064FA0A4B012244
:102A900099881868FEF790F8CA2403E0013CE4B274
:102AA000002C07D0054800F0BBFAFFF7D9FF10282B
:102AB000F4D010BDEA30FCE7100000201027000021
:102AC00070B50400402000F045FAA51D00F070FA32
:102AD00020700134AC42F9D1034B01229988186867
:102AE000FEF76AF870BDC0461000002070B5040003
:102AF0002820250000F02EFA083500F059FA207041
:102B00000134AC42F9D1034B012299881868FEF7D1
:102B100053F870BD1000002070B505000C00312086
:102B200000F018FA280000F035FA207800F032FAA8
:102B3000607800F02FFAA07800F02CFAE07800F02E
:102B400029FA034B012299881868FEF735F870BD01
:102B50001000002070B505000C00342000F0FAF9D8
:102B6000280000F017FA200000F014FA034B0122AD
:102B700099881868FEF720F870BDC0461000002044
:102B800070B505000C00322000F0E4F9280000F0D8
:102B900001FAE0B200F0FEF9200A00F0FBF9034B65
:102BA000012299881868FEF707F870BD1000002010
:102BB00070B505000C00332000F0CCF9280000F0BF
:102BC000E9F9E0B200F0E6F9200A00F0E3F9034B7E
:102BD000012299881868FDF7EFFF70BD10000020F2
:102BE000F0B5C64600B51C4F0124FB7E804603416C
:102BF0000D0016001C422CD18440184800F010FA39
:102C0000FB7E1C42F9D0FB7E3920A343FB7600F00B
:102C1000A1F9404600F0BEF9F0B200F0BBF9300A6D
:102C200000F0B8F9022000F0FBF90024002E07D0D4
:102C300001342878A4B200F0ADF90135A642F7D1ED
:102C4000074B012299881868FDF7B6FF80BCB8468B
:102C5000F0BD8440D7E7C0461800002010270000D0
:102C60001000002070B505000C00392000F072F94A
:102C7000280000F08FF9E0B200F08CF9200A00F093
:102C800089F9022000F0CCF970BDC04670B505008E
:102C90000E1E08D0002401342878A4B200F07AF97E
:102CA0000135A642F7D170BD10B5034B01229988BA
:102CB0001868FDF781FF10BD1000002010B504005A
:102CC0003B2000F047F9200000F064F900F070F9B3
:102CD00084B200F06DF9054B000224180122186837
:102CE0009988A4B2FDF768FF200010BD10000020F5
:102CF00010B504002E2000F02DF9200000F04AF954
:102D0000034B012299881868FDF756FF10BDC04695
:102D10001000002070B504000E001500002900D13D
:102D200070BD3C2000F016F9200000F033F9F0B23D
:102D300000F030F9300A00F02DF9012000F070F9B0
:102D4000002400F035F90134A4B228700135A64200
:102D5000F7D1034B012299881868FDF72DFFDFE7B3
:102D60001000002010B50400352000F0F3F820001A
:102D700000F010F90A4B012299881868FDF71CFF32
:102D8000CA2403E0013CE4B2002C07D0054800F05F
:102D900047F9FFF765FE1028F4D010BDEA30FCE7D4
:102DA000100000208813000010B50400362000F049
:102DB000D1F8200000F0EEF80A4B0122998818683B
:102DC000FDF7FAFECA2403E0013CE4B2002C07D070
:102DD000054800F025F9FFF743FE1028F4D010BD98
:102DE000EA30FCE7100000208813000010B5040052
:102DF000302000F0AFF8200000F0CCF8022000F006
:102E00000FF900F0D5F80400034B012218689988E7
:102E1000FDF7D2FE200010BD1000002010B5040008
:102E2000412000F097F8200000F0B4F80A4B01228E
:102E300099881868FDF7C0FECA2403E0013CE4B29B
:102E4000002C07D0054800F0EBF8FFF709FE10282A
:102E5000F4D010BDEA30FCE710000020204E000046
:102E600010B5422000F076F800F0A2F80400044B00
:102E7000012218689988FDF79FFE200010BDC0460A
:102E80001000002070B504004320250000F062F817
:102E9000143500F08DF820700134AC42F9D1034BA9
:102EA000012299881868FDF787FE70BD1000002088
:102EB00070B506000D001400522000F04BF83000F1
:102EC00000F068F8280000F065F8200000F062F8D3
:102ED00070BDC04670B506000D001400532000F010
:102EE00039F8300000F056F8280000F053F82000C0
:102EF00000F050F870BDC04610B50400552000F039
:102F000029F8E0B200F046F8A0B2000A00F042F85A
:102F1000200CC0B200F03EF8200E00F03BF810BDCF
:102F200010B5192000F016F8022000F079F800F032
:102F30003FF884B200F03CF8054B0002241801224F
:102F400018689988A4B2FDF737FE200010BDC0466E
:102F50001000002030B583B06B460C4CD871A188AE
:102F600020680122DD1DFDF727FEA18820680022D0
:102F7000FDF722FE6423012229000548FEF798FB95
:102F8000022000F04DF803B030BDC0461000002014
:102F9000D811002000B583B06B460122D91D0870FE
:102FA00064230248FEF784FB03B000BDD811002063
:102FB00010B582B06B46DC1D01226423210003485A
:102FC000FEF76AFD207802B010BDC046D81100207F
:102FD00010B504000F4B0822196802F003FA200014
:102FE000602200210A3002F0AAF92000022200210A
:102FF000083002F0A4F96A235022E252A7320233C9
:10300000FF32E252044A0233E2520122034B1A70A9
:1030100010BDC04634060020DC050000C4060020B8
:10302000400140080138C04601380028FBD17047F4
:10303000054B994206D80B684360013302D001600A
:10304000012000E000207047FEFF0008F0B5464672
:10305000D6464F469246C0B560C98146A84601E0B3
:10306000002E19DD6B68504643441F0008373900B5
:1030700004351C00013EFDF747F80028F0D16368D5
:1030800022684344494648460F604B608A60E0BC72
:10309000BA46B146A846F0BD002200230027F1E75A
:1030A000F0B5C646046847680E00A04600B5002F7C
:1030B0000FD0002502E00135BD420AD06168300022
:1030C000083141440434FDF71FF80028F3D10120F2
:1030D00000E0002080BCB846F0BDC04670B5451D7C
:1030E00004002800FDF71AF80B220449281802F002
:1030F0001DF9200000F0E8FD70BDC0461C56000818
:1031000070B5174982B0040000F0DAFB15490500DC
:10311000200000F0D5FB0600002D0FD000280DD0B8
:10312000280000F0EFFB01AD2870300000F0EAFB52
:103130002B786870062B01D8062807D99621200025
:10314000094A490000F01EFD02B070BD28000221AE
:1031500001F04EFC2000054900F0DCF9F4E7C04620
:10316000285600083056000838560008AC570008AA
:1031700010B5C821014A00F005FD10BD44560008F5
:1031800010B5C821014A00F0FDFC10BD50560008E2
:1031900030B583B00500022101A801F081FC114B7C
:1031A000114C1A68114922601B79062223716B4663
:1031B0001B79A01D3033637102F0B8F86B46200014
:1031C0005B7902223033237309490D3002F0AEF8E7
:1031D00000232200C8212800E37300F0D3FC03B0D1
:1031E00030BDC04658560008C8060020605600088A
:1031F00068560008F8B5124D124B2A00060003CBA2
:1032000003C21B882C0013806A230F4F0934F85A1D
:10321000210000F0A9FB24180A2220000B4902F02B
:1032200085F86C230934F85A210000F09DFB002337
:103230002A002354C821300000F0A4FCF8BDC04689
:10324000580700206C560008940D0020785600089E
:10325000F0B5DE4657464E464546E0B51F4B204F7B
:1032600083B03900019018009B4600F0EFFE312337
:103270001C4D03700C33437029001022023000F003
:10328000EFFE0123184E3224337025339A4617334C
:1032900099463C3B9846103553463900037001303F
:1032A00000F0D4FE4B460470437029001022023017
:1032B00000F0D6FE43460134E4B233701035372CAB
:1032C000EAD15A46C821019800F05CFC03B0F0BC7A
:1032D000BB46B246A946A046F0BDC046D80600206F
:1032E000845600089E0D0020C4060020F0B5C64696
:1032F000482300B5C35C0400012B3BD9204900F0F2
:10330000DFFA051E06D0052102F080F8013880B2F0
:10331000042808D9962120001A4A490000F032FCFE
:1033200080BCB846F0BD280000F004FB0028F1D0B6
:103330006A23154F154EF8521549693B20009846EF
:10334000337000F0BDFA051EE4D0052102F05EF8EE
:10335000013880B20428DDD8280000F0EBFA0028FC
:10336000D8D06C23F852434620000A49337000F04D
:10337000D1F8D5E79621084A490000F003FCCFE7D1
:1033800094560008A8560008940D0020C40600209A
:10339000A0560008AC57000888560008F0B5C6468D
:1033A00000B51A4B82B000936A460023137148336C
:1033B000C35C0600002B22D0154B01249846012740
:1033C000144D6B462000D91C00F0CEFA694630003F
:1033D00000F076FA011E05D01022280002F002F853
:1033E00043461F700134A4B21035072CE9D13000D8
:1033F000094900F08FF802B080BCB846F0BD9621B4
:10340000064A490000F0BEFBF5E7C046616E740055
:10341000C40600209E0D0020AC5700088856000806
:10342000002348220370835464320371C3708354B1
:10343000103A835408328352014AA033C250704775
:10344000300E0020F8B50400FCF768FE05000328E4
:1034500036D9461FA61930001F49FCF755FE002833
:1034600030D02F1FE71938001C49FCF74DFE00280B
:1034700028D038001A49FCF747FE002824D0E81E5F
:1034800018492018FCF740FE002821D038001649C2
:10349000FCF73AFE00281DD038001449FCF734FE32
:1034A000002813D030001249FCF72EFE00280DD062
:1034B00038001049FCF728FE002801D10E4800E032
:1034C0000E48F8BD0E48FCE70E48FAE70E48F8E74C
:1034D0000E48F6E70E48F4E7145700081C5700089A
:1034E000245700082C5700083057000838570008A8
:1034F00040570008485700082C5800086858000832
:10350000385800082058000844580008505800084F
:1035100074580008F8B5CE46474680B5A027C45970
:103520000500894609222000464901F0FFFE2600D9
:103530002000052244490C36083001F0F7FE300027
:10354000FCF7ECFD07224149301801F0EFFE122391
:103550009846A0444046FCF7E1FD3D4E0322310071
:10356000404401F0E3FE14239846A0444046FCF793
:10357000D5FD0D223749404401F0D8FE202398465E
:10358000A0444046FCF7CAFD07223349404401F0FD
:10359000CDFE26239846A0444046FCF7BFFD3100EF
:1035A0000322404401F0C2FE28239846A04440462E
:1035B000FCF7B4FD11222949404401F0B7FE38233D
:1035C0009846A0444046FCF7A9FD02222449404405
:1035D00001F0ACFE39239846A0444046FCF79EFD1E
:1035E00031000322404401F0A1FE3B239846A04451
:1035F0004046FCF793FD45340B221A49404401F044
:1036000095FE2000FCF78AFD4946201801F09FFE38
:1036100004003100032201F089FE31000322A01CC6
:1036200001F084FEE859FCF779FD9E230022E85260
:103630000633EA52083B0132EA54C0BCB946B046F0
:10364000F8BDC0469C57000850570008585700085E
:10365000685600086057000870570008785700083F
:103660008C57000890570008F8B5076804000E0052
:10367000002F0FD0380001F0F4FE051E0CD03000F2
:10368000FCF74CFD0600020000212800AD1901F0F6
:1036900056FE25603800F8BD2060FBE7F0B54546D2
:1036A000DE4657464E46E0B50378050085B0032B4D
:1036B0004ED03DD8002B5ED0012B3ED1764B9946A3
:1036C00001AB984649464046FFF7CEFF00283CD064
:1036D000724B734F9A46734B02AE9B460BE05946B2
:1036E0002000FCF711FD002839D049464046FFF77D
:1036F000BBFF002829D03200390001F0F7FE041E7C
:1037000023D00378002B20D05146FCF7FDFC002885
:10371000E5D13200390001F0E9FE002800D18CE04B
:10372000614901F09EFE0028DFD001232B71DCE708
:10373000042B02D1AC230122EA54012005B0F0BCD5
:10374000BB46B246A946A046F0BD2B7801332B708C
:10375000EB78012B77D02B7801332B70EAE7390017
:10376000320001F0C3FE011E67D0280040225C3009
:1037700001F038FEB9E7484B0191994601AB494643
:1037800018009846FFF770FF041E56D0C022474924
:10379000D20001F046FE00284FD0454B02AE20007B
:1037A000320019009A4601F0A1FE041E45D041499D
:1037B000FCF7AAFC002866D10023EB7051463200CA
:1037C000002001F093FE011E37D06F1D402238000B
:1037D00001F008FEEC78002C24D13F21380001F0E4
:1037E000CCFD00281ED043780470002B1AD0324C38
:1037F00003AF3A002100013001F078FE002811D01B
:1038000048239B465B465946EB5C5A1C12339B008F
:10381000EB186A5458603A002100002001F066FE5F
:103820000028EFD132005146002001F05FFE002851
:1038300003D02B7801332B7044E70023AC222B708C
:103840000020AB547AE7144901A8FFF70DFF0028C8
:1038500000D180E7184C03AF3A00210001F046FE8A
:10386000002800D177E74826AB5D21005A1C1233AF
:103870009B00EB18AA5558603A00002001F036FE74
:103880000028F1D167E720000C49FCF73DFC002837
:1038900092D10123EB7091E7A458000884580008E6
:1038A0001C58000890580008B4570008A857000892
:1038B0008058000898580008B05700089C58000825
:1038C0004823F0B5C75C002F18D04C300025060007
:1038D000AB00F0580A000378002B07D10BE09C42A4
:1038E00009D1437801300132002B04D01478002C28
:1038F000F5D13D2B04D00135AF42E9DC0020F0BD0D
:103900000130FCE7020010B5C41C00201378002B26
:103910000CD019003039092909D88100401840001D
:103920001B18303B0132D8B2A242EFD110BDFF20AC
:10393000FCE7C046002210B5441D0378002B0CD0D4
:103940001900303909290AD89100521852009B18E1
:10395000303B0130DAB2A042EFD190B210BD014845
:10396000FCE7C046FFFF0000F8B504000E00002889
:1039700022D0002520000A21FCF75EFC2F00303108
:10398000F15520000A21FCF7D1FB01352700EDB2EB
:1039900084B2092FEED800236C0873550AD06A1E32
:1039A000B2181078F15CF05401331170D9B2013AB9
:1039B0008C42F6D82800F8BD00250870FAE7C0460A
:1039C00082B0F0B5D6464F464646C0B588B0119392
:1039D000A0230500C4581000170089461092FCF778
:1039E0009DFB804603385D493818FCF78DFB129E1D
:1039F0008246002800D19FE03800FFF723FD002316
:103A00000700984609222000554901F08FFC202329
:103A100023724B460934210098B2FFF7A5FF241802
:103A20002000FCF77BFB06224E49201801F07EFCAB
:103A3000631D18009946FCF771FB0D2248444A4962
:103A400001F074FC112399462B79A1444846012BBF
:103A50005DD0FCF763FB09224449484401F066FC51
:103A600043461934002B5DD12000FCF757FB0F2291
:103A70003F4920180E3401F059FC3900200001F0B4
:103A80006FFC3800FCF74AFB24182000FCF746FBCB
:103A9000384F03223900201801F048FCA31C1800FD
:103AA0009846FCF73BFBB6B211223349404412342E
:103AB00001F03CFC21003000FFF756FF24182000E5
:103AC000FCF72CFB390003222018023401F02EFCF5
:103AD0002000FCF723FB03223900201801F026FC0C
:103AE000A023E858FCF71AFB9E23119AE8520633EC
:103AF000EE520433EA5001220C3BEA5408B0E0BC19
:103B0000BA46B146A846F0BC08BC02B01847FCF75C
:103B100005FB0D221949484401F008FC43461D34B9
:103B2000002BA1D02000FCF7F9FA19222018144923
:103B300001F0FCFB183497E7434639005A1C6846ED
:103B400001F0F4FB4046534668440338037068466E
:103B5000FFF778FC01230700984653E7BC5700089D
:103B60009C570008C057000860570008D857000845
:103B7000005800086856000878570008C857000821
:103B8000E4570008A023F0B5C646C45800B50F009E
:103B90000500454920001600092201F0C7FB20233B
:103BA000237209342100B8B2FFF7DEFE241820008A
:103BB000FCF7B4FA671D06223C49201801F0B6FB59
:103BC0003800FCF7ABFA0D223818394901F0AEFB8A
:103BD0002B790C373800012B5CD0FCF79FFA0922B7
:103BE0003449381801F0A2FB1934681DFFF72AFC8C
:103BF00007002000FCF792FA0F222F4920180E34FC
:103C000001F094FB3900200001F0AAFB3800FCF71A
:103C100085FA24182000FCF781FA284F0322390086
:103C2000201801F083FBA31C18009846FCF776FAD5
:103C300011222349404401F079FB3000FCF76EFA71
:103C40001234210080B2FFF78FFE24182000FCF709
:103C500065FA390003222018023401F067FB2000C6
:103C6000FCF75CFA39000322201801F05FFBA02367
:103C7000E858FCF753FA9E23E8523000FCF74EFA5E
:103C8000A4230122E8520433EE500C3BEA5480BCDA
:103C9000B846F0BDFCF742FA0D220A49381801F087
:103CA00045FB1D34A1E7C0469C570008C0570008DB
:103CB00060570008D85700080058000868560008E8
:103CC00078570008C8570008F0B5304C461D05006D
:103CD0009DB031002000FFF7E3F9002821D0320029
:103CE000210008A8FFF7B2F9089B002B3ED1284C11
:103CF000284B220083CB83C240223100200001F0F8
:103D00004AFB2000FCF70AFA03222349201801F09D
:103D10000DFBCA21220028004900FFF733FF1DB028
:103D2000F0BD31000BA801F012FB1C49042201F088
:103D3000FDFA20000BA9FFF7B3F90028D7D0210026
:103D40000BAA05A8FFF782F9059B002BCFD0210015
:103D50000BAA08A8FFF77AF90A9BC82103930093DE
:103D60002800089A099BFFF72BFED8E732002100B4
:103D70000BA8FFF76BF90D9BC82103930093280054
:103D80000B9A0C9BFFF71CFEC9E7C046280E0020CB
:103D9000F80C00201058000868560008BC570008AE
:103DA000F8B54546DE4657464E46E0B5847E0500EA
:103DB00064B2002C17DD631E9A469E4BB0269946CE
:103DC00053465E43B346CB445B46AC331B78002B73
:103DD0000FD1C37E5246B02353434B441A00AD3239
:103DE000127894422ED0F0BCBB46B246A946A046FB
:103DF000F8BD5B469C331B78002B3BD10027053672
:103E00004E44B0468C4E40224046316801F0D9FA0B
:103E1000002800D198E001370836092FF3D1584621
:103E2000FFF752FFEB7E2341DB07D3D55246B02389
:103E300053434B441A00AC321278002ACAD09C3348
:103E40001B781BE0AC331B78002BCCD17B480123C3
:103E500001257B4A11785CB2002903D0017E19410B
:103E60000D4205D10133B032082BF3D10124644255
:103E70008476B8E7C27E2241D207ABD5012B6BD046
:103E8000022BB0D15246AE3353434B44A4331B886C
:103E90006C4A1E1C934200D9161CB02753467B4324
:103EA0004D46984645442F00B6B2A83732003968CF
:103EB000E0B2FEF795FE0123A340DB435F485AB210
:103EC000C17E1140C1762900A4310B889B1B9BB297
:103ED0000B8039688C4666443E60002B00D079E741
:103EE000417E012611404176017EEB700A40027648
:103EF000FF22414682764A4653542A0048321370C4
:103F000064321370103A2B7113704F4B4A46A03530
:103F10002B600123AC3211785DB2002903D0017E01
:103F200019410E4205D10133B032082BF3D10125DE
:103F30006D42B023524653434B448576AD331B78D4
:103F40009C4200D04FE782E73B4BFF009C46674412
:103F500058467B68984765E75246AF3353434B4416
:103F60001A009E321188374AA4331B88521A90B225
:103F70001E1C834200D9161CB6B2891989B2E0B260
:103F8000FEF770FEB02753467B434D4698464544A6
:103F90002B009E331988A0239B46AB445B462F0021
:103FA0001868A837FEF772FE31003868FEF76EFE1B
:103FB000FEF77AFE0122A240D24329001F4852B2E6
:103FC000C37EA4311340C3760B889B1B9BB20B802E
:103FD00039688C4666443E60002B27D1417E01261D
:103FE00011404176017E2B710A400276FF22414644
:103FF00082764A4653542A00483213706432137052
:104000005A46EB709C352B700F4B13604A460123C8
:10401000AC3211785DB2002903D0017E19410E4205
:1040200087D10133B032082BF3D180E702239C35CE
:104030002B70CFE6780700203806002018000020FB
:104040002408002046050000300E002002E0037026
:10405000013101300B78002BF9D100230370704738
:104060000B7810B5002B0DD0002A0BD0821894B21B
:1040700002E082B2A24205D003704B7801310130D8
:10408000002BF6D10023037010BDC046F8B545469D
:10409000042388464344DE469B46032357464E4648
:1040A0004344E0B581469A46002543461E78002EDB
:1040B00012D14B463022681CC0B25A55D04533D07D
:1040C0004B462E221A5401239C46451CE044EDB277
:1040D000D845EAD128002AE0002430000A21FCF764
:1040E000ABF82F004B463031D95530000A21FCF790
:1040F0001DF8013501343700EDB2C6B2E4B2092F24
:10410000EBD860080DD000232C1B6A1E4A444C4497
:104110001178E65C013A5670E1540133D9B281421C
:10412000F6D32800D045CBD100234A461354F0BC27
:10413000BB46B246A946A046F8BDC04670B50C22A3
:1041400004000D0001F0F2F801226E230026E25473
:10415000023B2673E65229896868FCF72DFD210091
:104160002068202244622C312667FEF767FB70BD71
:104170007223F0B5C646456A00B5EA5A8A4205D0B0
:10418000202903D0E95280BCB846F0BD6C27EB5B18
:104190009AB29046002B09D02E002C360023202204
:1041A000310028682B67FEF749FBECE770232E00EF
:1041B0002800EB5A2C36CC1AA4B22200F1180C308D
:1041C00001F010F942462B191A73EC53E6E7C0468A
:1041D000436A0022190010B518681A672C31203282
:1041E000FEF72CFB10BDC0463F231370323B5370CB
:1041F000002300209370704770B51600012582B02F
:1042000001280AD9486801AA012100F04BF9041ECF
:1042100003D1019B013B012B02D9280002B070BDE4
:104220000221684600F03CFC04223000084901F0FD
:104230007DF8019B00251A006B44013B1B7830324E
:10424000303333710D23F2707371B471E5E7C046FA
:10425000A858000870B501230C00150084B002288E
:1042600002D8180004B070BD00230121606802AAC2
:10427000039300F017F9061E08D10221A06803AAD3
:1042800000F010F9029B013B012B01D90123E8E763
:10429000039A062AFAD80D4901A80C7E047034242A
:1042A000095D41700221C25400F0A2FB04222800E3
:1042B000074901F03BF8029BAE713033EB70039B72
:1042C00030332B710D236B710023CAE714110020CA
:1042D000A8580008F0B5C646002300B582B0050016
:1042E0000E004068012101AA019300F0DBF8041ED2
:1042F00009D1019B01205F1E9846052F05D902B008
:1043000080BCB846F0BD0120F9E710493F010A37EB
:104310007F181022A968380001F064F805220C49C2
:104320003000FC7301F002F84346303318223900A4
:104330003371300001F02FF83000FBF7EFFE02225E
:104340000449301800F0F2FF0020D8E7940D002057
:10435000AC580008B45800080B0010B51100040058
:104360000120022C02D91800FFF7B4FF10BDC0468F
:1043700010B501230C001100012803D92000FFF71C
:10438000A9FF0300180010BDF8B54746CE4604004B
:10439000904680B5002910D1FBF7C0FE81B20029FC
:1043A00028D023781A00413A192A0BD93F2B09D07B
:1043B000013989B2013400291CD023781A00413A0E
:1043C000192AF3D8012915D9324B334D99461D606E
:1043D0002B0022781E0010004138192801D93F2AED
:1043E0000ED1013989B20133327001340029F0D184
:1043F0009D424BD101204042C0BCB946B046F8BDF9
:104400009D42F7D000221A705A1C002301279C46B7
:104410002378202B03D02C2B01D0092B21D101395B
:1044200089B201340029F3D11C4E280031680024E0
:10443000FBF76AFE002809D001340436052CD9D0D8
:1044400028003168FBF760FE0028F5D1144BA2006C
:10445000D358002B03D042464946F8B29847200073
:10446000CAE7180030380928DED84E461370501CB1
:10447000BB00F0506346013989B2013701345370F3
:104480000029D1D00232042FC2D1CDE70127197003
:10449000CAE7C046480D0020580D002084060020C1
:1044A000CC580008F0B50678002E19D0002917DD89
:1044B000070000250DE0AB005B195B00303B0137C6
:1044C000F5183E78002E0CD0CC1B041964B2002CD9
:1044D00007DD3300303B092BEDD90120404202E0DB
:1044E000002500201560F0BD70B504002378080099
:1044F000002B11D1A61CA37091B23200FFF744FF2C
:10450000A3780500002B05D01821300000F07EFFB5
:10451000C0B26070280070BD01256D42FAE7C04648
:10452000002210B5104B114C1A70A188206801327E
:10453000FCF742FBA189A0680022FCF73DFBA18AA1
:1045400020690022FCF738FB0022218CE069FCF78F
:1045500033FB07490748FFF799FD074B18700748D9
:10456000FDF770FB10BDC0469C0600201411002012
:10457000680D0020840D0020800D00209011002087
:1045800030B591B01822002105A800F0D8FE002116
:104590001022684600F0D3FE0A230493093B0793D8
:1045A0000B93C0231022002402255B0304A8089269
:1045B0000E930C950D940F94FCF742FB0723009388
:1045C000A0230121DB006846019502940393FCF7C8
:1045D00091FD11B030BDC046F0B5C6460024FF22A3
:1045E0006A2700B51C4B1D4E1D4D34705C769A76C3
:1045F000DA761C76EA5B1A805A809A80DA806C221E
:104600009046AA5A1A815A819A81164A1A825A8267
:10461000154A9A82013AFF3ADA82943AAA5ADA8122
:10462000FEF7E8F91148FEF7FBFC1148FEF748FADF
:10463000FEF740F94346EA5A0E4BE95B1868FEF76D
:104640004FF90D4B30701C700C4B1C700C4B1C70D8
:1046500080BCB846F0BDC04618000020770D002091
:10466000940D00200303000002020000A086010058
:10467000700D0020680D0020790D0020780D0020BD
:10468000760D0020F0B5DE4657464E464546E0B56D
:1046900091B0FEF745FC0400C30700D5ADE0230749
:1046A00000D590E0630700D582E02409A4B2002C75
:1046B00016D0BF4B01259946BE4B4E469B461C2348
:1046C0005B449A465B460193012364089846EFB227
:1046D00023420CD1072D03D00135B036002CF3D185
:1046E00011B0F0BCBB46B246A946A046F0BD3800AA
:1046F000FEF77CFB43468146034205D0AB40AD4A02
:10470000D17E0B43DBB2D3764B465B072BD44B46B3
:104710001B070BD50123AB40A6495BB20A7E1A43A7
:10472000D2B20A76CA7E1343DBB2CB764B46DB06A7
:10473000D0D55B461A7E0123AB4059465BB29A4303
:104740000A764A7E9A434A76CA7E1343DBB2CB7618
:104750008B7E5BB29D42BDD1FF238B76072DBFD0F0
:104760000135B036B0E73800FEF7A8FAC02281B2B2
:104770000290031CD200914259D29BB298465246F5
:1047800019003800FEF7C6FA0022019B43441A774D
:1047900053460C3B5B5D0393022B52D0032B00D19D
:1047A000EAE0012B00D184E03800FEF7A1FAAEE781
:1047B000FEF744F9804B01283ED001221A700022F6
:1047C0007E4B1A7071E7FEF74BFB7D4B002830D112
:1047D00001221A701B78002B00D163E706A8FEF7B0
:1047E00051FB784B069A1A60089B0193019A764B0D
:1047F0001A60079A754B1A6054E706A8FEF776F917
:1048000004ABDB7A04AA967A1B021E439A23704DEE
:10481000DB00EF1803E0B035AF4200D13FE72800DE
:104820002B884638B342F6D1FEF7FAFDF3E7694B21
:10483000A3E700221A7035E700221A705F4B187048
:1048400033E73000FEF7ECFDAD23424651466248A7
:10485000F754FFF749FE0028A6DB5F4B5B78002B7F
:10486000A2D0012398464246AB33F2545A4B5B49DF
:104870005A78A023D2B2F05800F0B4FD564B0199FB
:104880005A789E23F25200220633F2524246083BE7
:10489000F2544346AB404A7E1343DBB24B768B7EE9
:1048A0005BB2002B01DA6BB28B7600234A4A53705D
:1048B0007AE73000FEF7B4FDAD23F754029B082BD6
:1048C00000D871E7019B05A89A8BDB8B9046029379
:1048D00053460422191D00F029FD4346083B272BAF
:1048E00000D861E728223E493E4800F06AFD804634
:1048F000031E00D058E76C220398AC33F0543A4BB7
:1049000006A80693314B394943602F4B83608A5A7E
:104910008361039B82810377E1235B0282820362CE
:10492000032224232749C2547C330161F158FDF747
:10493000B7FF9E234246F05203980633F252083BDB
:10494000F0540300AB4001995BB24A7E1A43D2B2E5
:104950004A760A7E1343DBB20B768B7E5BB2002B6A
:1049600001DA6BB28B76380005A9FEF7D5F838006E
:104970000299FEF705F917E73000FEF751FDAD2368
:1049800051463000F754FEF789FE002800D10BE7AE
:104990000123AB4001994A7E1343DBB24B768B7EF9
:1049A0005BB2002B00DBFFE66BB28B76FCE6C04609
:1049B0007807002018000020770D0020790D0020D6
:1049C000760D0020680D00206C0D00209806002058
:1049D0006E080020FF050000A4100020A610002093
:1049E000885500083C000020700D0020940D002028
:1049F000F0B5DE4657464E464546E0B583B00190D9
:104A00000B1C022900D90223DBB20093002937D006
:104A1000204B9B469A460023984601339946019BBA
:104A2000002B34D042469F5C4346DE00F31A9B00C5
:104A30005B441F76FF4355460024FFB23A004B46C5
:104A40002241A98828681A400134FCF7B5F80835D6
:104A5000032CF3D14246B61AB6000F4B5E44327EA9
:104A600043441A724A460D4B1A7001239C461B336D
:104A7000E0449C464346009ADBB2E2449A42CED8D8
:104A800003B0F0BCBB46B246A946A046F0BD5346B3
:104A90001F7EC9E714110020940D0020C4060020D9
:104AA000F0B54F46D64646468146C0B50B1C022996
:104AB00000D90223DBB2984600291BD0104B0026F8
:104AC0009A46554600240027A9882868FCF76EF806
:104AD00043425841A04001340743FFB20835032C3C
:104AE000F2D14B469F551C239C460136F3B2E2445B
:104AF0009845E6D8E0BCBA46B146A846F0BDC046E7
:104B00003C12002010B5002802D0FFF709FD10BDAF
:104B10000548FDF7C5F8FF22044B022100201A705A
:104B2000FFF766FFF3E7C046901100209C060020C7
:104B3000F0B5DE4657464E464546DA4BE0B518001E
:104B4000D94A002512CA12C00100D84A8BB011CA36
:104B500011C1D74AD74E11CA11C11A00D6491D76C4
:104B60001C3211C911C21A00D449243211C911C210
:104B70001A00D3492C3211C911C2D24F3421380046
:104B80005D54D14B14CB14C00200D04B11CB11C2D9
:104B9000CF4B11CB11C23B00CE4A3D761C3311CA1C
:104BA00011C33B00CC4A243311CA11C33B00CB4A8A
:104BB0002C3311CA11C305AC7D54FBF735FCFFF74C
:104BC000DFFC14220021200000F0B9FB8021726973
:104BD000C9030A437261736990200B4080210293DC
:104BE000029B726989020A4372617369C0050B40B6
:104BF00080210393039B7269C9020A43726173693E
:104C000001220B400493049BB54B19009A46FBF715
:104C1000D3FFB44B01221900B3489B46FBF7CCFFEE
:104C200003232100B14805936560A560FBF7CAFE28
:104C3000022399460593842390209B0363600123FC
:104C40002100C0059846A360FBF7BCFE53460593C0
:104C5000112390209A46636043462100C005A3605B
:104C6000E560FBF7AFFE5B46059353466360434642
:104C700021009D48A360E560FBF7A4FE80231B0292
:104C80000593434621009848A3606560FBF79AFEB0
:104C9000C02390209B00059343462100C005A360DC
:104CA0006560FBF78FFE9248924B8560036082231C
:104CB0005B004360E023DB00C3604B460361434677
:104CC000436180239B008361FA3BFF3BC362C56164
:104CD00005624562856205634563FCF749FC8648C9
:104CE000864B8560036096239B0143600C23C5605F
:104CF000436105618561C56105624562FDF718FD87
:104D00004246736900211343736173690B2013409A
:104D100001930022019BFBF7BBFB0B20FBF7EAFB97
:104D2000774B9A465246774B5046136005235360A3
:104D30008023DB00D3609360FBF744FF7248734B22
:104D400085600360FA239B014360FA235B00C36024
:104D5000753BFF3B8361FDF7BBF86D48FBF772FACB
:104D60006B48FBF787FA002800D196E06A46684B4B
:104D700002211B8968461380FFF73AFE2200654B2B
:104D800023CB23C2644B21001868FFF7D7F963498E
:104D90006348FEF74DF95046FBF74AFFC820FBF782
:104DA00065FB002406E001343220E4B2FBF75EFB31
:104DB000FF2C06D02000FDF72BFEE343DBB2984228
:104DC000F1D1584B9946584B9B46584B9846FFF7A4
:104DD00003FCFBF745FB4B4618605046FBF728FFEA
:104DE0005B461B78002B04D043461B78DAB2002BBD
:104DF00050D043461B78002B06D04D4B5B7E002BDA
:104E000002D03BE0FFF73EFC90200221C005FBF7FB
:104E1000CDFE0028F6D0FBF723FB4B46454A1B6826
:104E20000400C31A934203D9434B1B78002B1CD1B7
:104E30003E003D003C001836A1882068FBF7B6FE16
:104E400000281FD10834A642F6D1298CE869FBF767
:104E5000ADFE002816D10835B542F6D1374B1B7888
:104E60007F2BBAD9FFF75CFBB7E72948FBF7F4F9CA
:104E70000022314B1A704B461C60D9E72C48FEF7D4
:104E80008FFFC1E72D4B1B787F2BA6D80020FFF7A3
:104E900039FEA2E75B461A7099E71D48FEF798F8BD
:104EA00064E7C04614110020E0580008E8580008E4
:104EB000F058000800100240F85800080059000897
:104EC000085900083C120020105900081859000821
:104ED000205900082859000830590008385900089E
:104EE000109C0000187C00000004004800140048DA
:104EF000D81100200030014074120020004400400E
:104F000004110020003000409011002000100040EB
:104F1000940D0020585500088006002000C00008AD
:104F2000280E00207C0D0020790D0020770D002038
:104F300018000020B70B0000C40600209C060020CB
:104F4000F0B5C646314B00B5984202D080BCB84699
:104F5000F0BD00232E4DEB56002B4BDB2D4A127873
:104F6000934229DA2C4AD25C1300303BDBB2092B86
:104F700043D8DA430121D3B25F089E08DB080A4018
:104F80000F400E4019408846244CA1882068FBF74A
:104F900013FE3A00A189A068FBF70EFE3200A18A39
:104FA0002069FBF709FE4246218CE069FBF704FE0D
:104FB0002B7801332B70C9E70232934218DC174C6F
:104FC0000122A1882068FBF7F7FD0022A189A068D3
:104FD000FBF7F2FD0022A18A2069FBF7EDFD00221C
:104FE000218CE069FBF7E8FD2B7801332B70ADE7EE
:104FF000FF232B70FCF754FEA8E72E3A531E9A416C
:105000000023002698460027D2B2BDE79011002069
:105010009C060020800D0020840D0020141100202B
:105020007047C04601220A4B82B0996911439961C9
:1050300099690A4080210092009ADA6949050A4379
:10504000DA61DB690B400193019B02B07047C046F7
:105050000010024010B5040088B01422002103A8FB
:1050600000F06DF9144B22689A4201D008B010BDCF
:105070008020124B400199690143996180219A690E
:10508000890202400192019A5A6990200A435A61AA
:105090005B69C0050B400293029BE0230393DE3B58
:1050A0000493013B059302330693002303A907935E
:1050B000FBF788FCDAE7C0460030014000100240F0
:1050C00000B50C4B026883B09A4201D003B000BD1A
:1050D0001023094A1120D1691943D161D2690021F5
:1050E000134001930022019BFBF7D2F91120FBF73B
:1050F00001FAEBE7001000400010024030B5040058
:1051000089B01422002103A800F019F92E4B22685F
:105110009A4201D009B030BD80222C4B9202D9694D
:1051200090201143D961D969C005114001910199BD
:105130005969114359615B6903A91A400292029BA4
:105140000C23032203930A3B0493013B059306922D
:105150000793FBF737FC1E4D1E4B80222B6000236C
:105160006B60AB602B616B61AB61802328005B01DE
:10517000EA60EB61FBF7E4F900281ED1164B656786
:105180006C62164D80222B6010236B600023280078
:10519000AB60EA602B616B61AB61EB61FBF7D0F94F
:1051A00000280DD1002200211C2025676C62FBF72E
:1051B0006FF91C20FBF79EF9ACE7FFF731FFDDE745
:1051C000FFF72EFFEEE7C04600440040001002400B
:1051D000C010002058000240440002404C11002042
:1051E0007047C046FEE7C0467047C0467047C0469D
:1051F00010B5FBF729F910BD10B50348FBF758FAB5
:105200000248FBF755FA10BD4C110020C0100020D9
:1052100010B50248FCF766FD10BDC0469011002095
:1052200010B50248FCF7F6FE10BDC046741200200F
:105230000121114B11481A680A431A605A6802404A
:105240005A601A680E4802401A601A680D480240F7
:105250001A605A680C4802400F205A60DA6A82438A
:10526000DA621A6B094802401A635A6B8A435A631E
:1052700000229A607047C046001002400CB8FF0838
:10528000FFFFF6FEFFFFFBFFFFFFC0FFECFEFFFF8F
:105290000D4885460D480E490E4A002302E0D458B9
:1052A000C4500433C4188C42F9D30B4A0B4C00236E
:1052B00001E013600432A242FBD3FFF7B9FF00F014
:1052C00011F8FFF735FCFEE7FF1F0020000000206B
:1052D000A406002060590008A8060020FC12002047
:1052E000FEE7000070B500260C4D0D4C641BA410A9
:1052F000A64209D1002600F023F90A4D0A4C641B8E
:10530000A410A64205D170BDB300EB5898470136F2
:10531000EEE7B300EB5898470136F2E7585900081A
:1053200058590008585900085C590008002310B566
:105330009A4200D110BDCC5CC4540133F8E703009D
:105340008218934200D1704719700133F9E70300C6
:105350000A7818001A7001310133002AF8D1704719
:10536000020010B5137814000132002BFAD1CA5C88
:10537000E2540133002AFAD110BDC9B20378002BE0
:1053800004D08B4200D170470130F7E74B425941BE
:1053900049420840F7E7030030B51C78002C08D1DB
:1053A0008918002A04D055424D5D1D70002D02D190
:1053B00030BD0133F1E7012A00D15C700133013ABD
:1053C000EFE730B50500101E0BD00024013A2B5D2D
:1053D000085D834204D1944202D00134002BF6D1FF
:1053E000181A30BD030030B51D00002A06D00C7815
:1053F000013A01332C700131002CF5D100219A18AB
:10540000934200D130BD19700133F9E70300411810
:105410008B4201D1181A70471A78002AFAD001334A
:10542000F6E770B50E000500110030001400FFF71C
:10543000EDFF0300844205D8325C002A02D000242C
:10544000200070BD21003200280000F05FF8041E2B
:10545000F5D0421B0021280000F04DF80028EED1C5
:10546000EEE70A7830B5002A0CD130BD9A4208D157
:105470000123CC5C002CF8D0C55CA54201D10133DE
:10548000F7E701300378002BF0D11800EDE7F0B515
:10549000002802D11068002813D0040020000E005C
:1054A000057801343778002F04D1002D0FD1280062
:1054B000156006E00136BD42F4D1002BEED1146038
:1054C0000370F0BD2F000FE00133002E04D1230044
:1054D00001341D7827000B001E78B542F4D1002D51
:1054E000F0D00023013C23701760EAE710B50123D8
:1054F000FFF7CDFF10BDC9B28218904201D1002044
:10550000704703788B42FBD00130F6E7F0B5002BF3
:105510000CD0C91A15784118884201D9002005E03D
:105520000478AC4209D15C1E002C00D1F0BD075DAF
:10553000165DB74201D1013CF6E70130ECE700000F
:10554000F8B5C046F8BC08BC9E467047F8B5C046E2
:08555000F8BC08BC9E46704740
:10555800741200200004004800080000020304053B
:10556800060708090A0B0C0D0E0F101001020304A0
:1055780005060708090A0B0C0D0E0F100408020097
:1055880030313233343536373839303132333435D7
:1055980036373839303132333435363738393031B7
:1055A80032333435363738390000000073656C2ED5
:1055B8003100000073656C2E320000006C6162657A
:1055C8006C2E31006C6162656C2E32006C61626514
:1055D8006C2E33006C6162656C2E34006C61626500
:1055E8006C2E35006C6162656C2E3600424934576A
:1055F8004F5000002F737069666C6173682F636683
:10560800672E62696E0000002F737069666C6173A3
:1056180068000000696E6465782E68746D6C00001F
:1056280073656C310000000073656C320000000087
:10563800496E76616C69640D0A00000053746174E8
:1056480075730D0A0000000052657365740D0A0039
:1056580073656C313D0000002673656C323D0000B7
:105668000D0A0000706F7274485454503D000000D9
:1056780026706F72745443503D000000616E7400D0
:10568800426164206172677300000000706F727479
:105698004854545000000000706F72745443500016
:1056A800426164204854545020706F7274206E75A3
:1056B8006D626572000000002F737769746368007B
:1056C8002F676574616C6C6F630000002F737461E1
:1056D800747573002F726573657400002F73657499
:1056E8006C6162656C0000002F6765746C616265AF
:1056F8006C0000002F736574706F727400000000F6
:105708002F676574706F7274000000002E68746DE6
:105718006C0000002E68746D000000002E63737327
:10572800000000002E6A73002E706E6700000000F3
:105738002E6A7067000000002E6A7065670000001E
:105748002E67696600000000203330320000000038
:1057580020466F756E640000436F6E6E65637469F2
:105768006F6E3A2000000000436C6F7365640000A0
:10577800436F6E74656E742D4C656E6774683A205D
:1057880000000000300000004C6F636174696F6EA8
:105798003A200000485454502F312E3100000000A8
:1057A800485454502F000000260000004B656570D7
:1057B800000000002E677A00204F4B0D0A00000001
:1057C8004B6565702D416C6976650D0A0000000017
:1057D800436C6F7365640D0A00000000436F6E74BC
:1057E800656E742D456E636F64696E673A20677ADB
:1057F80069700D0A00000000436F6E74656E742DA9
:10580800547970653A2000004E6F7420466F756EAB
:10581800643A20003A200000746578742F6373732B
:1058280000000000696D6167652F67696600000008
:10583800746578742F68746D6C000000696D616719
:10584800652F6A70656700006170706C69636174C8
:10585800696F6E2F6A617661736372697074000094
:10586800746578742F706C61696E0000696D61678A
:10587800652F706E6700000020000000436F6E6E99
:10588800656374696F6E0000436F6F6B6965000034
:1058980047455400504F5354000000000D0A0000C3
:1058A800415558004E414D45000000000D000000D4
:1058B8003F0000003F415558000000003F4E414D59
:1058C80045000000E9410008F94100085542000878
:1058D8007143000859430008000400481000000004
:1058E8000004004808000000000000480080000094
:1058F80000000048001000000000004800080000F8
:1059080000000048000400000000004800020000F9
:10591800000000480001000000040048008000006A
:105928000004004800400000000400480020000077
:105938000004004800100000000000000000000003
:10594800010203040607080900000000010203041D
:04595800E90000085A
:04595C00C10000087E
:1059600000B0000800040000010000000400000076
:1059700000000048100000000000000000000000CF
:105980000000000000000000000000000000000017
:10599000000000FF00000000000000000000000008
:1059A00000000000000000000000000000000000F7
:1059B00000000000000000000000000000000000E7
:1059C00000000000000000000000000000000000D7
:1059D00000000000000000000000000000000000C7
:105F900000000000F4550008AC570008DD30000890
:105FA000C056000801310008C856000891310008A9
:105FB000D456000871310008DC5600088131000811
:105FC000E45600089D330008F056000851320008DE
:105FD000FC560008ED32000808570008F5310008AB
:105FE00030100020B8580008BC580008A858000815
:105FF000C4580008AC580008FFFFFF00FF00000075
:0460000000127A0010
:04000005080052910C
:00000001FF
