:020000040800F2
:100000000020002065AA00083DA9000847A90008B3
:1000100000000000000000000000000000000000E0
:100020000000000000000000000000004DA90008D2
:10003000000000000000000057A9000861A90008A6
:10004000B5AA000800000000B5AA0008B5AA00087B
:10005000B5AA0008B5AA0008B5AA0008B5AA000804
:1000600000000000B5AA0008B5AA000871A90008A0
:10007000B5AA0008B5AA0008B5AA0008000000004B
:10008000B5AA000895A9000800000000B5AA00085C
:10009000B5AA0008B5AA0008B5AA0008B5AA0008C4
:1000A000B5AA0008ADA90008B5AA0008B5AA0008BD
:1000B000C5A90008000000000000000000000000CA
:1000C00010B5064C2378002B07D1054B002B02D02E
:1000D000044800E000BF0123237010BDA8060020E3
:1000E000000000005CAD0008044B10B5002B03D0ED
:1000F0000349044800E000BF10BDC04600000000F6
:10010000AC0600205CAD000802780B78002A03D012
:10011000013001319A42F7D0D01A70470023C25CF7
:100120000133002AFBD1581E70470000002243080B
:100130008B4274D303098B425FD3030A8B4244D3AF
:10014000030B8B4228D3030C8B420DD3FF220902F1
:1001500012BA030C8B4202D31212090265D0030BB0
:100160008B4219D300E0090AC30B8B4201D3CB03A6
:10017000C01A5241830B8B4201D38B03C01A5241E8
:10018000430B8B4201D34B03C01A5241030B8B42EA
:1001900001D30B03C01A5241C30A8B4201D3CB02D5
:1001A000C01A5241830A8B4201D38B02C01A5241BA
:1001B000430A8B4201D34B02C01A5241030A8B42BD
:1001C00001D30B02C01A5241CDD2C3098B4201D3D5
:1001D000CB01C01A524183098B4201D38B01C01A53
:1001E000524143098B4201D34B01C01A52410309CA
:1001F0008B4201D30B01C01A5241C3088B4201D379
:10020000CB00C01A524183088B4201D38B00C01A25
:10021000524143088B4201D34B00C01A5241411A4C
:1002200000D20146524110467047FFE701B5002059
:1002300000F006F802BDC0460029F7D076E7704707
:100240007047C0461C2101231B04984201D3000CB7
:1002500010391B0A984201D3000A08391B09984239
:1002600001D30009043902A2105C40187047C0464F
:10027000040302020101010100000000000000006F
:1002800080B582B000AF78607968044B70221800A6
:1002900000F010F9C046BD4602B080BD000000204D
:1002A00080B582B000AF78607968064B7022180084
:1002B00000F04AF8044B00221A70C046BD4602B056
:1002C00080BDC04600000020C406002080B584B078
:1002D00000AF786078681B4B1B68082219000AF091
:1002E0007FFC02000F23FB181A707B686A229B5A5E
:1002F000002B0BD07B686C229B5A002B06D07B68AE
:100300006E229B5A002B01D0012200E000220E2019
:100310003B181A701A7801210A401A700F23FB1833
:100320001B78002B05D13B181B78002B01D0012333
:1003300000E000231A1C01231340DBB21800BD4665
:1003400004B080BD34060020B0B590B000AFF860B6
:10035000B960BB1D1A80FB681B68BB6280231B0150
:100360009B089BB29B00BA6AD3187B62BB6ABB63D3
:10037000BB6A3B6302E0BB6B0433BB63BA6B7B6A53
:100380009A4203D2BB6B1B68002BF4D0BB6B7B6320
:1003900002E07B6B04337B637A6B7B6A9A4203D205
:1003A0007B6B1B680133F4D172B6C04600F01AFFB4
:1003B0000023FB6110217B1800221A60BA6A7B18A7
:1003C0005A607B1801229A60BB1D1B889B089BB258
:1003D00001339B007A6BD3187A6A9A4209D21C23A4
:1003E000FA187B181100180000F0BCFFBB6A3B63D1
:1003F00011E0BB6BFB6208E0F96A002200230220D7
:1004000000F05AFEFB6A0433FB62FA6A7B6B9A4285
:10041000F2D37B6B3B633B6B1A1D3A631900244A92
:100420000023022000F048FE36E02023FB180422BF
:10043000002118000AF06DFB3E23FB1800221A80F1
:1004400014E03E203B181B88BA6811782022BA18A5
:10045000D154BB1D1A88BB1D013A1A80BB680133F9
:10046000BB603B183A18128801321A803E23FB18F1
:100470001B88032B03D8BB1D1B88002BE1D13B6BD2
:100480001A1D3A6319003B6A1C0000231D0022005C
:100490002B00022000F010FEBB1D1B88002BC4D1D6
:1004A00000F0C6FE62B6C046C046BD4610B0B0BD44
:1004B0000A02CB0780B58AB000AFF860B960BB1DF7
:1004C0001A80FB681B68BB6180231B019B089BB2E1
:1004D0009B00BA69D3187B61BB697B62BB1D1A881C
:1004E000BB68002118000AF014FB02E07B6A0433A9
:1004F0007B627A6A7B699A4203D27B6A1B68002B13
:10050000F4D07B69043B7A6A9A4202D27B6A043354
:100510007B627B6A3B6228E03B6A1B683B611F236E
:10052000FB1800221A7014E01F217B181B78102280
:10053000BA18D25CBB681A70BB680133BB60BB1DC4
:100540001A88BB1D013A1A807B187A18127801327A
:100550001A701F23FB181B78032B03D8BB1D1B88A5
:10056000002BE1D13B6A04333B62BB1D1B88002B8F
:1005700003D03A6A7B699A42CED3C046BD460AB0E0
:1005800080BDB0B58CB000AF3861796139690904BC
:10059000090CF96279690900B9600021F960B9684C
:1005A0000904090CB962F96AB961B96909BA396013
:1005B0000021796039680B0000210A00B96AF961ED
:1005C000F96909BA0C0000210D00110021433962BC
:1005D0002B437B623A6A7B6A10001900BD460CB05F
:1005E000B0BD000080B582B000AF78607B680E4A75
:1005F0001A607B680D4A5A607B680D4A9A607B6876
:100600000C4ADA607B680C4A1A617B6800225A61E6
:100610007B6818334022002118000AF07AFAC0469D
:10062000BD4602B080BDC0460123456789ABCDEF12
:10063000FEDCBA9876543210F0E1D2C380B592B0A5
:1006400000AF786000233B6310E07B6818331A002A
:100650003B6B9B00D3181B683B623B6A19BA714B1A
:100660003A6B9200D1503B6B01333B633B6B0F2BDA
:10067000EBD930E03B6BDA1E6A4B9200D2583B6BF1
:10068000083B1900674B8900CB585A403B6B0E3B27
:100690001900644B8900CB585A403B6B103B190042
:1006A000604B8900CB585340FB611F23BB61BB6982
:1006B0001F221340BB61BB69002B01D1FB6903E022
:1006C000FA69BB69DA411300564A396B89008B50CD
:1006D0003B6B01333B633B6B4F2BCBD97B681B6878
:1006E0007B647B685B683B647B689B68FB637B68BF
:1006F000DB68BB637B681B697B6300233B636CE047
:100700003B6B132B0BD83B6CFA6B1A403B6CDB43F7
:10071000B96B0B401343FB62434BBB6223E03B6B63
:10072000272B08D83A6CFB6B5340BA6B5340FB62E3
:100730003E4BBB6217E03B6B3B2B0CD8FA6BBB6BA1
:1007400013433A6C1A40FB6BB96B0B401343FB62CB
:10075000374BBB6207E03A6CFB6B5340BA6B5340BC
:10076000FB62344BBB627B6CFB601B23BB60BB68D2
:100770001F221340BB60BB68002B01D1FB6803E064
:10078000FA68BB68DA411300FA6A9A187B6BD218D0
:10079000BB6AD218234B396B8900CB58D3187B62C4
:1007A000BB6B7B63FB6BBB633B6C7B6102233B617D
:1007B0003B691F2213403B613B69002B01D17B69E0
:1007C00003E07A693B69DA411300FB637B6C3B64AD
:1007D0007B6A7B643B6B01333B633B6B4F2B8FD955
:1007E0007B681A687B6CD2187B681A607B685A68D1
:1007F0003B6CD2187B685A607B689A68FB6BD21896
:100800007B689A607B68DA68BB6BD2187B68DA60B9
:100810007B681A697B6BD2187B681A61C046BD463B
:1008200012B080BDC80600209979825AA1EBD96E1A
:10083000DCBC1B8FD6C162CA80B586B000AFF86041
:10084000B9607A60FB685B693F2213403B6100231B
:100850007B611BE0BA687B69D2183B69591C39611E
:100860001178FA68D3180A1C1A763B69402B05D117
:10087000FB681800FFF7E2FE00233B61FB685B6941
:100880005A1CFB685A617B6901337B617A697B681A
:100890009A42DFD3C046C046BD4606B080BDB0B563
:1008A0008AB000AFF860B960FB685B693F22134013
:1008B0007B62172108203B185B1880221A707B6A24
:1008C0005A1C7A62FA68D3183A18521812781A76B3
:1008D0003B185B1800221A707B6A382B11D9FB6811
:1008E00018331A007B6AD0187B6A4022D31A1A0088
:1008F00000210AF00EF9FB681800FFF79FFE0023A5
:100900007B62FB6818331A007B6AD0187B6A382236
:10091000D31A1A0000210AF0FCF8FB685B693B60FF
:1009200000237B603A687B6811004D0F1300DC00E8
:1009300020002900FFF725FE02000B003A617B61D1
:10094000FB681833383308220821791889180822DF
:1009500018000AF0D5F8FB681800FFF76FFE0023B7
:100960003B620EE0FB683A6A9200D2583B6A9B00F9
:10097000B968CB18BA61BA6912BA1A603B6A013316
:100980003B623B6A042BEDDDC046C046BD460AB063
:10099000B0BD80B584B000AFF860B9607A603B60EC
:1009A0007A68B968FB681800FFF746FF3A68FB6889
:1009B00011001800FFF773FFC046BD4604B080BDAC
:1009C00080B500AF074B1A68064B10210A431A6026
:1009D000002000F009F809F069FE00231800BD4668
:1009E00080BDC0460020024090B583B000AF786063
:1009F000144B1C68144B1B781900FA239800FFF75E
:100A000095FB030019002000FFF790FB030018007E
:100A100000F02FF9031E01D001230FE07B68032BA8
:100A20000BD8796801235B420022180000F0FCF823
:100A3000064B7A681A60002300E001231800BD46C7
:100A400003B090BDA00600200C000020080000208C
:100A500080B500AF054B1B781A00054B1B68D218F8
:100A6000034B1A60C046BD4680BDC0460C00002046
:100A7000DC13002080B500AF024B1B681800BD4698
:100A800080BDC046DC13002080B584B000AF786024
:100A9000FFF7F0FF0300BB607B68FB60FB6801337E
:100AA00005D00A4B1B781A00FB689B18FB60C046F8
:100AB000FFF7E0FF0200BB68D31AFA689A42F7D842
:100AC000C046C046BD4604B080BDC0460C000020F4
:100AD00080B582B000AF0200FB1D1A70FB1D1B78B1
:100AE0007F2B09D8FB1D1B781A001F231A40044BCB
:100AF000012191400A001A60C046BD4602B080BD87
:100B000000E100E090B583B000AF02003960FB1D4A
:100B10001A70FB1D1B787F2B28D82F4AFB1D1B78D2
:100B20005BB29B08C0339B009B58FA1D12781100E2
:100B300003220A40D200FF2191400A00D2431A400A
:100B400011003B689B01FF221A40FB1D1B78180017
:100B500003230340DB009A401F48FB1D1B785BB258
:100B60009B080A43C0339B001A5031E01B4AFB1D0F
:100B70001B7819000F230B40083B9B0806339B0092
:100B8000D31804331B68FA1D1278110003220A409F
:100B9000D200FF2191400A00D2431A4011003B6865
:100BA0009B01FF221A40FB1D1B7818000323034002
:100BB000DB009A400948FB1D1B781C000F232340D3
:100BC000083B9B080A4306339B00C31804331A6092
:100BD000C046BD4603B090BD00E100E000ED00E07E
:100BE00080B582B000AF78607B685A1E80235B04BA
:100BF0009A4201D3012310E00A4B7A68013A5A6005
:100C000001235B4203211800FFF77CFF054B002204
:100C10009A60044B07221A6000231800BD4602B0F8
:100C200080BDC04610E000E080B584B000AFB96080
:100C30007A600F217B18021C1A70BA687B181B7827
:100C40005BB211001800FFF75DFFC046BD4604B05F
:100C500080BD80B582B000AF0200FB1D1A70FB1D85
:100C60001B785BB21800FFF733FFC046BD4602B0E9
:100C700080BD80B582B000AF78607B681800FFF758
:100C8000AFFF03001800BD4602B080BD80B584B040
:100C900000AF78600023FB607B68002B01D101234B
:100CA00036E07B682122022199547B681B681B680F
:100CB000FB60FB68184A1340FB607B685A687B68DE
:100CC0009B681A437B68DB681A437B681B691A437D
:100CD0007B685B691A437B689B691A437B68DB69A5
:100CE0001343FA681343FB607B681B68FA681A6059
:100CF0007B68180000F0C4F97B6800229A637B6867
:100D00002122012199547B6820220021995400233B
:100D10001800BD4604B080BD0FC0FFFF80B586B08F
:100D200000AFF860B9607A603B601723FB180022BF
:100D30001A70FB6820229B5C012B01D102234FE03B
:100D4000FB68202201219954FB6821229B5CDBB2C5
:100D5000012B3AD1FB68212202219954FB68002221
:100D60009A63FB681B681A68FB681B6801218A4349
:100D70001A603B687A68B968F86800F054F9FB6853
:100D8000DB6A002B08D0FB681B681A68FB681B68CD
:100D90000E210A431A600FE0FB681B681A68FB68A3
:100DA0001B680A210A431A60FB681B681A68FB6803
:100DB0001B6804218A431A60FB681B681A68FB6879
:100DC0001B6801210A431A6007E0FB68202200210A
:100DD00099541723FB1802221A701723FB181B784B
:100DE0001800BD4606B080BD80B582B000AF786007
:100DF0007B6821229B5CDBB2022B08D07B6804223B
:100E00009A637B68202200219954012320E07B68AB
:100E10001B681A687B681B680E218A431A607B680E
:100E20001B681A687B681B6801218A431A607B680B
:100E30001A6C7B68DB6B012191400A005A607B6869
:100E40002122012199547B682022002199540023FA
:100E50001800BD4602B080BD80B584B000AF786098
:100E60000F217B1800221A707B6821229B5CDBB269
:100E7000022B06D07B6804229A637B1801221A7029
:100E800028E07B681B681A687B681B680E218A4310
:100E90001A607B681B681A687B681B6801218A439B
:100EA0001A607B681A6C7B68DB6B012191400A0039
:100EB0005A607B682122012199547B6820220021FD
:100EC00099547B685B6B002B04D07B685B6B7A6802
:100ED000100098470F23FB181B781800BD4604B07C
:100EE00080BD80B584B000AF78607B68DB6B1B6829
:100EF000FB607B681B681B68BB607B681B6C042203
:100F00009A401300FA68134024D0BB6804221340AF
:100F100020D07B681B681B682022134007D17B68A8
:100F20001B681A687B681B6804218A431A607B6807
:100F30001A6C7B68DB6B042191400A005A607B6865
:100F4000DB6A002B00D16AE07B68DB6A7A681000FC
:100F5000984764E07B681B6C02229A401300FA6891
:100F600013402BD0BB680222134027D07B681B683C
:100F70001B68202213400BD17B681B681A687B68B2
:100F80001B680A218A431A607B6821220121995437
:100F90007B681A6C7B68DB6B022191400A005A6007
:100FA0007B682022002199547B689B6A002B36D0F5
:100FB0007B689B6A7A681000984730E07B681B6CFE
:100FC00008229A401300FA68134028D0BB68082210
:100FD000134024D07B681B681A687B681B680E214D
:100FE0008A431A607B681A6C7B68DB6B0121914035
:100FF0000A005A607B6801229A637B6821220121E2
:1010000099547B682022002199547B681B6B002B2C
:1010100005D07B681B6B7A6810009847FFE7C046D5
:10102000BD4604B080BD80B584B000AFF860B96043
:101030007A603B60FB681A6CFB68DB6B01219140B6
:101040000A005A60FB681B683A685A60FB685B6874
:10105000102B08D1FB681B687A689A60FB681B68D4
:10106000BA68DA6007E0FB681B68BA689A60FB68D8
:101070001B687A68DA60C046BD4604B080BD0000D7
:1010800080B582B000AF78607B681B68084A9446E0
:10109000634414211800FFF749F803009A007B68A5
:1010A0001A647B68034ADA63C046BD4602B080BD5D
:1010B000F8FFFDBF00000240F0B587B000AFF86058
:1010C000B9603A607B601723FB1801221A7016235F
:1010D000FB1800221A701523FB1800221A703E4BD1
:1010E0001B7E012B01D1022372E03B4B01221A76B9
:1010F0001723FE18394B180000F0C4F803003370B2
:101100001723FB181B78002B5CD1FB68012B04D143
:101110001523FB1801221A700BE0FB68022B04D187
:101120001523FB1802221A7003E01523FB18042272
:101130001A701623FB1800221A7039E016217B184A
:101140001B785A00BB68D0187B181B781B011A004B
:10115000203A002A03DB7968D1400C0008E0202205
:10116000D21A796891400A003968D9400C001443BA
:101170007A68DA401500A3B2190000F067F8172367
:10118000FE18164B180000F07DF803003370144B66
:101190001A69134B01218A431A611723FB181B7824
:1011A000002B0ED116217B181A787B1801321A7089
:1011B0001623FA181523FB1812781B789A42BDD310
:1011C00000E0C046044B00221A761723FB181B7858
:1011D0001800BD4607B0F0BDE013002050C300006A
:1011E0000020024080B582B000AFFB1D00221A70C3
:1011F0000C4B1B69802213400DD00A4B0A4A5A60DF
:10120000084B0A4A5A60074B1B698022134002D0E0
:10121000FB1D01221A70FB1D1B781800BD4602B091
:1012200080BDC0460020024023016745AB89EFCD59
:1012300080B500AF044B1A69034B80210A431A6141
:1012400000231800BD4680BD0020024080B582B05A
:1012500000AF78600A00BB1C1A80084B0022DA61DC
:10126000074B1A69064B01210A431A617B68BA1CB5
:1012700012881A80C046BD4602B080BDE01300202F
:101280000020024080B584B000AF7860FFF7F2FB29
:101290000300FB600FE07B6801330CD07B68002B00
:1012A00007D0FFF7E7FB0200FB68D31A7A689A427F
:1012B00001D203231FE0124BDB6801221340012BF4
:1012C000E9D00F4BDB6820221340202B02D10C4BBE
:1012D0002022DA600A4BDB6810221340102B05D065
:1012E000074BDB6804221340042B03D100F00AF8FB
:1012F000012300E000231800BD4604B080BDC046B5
:101300000020024080B582B000AF00237B60134B09
:10131000DB6810221340102B09D1114BDB6902222C
:101320001A430F4BDA617B68102213437B600B4B2F
:10133000DB6804221340042B09D1094BDB6901222D
:101340001A43074BDA617B68042213437B60034B2B
:101350007A68DA60C046BD4602B080BD0020024017
:10136000E0130020B0B584B000AF786039600F237F
:10137000FB1801221A700023BB60324B1B7E012B2D
:1013800001D102235AE02F4B01221A767B681B6899
:10139000012B16D12C4B1800FFF774FF031E47D109
:1013A00000F056F80F23FC18274B1800FFF76AFFD0
:1013B00003002370254B1A69244B04218A431A61C8
:1013C00036E0214B1800FFF75DFF031E30D13B686C
:1013D000012252421A607B685B68BB601FE0BB68F9
:1013E000180000F04DF80F257C19174B1800FFF777
:1013F00049FF03002370154B1A69144B02218A43DD
:101400001A617B191B78002B03D03B68BA681A60FD
:101410000EE0BB688022D20094466344BB607B68C8
:101420009B689A027B685B68D318BA689A42D6D3E5
:10143000044B00221A760F23FB181B781800BD46B8
:1014400004B0B0BDE013002050C3000000200240F3
:1014500080B500AF084B0022DA61084B1A69074BD0
:1014600004210A431A61054B1A69044B40210A43BF
:101470001A61C046BD4680BDE01300200020024036
:1014800080B582B000AF78600A4B0022DA610A4B67
:101490001A69094B02210A431A61074B7A685A619B
:1014A000054B1A69044B40210A431A61C046BD46E8
:1014B00002B080BDE01300200020024080B586B05D
:1014C00000AF7860396000237B614FE13B681B68A7
:1014D00001217A6991400A001340FB60FB68002BF0
:1014E00000D140E13B685B6803221340012B05D02B
:1014F0003B685B6803221340022B30D17B689B68FA
:101500003B617B695B0003229A401300DA433B692D
:1015100013403B613B68DA687B695B009A401300CB
:101520003A6913433B617B683A699A607B685B6800
:101530003B6101227B699A401300DA433B69134007
:101540003B613B685B681B0901221A407B699A403A
:1015500013003A6913433B617B683A695A603B6800
:101560005B6803221340032B17D07B68DB683B6169
:101570007B695B0003229A401300DA433B69134006
:101580003B613B689A687B695B009A4013003A694B
:1015900013433B617B683A69DA603B685B6803220E
:1015A0001340022B23D17B69DA087B680832920052
:1015B000D3583B617B69072213409B000F229A405E
:1015C0001300DA433B6913403B613B681A697B694E
:1015D00007210B409B009A4013003A6913433B617B
:1015E0007B69DA087B68083292003969D1507B68E0
:1015F0001B683B617B695B0003229A401300DA435E
:101600003B6913403B613B685B6803221A407B697E
:101610005B009A4013003A6913433B617B683A6967
:101620001A603B685A68C0239B02134000D19AE0BD
:10163000544B9A69534B01210A439A61514B9B6960
:1016400001221340BB60BB684F4A7B699B08023391
:101650009B009B583B617B69032213409B000F2238
:101660009A401300DA433B6913403B617A68902348
:10167000DB059A4213D07B68444A93420DD07B68C5
:10168000434A934207D07B68424A934201D10323E5
:1016900006E0052304E0022302E0012300E000232A
:1016A0007A6903210A40920093403A6913433B61EF
:1016B00035497B699B0802339B003A695A50364B87
:1016C0009B683B61FB68DA433B6913403B613B68C5
:1016D0005A6880235B03134003D03A69FB681343C5
:1016E0003B612D4B3A699A602B4BDB683B61FB6891
:1016F000DA433B6913403B613B685A6880239B0394
:10170000134003D03A69FB6813433B61224B3A69AB
:10171000DA60214B5B683B61FB68DA433B6913404D
:101720003B613B685A6880239B02134003D03A69AF
:10173000FB6813433B61184B3A695A60164B1B68B0
:101740003B61FB68DA433B6913403B613B685A6885
:1017500080235B02134003D03A69FB6813433B616B
:101760000D4B3A691A607B6901337B613B681A68EB
:101770007B69DA40131E00D0A8E6C046C046BD46CD
:1017800006B080BD00100240000001400004004887
:1017900000080048000C00480004014080B584B0F7
:1017A00000AF78600A00BB1C1A807B681B69BA1CFA
:1017B0001288134004D00F23FB1801221A7003E093
:1017C0000F23FB1800221A700F23FB181B78180038
:1017D000BD4604B080BD80B582B000AF786008001F
:1017E0001100BB1C021C1A807B1C0A1C1A707B1C7B
:1017F0001B78002B04D0BB1C1A887B689A6103E01D
:10180000BB1C1A887B689A62C046BD4602B080BD88
:1018100080B588B000AF78607B68002B01D10123D0
:1018200001E37B681B680122134000D18DE0C34BAC
:101830005B680C221340042B0ED0C04B5B680C225B
:101840001340082B16D1BD4B5A6880235B021A4007
:1018500080235B029A420DD1B84B1A6880239B0209
:10186000134000D170E07B685B68002B00D06BE018
:101870000123D8E27B685B68012B07D1AF4B1A6864
:10188000AE4B802149020A431A602FE07B685B68F7
:10189000002B0CD1A94B1A68A84BA9490A401A6021
:1018A000A64B1A68A54BA7490A401A601EE07B6840
:1018B0005B68052B0ED1A14B1A68A04B8021C90291
:1018C0000A431A609D4B1A689C4B802149020A43C7
:1018D0001A600BE0994B1A68984B99490A401A60B4
:1018E000964B1A68954B97490A401A607B685B686B
:1018F000002B14D0FFF7BEF80300BB6108E0FFF730
:10190000B9F80200BB69D31A642B01D903238AE218
:101910008A4B1A6880239B021340F0D015E0FFF732
:10192000A9F80300BB6108E0FFF7A4F80200BB6957
:10193000D31A642B01D9032375E2804B1A688023E4
:101940009B021340F0D100E0C0467B681B68022276
:10195000134000D169E0794B5B680C2213400BD037
:10196000764B5B680C221340082B1CD1734B5A68D2
:1019700080235B02134016D1704B1B680222134078
:1019800005D07B68DB68012B01D001234BE26B4B58
:101990001B68F822934319007B681B69DA00674BC8
:1019A0000A431A6041E07B68DB68002B24D0634B5C
:1019B0001A68624B01210A431A60FFF75BF80300C3
:1019C000BB6108E0FFF756F80200BB69D31A022B8F
:1019D00001D9032327E2594B1B6802221340F1D09F
:1019E000564B1B68F822934319007B681B69DA0089
:1019F000524B0A431A6018E0504B1A684F4B0121B2
:101A00008A431A60FFF736F80300BB6108E0FFF76E
:101A100031F80200BB69D31A022B01D9032302E279
:101A2000464B1B6802221340F1D17B681B680822D9
:101A3000134036D07B68DB69002B19D03F4B5A6AC4
:101A40003E4B01210A435A62FFF714F80300BB61C1
:101A500008E0FFF70FF80200BB69D31A022B01D987
:101A60000323E0E1354B5B6A02221340F1D018E01A
:101A7000324B5A6A314B01218A435A62FEF7FAFF10
:101A80000300BB6108E0FEF7F5FF0200BB69D31A53
:101A9000022B01D90323C6E1284B5B6A02221340C3
:101AA000F1D17B681B680422134000D1B4E01F20F1
:101AB0003B1800221A70214BDA6980235B05134022
:101AC00010D11E4BDA691D4B802149050A43DA61AA
:101AD0001A4BDA6980235B051340FB60FB683B18F7
:101AE00001221A70184B1A6880235B0013401AD128
:101AF000154B1A68144B802149000A431A60FEF7FF
:101B0000B9FF0300BB6108E0FEF7B4FF0200BB6948
:101B1000D31A642B01D9032385E10B4B1A68802368
:101B20005B001340F0D07B689B68012B0ED1034B08
:101B30001A6A024B01210A431A6235E00010024082
:101B4000FFFFFEFFFFFFFBFF007000407B689B680C
:101B5000002B0CD1B64B1A6AB54B01218A431A628D
:101B6000B34B1A6AB24B04218A431A621CE07B68A9
:101B70009B68052B0CD1AE4B1A6AAD4B04210A436E
:101B80001A62AB4B1A6AAA4B01210A431A620BE094
:101B9000A74B1A6AA64B01218A431A62A44B1A6A00
:101BA000A34B04218A431A627B689B68002B14D0E4
:101BB000FEF760FF0300BB6109E0FEF75BFF020078
:101BC000BB69D31A9B4A934201D903232BE1984B5B
:101BD0001B6A02221340F0D013E0FEF74BFF030014
:101BE000BB6109E0FEF746FF0200BB69D31A914AC8
:101BF000934201D9032316E18D4B1B6A0222134045
:101C0000F0D11F23FB181B78012B05D1884BDA6913
:101C1000874B89490A40DA617B681B6810221340B0
:101C200063D07B685B69012B2AD1814B5A6B804B57
:101C300004210A435A637E4B5A6B7D4B01210A43B0
:101C40005A63FEF717FF0300BB6108E0FEF712FFBF
:101C50000200BB69D31A022B01D90323E3E0744BC2
:101C60005B6B02221340F1D0714B5B6BF822934304
:101C700019007B689B69DA006D4B0A435A6334E0B4
:101C80007B685B69053311D1694B5A6B684B042142
:101C90008A435A63664B5B6BF822934319007B6857
:101CA0009B69DA00624B0A435A631EE0604B5A6B31
:101CB0005F4B04210A435A635D4B5A6B5C4B012115
:101CC0008A435A63FEF7D6FE0300BB6108E0FEF7C5
:101CD000D1FE0200BB69D31A022B01D90323A2E073
:101CE000534B5B6B02221340F1D17B681B6A002BC4
:101CF00000D197E04E4B5B680C221340082B00D1BB
:101D00006BE07B681B6A022B4CD1494B1A68484B2D
:101D10004A490A401A60FEF7ADFE0300BB6108E0C5
:101D2000FEF7A8FE0200BB69D31A022B01D90323D8
:101D300079E03F4B1A6880239B041340F0D13C4B61
:101D4000DB6A0F22934319007B68DA6A384B0A4337
:101D5000DA62374B5B683A4A134019007B689A6A2B
:101D60007B685B6A1A43324B0A435A60304B1A68ED
:101D70002F4B802149040A431A60FEF77BFE0300C3
:101D8000BB6108E0FEF776FE0200BB69D31A022BA6
:101D900001D9032347E0264B1A6880239B04134094
:101DA000F0D03FE0224B1A68214B24490A401A60C8
:101DB000FEF760FE0300BB6108E0FEF75BFE020079
:101DC000BB69D31A022B01D903232CE0184B1A68E4
:101DD00080239B041340F0D124E07B681B6A012B15
:101DE00001D101231FE0124B5B687B61104BDB6A62
:101DF0003B617A6980235B021A407B685B6A9A4286
:101E00000ED13B690F221A407B68DB6A9A4207D1E8
:101E10007A69F0239B031A407B689B6A9A4201D03F
:101E2000012300E000231800BD4608B080BDC04675
:101E30000010024088130000FFFFFFEFFFFFFFFECE
:101E4000FFFFC2FF80B584B000AF786039607B6867
:101E5000002B01D10123B3E05B4B1B68012213402F
:101E60003A689A4211D9584B1B68012293431900D2
:101E7000554B3A680A431A60534B1B6801221340C2
:101E80003A689A4201D001239AE07B681B680222DB
:101E9000134015D07B681B680422134006D04B4BBF
:101EA0005A684A4BE021C9000A435A60474B5B68B5
:101EB000F022934319007B689A68444B0A435A60A6
:101EC0007B681B680122134040D07B685B68012B54
:101ED00007D13E4B1A6880239B02134014D1012383
:101EE0006EE07B685B68022B07D1384B1A68802351
:101EF0009B04134008D1012362E0344B1B6802228B
:101F0000134001D101235BE0304B5B680322934314
:101F100019007B685A682D4B0A435A60FEF7AAFDE8
:101F20000300FB6009E0FEF7A5FD0200FB68D31A81
:101F3000274A934201D9032342E0244B5B680C22D9
:101F40001A407B685B689B009A42ECD11E4B1B6871
:101F5000012213403A689A4211D21B4B1B6801229E
:101F600093431900184B3A680A431A60164B1B68D2
:101F7000012213403A689A4201D0012320E07B6895
:101F80001B680422134009D0104B5B68114A1340B0
:101F900019007B68DA680D4B0A435A6000F020F89C
:101FA00001000A4B5B681B090F2213400A4AD35CED
:101FB0000A00DA40094B1A600020FEF715FD0023E5
:101FC0001800BD4604B080BD002002400010024051
:101FD00088130000FFF8FFFFB4B20008A00600203D
:101FE00080B586B000AF0023FB600023BB600023F8
:101FF0007B6100237B6000233B61204B5B68FB60BF
:10200000FB680C221340042B02D0082B03D02CE0D9
:102010001B4B3B612CE0FB689B0C0F221340194AC1
:10202000D35C7B60154BDB6A0F221340164AD35CEE
:10203000BB60FA6880235B02134009D0B96810487E
:10204000FEF774F803001A007B6853437B6109E0D4
:1020500079680A005201521A93019B1ADB005B183F
:102060001B027B617B693B6102E0054B3B61C04623
:102070003B691800BD4606B080BDC0460010024056
:1020800000127A0048B1000858B1000880B500AFCE
:10209000024B1B681800BD4680BDC046A00600204C
:1020A00080B500AFFFF7F2FF0100064B5B681B0A2B
:1020B00007221340044AD35CD9400B001800BD46E8
:1020C00080BDC04600100240C4B2000880B584B094
:1020D00000AF78607B68002B01D10123A8E07B680A
:1020E0005B6A002B09D17B685A6882235B009A42A5
:1020F00009D07B680022DA6105E07B6800221A6162
:102100007B6800225A617B6800229A627B685D22AC
:102110009B5CDBB2002B07D17B685C2200219954C9
:102120007B68180008F0E6FA7B685D22022199546A
:102130007B681B681A687B681B6840218A431A60A9
:102140007B68DA68E023DB009A4202D90023FB6057
:1021500002E080235B01FB607B68DA68F0231B01EF
:102160009A4208D07B68DA68E023DB009A4202D00A
:102170007B6800229A627B685A6882235B001A405F
:102180007B68996884231B020B401A437B681B6998
:1021900002210B401A437B685B6901210B401A4303
:1021A0007B68996980239B000B401A437B68DB693D
:1021B00038210B401A437B681B6A80210B401A436D
:1021C00011007B689A6A80239B011A407B681B6818
:1021D0000A431A607B689B691B0C04221A407B68C7
:1021E0005B6A10210B401A437B685B6B08210B4034
:1021F0001A437B68D968F0231B010B401A43110076
:10220000FA6880235B011A407B681B680A435A60A6
:102210007B681B68DA697B681B6807490A40DA61DA
:102220007B6800221A667B685D2201219954002395
:102230001800BD4604B080BDFFF7FFFF80B588B031
:1022400000AFF860B9603B60BB1D1A801F23FB180C
:1022500000221A70FB685C229B5C012B01D10223D7
:1022600047E1FB685C2201219954FEF703FC03005F
:10227000BB611623FB18BA1D12881A80FB685D2209
:102280009B5CDBB2012B04D01F23FB1802221A70C7
:1022900028E1BB68002B03D0BB1D1B88002B04D199
:1022A0001F23FB1801221A701CE1FB685D22032129
:1022B0009954FB6800221A66FB68BA689A63FB6847
:1022C000BA1D12889A87FB68BA1D1288DA87FB68E4
:1022D00000221A64FB68442200219952FB684622BE
:1022E00000219952FB6800221A65FB680022DA641B
:1022F000FB689A6880231B029A4210D1FB681B6816
:102300001A68FB681B6840218A431A60FB681B68D7
:102310001A68FB681B688021C9010A431A60FB68C0
:102320001B681B6840221340402B07D0FB681B68CA
:102330001A68FB681B6840210A431A60FB68DA6868
:10234000E023DB009A4252D9FB685B68002B04D083
:102350001623FB181B88012B43D1FB689B6B1A8843
:10236000FB681B68DA60FB689B6B9A1CFB689A63CE
:10237000FB68DB8F9BB2013B9AB2FB68DA8730E0E7
:10238000FB681B689B6802221340022B12D1FB687A
:102390009B6B1A88FB681B68DA60FB689B6B9A1C56
:1023A000FB689A63FB68DB8F9BB2013B9AB2FB68C8
:1023B000DA8716E0FEF75EFB0200BB69D31A3A68C3
:1023C0009A4202D83B68013302D13B68002B08D106
:1023D0001F23FB1803221A70FB685D220121995408
:1023E00080E0FB68DB8F9BB2002BC9D153E0FB6818
:1023F0005B68002B04D01623FB181B88012B45D1EA
:10240000FB689A6BFB681B680C3312781A70FB68C8
:102410009B6B5A1CFB689A63FB68DB8F9BB2013B8A
:102420009AB2FB68DA8731E0FB681B689B6802227E
:102430001340022B13D1FB689A6BFB681B680C33AB
:1024400012781A70FB689B6B5A1CFB689A63FB68D6
:10245000DB8F9BB2013B9AB2FB68DA8716E0FEF78E
:1024600009FB0200BB69D31A3A689A4202D83B685A
:10247000013302D13B68002B08D11F23FB18032234
:102480001A70FB685D22012199542BE0FB68DB8FF9
:102490009BB2002BC8D1BA693968FB68180000F0FC
:1024A0000BFE031E02D0FB6820221A66FB689B68A5
:1024B000002B0AD100233B61FB681B68DB683B6192
:1024C000FB681B689B683B613B69FB681B6E002BCC
:1024D00004D01F23FB1801221A7003E0FB685D2261
:1024E00001219954FB685C22002199541F23FB1899
:1024F0001B781800BD4608B080BD000090B589B0BB
:1025000002AFF860B9603B60BB1D1A8017217B18D1
:1025100000221A70FB685D229B5CDBB2012B03D0AA
:102520007B1802221A702BE1FB685A6882235B0039
:102530009A4213D1FB689B68002B0FD1FB685D2288
:1025400004219954BB1D1C88BA68B968F8683B68B7
:102550000093230000F024F9030018E1FB685C22DB
:102560009B5C012B01D1022311E1FB685C2201215C
:102570009954FEF77FFA03003B61BB68002B03D040
:10258000BB1D1B88002B04D11723FB1801221A70D6
:10259000F6E0FB685D2204219954FB6800221A666C
:1025A000FB68BA681A64FB68BA1D442112885A5243
:1025B000FB68BA1D462112885A52FB6800229A63B2
:1025C000FB6800229A87FB680022DA87FB680022FA
:1025D000DA64FB6800221A65FB68DA68E023DB0036
:1025E0009A4208D9FB681B685A68FB681B686A49ED
:1025F0000A405A6008E0FB681B685A68FB681B6861
:10260000802149010A435A60FB689A6880231B02B3
:102610009A420FD1FB681B681A68FB681B6840214F
:102620008A431A60FB681B681A68FB681B685B4971
:102630000A401A60FB681B681B6840221340402B4D
:1026400007D0FB681B681A68FB681B6840210A43B7
:102650001A60FB68DA68E023DB009A4200D971E077
:1026600035E0FB681B689B6801221340012B17D1E2
:10267000FB681B680C331A00FB681B6C1278D2B223
:102680001A70FB681B6C5A1CFB681A64FB684622B4
:102690009B5A9BB2013B99B2FB684622995216E0C5
:1026A000FEF7E8F902003B69D31A3A689A4202D869
:1026B0003B68013302D13B68002B08D11723FB187C
:1026C00003221A70FB685D220121995458E0FB68CF
:1026D00046229B5A9BB2002BC3D139E0FB681B6892
:1026E0009B6801221340012B15D1FB681B68DA6837
:1026F000FB681B6C92B21A80FB681B6C9A1CFB680F
:102700001A64FB6846229B5A9BB2013B99B2FB6854
:102710004622995216E0FEF7ADF902003B69D31A42
:102720003A689A4202D83B68013302D13B68002BD9
:1027300008D11723FB1803221A70FB685D220121C0
:1027400099541DE0FB6846229B5A9BB2002BC5D1D1
:102750003A693968FB68180000F050FC031E02D08B
:10276000FB6820221A66FB681B6E002B04D017231F
:10277000FB1801221A7003E0FB685D2201219954C5
:10278000FB685C22002199541723FB181B78180062
:10279000BD4607B090BDC046FFEFFFFFFFBFFFFF84
:1027A00080B58AB000AFF860B9607A601A00BB1CCF
:1027B0001A8001237B622323FB1800221A70FB6816
:1027C0005C229B5C012B01D10223C4E1FB685C22EB
:1027D00001219954FEF74EF90300FB611B203B18C1
:1027E000FA685D21525C1A70FB685B687B6112239A
:1027F000FB18BA1C12881A803B181B78012B11D0C9
:102800007A6982235B009A4207D1FB689B68002BA0
:1028100003D13B181B78042B04D02323FB1802227E
:102820001A7091E1BB68002B06D07B68002B03D0A7
:10283000BB1C1B88002B04D12323FB1801221A7018
:1028400082E1FB685D229B5CDBB2042B03D0FB685A
:102850005D2205219954FB6800221A66FB687A689C
:102860001A64FB68BA1C462112885A52FB68BA1CCB
:10287000442112885A52FB68BA689A63FB68BA1CF2
:102880001288DA87FB68BA1C12889A87FB680022D4
:10289000DA64FB6800221A65FB68DA68E023DB0073
:1028A0009A4208D9FB681B685A68FB681B68AC49E8
:1028B0000A405A6008E0FB681B685A68FB681B689E
:1028C000802149010A435A60FB681B681B6840224B
:1028D0001340402B07D0FB681B681A68FB681B6815
:1028E00040210A431A60FB68DA68E023DB009A4261
:1028F00000D883E0FB685B68002B05D01223FB182F
:102900001B88012B00D06DE0FB689B6B1A88FB686D
:102910001B68DA60FB689B6B9A1CFB689A63FB6818
:10292000DB8F9BB2013B9AB2FB68DA875AE0FB6807
:102930001B689B6802221340022B1BD1FB68DB8FB4
:102940009BB2002B16D07B6A012B13D1FB689B6BCB
:102950001A88FB681B68DA60FB689B6B9A1CFB6833
:102960009A63FB68DB8F9BB2013B9AB2FB68DA8704
:1029700000237B62FB681B689B6801221340012BCC
:102980001CD1FB6846229B5A9BB2002B16D0FB68D9
:102990001B68DA68FB681B6C92B21A80FB681B6CC0
:1029A0009A1CFB681A64FB6846229B5A9BB2013B47
:1029B00099B2FB684622995201237B62FEF75AF8CE
:1029C0000200FB69D31A3A6B9A420BD83B6B013376
:1029D00008D02323FB1803221A70FB685D22012113
:1029E0009954B1E0FB68DB8F9BB2002B9FD1FB6851
:1029F00046229B5A9BB2002B99D189E0FB685B6809
:102A0000002B05D01223FB181B88012B00D074E08B
:102A1000FB689A6BFB681B680C3312781A70FB68B2
:102A20009B6B5A1CFB689A63FB68DB8F9BB2013B74
:102A30009AB2FB68DA8760E0FB681B689B68022239
:102A40001340022B1CD1FB68DB8F9BB2002B17D0ED
:102A50007B6A012B14D1FB689A6BFB681B680C33F3
:102A600012781A70FB689B6B5A1CFB689A63FB68B0
:102A7000DB8F9BB2013B9AB2FB68DA8700237B6253
:102A8000FB681B689B6801221340012B1ED1FB6869
:102A900046229B5A9BB2002B18D0FB681B680C3354
:102AA0001A00FB681B6C1278D2B21A70FB681B6CA0
:102AB0005A1CFB681A64FB6846229B5A9BB2013B76
:102AC00099B2FB684622995201237B62FDF7D2FF3F
:102AD0000200FB69D31A3A6B9A4202D83B6B01336E
:102AE00002D13B6B002B08D12323FB1803221A7061
:102AF000FB685D220121995426E0FB68DB8F9BB2C5
:102B0000002B99D1FB6846229B5A9BB2002B93D194
:102B1000FA69396BFB68180000F0CEFA031E06D084
:102B20002323FB1801221A70FB6820221A66FB6817
:102B30001B6E002B04D02323FB1801221A7003E024
:102B4000FB685D2201219954FB685C2200219954A5
:102B50002323FB181B781800BD460AB080BDC04671
:102B6000FFEFFFFF80B588B000AF78607B681B681F
:102B70005B68FB617B681B689B68BB61BB699B09E9
:102B80001A00012313400FD1BB69012213400BD05F
:102B9000FB699B091A000123134005D07B68DB6C9D
:102BA0007A6810009847D5E0BB695B081A000123DA
:102BB00013400BD0FB69DB091A000123134005D039
:102BC0007B681B6D7A6810009847C3E0BB695B099E
:102BD0001A00012313400CD1BB699B091A00012381
:102BE000134006D1BB691B0A1A000123134000D110
:102BF000B0E0FB695B091A000123134000D1A9E092
:102C0000BB699B091A000123134023D07B685D2216
:102C10009B5CDBB2032B11D07B681B6E04221A4332
:102C20007B681A6600237B617B681B68DB687B61BD
:102C30007B681B689B687B617B690BE000233B61C1
:102C40007B681B68DB683B617B681B689B683B613A
:102C50003B697FE0BB695B091A000123134014D074
:102C60007B681B6E01221A437B681A660023FB6097
:102C70007B681B689B68FB607B681B681A687B68C5
:102C80001B6840218A431A60FB68BB691B0A1A0053
:102C9000012313400CD07B681B6E08221A437B680B
:102CA0001A660023BB607B681B689B68BB60BB68BF
:102CB0007B681B6E002B4CD07B681B685A687B6856
:102CC0001B68E0218A435A607B685D220121995488
:102CD000FB690222134003D1FB690122134032D069
:102CE0007B681B685A687B681B6803218A435A60AB
:102CF0007B689B6D002B10D07B689B6D174A5A63D5
:102D00007B689B6D1800FEF7A7F8031E05D07B6853
:102D10001B6E40221A437B681A667B685B6D002B32
:102D200016D07B685B6D0D4A5A637B685B6D18003B
:102D3000FEF792F8031E0BD07B681B6E40221A43ED
:102D40007B681A6604E07B68180000F009F800E070
:102D5000C046C046BD4608B080BDC046712D0008C3
:102D600080B582B000AF7860C046BD4602B080BD7D
:102D700080B584B000AF78607B685B6AFB60FB68FD
:102D8000462200219952FB680022DA87FB6818006E
:102D9000FFF7E6FFC046BD4604B080BD80B588B0F1
:102DA00000AFF860B9603B60FB1D1A70FDF762FE72
:102DB0000200BB6A9B1A3A68D318FB61FDF75AFE02
:102DC0000300BB613A4B1B685B011B0DFA6953435F
:102DD0007B6158E03B68013355D0FDF74BFE0200A4
:102DE000BB69D31AFA699A4202D9FB69002B42D116
:102DF000FB681B685A68FB681B68E0218A435A60BD
:102E0000FB685A6882235B009A4213D1FB689A6878
:102E100080231B029A4205D0FB689A688023DB005E
:102E20009A4207D1FB681B681A68FB681B6840213F
:102E30008A431A60FB689A6A80239B019A4210D1E8
:102E4000FB681B681A68FB681B681A490A401A600D
:102E5000FB681B681A68FB681B68802189010A43AC
:102E60001A60FB685D2201219954FB685C220021F5
:102E70009954032317E07B69002B01D10023FB61E8
:102E80007B69013B7B61FB681B689B68BA681340E8
:102E9000BA68D31A5A425341DBB21A00FB1D1B78A1
:102EA0009A4297D100231800BD4608B080BDC046A5
:102EB000A0060020FFDFFFFF80B58AB000AFF860FA
:102EC000B9607A603B601723FB1800221A70FDF787
:102ED000D1FD02003B6B9B1A3A68D3187B62FDF769
:102EE000C9FD03003B62FB681B680C33FB61414B6F
:102EF0001A6813009B009B18DA00D31A1B0D7A6A1C
:102F00005343BB6168E0BA68C023DB009A420AD130
:102F10007B68002B07D1FB691B78DAB217217B187D
:102F20001A707B181B783B68013355D0FDF7A2FD62
:102F300002003B6AD31A7A6A9A4202D97B6A002B52
:102F400042D1FB681B685A68FB681B68E0218A4312
:102F50005A60FB685A6882235B009A4213D1FB686F
:102F60009A6880231B029A4205D0FB689A688023E6
:102F7000DB009A4207D1FB681B681A68FB681B6874
:102F800040218A431A60FB689A6A80239B019A4217
:102F900010D1FB681B681A68FB681B6816490A4059
:102FA0001A60FB681B681A68FB681B68802189012E
:102FB0000A431A60FB685D2201219954FB685C2278
:102FC00000219954032310E0BB69002B01D1002399
:102FD0007B62BB69013BBB61FB681B689B68BA688D
:102FE00013407A689A428ED100231800BD460AB079
:102FF00080BDC046A0060020FFDFFFFF80B586B081
:1030000002AFF860B9607A60FB685A6882235B009F
:103010009A4213D1FB689A6880231B029A4205D01A
:10302000FB689A688023DB009A4207D1FB681B6823
:103030001A68FB681B6840218A431A60BA68F868FE
:103040007B680093130000228021FFF7A7FE031E78
:1030500007D0FB681B6E20221A43FB681A66032305
:1030600026E0FB685A6882235B009A421FD1FB6806
:103070009A6880231B029A4205D0FB689A688023D5
:10308000DB009A4213D1BA68C023D900F8687B6884
:10309000009313000022FFF70FFF031E07D0FB6809
:1030A0001B6E20221A43FB681A66032300E00023EC
:1030B0001800BD4604B080BD80B586B002AFF86090
:1030C000B9607A60BA68C0235901F8687B680093D8
:1030D00013000022FFF7F0FE031E07D0FB681B6EF3
:1030E00020221A43FB681A66032327E0BA68F868AF
:1030F0007B680093130000228021FFF74FFE031E20
:1031000007D0FB681B6E20221A43FB681A66032354
:1031100014E0BA68C023D900F8687B6800931300F4
:103120000022FFF7C9FE031E07D0FB681B6E20229A
:103130001A43FB681A66032300E000231800BD460B
:1031400004B080BD80B582B000AF78607B68002B92
:1031500001D1012342E07B683D229B5CDBB2002B66
:1031600007D17B683C22002199547B68180007F046
:1031700015FB7B683D22022199547B681A687B68A5
:1031800004331900100000F0B5F97B6846220121D4
:1031900099547B683E22012199547B683F2201218A
:1031A00099547B684022012199547B684122012176
:1031B00099547B684222012199547B684322012162
:1031C00099547B684422012199547B68452201214E
:1031D00099547B683D220121995400231800BD4673
:1031E00002B080BD80B584B000AF78607B683D22BE
:1031F0009B5CDBB2012B01D0012335E07B683D22D3
:10320000022199547B681B68DA687B681B6801217E
:103210000A43DA607B681B68154A934209D07B68D1
:103220001B68144A934204D07B681B68124A93427D
:1032300011D17B681B689B6807221340FB60FB6809
:10324000062B10D07B681B681A687B681B680121FD
:103250000A431A6007E07B681B681A687B681B6872
:1032600001210A431A6000231800BD4604B080BD46
:10327000002C0140000400400040014080B582B0B5
:1032800000AF78607B681B68DA687B681B68012187
:103290008A43DA607B681B681B6A0D4A13400DD1B4
:1032A0007B681B681B6A0B4A134007D17B681B684D
:1032B0001A687B681B6801218A431A607B683D227B
:1032C0000121995400231800BD4602B080BDC046BC
:1032D000111100004404000080B584B000AF786094
:1032E0007B681B68DB68FB607B681B681B69BB60D5
:1032F000BB680222134021D0FB68022213401DD07C
:103300007B681B68032252421A617B6801221A778C
:103310007B681B689B690322134004D07B681800FC
:1033200000F0D0F807E07B68180000F0C3F87B6875
:10333000180000F0CFF87B6800221A77BB680422DF
:10334000134022D0FB68042213401ED07B681B6808
:10335000052252421A617B6802221A777B681B6839
:103360009A69C0239B00134004D07B68180000F0CA
:10337000A9F807E07B68180000F09CF87B6818004B
:1033800000F0A8F87B6800221A77BB680822134077
:1033900021D0FB68082213401DD07B681B680922DE
:1033A00052421A617B6804221A777B681B68DB69CA
:1033B0000322134004D07B68180000F083F807E074
:1033C0007B68180000F076F87B68180000F082F83F
:1033D0007B6800221A77BB681022134022D0FB685A
:1033E000102213401ED07B681B68112252421A61C2
:1033F0007B6808221A777B681B68DA69C0239B0008
:10340000134004D07B68180000F05CF807E07B688C
:10341000180000F04FF87B68180000F05BF87B683C
:1034200000221A77BB68012213400CD0FB680122EE
:10343000134008D07B681B68022252421A617B68E5
:10344000180006F02DFEBB68802213400CD0FB68EC
:103450008022134008D07B681B68812252421A6187
:103460007B68180000F0D2F8BB68402213400CD0F3
:10347000FB684022134008D07B681B6841225242FF
:103480001A617B68180000F02DF8BB6820221340F9
:103490000CD0FB682022134008D07B681B682122D7
:1034A00052421A617B68180000F0A8F8C046BD4679
:1034B00004B080BD80B582B000AF7860C046BD4624
:1034C00002B080BD80B582B000AF7860C046BD4616
:1034D00002B080BD80B582B000AF7860C046BD4606
:1034E00002B080BD80B582B000AF7860C046BD46F6
:1034F00002B080BD80B584B000AF786039607B6871
:103500001B68FB607B68364A934203D07B68354A70
:10351000934208D1FB6870229343FB603B685B6871
:10352000FA681343FB607B682D4A934213D07B6893
:103530002C4A93420FD07B682B4A93420BD07B6876
:103540002A4A934207D07B68294A934203D07B687A
:10355000284A934208D1FB68274A1340FB603B6826
:10356000DB68FA681343FB60FB68802293431A0010
:103570003B685B691343FB607B68FA681A603B68D1
:103580009A687B68DA623B681A687B689A627B6833
:10359000134A93420BD07B68144A934207D07B684E
:1035A000134A934203D07B68124A934203D13B688B
:1035B0001A697B681A637B6801225A617B681B6900
:1035C00001221340012B06D17B681B690122934322
:1035D0001A007B681A61C046BD4604B080BDC04673
:1035E000002C014000040040002000400040014049
:1035F0000044014000480140FFFCFFFF80B582B05D
:1036000000AF7860C046BD4602B080BD80B582B0D4
:1036100000AF7860C046BD4602B080BD80B582B0C4
:1036200000AF78607B68002B01D1012344E07B6808
:10363000DB6F002B07D17B687822002199547B68CF
:10364000180007F0D1F87B682422DA677B681B68D2
:103650001A687B681B6801218A431A607B685B6A71
:10366000002B03D07B68180000F0DCFC7B6818009E
:1036700000F098FB0300012B01D101231CE07B68C3
:103680001B685A687B681B680D490A405A607B6852
:103690001B689A687B681B6808218A439A607B686C
:1036A0001B681A687B681B6801210A431A607B68E3
:1036B000180000F06BFD03001800BD4602B080BD8D
:1036C000FFF7FFFF80B588B000AFF860B960BB1DA1
:1036D0001A80FB68DB6F202B00D077E0BB68002BE3
:1036E00003D0BB1D1B88002B01D101236FE0FB68B9
:1036F0009A6880235B019A4209D1FB681B69002B01
:1037000005D1BB680122134001D001235FE0FB68B3
:10371000BA68DA64FB68BA1D502112885A52FB68F5
:10372000BA1D522112885A52FB68842200219950F6
:10373000FB682122DA67FB681B6F002B27D0FB6830
:103740001B6F254A9A62FB681B6F244ADA62FB688A
:103750001B6F234A1A63FB681B6F00225A63FB68C6
:10376000186FFB68DB6C1900FB681B6828331A00B4
:10377000BB1D1B88FDF7D2FA031E08D0FB6884220C
:1037800010219950FB682022DA6701231FE0FB68B3
:103790001B6840221A62EFF310833B613B69FB61B7
:1037A00001237B617B6983F31088C046FB681B683B
:1037B0009A68FB681B6880210A439A60FB69BB61B9
:1037C000BB6983F31088C046002300E00223180081
:1037D000BD4608B080BDC0460D460008A1460008A1
:1037E0002F48000890B5ABB000AF78607B681B68CD
:1037F000DB69A422B9180B607B681B681B68A020DA
:1038000039180B607B681B689B689C2179180B60DA
:103810001100BB181B68994A13409822BC182360FA
:10382000BB181B68002B14D17B181B682022134087
:103830000FD03B181B68202213400AD07B689B6E78
:10384000002B00D186E27B689B6E7A681000984757
:1038500080E29823FB181B68002B00D114E19C2305
:10386000FB181B680122134006D1A023FB181B681C
:10387000834A134000D107E1A423FB181B680122EF
:10388000134012D0A023FB181A6880235B0013405A
:103890000BD07B681B6801221A627B6884229B58CC
:1038A00001221A437B6884215A50A423FB181B6809
:1038B0000222134011D09C23FB181B6801221340E5
:1038C0000BD07B681B6802221A627B6884229B589B
:1038D00004221A437B6884215A50A423FB181B68D6
:1038E0000422134011D09C23FB181B6801221340B3
:1038F0000BD07B681B6804221A627B6884229B5869
:1039000002221A437B6884215A50A423FB181B68A7
:103910000822134017D0A023FB181B682022134055
:1039200005D19C23FB181B68012213400BD07B6838
:103930001B6808221A627B6884229B5808221A435B
:103940007B6884215A50A423FB181A6880231B012A
:10395000134013D0A023FB181A688023DB04134004
:103960000CD07B681B68802212011A627B6884225B
:103970009B5820221A437B6884215A507B688422FA
:103980009B58002B00D1E7E1A423FB181B682022E1
:1039900013400ED0A023FB181B682022134008D030
:1039A0007B689B6E002B04D07B689B6E7A6810004E
:1039B00098477B6884229B5894217A1813607B680F
:1039C0001B689B6840221340402B04D07B181B6867
:1039D0002822134047D07B68180000F0B3FD7B68B5
:1039E0001B689B6840221340402B37D1EFF31083B4
:1039F0003B663B6E90203A18136001237B667B6E1A
:103A000083F31088C0467B681B689A687B681B68D4
:103A100040218A439A603B181B68BB66BB6E83F3E8
:103A20001088C0467B685B6F002B12D07B685B6F91
:103A3000144A5A637B685B6F1800FDF70DFA031E8A
:103A40001AD07B685B6F5A6B7B685B6F180090477E
:103A500012E07B68180004F0F7FA0DE07B681800AC
:103A600004F0F2FA08E07B68180004F0EDFA7B68D5
:103A70008422002199506FE1C0466DE10F080000DB
:103A800020010004B34800087B681B6E012B00D0A6
:103A900039E1A423FB181B681022134000D132E146
:103AA000A023FB181B681022134000D12BE17B6878
:103AB0001B6810221A627B681B689B6840221340B7
:103AC000402B00D09FE07B685B6F1B685A687E21AB
:103AD0007B181A807B181B88002B00D13EE17B6885
:103AE00058229B5A7A1812889A4200D336E17B6892
:103AF0007A185A2112885A527B685B6F9B69202B77
:103B00006FD0EFF310833B633B6BBB6701237B6399
:103B10007B6B83F31088C0467B681B681A687B68E0
:103B20001B6892490A401A60BB6FBB63BB6B83F38F
:103B30001088C046EFF31083FB63FB6B7B670123A8
:103B40003B643B6C83F31088C0467B681B689A68B3
:103B50007B681B6801218A439A607B6F7B647B6C66
:103B600083F31088C046EFF31083BB64BB6C3B67E4
:103B70000123FB64FB6C83F31088C0467B681B68E1
:103B80009A687B681B6840218A439A603B6F3B655B
:103B90003B6D83F31088C0467B68802220219950BA
:103BA0007B6800221A66EFF310837B657B6DFB66F2
:103BB0000123BB65BB6D83F31088C0467B681B681F
:103BC0001A687B681B6810218A431A60FB6EFB65CC
:103BD000FB6D83F31088C0467B685B6F1800FDF7B0
:103BE00003F97B6802225A667B6858229A5A7B68DE
:103BF0005A215B5A9BB2D31A9AB27B681100180003
:103C000004F0A6F9AAE07B685822995A7B685A22E8
:103C10009B5A9AB28E203B188A1A1A807B685A22C5
:103C20009B5A9BB2002B00D19AE03B181B88002BBB
:103C300000D195E0EFF31083FB60FB6888243A190C
:103C4000136001233B613B6983F31088C0467B68A6
:103C50001B681A687B681B6845490A401A603B1953
:103C60001B687B617B6983F31088C046EFF3108388
:103C7000BB61BB6984243A1913600123FB61FB69B2
:103C800083F31088C0467B681B689A687B681B6852
:103C900001218A439A603B191B683B623B6A83F3AC
:103CA0001088C0467B688022202199507B680022C2
:103CB0001A667B6800229A66EFF310837B627B6A48
:103CC00080243A1913600123BB62BB6A83F3108816
:103CD000C0467B681B681A687B681B6810218A4392
:103CE0001A603B191B68FB62FB6A83F31088C046AD
:103CF0007B6802225A663B181A887B6811001800FC
:103D000004F026F92CE0A423FB181B688022134042
:103D10000FD0A023FB181B688022134009D07B68BA
:103D2000DB6E002B1ED07B68DB6E7A681000984734
:103D300018E0A423FB181B684022134013D0A023D3
:103D4000FB181B68402213400DD07B68180000F060
:103D5000C7FD08E0C04606E0C04604E0C04602E0F9
:103D6000C04600E0C046BD462BB090BDFFFEFFFF41
:103D7000DFFEFFFF80B582B000AF7860C046BD4671
:103D800002B080BD80B582B000AF7860C046BD464D
:103D900002B080BD80B582B000AF7860C046BD463D
:103DA00002B080BD80B588B000AF78601E23FB18DC
:103DB00000221A707B689A687B681B691A437B68CB
:103DC0005B691A437B68DB6913437B617B681B6813
:103DD0001B688D4A134019007B681B687A690A4387
:103DE0001A607B681B685B68884A134019007B680F
:103DF000DA687B681B680A435A607B689B697B6151
:103E00007B681B6A7A6913437B617B681B689B68CC
:103E10007F4A134019007B681B687A690A439A60DD
:103E20007B681B687B4A934227D17B4B1B6B032229
:103E30001340032B0DD01BD8022B14D018D8002B05
:103E400002D0012B0AD013E01F23FB1800221A70A6
:103E500021E01F23FB1802221A701CE01F23FB180D
:103E600004221A7017E01F23FB1808221A7012E0B0
:103E70001F23FB1810221A700DE07B681B68674A2D
:103E8000934204D11F23FB1800221A7003E01F2362
:103E9000FB1810221A707B68DA6980231B029A4291
:103EA0005CD11F23FB181B78082B15D018DC042BC2
:103EB0000DD015DC002B02D0022B05D010E0FEF750
:103EC000EFF80300BB6112E0554BBB610FE0FEF75A
:103ED00087F80300BB610AE080231B02BB6106E098
:103EE0000023BB611E23FB1801221A70C046BB6968
:103EF000002B00D17AE0BB695A007B685B685B08E5
:103F0000D2187B685B6819001000FCF70FF90300FA
:103F10003B613B690F2B1CD93A6980235B029A42B3
:103F200017D23B699AB20E203B180F218A431A80A0
:103F30003B695B089BB20722134099B23B183A18C1
:103F400012880A431A807B681B683A181288DA6064
:103F50004CE01E23FB1801221A7047E01F23FB18B8
:103F60001B78082B15D018DC042B0DD015DC002B8A
:103F700002D0022B05D010E0FEF792F80300BB61DF
:103F800012E0274BBB610FE0FEF72AF80300BB618C
:103F90000AE080231B02BB6106E00023BB611E23F5
:103FA000FB1801221A70C046BB69002B1ED07B682B
:103FB0005B685A08BB69D2187B685B6819001000FF
:103FC000FCF7B4F803003B613B690F2B0AD93A694F
:103FD00080235B029A4205D23B699AB27B681B68D8
:103FE000DA6003E01E23FB1801221A707B680022AE
:103FF0009A667B680022DA661E23FB181B7818007D
:10400000BD4608B080BDC046F369FFFFFFCFFFFF8C
:10401000FFF4FFFF00380140001002400044004060
:1040200000127A0080B582B000AF78607B685B6A6E
:10403000082213400BD07B681B685B684A4A134018
:1040400019007B685A6B7B681B680A435A607B685F
:104050005B6A012213400BD07B681B685B68434A94
:10406000134019007B689A6A7B681B680A435A6090
:104070007B685B6A022213400BD07B681B685B681D
:104080003B4A134019007B68DA6A7B681B680A4365
:104090005A607B685B6A042213400BD07B681B6804
:1040A0005B68344A134019007B681A6B7B681B6895
:1040B0000A435A607B685B6A102213400BD07B680E
:1040C0001B689B682C4A134019007B689A6B7B68BD
:1040D0001B680A439A607B685B6A202213400BD0FE
:1040E0007B681B689B68254A134019007B68DA6B64
:1040F0007B681B680A439A607B685B6A40221340B6
:104100001DD07B681B685B681D4A134019007B68E3
:104110001A6C7B681B680A435A607B681A6C8023A0
:104120005B039A420BD17B681B685B68154A13409E
:1041300019007B685A6C7B681B680A435A607B686D
:104140005B6A802213400BD07B681B685B680E4A59
:10415000134019007B689A6C7B681B680A435A609D
:10416000C046BD4602B080BDFF7FFFFFFFFFFDFFE1
:10417000FFFFFEFFFFFFFBFFFFEFFFFFFFDFFFFF84
:10418000FFFFEFFFFFFF9FFFFFFFF7FF80B592B03C
:1041900002AF78607B68842200219950FCF76AFCAA
:1041A0000300FB637B681B681B6808221340082B15
:1041B0002CD1FB6B802291037868464A0092002242
:1041C00000F08CF8031E21D0EFF310837B627B6A32
:1041D000BB630123BB62BB6A83F31088C0467B6864
:1041E0001B681A687B681B6880218A431A60BB6B56
:1041F000FB62FB6A83F31088C0467B682022DA6783
:104200007B6878220021995403235FE07B681B6858
:104210001B6804221340042B46D1FB6B8022D10380
:1042200078682C4A0092002200F058F8031E3BD018
:10423000EFF31083FB60FB687B6301233B613B6909
:1042400083F31088C0467B681B681A687B681B680C
:1042500021490A401A607B6B7B617B6983F310887C
:10426000C046EFF31083BB61BB693B630123FB6175
:10427000FB6983F31088C0467B681B689A687B687B
:104280001B6801218A439A603B6B3B623B6A83F364
:104290001088C0467B688022202199507B68782254
:1042A00000219954032311E07B682022DA677B68A0
:1042B0008022202199507B6800221A667B680022A8
:1042C0005A667B6878220021995400231800BD4665
:1042D00010B080BDFFFFFF01DFFEFFFF80B584B09F
:1042E00000AFF860B9603B60FB1D1A7051E0BB691C
:1042F00001334ED0FCF7BEFB02003B68D31ABA690B
:104300009A4202D3BB69002B01D1032351E0FB6821
:104310001B681B68042213403BD0BB68802B38D03D
:10432000BB68402B35D0FB681B68DB690822134053
:10433000082B11D1FB681B6808221A62FB68180061
:1043400000F000F9FB68842208219950FB6878226C
:104350000021995401232CE0FB681B68DA69802353
:104360001B011A4080231B019A4212D1FB681B6873
:10437000802212011A62FB68180000F0E3F8FB6863
:10438000842220219950FB6878220021995403232C
:104390000FE0FB681B68DB69BA681340BA68D31A80
:1043A0005A425341DBB21A00FB1D1B789A429ED041
:1043B00000231800BD4604B080BD000080B590B059
:1043C00000AFF860B960BB1D1A80FB68BA685A6517
:1043D000FB68BA1D582112885A52FB6884220021BA
:1043E0009950FB68802222219950FB685B6F002B5B
:1043F00028D0FB685B6F3E4A9A62FB685B6F3D4A60
:10440000DA62FB685B6F3C4A1A63FB685B6F0022F1
:104410005A63FB68586FFB681B6824331900FB68FC
:104420005B6D1A00BB1D1B88FCF778FC031E09D0CE
:10443000FB68842210219950FB688022202199502A
:10444000012350E0FB681B69002B19D0EFF31083A8
:10445000BB62BB6AFB630123FB62FB6A83F31088C8
:10446000C046FB681B681A68FB681B68802149000E
:104470000A431A60FB6B3B633B6B83F31088C046B7
:10448000EFF310833B613B69BB6301237B617B6975
:1044900083F31088C046FB681B689A68FB681B683A
:1044A00001210A439A60BB6BBB61BB6983F310882F
:1044B000C046EFF31083FB61FB697B6301233B6222
:1044C0003B6A83F31088C046FB681B689A68FB68E8
:1044D0001B6840210A439A607B6B7B627B6A83F393
:1044E0001088C04600231800BD4610B080BDC046ED
:1044F000C1460008ED4700082F48000880B586B087
:1045000000AF7860EFF31083BB60BB687B61012371
:10451000FB60FB6883F31088C0467B681B681A68E1
:104520007B681B68C0218A431A607B693B613B69D9
:1045300083F31088C0467B682022DA67C046BD46F8
:1045400006B080BD80B58EB000AF7860EFF3108309
:104550007B617B697B630123BB61BB6983F310884B
:10456000C0467B681B681A687B681B6826490A403E
:104570001A607B6BFB61FB6983F31088C046EFF325
:1045800010833B623B6A3B6301237B627B6A83F35C
:104590001088C0467B681B689A687B681B6801218D
:1045A0008A439A603B6BBB62BB6A83F31088C04648
:1045B0007B681B6E012B18D1EFF31083BB60BB68C7
:1045C000FB620123FB60FB6883F31088C0467B68B5
:1045D0001B681A687B681B6810218A431A60FB6A93
:1045E0003B613B6983F31088C0467B6880222021B1
:1045F00099507B6800221A667B6800229A66C04642
:10460000BD460EB080BDC046DFFEFFFF80B58CB05A
:1046100000AF78607B685B6AFB627B689B69202BDC
:1046200035D0FB6A522200219952EFF31083FB60D0
:10463000FB68BB6201233B613B6983F31088C04682
:10464000FB6A1B689A68FB6A1B6880218A439A6030
:10465000BB6A7B617B6983F31088C046EFF31083EC
:10466000BB61BB697B620123FB61FB6983F310883B
:10467000C046FB6A1B681A68FB6A1B6840210A4334
:104680001A607B6A3B623B6A83F3108804E0FB6A32
:10469000180003F0B9FCC046C046BD460CB080BD52
:1046A00080B584B000AF78607B685B6AFB60FB68B4
:1046B0001800FFF75FFBC046BD4604B080BD000098
:1046C00080B594B000AF78607B685B6AFB647B6800
:1046D0009B69202B6FD0FB6C5A2200219952EFF37B
:1046E0001083BB61BB69BB640123FB61FB6983F37E
:1046F0001088C046FB6C1B681A68FB6C1B683A4943
:104700000A401A60BB6C3B623B6A83F31088C04668
:10471000EFF310837B627B6A7B640123BB62BB6A1D
:1047200083F31088C046FB6C1B689A68FB6C1B689F
:1047300001218A439A607B6CFB62FB6A83F31088D9
:10474000C046EFF310833B633B6B3B6401237B6309
:104750007B6B83F31088C046FB6C1B689A68FB6C0C
:104760001B6840218A439A603B6CBB63BB6B83F33D
:104770001088C046FB6C802220219950FB6C1B6E78
:10478000012B18D1EFF31083FB60FB68FB6301235F
:104790003B613B6983F31088C046FB6C1B681A6859
:1047A000FB6C1B6810218A431A60FB6B7B617B6981
:1047B00083F31088C046FB6C00225A66FB6C1B6EAC
:1047C000012B08D1FB6C58229A5AFB6C110018007F
:1047D00003F0BEFB03E0FB6C1800FFF7D3FAC04602
:1047E000BD4614B080BDC046FFFEFFFF80B584B05B
:1047F00000AF78607B685B6AFB60FB6801225A66E9
:10480000FB681B6E012B0AD1FB6858229B5A5B0880
:104810009AB2FB681100180003F09AFB03E0FB68F2
:104820001800FFF7B7FAC046BD4604B080BD80B59A
:1048300086B000AF78607B685B6A7B617B69DB6F09
:104840003B617B6980229B58FB607B691B689B688E
:1048500080221340802B0AD13B69212B07D17B6931
:104860005222002199527B691800FFF747FE7B69AD
:104870001B689B6840221340402B0AD1FB68222B07
:1048800007D17B695A22002199527B691800FFF7F2
:1048900059FE7B6984229B5810221A437B6984212C
:1048A0005A507B69180003F0CFFBC046BD4606B0E6
:1048B00080BD80B584B000AF78607B685B6AFB60C8
:1048C000FB685A2200219952FB685222002199521A
:1048D000FB68180003F0B8FBC046BD4604B080BDBD
:1048E00080B586B000AF7860EFF31083BB60BB6823
:1048F0007B610123FB60FB6883F31088C0467B6803
:104900001B681A687B681B6840218A431A607B69B0
:104910003B613B6983F31088C0467B682022DA67DD
:104920007B680022DA667B68180003F06DFBC046E6
:10493000BD4606B080BDB0B58AB000AFF860B960C2
:10494000BB1D1A80FB6880229B58202B56D1BB6868
:10495000002B03D0BB1D1B88002B01D101234EE08F
:10496000FB689A6880235B019A4209D1FB681B6946
:10497000002B05D1BB680122134001D001233EE08A
:10498000FB6801221A66FB6800225A6627257C19FB
:10499000BB1D1A88B968FB681800FFF70FFD0300FC
:1049A00023707B191B78002B24D1FB681B6E012B15
:1049B0001CD1FB681B6810221A62EFF310837B6125
:1049C0007B693B620123BB61BB6983F31088C046EE
:1049D000FB681B681A68FB681B6810210A431A6091
:1049E0003B6AFB61FB6983F3108803E02723FB1814
:1049F00001221A702723FB181B7800E002231800FD
:104A0000BD460AB0B0BD80B584B000AF78603960F3
:104A10000A23FB1804221A7009217B1806221A7037
:104A20003B68FB600B203B1800221A707B181B7838
:104A3000013BDAB23B181A7011E07B681A680B2050
:104A40003B181B785BB2D218FB68591CF9601278CE
:104A50001A703B181B78013BDAB23B181A700B2115
:104A60007B181B787F2BE8D9FB685A1CFA6042221E
:104A70001A700A23FB181B78013BDAB27B181A70F4
:104A800011E07B689A680B203B181B785BB2D21848
:104A9000FB68591CF96012781A703B181B78013BAF
:104AA000DAB23B181A700B22BB181B787F2BE8D99F
:104AB000BB1800221A7014E07B689B891A000B2037
:104AC0003B181B785BB2DB001A411100FB685A1CD3
:104AD000FA60CAB21A703B181B780133DAB23B187D
:104AE0001A700B217B181B785BB2012BE4DD0A23C3
:104AF000FB181B78013BDAB27B181A7011E07B6857
:104B00001A690B203B181B785BB2D218FB68591C42
:104B1000F96012781A703B181B78013BDAB23B1827
:104B20001A700B22BB181B787F2BE8D9BB18002208
:104B30001A7014E07B689B8A1A000B203B181B78C4
:104B40005BB2DB001A411100FB685A1CFA60CAB262
:104B50001A703B181B780133DAB23B181A700B211C
:104B60007B181B785BB2012BE4DD0A23FB181B7852
:104B7000013BDAB27B181A7011E07B689A690B204E
:104B80003B181B785BB2D218FB68591CF96012788D
:104B90001A703B181B78013BDAB23B181A700B21D4
:104BA0007B181B787F2BE8D9FB685A1CFA607A685F
:104BB000127F1A707B1800221A7013E07B681A6A41
:104BC0000B203B181B785BB2DB00DA401100FB685E
:104BD0005A1CFA60CAB21A703B181B780133DAB259
:104BE0003B181A700B203B181B785BB2022BE5DDDB
:104BF000FB685A1CFA607A682421525C1A703B18D0
:104C000000221A700BE0FB685A1CFA6000221A702E
:104C10000B217B181B780133DAB27B181A700B2139
:104C20007B181B785BB2022BEDDD0A23FB181B7887
:104C3000013BDAB27B181A7011E07B685A680B20CE
:104C40003B181B785BB2D218FB68591CF9601278CC
:104C50001A703B181B78013BDAB23B181A700B2311
:104C6000FB181B787F2BE8D9FA683B68D31A180029
:104C7000BD4604B080BD80B586B000AFF860B960B5
:104C80007A603B60FB6800221A61FB6800225A616F
:104C9000FB687A685A607B685A08FB68DA60FB68D0
:104CA000BA681A60FB6800229A61FB680022DA6128
:104CB0007868FBF7C7FA03001A0017217B181A70EF
:104CC0007B181B78013301225242DA40FB689A605C
:104CD000C046BD4606B080BD80B582B000AF7860EA
:104CE00039607B689B683A6813401800BD4602B083
:104CF00080BD80B588B000AFF860B9607A607B682D
:104D0000002B01D1002342E0FB68180000F099F865
:104D10000300FB617A68FB699A4201D9002336E0FF
:104D2000FB681A69FB6811001800FFF7D5FF030044
:104D3000BB61FB681A697B68D218FB681A61FB6863
:104D40005A68BB69D21A7B68934200D913007B6111
:104D5000FB681A68BB69D3187A69B968180005F04E
:104D6000CFFE7A687B699A420AD0FB681868BA68F5
:104D70007B69D1187A687B69D31A1A0005F0C0FEE6
:104D8000FB689A697B68D218FB689A61FB69180016
:104D9000BD4608B080BD80B586B000AFF860B96090
:104DA0007A607B68002B01D1002346E0FB68180085
:104DB00000F057F802007B68934205D3FB681800A7
:104DC00000F04FF8030000E07B687B60FB685A69E5
:104DD000FB6811001800FFF77FFF03007B61FB6891
:104DE0005A687B69D21A7B68934200D913003B61F1
:104DF000FB681A687B69D1183A69BB68180005F02E
:104E00007FFE7A683B699A420AD0BA683B69D0183B
:104E1000FB6819687A683B69D31A1A0005F070FEBE
:104E2000FB685A697B68D218FB685A61FB68DA69CB
:104E30007B68D218FB68DA617B681800BD4606B053
:104E400080BD90B583B000AF78607B685C687B689C
:104E5000180000F006F80300E31A1800BD4603B07E
:104E600090BD80B582B000AF78607B681A697B68BE
:104E70005B69D31A1800BD4602B080BD80B582B010
:104E800000AFBB1D00221A70FB1D00221A701EE02D
:104E9000BB1D1978FB1D1B780322180000F082FD52
:104EA000BB1DBA1D127803321A70BB1D1978FB1D89
:104EB0001B780322180000F09AFDBB1DBA1D127862
:104EC00003321A70FB1DFA1D127801321A70FB1D95
:104ED0001B78072BDCD9C046C046BD4602B080BD5A
:104EE000B0B586B000AF786008001100BB1C021C92
:104EF0001A803B000A1C1A80062000F09DFD00F07D
:104F00001DF9644B00225A76624B0022DA76614B1F
:104F1000FF229A761723FB1800221A7015257C1998
:104F200000F0F0F8030023707B191B78012B0FD1E0
:104F300017243B193A19127801321A70FA235B00D0
:104F40001800FBF7A1FD3B191B78132BE6D900E0F5
:104F5000C0461723FB181B78132B01D9002395E0BB
:104F6000012000F09BFC031E02D06420FBF78CFDA7
:104F700016243B1900221A70BB1C1B88002B00D181
:104F80007EE00321002000F0B9F9BB1C1B8819004A
:104F9000002000F005FA002000F098FB3C190020EA
:104FA00000F0D4FB030023701723FB1801221A70B2
:104FB0002DE017203B181A7814257B1935498A18DB
:104FC000127C1A703B18197812243B19314A490097
:104FD0008A5A1A807B191B78002B12D03B191B8828
:104FE000002B0ED03B191A8804003B181B781100C7
:104FF000180000F0D5F93B191B780321180000F0C8
:105000007DF91722BB18BA18127801321A701724CA
:105010003B191B78062BCCD93B1907221A703B1978
:105020001B780221180000F069F90C217B1801227D
:1050300052421A607A183B191B781100180000F0D0
:1050400023F921003B191A78124B5200D25A0C0056
:105050007B181B781100180000F074F921007B18F0
:105060001A780C4B5200D25A0C007B181B78110096
:10507000180000F095F93B191B78180000F026FB8A
:105080001623FB181B785A425341DBB21800BD4669
:1050900006B0B0BD1000002080B500AF052000F0C4
:1050A00019FD054B1868044B9B8801221900FCF779
:1050B00092FBC046BD4680BD2C060020B0B584B032
:1050C00000AF0200FB1D1A70062000F003FDFB1D5F
:1050D0001B78180000F026FD0F257C1900F034FD28
:1050E00003002370064B1868054B9B8801221900AA
:1050F000FCF771FB7B191B781800BD4604B0B0BDEE
:105100002C06002090B583B000AF262000F0E2FC12
:10511000FC1D00F019FD03002370074B1868064BB7
:105120009B8801221900FCF756FBFB1D1B78180019
:10513000BD4603B090BDC0462C06002090B583B09C
:1051400000AFFB1D00221A70BB1D00221A70272021
:1051500000F0C0FC114B1868104B9B88012219000D
:10516000FCF739FB0A20FBF78FFCBC1D00F018F898
:1051700003002370BB1D1B78102B08D1FB1D1B786F
:10518000FA1D591C1170C82BECD9FA2302E0C04655
:10519000BB1D1B781800BD4603B090BD2C06002037
:1051A00090B583B000AF2C2000F094FCFC1D00F003
:1051B000CBFC03002370074B1868064B9B88012229
:1051C0001900FCF708FBFB1D1B781800BD4603B057
:1051D00090BDC0462C06002090B585B000AF786029
:1051E000402000F077FC0F23FB1800221A700CE01F
:1051F0007C68631C7B6000F0A7FC030023700F2118
:105200007B181A787B1801321A700F23FB181B7851
:10521000052BEDD9054B1868044B9B88012219001A
:10522000FCF7D9FAC046BD4605B090BD2C0600205B
:1052300090B585B000AF7860282000F04BFC0F23BC
:10524000FB1800221A700CE07C68631C7B6000F085
:105250007BFC030023700F217B181A787B18013226
:105260001A700F23FB181B78072BEDD9054B186814
:10527000044B9B8801221900FCF7ADFAC046BD46DD
:1052800005B090BD2C06002080B582B000AF0200B2
:105290003960FB1D1A70312000F01CFCFB1D1B78CF
:1052A000180000F03FFC3B685A1C3A601B7818005D
:1052B00000F038FC3B685A1C3A601B78180000F07C
:1052C00031FC3B685A1C3A601B78180000F02AFC3D
:1052D0003B685A1C3A601B78180000F023FC064B10
:1052E0001868054B9B8801221900FCF774FAC04628
:1052F000BD4602B080BDC0462C06002080B582B0FD
:1053000000AF0200FB1D1A70BB1D0A1C1A7034206E
:1053100000F0E0FBFB1D1B78180000F003FCBB1D38
:105320001B78180000F0FEFB054B1868044B9B88A7
:1053300001221900FCF74FFAC046BD4602B080BDFD
:105340002C06002080B582B000AF0200FB1D1A7051
:105350003B1D0A1C1A80322000F0BCFBFB1D1B7891
:10536000180000F0DFFB3B1D1B88DBB2180000F0CB
:10537000D9FB3B1D1B881B0A9BB2DBB2180000F057
:10538000D1FB064B1868054B9B8801221900FCF7DE
:1053900022FAC046BD4602B080BDC0462C060020A1
:1053A00080B582B000AF0200FB1D1A703B1D0A1CC5
:1053B0001A80332000F08EFBFB1D1B78180000F0D4
:1053C000B1FB3B1D1B88DBB2180000F0ABFB3B1DA3
:1053D0001B881B0A9BB2DBB2180000F0A3FB064B34
:1053E0001868054B9B8801221900FCF7F4F9C046A8
:1053F000BD4602B080BDC0462C06002080B584B0FA
:1054000000AF39601100FB1D021C1A703B1D0A1C05
:105410001A8002E00A20FBF737FB2D4BDB7EDBB264
:105420001A00FB1D1B781A41130001221340F1D012
:10543000274BDB7EDBB25BB2FA1D12780121914073
:105440000A0052B2D24352B213405BB2DAB2204BDE
:10545000DA76392000F03EFBFB1D1B78180000F0C7
:1054600061FB3B1D1B88DBB2180000F05BFB3B1DA2
:105470001B881B0A9BB2DBB2180000F053FB022012
:1054800000F0A6FB0E23FB1800221A800DE03B68FB
:105490001B78180000F046FB3B6801333B600E218F
:1054A0007B181A887B1801321A800E23FA183B1DCC
:1054B00012881B889A42EAD3064B1868054B9B88D2
:1054C00001221900FCF787F9C046BD4604B080BD33
:1054D000100000202C06002080B582B000AF020032
:1054E000FB1D1A703B1D0A1C1A80392000F0F2FACD
:1054F000FB1D1B78180000F015FB3B1D1B88DBB261
:10550000180000F00FFB3B1D1B881B0A9BB2DBB28F
:10551000180000F007FB022000F05AFBC046BD4611
:1055200002B080BD80B584B000AF78600A00BB1CBB
:105530001A800E23FB1800221A800DE07B681B786E
:10554000180000F0EFFA7B6801337B600E22BB1875
:10555000BA18128801321A800E23FA18BB1C12885E
:105560001B889A42EAD3C046C046BD4604B080BDFF
:1055700080B500AF054B1868044B9B8801221900C9
:10558000FCF729F9C046BD4680BDC0462C06002068
:1055900090B585B000AF0200FB1D1A703B2000F0F3
:1055A00099FAFB1D1B78180000F0BCFA00F0CCFA49
:1055B00003001A000E243B191A8000F0C5FA0300FC
:1055C0009BB21B0299B23B193A1912888A181A80A9
:1055D000064B1868054B9B8801221900FCF7FBF865
:1055E0003B191B881800BD4605B090BD2C06002055
:1055F00080B582B000AF0200FB1D1A702E2000F0B3
:1056000069FAFB1D1B78180000F08CFA054B18682E
:10561000044B9B8801221900FCF7DDF8C046BD460B
:1056200002B080BD2C06002080B584B000AF3A6087
:10563000FB1D021C1A703B1D0A1C1A803B1D1B8897
:10564000002B3CD03C2000F045FAFB1D1B781800D5
:1056500000F068FA3B1D1B88DBB2180000F062FA0C
:105660003B1D1B881B0A9BB2DBB2180000F05AFAE4
:10567000012000F0ADFA0E23FB1800221A800EE084
:1056800000F062FA03001A003B681A703B680133AD
:105690003B600E217B181A887B1801321A800E237A
:1056A000FA183B1D12881B889A42E9D3064B1868EA
:1056B000054B9B8801221900FCF78DF800E0C046DD
:1056C000BD4604B080BDC0462C060020B0B584B0F5
:1056D00000AF0200FB1D1A700F23FB1800221A7086
:1056E0000E23FB1800221A70352000F0F3F9FB1D81
:1056F0001B78180000F016FA134B1868124B9B88A1
:1057000001221900FCF767F80520FBF7BDF90E250B
:105710007C19FFF745FD030023707B191B78102BC4
:1057200009D10F22BB181B78BA18591C1170C82B4D
:10573000EAD9FA2303E0C0460E23FB181B781800B1
:10574000BD4604B0B0BDC0462C060020B0B584B044
:1057500000AF0200FB1D1A700F23FB1800221A7005
:105760000E23FB1800221A70362000F0B3F9FB1D3F
:105770001B78180000F0D6F9134B1868124B9B8861
:1057800001221900FCF727F80520FBF77DF90E250B
:105790007C19FFF705FD030023707B191B78102B84
:1057A00009D10F22BB181B78BA18591C1170C82BCD
:1057B000EAD9FA2303E0C0460E23FB181B78180031
:1057C000BD4604B0B0BDC0462C060020B0B584B0C4
:1057D00000AF0200FB1D1A700F23FB1800221A7085
:1057E0000E23FB1800221A70382000F073F9FB1DFD
:1057F0001B78180000F096F9134B1868124B9B8821
:1058000001221900FBF7E7FF0520FBF73DF90E2504
:105810007C19FFF7C5FC030023707B191B78102B44
:1058200009D10F22BB181B78BA18591C1170C82B4C
:10583000EAD9FA2303E0C0460E23FB181B781800B0
:10584000BD4604B0B0BDC0462C060020B0B584B043
:1058500000AF0200FB1D1A70302000F03BF9FB1D69
:105860001B78180000F05EF9022000F0B1F90F2556
:105870007C1900F069F903002370074B1868064B88
:105880009B8801221900FBF7A6FF7B191B781800E3
:10589000BD4604B0B0BDC0462C060020B0B584B0F3
:1058A00000AF0200FB1D1A700F23FB1800221A70B4
:1058B000412000F00FF9FB1D1B78180000F032F9B1
:1058C000134B1868124B9B8801221900FBF783FFCA
:1058D0001420FBF7D9F80E257C19FFF761FC0300B3
:1058E00023707B191B78102B09D10F22BB181B7852
:1058F000BA18591C1170C82BEAD9FA2303E0C04624
:105900000E23FB181B781800BD4604B0B0BDC0467E
:105910002C06002090B583B000AF422000F0DAF8EA
:10592000FC1D00F011F903002370074B1868064BAB
:105930009B8801221900FBF74EFFFB1D1B78180006
:10594000BD4603B090BDC0462C06002090B585B082
:1059500000AF7860432000F0BDF80F23FB18002251
:105960001A700CE07C68631C7B6000F0EDF80300AB
:1059700023700F217B181A787B1801321A700F23BD
:10598000FB181B78132BEDD9054B1868044B9B882B
:1059900001221900FBF71FFFC046BD4605B090BDB0
:1059A0002C06002090B583B000AF04000800110061
:1059B000FB1D221C1A70BB1D021C1A707B1D0A1CC9
:1059C0001A70522000F086F8FB1D1B78180000F0BA
:1059D000A9F8BB1D1B78180000F0A4F87B1D1B78EC
:1059E000180000F09FF8C046BD4603B090BD90B5CA
:1059F00083B000AF040008001100FB1D221C1A70C8
:105A0000BB1D021C1A707B1D0A1C1A70532000F06B
:105A100061F8FB1D1B78180000F084F8BB1D1B7893
:105A2000180000F07FF87B1D1B78180000F07AF852
:105A3000C046BD4603B090BD80B582B000AF78606F
:105A4000552000F047F87B68DBB2180000F06AF8D8
:105A50007B689BB21B0A9BB2DBB2180000F062F8B5
:105A60007B681B0CDBB2180000F05CF87B681B0E37
:105A7000DBB2180000F056F8C046BD4602B080BD4B
:105A800080B582B000AF192000F024F8022000F0A9
:105A90009FF800F059F803001A00BB1D1A8000F0AF
:105AA00053F803009BB21B0299B2BB1DBA1D1288AA
:105AB0008A181A80064B1868054B9B88012219002A
:105AC000FBF789FEBB1D1B881800BD4602B080BDD8
:105AD0002C06002080B582B000AF0200FB1D1A70BA
